{
	"Наследование, конструкторы, super, override, virtual.sol": {
		"MyContract": {
			"abi": [
				{
					"inputs": [
						{
							"internalType": "address",
							"name": "_owner",
							"type": "address"
						}
					],
					"stateMutability": "nonpayable",
					"type": "constructor"
				},
				{
					"inputs": [],
					"name": "getBalance",
					"outputs": [
						{
							"internalType": "uint256",
							"name": "",
							"type": "uint256"
						}
					],
					"stateMutability": "view",
					"type": "function"
				},
				{
					"inputs": [],
					"name": "owner",
					"outputs": [
						{
							"internalType": "address",
							"name": "",
							"type": "address"
						}
					],
					"stateMutability": "view",
					"type": "function"
				},
				{
					"inputs": [
						{
							"internalType": "address payable",
							"name": "_to",
							"type": "address"
						}
					],
					"name": "withdraw",
					"outputs": [],
					"stateMutability": "nonpayable",
					"type": "function"
				}
			],
			"devdoc": {
				"kind": "dev",
				"methods": {},
				"version": 1
			},
			"evm": {
				"assembly": "    /* \"\\xd0\\x9d\\xd0\\xb0\\xd1\\x81\\xd0\\xbb\\xd0\\xb5\\xd0\\xb4\\xd0\\xbe\\xd0\\xb2\\xd0\\xb0\\xd0\\xbd\\xd0\\xb8\\xd0\\xb5, \\xd0\\xba\\xd0\\xbe\\xd0\\xbd\\xd1\\x81\\xd1\\x82\\xd1\\x80\\xd1\\x83\\xd0\\xba\\xd1\\x82\\xd0\\xbe\\xd1\\x80\\xd1\\x8b, super, override, virtual.sol\":971:1782  contract MyContract is Ownable, Balances {... */\n  mstore(0x40, 0x80)\n    /* \"\\xd0\\x9d\\xd0\\xb0\\xd1\\x81\\xd0\\xbb\\xd0\\xb5\\xd0\\xb4\\xd0\\xbe\\xd0\\xb2\\xd0\\xb0\\xd0\\xbd\\xd0\\xb8\\xd0\\xb5, \\xd0\\xba\\xd0\\xbe\\xd0\\xbd\\xd1\\x81\\xd1\\x82\\xd1\\x80\\xd1\\x83\\xd0\\xba\\xd1\\x82\\xd0\\xbe\\xd1\\x80\\xd1\\x8b, super, override, virtual.sol\":1019:1095  constructor(address _owner) Ownable(_owner){... */\n  callvalue\n  dup1\n  iszero\n  tag_1\n  jumpi\n  0x00\n  dup1\n  revert\ntag_1:\n  pop\n  mload(0x40)\n  sub(codesize, bytecodeSize)\n  dup1\n  bytecodeSize\n  dup4\n  codecopy\n  dup2\n  dup2\n  add\n  0x40\n  mstore\n  dup2\n  add\n  swap1\n  tag_2\n  swap2\n  swap1\n  tag_3\n  jump\t// in\ntag_2:\n    /* \"\\xd0\\x9d\\xd0\\xb0\\xd1\\x81\\xd0\\xbb\\xd0\\xb5\\xd0\\xb4\\xd0\\xbe\\xd0\\xb2\\xd0\\xb0\\xd0\\xbd\\xd0\\xb8\\xd0\\xb5, \\xd0\\xba\\xd0\\xbe\\xd0\\xbd\\xd1\\x81\\xd1\\x82\\xd1\\x80\\xd1\\x83\\xd0\\xba\\xd1\\x82\\xd0\\xbe\\xd1\\x80\\xd1\\x8b, super, override, virtual.sol\":1055:1061  _owner */\n  dup1\n    /* \"\\xd0\\x9d\\xd0\\xb0\\xd1\\x81\\xd0\\xbb\\xd0\\xb5\\xd0\\xb4\\xd0\\xbe\\xd0\\xb2\\xd0\\xb0\\xd0\\xbd\\xd0\\xb8\\xd0\\xb5, \\xd0\\xba\\xd0\\xbe\\xd0\\xbd\\xd1\\x81\\xd1\\x82\\xd1\\x80\\xd1\\x83\\xd0\\xba\\xd1\\x82\\xd0\\xbe\\xd1\\x80\\xd1\\x8b, super, override, virtual.sol\":192:193  0 */\n  0x00\n    /* \"\\xd0\\x9d\\xd0\\xb0\\xd1\\x81\\xd0\\xbb\\xd0\\xb5\\xd0\\xb4\\xd0\\xbe\\xd0\\xb2\\xd0\\xb0\\xd0\\xbd\\xd0\\xb8\\xd0\\xb5, \\xd0\\xba\\xd0\\xbe\\xd0\\xbd\\xd1\\x81\\xd1\\x82\\xd1\\x80\\xd1\\x83\\xd0\\xba\\xd1\\x82\\xd0\\xbe\\xd1\\x80\\xd1\\x8b, super, override, virtual.sol\":167:194  ownerOverride == address(0) */\n  0xffffffffffffffffffffffffffffffffffffffff\n  and\n    /* \"\\xd0\\x9d\\xd0\\xb0\\xd1\\x81\\xd0\\xbb\\xd0\\xb5\\xd0\\xb4\\xd0\\xbe\\xd0\\xb2\\xd0\\xb0\\xd0\\xbd\\xd0\\xb8\\xd0\\xb5, \\xd0\\xba\\xd0\\xbe\\xd0\\xbd\\xd1\\x81\\xd1\\x82\\xd1\\x80\\xd1\\x83\\xd0\\xba\\xd1\\x82\\xd0\\xbe\\xd1\\x80\\xd1\\x8b, super, override, virtual.sol\":167:180  ownerOverride */\n  dup2\n    /* \"\\xd0\\x9d\\xd0\\xb0\\xd1\\x81\\xd0\\xbb\\xd0\\xb5\\xd0\\xb4\\xd0\\xbe\\xd0\\xb2\\xd0\\xb0\\xd0\\xbd\\xd0\\xb8\\xd0\\xb5, \\xd0\\xba\\xd0\\xbe\\xd0\\xbd\\xd1\\x81\\xd1\\x82\\xd1\\x80\\xd1\\x83\\xd0\\xba\\xd1\\x82\\xd0\\xbe\\xd1\\x80\\xd1\\x8b, super, override, virtual.sol\":167:194  ownerOverride == address(0) */\n  0xffffffffffffffffffffffffffffffffffffffff\n  and\n  eq\n    /* \"\\xd0\\x9d\\xd0\\xb0\\xd1\\x81\\xd0\\xbb\\xd0\\xb5\\xd0\\xb4\\xd0\\xbe\\xd0\\xb2\\xd0\\xb0\\xd0\\xbd\\xd0\\xb8\\xd0\\xb5, \\xd0\\xba\\xd0\\xbe\\xd0\\xbd\\xd1\\x81\\xd1\\x82\\xd1\\x80\\xd1\\x83\\xd0\\xba\\xd1\\x82\\xd0\\xbe\\xd1\\x80\\xd1\\x8b, super, override, virtual.sol\":167:223  ownerOverride == address(0) ? msg.sender : ownerOverride */\n  tag_7\n  jumpi\n    /* \"\\xd0\\x9d\\xd0\\xb0\\xd1\\x81\\xd0\\xbb\\xd0\\xb5\\xd0\\xb4\\xd0\\xbe\\xd0\\xb2\\xd0\\xb0\\xd0\\xbd\\xd0\\xb8\\xd0\\xb5, \\xd0\\xba\\xd0\\xbe\\xd0\\xbd\\xd1\\x81\\xd1\\x82\\xd1\\x80\\xd1\\x83\\xd0\\xba\\xd1\\x82\\xd0\\xbe\\xd1\\x80\\xd1\\x8b, super, override, virtual.sol\":210:223  ownerOverride */\n  dup1\n    /* \"\\xd0\\x9d\\xd0\\xb0\\xd1\\x81\\xd0\\xbb\\xd0\\xb5\\xd0\\xb4\\xd0\\xbe\\xd0\\xb2\\xd0\\xb0\\xd0\\xbd\\xd0\\xb8\\xd0\\xb5, \\xd0\\xba\\xd0\\xbe\\xd0\\xbd\\xd1\\x81\\xd1\\x82\\xd1\\x80\\xd1\\x83\\xd0\\xba\\xd1\\x82\\xd0\\xbe\\xd1\\x80\\xd1\\x8b, super, override, virtual.sol\":167:223  ownerOverride == address(0) ? msg.sender : ownerOverride */\n  jump(tag_8)\ntag_7:\n    /* \"\\xd0\\x9d\\xd0\\xb0\\xd1\\x81\\xd0\\xbb\\xd0\\xb5\\xd0\\xb4\\xd0\\xbe\\xd0\\xb2\\xd0\\xb0\\xd0\\xbd\\xd0\\xb8\\xd0\\xb5, \\xd0\\xba\\xd0\\xbe\\xd0\\xbd\\xd1\\x81\\xd1\\x82\\xd1\\x80\\xd1\\x83\\xd0\\xba\\xd1\\x82\\xd0\\xbe\\xd1\\x80\\xd1\\x8b, super, override, virtual.sol\":197:207  msg.sender */\n  caller\n    /* \"\\xd0\\x9d\\xd0\\xb0\\xd1\\x81\\xd0\\xbb\\xd0\\xb5\\xd0\\xb4\\xd0\\xbe\\xd0\\xb2\\xd0\\xb0\\xd0\\xbd\\xd0\\xb8\\xd0\\xb5, \\xd0\\xba\\xd0\\xbe\\xd0\\xbd\\xd1\\x81\\xd1\\x82\\xd1\\x80\\xd1\\x83\\xd0\\xba\\xd1\\x82\\xd0\\xbe\\xd1\\x80\\xd1\\x8b, super, override, virtual.sol\":167:223  ownerOverride == address(0) ? msg.sender : ownerOverride */\ntag_8:\n    /* \"\\xd0\\x9d\\xd0\\xb0\\xd1\\x81\\xd0\\xbb\\xd0\\xb5\\xd0\\xb4\\xd0\\xbe\\xd0\\xb2\\xd0\\xb0\\xd0\\xbd\\xd0\\xb8\\xd0\\xb5, \\xd0\\xba\\xd0\\xbe\\xd0\\xbd\\xd1\\x81\\xd1\\x82\\xd1\\x80\\xd1\\x83\\xd0\\xba\\xd1\\x82\\xd0\\xbe\\xd1\\x80\\xd1\\x8b, super, override, virtual.sol\":159:164  owner */\n  0x00\n  dup1\n    /* \"\\xd0\\x9d\\xd0\\xb0\\xd1\\x81\\xd0\\xbb\\xd0\\xb5\\xd0\\xb4\\xd0\\xbe\\xd0\\xb2\\xd0\\xb0\\xd0\\xbd\\xd0\\xb8\\xd0\\xb5, \\xd0\\xba\\xd0\\xbe\\xd0\\xbd\\xd1\\x81\\xd1\\x82\\xd1\\x80\\xd1\\x83\\xd0\\xba\\xd1\\x82\\xd0\\xbe\\xd1\\x80\\xd1\\x8b, super, override, virtual.sol\":159:223  owner = ownerOverride == address(0) ? msg.sender : ownerOverride */\n  0x0100\n  exp\n  dup2\n  sload\n  dup2\n  0xffffffffffffffffffffffffffffffffffffffff\n  mul\n  not\n  and\n  swap1\n  dup4\n  0xffffffffffffffffffffffffffffffffffffffff\n  and\n  mul\n  or\n  swap1\n  sstore\n  pop\n    /* \"\\xd0\\x9d\\xd0\\xb0\\xd1\\x81\\xd0\\xbb\\xd0\\xb5\\xd0\\xb4\\xd0\\xbe\\xd0\\xb2\\xd0\\xb0\\xd0\\xbd\\xd0\\xb8\\xd0\\xb5, \\xd0\\xba\\xd0\\xbe\\xd0\\xbd\\xd1\\x81\\xd1\\x82\\xd1\\x80\\xd1\\x83\\xd0\\xba\\xd1\\x82\\xd0\\xbe\\xd1\\x80\\xd1\\x8b, super, override, virtual.sol\":113:231  constructor(address ownerOverride) {... */\n  pop\n    /* \"\\xd0\\x9d\\xd0\\xb0\\xd1\\x81\\xd0\\xbb\\xd0\\xb5\\xd0\\xb4\\xd0\\xbe\\xd0\\xb2\\xd0\\xb0\\xd0\\xbd\\xd0\\xb8\\xd0\\xb5, \\xd0\\xba\\xd0\\xbe\\xd0\\xbd\\xd1\\x81\\xd1\\x82\\xd1\\x80\\xd1\\x83\\xd0\\xba\\xd1\\x82\\xd0\\xbe\\xd1\\x80\\xd1\\x8b, super, override, virtual.sol\":1081:1087  _owner */\n  dup1\n    /* \"\\xd0\\x9d\\xd0\\xb0\\xd1\\x81\\xd0\\xbb\\xd0\\xb5\\xd0\\xb4\\xd0\\xbe\\xd0\\xb2\\xd0\\xb0\\xd0\\xbd\\xd0\\xb8\\xd0\\xb5, \\xd0\\xba\\xd0\\xbe\\xd0\\xbd\\xd1\\x81\\xd1\\x82\\xd1\\x80\\xd1\\x83\\xd0\\xba\\xd1\\x82\\xd0\\xbe\\xd1\\x80\\xd1\\x8b, super, override, virtual.sol\":1073:1078  owner */\n  0x00\n  dup1\n    /* \"\\xd0\\x9d\\xd0\\xb0\\xd1\\x81\\xd0\\xbb\\xd0\\xb5\\xd0\\xb4\\xd0\\xbe\\xd0\\xb2\\xd0\\xb0\\xd0\\xbd\\xd0\\xb8\\xd0\\xb5, \\xd0\\xba\\xd0\\xbe\\xd0\\xbd\\xd1\\x81\\xd1\\x82\\xd1\\x80\\xd1\\x83\\xd0\\xba\\xd1\\x82\\xd0\\xbe\\xd1\\x80\\xd1\\x8b, super, override, virtual.sol\":1073:1087  owner = _owner */\n  0x0100\n  exp\n  dup2\n  sload\n  dup2\n  0xffffffffffffffffffffffffffffffffffffffff\n  mul\n  not\n  and\n  swap1\n  dup4\n  0xffffffffffffffffffffffffffffffffffffffff\n  and\n  mul\n  or\n  swap1\n  sstore\n  pop\n    /* \"\\xd0\\x9d\\xd0\\xb0\\xd1\\x81\\xd0\\xbb\\xd0\\xb5\\xd0\\xb4\\xd0\\xbe\\xd0\\xb2\\xd0\\xb0\\xd0\\xbd\\xd0\\xb8\\xd0\\xb5, \\xd0\\xba\\xd0\\xbe\\xd0\\xbd\\xd1\\x81\\xd1\\x82\\xd1\\x80\\xd1\\x83\\xd0\\xba\\xd1\\x82\\xd0\\xbe\\xd1\\x80\\xd1\\x8b, super, override, virtual.sol\":1019:1095  constructor(address _owner) Ownable(_owner){... */\n  pop\n    /* \"\\xd0\\x9d\\xd0\\xb0\\xd1\\x81\\xd0\\xbb\\xd0\\xb5\\xd0\\xb4\\xd0\\xbe\\xd0\\xb2\\xd0\\xb0\\xd0\\xbd\\xd0\\xb8\\xd0\\xb5, \\xd0\\xba\\xd0\\xbe\\xd0\\xbd\\xd1\\x81\\xd1\\x82\\xd1\\x80\\xd1\\x83\\xd0\\xba\\xd1\\x82\\xd0\\xbe\\xd1\\x80\\xd1\\x8b, super, override, virtual.sol\":971:1782  contract MyContract is Ownable, Balances {... */\n  jump(tag_10)\n    /* \"#utility.yul\":88:205   */\ntag_12:\n    /* \"#utility.yul\":197:198   */\n  0x00\n    /* \"#utility.yul\":194:195   */\n  dup1\n    /* \"#utility.yul\":187:199   */\n  revert\n    /* \"#utility.yul\":334:460   */\ntag_14:\n    /* \"#utility.yul\":371:378   */\n  0x00\n    /* \"#utility.yul\":411:453   */\n  0xffffffffffffffffffffffffffffffffffffffff\n    /* \"#utility.yul\":404:409   */\n  dup3\n    /* \"#utility.yul\":400:454   */\n  and\n    /* \"#utility.yul\":389:454   */\n  swap1\n  pop\n    /* \"#utility.yul\":334:460   */\n  swap2\n  swap1\n  pop\n  jump\t// out\n    /* \"#utility.yul\":466:562   */\ntag_15:\n    /* \"#utility.yul\":503:510   */\n  0x00\n    /* \"#utility.yul\":532:556   */\n  tag_24\n    /* \"#utility.yul\":550:555   */\n  dup3\n    /* \"#utility.yul\":532:556   */\n  tag_14\n  jump\t// in\ntag_24:\n    /* \"#utility.yul\":521:556   */\n  swap1\n  pop\n    /* \"#utility.yul\":466:562   */\n  swap2\n  swap1\n  pop\n  jump\t// out\n    /* \"#utility.yul\":568:690   */\ntag_16:\n    /* \"#utility.yul\":641:665   */\n  tag_26\n    /* \"#utility.yul\":659:664   */\n  dup2\n    /* \"#utility.yul\":641:665   */\n  tag_15\n  jump\t// in\ntag_26:\n    /* \"#utility.yul\":634:639   */\n  dup2\n    /* \"#utility.yul\":631:666   */\n  eq\n    /* \"#utility.yul\":621:684   */\n  tag_27\n  jumpi\n    /* \"#utility.yul\":680:681   */\n  0x00\n    /* \"#utility.yul\":677:678   */\n  dup1\n    /* \"#utility.yul\":670:682   */\n  revert\n    /* \"#utility.yul\":621:684   */\ntag_27:\n    /* \"#utility.yul\":568:690   */\n  pop\n  jump\t// out\n    /* \"#utility.yul\":696:839   */\ntag_17:\n    /* \"#utility.yul\":753:758   */\n  0x00\n    /* \"#utility.yul\":784:790   */\n  dup2\n    /* \"#utility.yul\":778:791   */\n  mload\n    /* \"#utility.yul\":769:791   */\n  swap1\n  pop\n    /* \"#utility.yul\":800:833   */\n  tag_29\n    /* \"#utility.yul\":827:832   */\n  dup2\n    /* \"#utility.yul\":800:833   */\n  tag_16\n  jump\t// in\ntag_29:\n    /* \"#utility.yul\":696:839   */\n  swap3\n  swap2\n  pop\n  pop\n  jump\t// out\n    /* \"#utility.yul\":845:1196   */\ntag_3:\n    /* \"#utility.yul\":915:921   */\n  0x00\n    /* \"#utility.yul\":964:966   */\n  0x20\n    /* \"#utility.yul\":952:961   */\n  dup3\n    /* \"#utility.yul\":943:950   */\n  dup5\n    /* \"#utility.yul\":939:962   */\n  sub\n    /* \"#utility.yul\":935:967   */\n  slt\n    /* \"#utility.yul\":932:1051   */\n  iszero\n  tag_31\n  jumpi\n    /* \"#utility.yul\":970:1049   */\n  tag_32\n  tag_12\n  jump\t// in\ntag_32:\n    /* \"#utility.yul\":932:1051   */\ntag_31:\n    /* \"#utility.yul\":1090:1091   */\n  0x00\n    /* \"#utility.yul\":1115:1179   */\n  tag_33\n    /* \"#utility.yul\":1171:1178   */\n  dup5\n    /* \"#utility.yul\":1162:1168   */\n  dup3\n    /* \"#utility.yul\":1151:1160   */\n  dup6\n    /* \"#utility.yul\":1147:1169   */\n  add\n    /* \"#utility.yul\":1115:1179   */\n  tag_17\n  jump\t// in\ntag_33:\n    /* \"#utility.yul\":1105:1179   */\n  swap2\n  pop\n    /* \"#utility.yul\":1061:1189   */\n  pop\n    /* \"#utility.yul\":845:1196   */\n  swap3\n  swap2\n  pop\n  pop\n  jump\t// out\n    /* \"\\xd0\\x9d\\xd0\\xb0\\xd1\\x81\\xd0\\xbb\\xd0\\xb5\\xd0\\xb4\\xd0\\xbe\\xd0\\xb2\\xd0\\xb0\\xd0\\xbd\\xd0\\xb8\\xd0\\xb5, \\xd0\\xba\\xd0\\xbe\\xd0\\xbd\\xd1\\x81\\xd1\\x82\\xd1\\x80\\xd1\\x83\\xd0\\xba\\xd1\\x82\\xd0\\xbe\\xd1\\x80\\xd1\\x8b, super, override, virtual.sol\":971:1782  contract MyContract is Ownable, Balances {... */\ntag_10:\n  dataSize(sub_0)\n  dup1\n  dataOffset(sub_0)\n  0x00\n  codecopy\n  0x00\n  return\nstop\n\nsub_0: assembly {\n        /* \"\\xd0\\x9d\\xd0\\xb0\\xd1\\x81\\xd0\\xbb\\xd0\\xb5\\xd0\\xb4\\xd0\\xbe\\xd0\\xb2\\xd0\\xb0\\xd0\\xbd\\xd0\\xb8\\xd0\\xb5, \\xd0\\xba\\xd0\\xbe\\xd0\\xbd\\xd1\\x81\\xd1\\x82\\xd1\\x80\\xd1\\x83\\xd0\\xba\\xd1\\x82\\xd0\\xbe\\xd1\\x80\\xd1\\x8b, super, override, virtual.sol\":971:1782  contract MyContract is Ownable, Balances {... */\n      mstore(0x40, 0x80)\n      callvalue\n      dup1\n      iszero\n      tag_1\n      jumpi\n      0x00\n      dup1\n      revert\n    tag_1:\n      pop\n      jumpi(tag_2, lt(calldatasize, 0x04))\n      shr(0xe0, calldataload(0x00))\n      dup1\n      0x12065fe0\n      eq\n      tag_3\n      jumpi\n      dup1\n      0x51cff8d9\n      eq\n      tag_4\n      jumpi\n      dup1\n      0x8da5cb5b\n      eq\n      tag_5\n      jumpi\n    tag_2:\n      0x00\n      dup1\n      revert\n        /* \"\\xd0\\x9d\\xd0\\xb0\\xd1\\x81\\xd0\\xbb\\xd0\\xb5\\xd0\\xb4\\xd0\\xbe\\xd0\\xb2\\xd0\\xb0\\xd0\\xbd\\xd0\\xb8\\xd0\\xb5, \\xd0\\xba\\xd0\\xbe\\xd0\\xbd\\xd1\\x81\\xd1\\x82\\xd1\\x80\\xd1\\x83\\xd0\\xba\\xd1\\x82\\xd0\\xbe\\xd1\\x80\\xd1\\x8b, super, override, virtual.sol\":612:706  function getBalance() public view returns(uint){... */\n    tag_3:\n      tag_6\n      tag_7\n      jump\t// in\n    tag_6:\n      mload(0x40)\n      tag_8\n      swap2\n      swap1\n      tag_9\n      jump\t// in\n    tag_8:\n      mload(0x40)\n      dup1\n      swap2\n      sub\n      swap1\n      return\n        /* \"\\xd0\\x9d\\xd0\\xb0\\xd1\\x81\\xd0\\xbb\\xd0\\xb5\\xd0\\xb4\\xd0\\xbe\\xd0\\xb2\\xd0\\xb0\\xd0\\xbd\\xd0\\xb8\\xd0\\xb5, \\xd0\\xba\\xd0\\xbe\\xd0\\xbd\\xd1\\x81\\xd1\\x82\\xd1\\x80\\xd1\\x83\\xd0\\xba\\xd1\\x82\\xd0\\xbe\\xd1\\x80\\xd1\\x8b, super, override, virtual.sol\":1304:1779  function withdraw(address payable _to) public override(Ownable, Balances) onlyOwner{... */\n    tag_4:\n      tag_10\n      0x04\n      dup1\n      calldatasize\n      sub\n      dup2\n      add\n      swap1\n      tag_11\n      swap2\n      swap1\n      tag_12\n      jump\t// in\n    tag_11:\n      tag_13\n      jump\t// in\n    tag_10:\n      stop\n        /* \"\\xd0\\x9d\\xd0\\xb0\\xd1\\x81\\xd0\\xbb\\xd0\\xb5\\xd0\\xb4\\xd0\\xbe\\xd0\\xb2\\xd0\\xb0\\xd0\\xbd\\xd0\\xb8\\xd0\\xb5, \\xd0\\xba\\xd0\\xbe\\xd0\\xbd\\xd1\\x81\\xd1\\x82\\xd1\\x80\\xd1\\x83\\xd0\\xba\\xd1\\x82\\xd0\\xbe\\xd1\\x80\\xd1\\x8b, super, override, virtual.sol\":84:104  address public owner */\n    tag_5:\n      tag_14\n      tag_15\n      jump\t// in\n    tag_14:\n      mload(0x40)\n      tag_16\n      swap2\n      swap1\n      tag_17\n      jump\t// in\n    tag_16:\n      mload(0x40)\n      dup1\n      swap2\n      sub\n      swap1\n      return\n        /* \"\\xd0\\x9d\\xd0\\xb0\\xd1\\x81\\xd0\\xbb\\xd0\\xb5\\xd0\\xb4\\xd0\\xbe\\xd0\\xb2\\xd0\\xb0\\xd0\\xbd\\xd0\\xb8\\xd0\\xb5, \\xd0\\xba\\xd0\\xbe\\xd0\\xbd\\xd1\\x81\\xd1\\x82\\xd1\\x80\\xd1\\x83\\xd0\\xba\\xd1\\x82\\xd0\\xbe\\xd1\\x80\\xd1\\x8b, super, override, virtual.sol\":612:706  function getBalance() public view returns(uint){... */\n    tag_7:\n        /* \"\\xd0\\x9d\\xd0\\xb0\\xd1\\x81\\xd0\\xbb\\xd0\\xb5\\xd0\\xb4\\xd0\\xbe\\xd0\\xb2\\xd0\\xb0\\xd0\\xbd\\xd0\\xb8\\xd0\\xb5, \\xd0\\xba\\xd0\\xbe\\xd0\\xbd\\xd1\\x81\\xd1\\x82\\xd1\\x80\\xd1\\x83\\xd0\\xba\\xd1\\x82\\xd0\\xbe\\xd1\\x80\\xd1\\x8b, super, override, virtual.sol\":654:658  uint */\n      0x00\n        /* \"\\xd0\\x9d\\xd0\\xb0\\xd1\\x81\\xd0\\xbb\\xd0\\xb5\\xd0\\xb4\\xd0\\xbe\\xd0\\xb2\\xd0\\xb0\\xd0\\xbd\\xd0\\xb8\\xd0\\xb5, \\xd0\\xba\\xd0\\xbe\\xd0\\xbd\\xd1\\x81\\xd1\\x82\\xd1\\x80\\xd1\\x83\\xd0\\xba\\xd1\\x82\\xd0\\xbe\\xd1\\x80\\xd1\\x8b, super, override, virtual.sol\":677:698  address(this).balance */\n      selfbalance\n        /* \"\\xd0\\x9d\\xd0\\xb0\\xd1\\x81\\xd0\\xbb\\xd0\\xb5\\xd0\\xb4\\xd0\\xbe\\xd0\\xb2\\xd0\\xb0\\xd0\\xbd\\xd0\\xb8\\xd0\\xb5, \\xd0\\xba\\xd0\\xbe\\xd0\\xbd\\xd1\\x81\\xd1\\x82\\xd1\\x80\\xd1\\x83\\xd0\\xba\\xd1\\x82\\xd0\\xbe\\xd1\\x80\\xd1\\x8b, super, override, virtual.sol\":670:698  return address(this).balance */\n      swap1\n      pop\n        /* \"\\xd0\\x9d\\xd0\\xb0\\xd1\\x81\\xd0\\xbb\\xd0\\xb5\\xd0\\xb4\\xd0\\xbe\\xd0\\xb2\\xd0\\xb0\\xd0\\xbd\\xd0\\xb8\\xd0\\xb5, \\xd0\\xba\\xd0\\xbe\\xd0\\xbd\\xd1\\x81\\xd1\\x82\\xd1\\x80\\xd1\\x83\\xd0\\xba\\xd1\\x82\\xd0\\xbe\\xd1\\x80\\xd1\\x8b, super, override, virtual.sol\":612:706  function getBalance() public view returns(uint){... */\n      swap1\n      jump\t// out\n        /* \"\\xd0\\x9d\\xd0\\xb0\\xd1\\x81\\xd0\\xbb\\xd0\\xb5\\xd0\\xb4\\xd0\\xbe\\xd0\\xb2\\xd0\\xb0\\xd0\\xbd\\xd0\\xb8\\xd0\\xb5, \\xd0\\xba\\xd0\\xbe\\xd0\\xbd\\xd1\\x81\\xd1\\x82\\xd1\\x80\\xd1\\x83\\xd0\\xba\\xd1\\x82\\xd0\\xbe\\xd1\\x80\\xd1\\x8b, super, override, virtual.sol\":1304:1779  function withdraw(address payable _to) public override(Ownable, Balances) onlyOwner{... */\n    tag_13:\n        /* \"\\xd0\\x9d\\xd0\\xb0\\xd1\\x81\\xd0\\xbb\\xd0\\xb5\\xd0\\xb4\\xd0\\xbe\\xd0\\xb2\\xd0\\xb0\\xd0\\xbd\\xd0\\xb8\\xd0\\xb5, \\xd0\\xba\\xd0\\xbe\\xd0\\xbd\\xd1\\x81\\xd1\\x82\\xd1\\x80\\xd1\\x83\\xd0\\xba\\xd1\\x82\\xd0\\xbe\\xd1\\x80\\xd1\\x8b, super, override, virtual.sol\":288:298  msg.sender */\n      caller\n        /* \"\\xd0\\x9d\\xd0\\xb0\\xd1\\x81\\xd0\\xbb\\xd0\\xb5\\xd0\\xb4\\xd0\\xbe\\xd0\\xb2\\xd0\\xb0\\xd0\\xbd\\xd0\\xb8\\xd0\\xb5, \\xd0\\xba\\xd0\\xbe\\xd0\\xbd\\xd1\\x81\\xd1\\x82\\xd1\\x80\\xd1\\x83\\xd0\\xba\\xd1\\x82\\xd0\\xbe\\xd1\\x80\\xd1\\x8b, super, override, virtual.sol\":279:298  owner == msg.sender */\n      0xffffffffffffffffffffffffffffffffffffffff\n      and\n        /* \"\\xd0\\x9d\\xd0\\xb0\\xd1\\x81\\xd0\\xbb\\xd0\\xb5\\xd0\\xb4\\xd0\\xbe\\xd0\\xb2\\xd0\\xb0\\xd0\\xbd\\xd0\\xb8\\xd0\\xb5, \\xd0\\xba\\xd0\\xbe\\xd0\\xbd\\xd1\\x81\\xd1\\x82\\xd1\\x80\\xd1\\x83\\xd0\\xba\\xd1\\x82\\xd0\\xbe\\xd1\\x80\\xd1\\x8b, super, override, virtual.sol\":279:284  owner */\n      0x00\n      dup1\n      sload\n      swap1\n      0x0100\n      exp\n      swap1\n      div\n      0xffffffffffffffffffffffffffffffffffffffff\n      and\n        /* \"\\xd0\\x9d\\xd0\\xb0\\xd1\\x81\\xd0\\xbb\\xd0\\xb5\\xd0\\xb4\\xd0\\xbe\\xd0\\xb2\\xd0\\xb0\\xd0\\xbd\\xd0\\xb8\\xd0\\xb5, \\xd0\\xba\\xd0\\xbe\\xd0\\xbd\\xd1\\x81\\xd1\\x82\\xd1\\x80\\xd1\\x83\\xd0\\xba\\xd1\\x82\\xd0\\xbe\\xd1\\x80\\xd1\\x8b, super, override, virtual.sol\":279:298  owner == msg.sender */\n      0xffffffffffffffffffffffffffffffffffffffff\n      and\n      eq\n        /* \"\\xd0\\x9d\\xd0\\xb0\\xd1\\x81\\xd0\\xbb\\xd0\\xb5\\xd0\\xb4\\xd0\\xbe\\xd0\\xb2\\xd0\\xb0\\xd0\\xbd\\xd0\\xb8\\xd0\\xb5, \\xd0\\xba\\xd0\\xbe\\xd0\\xbd\\xd1\\x81\\xd1\\x82\\xd1\\x80\\xd1\\x83\\xd0\\xba\\xd1\\x82\\xd0\\xbe\\xd1\\x80\\xd1\\x8b, super, override, virtual.sol\":271:316  require(owner == msg.sender, \"not an owner!\") */\n      tag_20\n      jumpi\n      mload(0x40)\n      0x08c379a000000000000000000000000000000000000000000000000000000000\n      dup2\n      mstore\n      0x04\n      add\n      tag_21\n      swap1\n      tag_22\n      jump\t// in\n    tag_21:\n      mload(0x40)\n      dup1\n      swap2\n      sub\n      swap1\n      revert\n    tag_20:\n        /* \"\\xd0\\x9d\\xd0\\xb0\\xd1\\x81\\xd0\\xbb\\xd0\\xb5\\xd0\\xb4\\xd0\\xbe\\xd0\\xb2\\xd0\\xb0\\xd0\\xbd\\xd0\\xb8\\xd0\\xb5, \\xd0\\xba\\xd0\\xbe\\xd0\\xbd\\xd1\\x81\\xd1\\x82\\xd1\\x80\\xd1\\x83\\xd0\\xba\\xd1\\x82\\xd0\\xbe\\xd1\\x80\\xd1\\x8b, super, override, virtual.sol\":1545:1546  0 */\n      0x00\n        /* \"\\xd0\\x9d\\xd0\\xb0\\xd1\\x81\\xd0\\xbb\\xd0\\xb5\\xd0\\xb4\\xd0\\xbe\\xd0\\xb2\\xd0\\xb0\\xd0\\xbd\\xd0\\xb8\\xd0\\xb5, \\xd0\\xba\\xd0\\xbe\\xd0\\xbd\\xd1\\x81\\xd1\\x82\\xd1\\x80\\xd1\\x83\\xd0\\xba\\xd1\\x82\\xd0\\xbe\\xd1\\x80\\xd1\\x8b, super, override, virtual.sol\":1530:1547  _to == address(0) */\n      0xffffffffffffffffffffffffffffffffffffffff\n      and\n        /* \"\\xd0\\x9d\\xd0\\xb0\\xd1\\x81\\xd0\\xbb\\xd0\\xb5\\xd0\\xb4\\xd0\\xbe\\xd0\\xb2\\xd0\\xb0\\xd0\\xbd\\xd0\\xb8\\xd0\\xb5, \\xd0\\xba\\xd0\\xbe\\xd0\\xbd\\xd1\\x81\\xd1\\x82\\xd1\\x80\\xd1\\x83\\xd0\\xba\\xd1\\x82\\xd0\\xbe\\xd1\\x80\\xd1\\x8b, super, override, virtual.sol\":1530:1533  _to */\n      dup2\n        /* \"\\xd0\\x9d\\xd0\\xb0\\xd1\\x81\\xd0\\xbb\\xd0\\xb5\\xd0\\xb4\\xd0\\xbe\\xd0\\xb2\\xd0\\xb0\\xd0\\xbd\\xd0\\xb8\\xd0\\xb5, \\xd0\\xba\\xd0\\xbe\\xd0\\xbd\\xd1\\x81\\xd1\\x82\\xd1\\x80\\xd1\\x83\\xd0\\xba\\xd1\\x82\\xd0\\xbe\\xd1\\x80\\xd1\\x8b, super, override, virtual.sol\":1530:1547  _to == address(0) */\n      0xffffffffffffffffffffffffffffffffffffffff\n      and\n      eq\n        /* \"\\xd0\\x9d\\xd0\\xb0\\xd1\\x81\\xd0\\xbb\\xd0\\xb5\\xd0\\xb4\\xd0\\xbe\\xd0\\xb2\\xd0\\xb0\\xd0\\xbd\\xd0\\xb8\\xd0\\xb5, \\xd0\\xba\\xd0\\xbe\\xd0\\xbd\\xd1\\x81\\xd1\\x82\\xd1\\x80\\xd1\\x83\\xd0\\xba\\xd1\\x82\\xd0\\xbe\\xd1\\x80\\xd1\\x8b, super, override, virtual.sol\":1522:1565  require(_to == address(0), \"zero address!\") */\n      tag_24\n      jumpi\n      mload(0x40)\n      0x08c379a000000000000000000000000000000000000000000000000000000000\n      dup2\n      mstore\n      0x04\n      add\n      tag_25\n      swap1\n      tag_26\n      jump\t// in\n    tag_25:\n      mload(0x40)\n      dup1\n      swap2\n      sub\n      swap1\n      revert\n    tag_24:\n        /* \"\\xd0\\x9d\\xd0\\xb0\\xd1\\x81\\xd0\\xbb\\xd0\\xb5\\xd0\\xb4\\xd0\\xbe\\xd0\\xb2\\xd0\\xb0\\xd0\\xbd\\xd0\\xb8\\xd0\\xb5, \\xd0\\xba\\xd0\\xbe\\xd0\\xbd\\xd1\\x81\\xd1\\x82\\xd1\\x80\\xd1\\x83\\xd0\\xba\\xd1\\x82\\xd0\\xbe\\xd1\\x80\\xd1\\x8b, super, override, virtual.sol\":1752:1771  super.withdraw(_to) */\n      tag_27\n        /* \"\\xd0\\x9d\\xd0\\xb0\\xd1\\x81\\xd0\\xbb\\xd0\\xb5\\xd0\\xb4\\xd0\\xbe\\xd0\\xb2\\xd0\\xb0\\xd0\\xbd\\xd0\\xb8\\xd0\\xb5, \\xd0\\xba\\xd0\\xbe\\xd0\\xbd\\xd1\\x81\\xd1\\x82\\xd1\\x80\\xd1\\x83\\xd0\\xba\\xd1\\x82\\xd0\\xbe\\xd1\\x80\\xd1\\x8b, super, override, virtual.sol\":1767:1770  _to */\n      dup2\n        /* \"\\xd0\\x9d\\xd0\\xb0\\xd1\\x81\\xd0\\xbb\\xd0\\xb5\\xd0\\xb4\\xd0\\xbe\\xd0\\xb2\\xd0\\xb0\\xd0\\xbd\\xd0\\xb8\\xd0\\xb5, \\xd0\\xba\\xd0\\xbe\\xd0\\xbd\\xd1\\x81\\xd1\\x82\\xd1\\x80\\xd1\\x83\\xd0\\xba\\xd1\\x82\\xd0\\xbe\\xd1\\x80\\xd1\\x8b, super, override, virtual.sol\":1752:1766  super.withdraw */\n      tag_28\n        /* \"\\xd0\\x9d\\xd0\\xb0\\xd1\\x81\\xd0\\xbb\\xd0\\xb5\\xd0\\xb4\\xd0\\xbe\\xd0\\xb2\\xd0\\xb0\\xd0\\xbd\\xd0\\xb8\\xd0\\xb5, \\xd0\\xba\\xd0\\xbe\\xd0\\xbd\\xd1\\x81\\xd1\\x82\\xd1\\x80\\xd1\\x83\\xd0\\xba\\xd1\\x82\\xd0\\xbe\\xd1\\x80\\xd1\\x8b, super, override, virtual.sol\":1752:1771  super.withdraw(_to) */\n      jump\t// in\n    tag_27:\n        /* \"\\xd0\\x9d\\xd0\\xb0\\xd1\\x81\\xd0\\xbb\\xd0\\xb5\\xd0\\xb4\\xd0\\xbe\\xd0\\xb2\\xd0\\xb0\\xd0\\xbd\\xd0\\xb8\\xd0\\xb5, \\xd0\\xba\\xd0\\xbe\\xd0\\xbd\\xd1\\x81\\xd1\\x82\\xd1\\x80\\xd1\\x83\\xd0\\xba\\xd1\\x82\\xd0\\xbe\\xd1\\x80\\xd1\\x8b, super, override, virtual.sol\":1304:1779  function withdraw(address payable _to) public override(Ownable, Balances) onlyOwner{... */\n      pop\n      jump\t// out\n        /* \"\\xd0\\x9d\\xd0\\xb0\\xd1\\x81\\xd0\\xbb\\xd0\\xb5\\xd0\\xb4\\xd0\\xbe\\xd0\\xb2\\xd0\\xb0\\xd0\\xbd\\xd0\\xb8\\xd0\\xb5, \\xd0\\xba\\xd0\\xbe\\xd0\\xbd\\xd1\\x81\\xd1\\x82\\xd1\\x80\\xd1\\x83\\xd0\\xba\\xd1\\x82\\xd0\\xbe\\xd1\\x80\\xd1\\x8b, super, override, virtual.sol\":84:104  address public owner */\n    tag_15:\n      0x00\n      dup1\n      sload\n      swap1\n      0x0100\n      exp\n      swap1\n      div\n      0xffffffffffffffffffffffffffffffffffffffff\n      and\n      dup2\n      jump\t// out\n        /* \"\\xd0\\x9d\\xd0\\xb0\\xd1\\x81\\xd0\\xbb\\xd0\\xb5\\xd0\\xb4\\xd0\\xbe\\xd0\\xb2\\xd0\\xb0\\xd0\\xbd\\xd0\\xb8\\xd0\\xb5, \\xd0\\xba\\xd0\\xbe\\xd0\\xbd\\xd1\\x81\\xd1\\x82\\xd1\\x80\\xd1\\x83\\xd0\\xba\\xd1\\x82\\xd0\\xbe\\xd1\\x80\\xd1\\x8b, super, override, virtual.sol\":714:840  function withdraw(address payable _to) public override virtual onlyOwner{... */\n    tag_28:\n        /* \"\\xd0\\x9d\\xd0\\xb0\\xd1\\x81\\xd0\\xbb\\xd0\\xb5\\xd0\\xb4\\xd0\\xbe\\xd0\\xb2\\xd0\\xb0\\xd0\\xbd\\xd0\\xb8\\xd0\\xb5, \\xd0\\xba\\xd0\\xbe\\xd0\\xbd\\xd1\\x81\\xd1\\x82\\xd1\\x80\\xd1\\x83\\xd0\\xba\\xd1\\x82\\xd0\\xbe\\xd1\\x80\\xd1\\x8b, super, override, virtual.sol\":288:298  msg.sender */\n      caller\n        /* \"\\xd0\\x9d\\xd0\\xb0\\xd1\\x81\\xd0\\xbb\\xd0\\xb5\\xd0\\xb4\\xd0\\xbe\\xd0\\xb2\\xd0\\xb0\\xd0\\xbd\\xd0\\xb8\\xd0\\xb5, \\xd0\\xba\\xd0\\xbe\\xd0\\xbd\\xd1\\x81\\xd1\\x82\\xd1\\x80\\xd1\\x83\\xd0\\xba\\xd1\\x82\\xd0\\xbe\\xd1\\x80\\xd1\\x8b, super, override, virtual.sol\":279:298  owner == msg.sender */\n      0xffffffffffffffffffffffffffffffffffffffff\n      and\n        /* \"\\xd0\\x9d\\xd0\\xb0\\xd1\\x81\\xd0\\xbb\\xd0\\xb5\\xd0\\xb4\\xd0\\xbe\\xd0\\xb2\\xd0\\xb0\\xd0\\xbd\\xd0\\xb8\\xd0\\xb5, \\xd0\\xba\\xd0\\xbe\\xd0\\xbd\\xd1\\x81\\xd1\\x82\\xd1\\x80\\xd1\\x83\\xd0\\xba\\xd1\\x82\\xd0\\xbe\\xd1\\x80\\xd1\\x8b, super, override, virtual.sol\":279:284  owner */\n      0x00\n      dup1\n      sload\n      swap1\n      0x0100\n      exp\n      swap1\n      div\n      0xffffffffffffffffffffffffffffffffffffffff\n      and\n        /* \"\\xd0\\x9d\\xd0\\xb0\\xd1\\x81\\xd0\\xbb\\xd0\\xb5\\xd0\\xb4\\xd0\\xbe\\xd0\\xb2\\xd0\\xb0\\xd0\\xbd\\xd0\\xb8\\xd0\\xb5, \\xd0\\xba\\xd0\\xbe\\xd0\\xbd\\xd1\\x81\\xd1\\x82\\xd1\\x80\\xd1\\x83\\xd0\\xba\\xd1\\x82\\xd0\\xbe\\xd1\\x80\\xd1\\x8b, super, override, virtual.sol\":279:298  owner == msg.sender */\n      0xffffffffffffffffffffffffffffffffffffffff\n      and\n      eq\n        /* \"\\xd0\\x9d\\xd0\\xb0\\xd1\\x81\\xd0\\xbb\\xd0\\xb5\\xd0\\xb4\\xd0\\xbe\\xd0\\xb2\\xd0\\xb0\\xd0\\xbd\\xd0\\xb8\\xd0\\xb5, \\xd0\\xba\\xd0\\xbe\\xd0\\xbd\\xd1\\x81\\xd1\\x82\\xd1\\x80\\xd1\\x83\\xd0\\xba\\xd1\\x82\\xd0\\xbe\\xd1\\x80\\xd1\\x8b, super, override, virtual.sol\":271:316  require(owner == msg.sender, \"not an owner!\") */\n      tag_30\n      jumpi\n      mload(0x40)\n      0x08c379a000000000000000000000000000000000000000000000000000000000\n      dup2\n      mstore\n      0x04\n      add\n      tag_31\n      swap1\n      tag_22\n      jump\t// in\n    tag_31:\n      mload(0x40)\n      dup1\n      swap2\n      sub\n      swap1\n      revert\n    tag_30:\n        /* \"\\xd0\\x9d\\xd0\\xb0\\xd1\\x81\\xd0\\xbb\\xd0\\xb5\\xd0\\xb4\\xd0\\xbe\\xd0\\xb2\\xd0\\xb0\\xd0\\xbd\\xd0\\xb8\\xd0\\xb5, \\xd0\\xba\\xd0\\xbe\\xd0\\xbd\\xd1\\x81\\xd1\\x82\\xd1\\x80\\xd1\\x83\\xd0\\xba\\xd1\\x82\\xd0\\xbe\\xd1\\x80\\xd1\\x8b, super, override, virtual.sol\":797:800  _to */\n      dup1\n        /* \"\\xd0\\x9d\\xd0\\xb0\\xd1\\x81\\xd0\\xbb\\xd0\\xb5\\xd0\\xb4\\xd0\\xbe\\xd0\\xb2\\xd0\\xb0\\xd0\\xbd\\xd0\\xb8\\xd0\\xb5, \\xd0\\xba\\xd0\\xbe\\xd0\\xbd\\xd1\\x81\\xd1\\x82\\xd1\\x80\\xd1\\x83\\xd0\\xba\\xd1\\x82\\xd0\\xbe\\xd1\\x80\\xd1\\x8b, super, override, virtual.sol\":797:809  _to.transfer */\n      0xffffffffffffffffffffffffffffffffffffffff\n      and\n        /* \"\\xd0\\x9d\\xd0\\xb0\\xd1\\x81\\xd0\\xbb\\xd0\\xb5\\xd0\\xb4\\xd0\\xbe\\xd0\\xb2\\xd0\\xb0\\xd0\\xbd\\xd0\\xb8\\xd0\\xb5, \\xd0\\xba\\xd0\\xbe\\xd0\\xbd\\xd1\\x81\\xd1\\x82\\xd1\\x80\\xd1\\x83\\xd0\\xba\\xd1\\x82\\xd0\\xbe\\xd1\\x80\\xd1\\x8b, super, override, virtual.sol\":797:832  _to.transfer(address(this).balance) */\n      0x08fc\n        /* \"\\xd0\\x9d\\xd0\\xb0\\xd1\\x81\\xd0\\xbb\\xd0\\xb5\\xd0\\xb4\\xd0\\xbe\\xd0\\xb2\\xd0\\xb0\\xd0\\xbd\\xd0\\xb8\\xd0\\xb5, \\xd0\\xba\\xd0\\xbe\\xd0\\xbd\\xd1\\x81\\xd1\\x82\\xd1\\x80\\xd1\\x83\\xd0\\xba\\xd1\\x82\\xd0\\xbe\\xd1\\x80\\xd1\\x8b, super, override, virtual.sol\":810:831  address(this).balance */\n      selfbalance\n        /* \"\\xd0\\x9d\\xd0\\xb0\\xd1\\x81\\xd0\\xbb\\xd0\\xb5\\xd0\\xb4\\xd0\\xbe\\xd0\\xb2\\xd0\\xb0\\xd0\\xbd\\xd0\\xb8\\xd0\\xb5, \\xd0\\xba\\xd0\\xbe\\xd0\\xbd\\xd1\\x81\\xd1\\x82\\xd1\\x80\\xd1\\x83\\xd0\\xba\\xd1\\x82\\xd0\\xbe\\xd1\\x80\\xd1\\x8b, super, override, virtual.sol\":797:832  _to.transfer(address(this).balance) */\n      swap1\n      dup2\n      iszero\n      mul\n      swap1\n      mload(0x40)\n      0x00\n      mload(0x40)\n      dup1\n      dup4\n      sub\n      dup2\n      dup6\n      dup9\n      dup9\n      call\n      swap4\n      pop\n      pop\n      pop\n      pop\n      iszero\n      dup1\n      iszero\n      tag_34\n      jumpi\n      returndatasize\n      0x00\n      dup1\n      returndatacopy\n      revert(0x00, returndatasize)\n    tag_34:\n      pop\n        /* \"\\xd0\\x9d\\xd0\\xb0\\xd1\\x81\\xd0\\xbb\\xd0\\xb5\\xd0\\xb4\\xd0\\xbe\\xd0\\xb2\\xd0\\xb0\\xd0\\xbd\\xd0\\xb8\\xd0\\xb5, \\xd0\\xba\\xd0\\xbe\\xd0\\xbd\\xd1\\x81\\xd1\\x82\\xd1\\x80\\xd1\\x83\\xd0\\xba\\xd1\\x82\\xd0\\xbe\\xd1\\x80\\xd1\\x8b, super, override, virtual.sol\":714:840  function withdraw(address payable _to) public override virtual onlyOwner{... */\n      pop\n      jump\t// out\n        /* \"#utility.yul\":7:84   */\n    tag_35:\n        /* \"#utility.yul\":44:51   */\n      0x00\n        /* \"#utility.yul\":73:78   */\n      dup2\n        /* \"#utility.yul\":62:78   */\n      swap1\n      pop\n        /* \"#utility.yul\":7:84   */\n      swap2\n      swap1\n      pop\n      jump\t// out\n        /* \"#utility.yul\":90:208   */\n    tag_36:\n        /* \"#utility.yul\":177:201   */\n      tag_54\n        /* \"#utility.yul\":195:200   */\n      dup2\n        /* \"#utility.yul\":177:201   */\n      tag_35\n      jump\t// in\n    tag_54:\n        /* \"#utility.yul\":172:175   */\n      dup3\n        /* \"#utility.yul\":165:202   */\n      mstore\n        /* \"#utility.yul\":90:208   */\n      pop\n      pop\n      jump\t// out\n        /* \"#utility.yul\":214:436   */\n    tag_9:\n        /* \"#utility.yul\":307:311   */\n      0x00\n        /* \"#utility.yul\":345:347   */\n      0x20\n        /* \"#utility.yul\":334:343   */\n      dup3\n        /* \"#utility.yul\":330:348   */\n      add\n        /* \"#utility.yul\":322:348   */\n      swap1\n      pop\n        /* \"#utility.yul\":358:429   */\n      tag_56\n        /* \"#utility.yul\":426:427   */\n      0x00\n        /* \"#utility.yul\":415:424   */\n      dup4\n        /* \"#utility.yul\":411:428   */\n      add\n        /* \"#utility.yul\":402:408   */\n      dup5\n        /* \"#utility.yul\":358:429   */\n      tag_36\n      jump\t// in\n    tag_56:\n        /* \"#utility.yul\":214:436   */\n      swap3\n      swap2\n      pop\n      pop\n      jump\t// out\n        /* \"#utility.yul\":523:640   */\n    tag_38:\n        /* \"#utility.yul\":632:633   */\n      0x00\n        /* \"#utility.yul\":629:630   */\n      dup1\n        /* \"#utility.yul\":622:634   */\n      revert\n        /* \"#utility.yul\":769:895   */\n    tag_40:\n        /* \"#utility.yul\":806:813   */\n      0x00\n        /* \"#utility.yul\":846:888   */\n      0xffffffffffffffffffffffffffffffffffffffff\n        /* \"#utility.yul\":839:844   */\n      dup3\n        /* \"#utility.yul\":835:889   */\n      and\n        /* \"#utility.yul\":824:889   */\n      swap1\n      pop\n        /* \"#utility.yul\":769:895   */\n      swap2\n      swap1\n      pop\n      jump\t// out\n        /* \"#utility.yul\":901:1005   */\n    tag_41:\n        /* \"#utility.yul\":946:953   */\n      0x00\n        /* \"#utility.yul\":975:999   */\n      tag_62\n        /* \"#utility.yul\":993:998   */\n      dup3\n        /* \"#utility.yul\":975:999   */\n      tag_40\n      jump\t// in\n    tag_62:\n        /* \"#utility.yul\":964:999   */\n      swap1\n      pop\n        /* \"#utility.yul\":901:1005   */\n      swap2\n      swap1\n      pop\n      jump\t// out\n        /* \"#utility.yul\":1011:1149   */\n    tag_42:\n        /* \"#utility.yul\":1092:1124   */\n      tag_64\n        /* \"#utility.yul\":1118:1123   */\n      dup2\n        /* \"#utility.yul\":1092:1124   */\n      tag_41\n      jump\t// in\n    tag_64:\n        /* \"#utility.yul\":1085:1090   */\n      dup2\n        /* \"#utility.yul\":1082:1125   */\n      eq\n        /* \"#utility.yul\":1072:1143   */\n      tag_65\n      jumpi\n        /* \"#utility.yul\":1139:1140   */\n      0x00\n        /* \"#utility.yul\":1136:1137   */\n      dup1\n        /* \"#utility.yul\":1129:1141   */\n      revert\n        /* \"#utility.yul\":1072:1143   */\n    tag_65:\n        /* \"#utility.yul\":1011:1149   */\n      pop\n      jump\t// out\n        /* \"#utility.yul\":1155:1310   */\n    tag_43:\n        /* \"#utility.yul\":1209:1214   */\n      0x00\n        /* \"#utility.yul\":1247:1253   */\n      dup2\n        /* \"#utility.yul\":1234:1254   */\n      calldataload\n        /* \"#utility.yul\":1225:1254   */\n      swap1\n      pop\n        /* \"#utility.yul\":1263:1304   */\n      tag_67\n        /* \"#utility.yul\":1298:1303   */\n      dup2\n        /* \"#utility.yul\":1263:1304   */\n      tag_42\n      jump\t// in\n    tag_67:\n        /* \"#utility.yul\":1155:1310   */\n      swap3\n      swap2\n      pop\n      pop\n      jump\t// out\n        /* \"#utility.yul\":1316:1661   */\n    tag_12:\n        /* \"#utility.yul\":1383:1389   */\n      0x00\n        /* \"#utility.yul\":1432:1434   */\n      0x20\n        /* \"#utility.yul\":1420:1429   */\n      dup3\n        /* \"#utility.yul\":1411:1418   */\n      dup5\n        /* \"#utility.yul\":1407:1430   */\n      sub\n        /* \"#utility.yul\":1403:1435   */\n      slt\n        /* \"#utility.yul\":1400:1519   */\n      iszero\n      tag_69\n      jumpi\n        /* \"#utility.yul\":1438:1517   */\n      tag_70\n      tag_38\n      jump\t// in\n    tag_70:\n        /* \"#utility.yul\":1400:1519   */\n    tag_69:\n        /* \"#utility.yul\":1558:1559   */\n      0x00\n        /* \"#utility.yul\":1583:1644   */\n      tag_71\n        /* \"#utility.yul\":1636:1643   */\n      dup5\n        /* \"#utility.yul\":1627:1633   */\n      dup3\n        /* \"#utility.yul\":1616:1625   */\n      dup6\n        /* \"#utility.yul\":1612:1634   */\n      add\n        /* \"#utility.yul\":1583:1644   */\n      tag_43\n      jump\t// in\n    tag_71:\n        /* \"#utility.yul\":1573:1644   */\n      swap2\n      pop\n        /* \"#utility.yul\":1529:1654   */\n      pop\n        /* \"#utility.yul\":1316:1661   */\n      swap3\n      swap2\n      pop\n      pop\n      jump\t// out\n        /* \"#utility.yul\":1667:1763   */\n    tag_44:\n        /* \"#utility.yul\":1704:1711   */\n      0x00\n        /* \"#utility.yul\":1733:1757   */\n      tag_73\n        /* \"#utility.yul\":1751:1756   */\n      dup3\n        /* \"#utility.yul\":1733:1757   */\n      tag_40\n      jump\t// in\n    tag_73:\n        /* \"#utility.yul\":1722:1757   */\n      swap1\n      pop\n        /* \"#utility.yul\":1667:1763   */\n      swap2\n      swap1\n      pop\n      jump\t// out\n        /* \"#utility.yul\":1769:1887   */\n    tag_45:\n        /* \"#utility.yul\":1856:1880   */\n      tag_75\n        /* \"#utility.yul\":1874:1879   */\n      dup2\n        /* \"#utility.yul\":1856:1880   */\n      tag_44\n      jump\t// in\n    tag_75:\n        /* \"#utility.yul\":1851:1854   */\n      dup3\n        /* \"#utility.yul\":1844:1881   */\n      mstore\n        /* \"#utility.yul\":1769:1887   */\n      pop\n      pop\n      jump\t// out\n        /* \"#utility.yul\":1893:2115   */\n    tag_17:\n        /* \"#utility.yul\":1986:1990   */\n      0x00\n        /* \"#utility.yul\":2024:2026   */\n      0x20\n        /* \"#utility.yul\":2013:2022   */\n      dup3\n        /* \"#utility.yul\":2009:2027   */\n      add\n        /* \"#utility.yul\":2001:2027   */\n      swap1\n      pop\n        /* \"#utility.yul\":2037:2108   */\n      tag_77\n        /* \"#utility.yul\":2105:2106   */\n      0x00\n        /* \"#utility.yul\":2094:2103   */\n      dup4\n        /* \"#utility.yul\":2090:2107   */\n      add\n        /* \"#utility.yul\":2081:2087   */\n      dup5\n        /* \"#utility.yul\":2037:2108   */\n      tag_45\n      jump\t// in\n    tag_77:\n        /* \"#utility.yul\":1893:2115   */\n      swap3\n      swap2\n      pop\n      pop\n      jump\t// out\n        /* \"#utility.yul\":2121:2290   */\n    tag_46:\n        /* \"#utility.yul\":2205:2216   */\n      0x00\n        /* \"#utility.yul\":2239:2245   */\n      dup3\n        /* \"#utility.yul\":2234:2237   */\n      dup3\n        /* \"#utility.yul\":2227:2246   */\n      mstore\n        /* \"#utility.yul\":2279:2283   */\n      0x20\n        /* \"#utility.yul\":2274:2277   */\n      dup3\n        /* \"#utility.yul\":2270:2284   */\n      add\n        /* \"#utility.yul\":2255:2284   */\n      swap1\n      pop\n        /* \"#utility.yul\":2121:2290   */\n      swap3\n      swap2\n      pop\n      pop\n      jump\t// out\n        /* \"#utility.yul\":2296:2459   */\n    tag_47:\n        /* \"#utility.yul\":2436:2451   */\n      0x6e6f7420616e206f776e65722100000000000000000000000000000000000000\n        /* \"#utility.yul\":2432:2433   */\n      0x00\n        /* \"#utility.yul\":2424:2430   */\n      dup3\n        /* \"#utility.yul\":2420:2434   */\n      add\n        /* \"#utility.yul\":2413:2452   */\n      mstore\n        /* \"#utility.yul\":2296:2459   */\n      pop\n      jump\t// out\n        /* \"#utility.yul\":2465:2831   */\n    tag_48:\n        /* \"#utility.yul\":2607:2610   */\n      0x00\n        /* \"#utility.yul\":2628:2695   */\n      tag_81\n        /* \"#utility.yul\":2692:2694   */\n      0x0d\n        /* \"#utility.yul\":2687:2690   */\n      dup4\n        /* \"#utility.yul\":2628:2695   */\n      tag_46\n      jump\t// in\n    tag_81:\n        /* \"#utility.yul\":2621:2695   */\n      swap2\n      pop\n        /* \"#utility.yul\":2704:2797   */\n      tag_82\n        /* \"#utility.yul\":2793:2796   */\n      dup3\n        /* \"#utility.yul\":2704:2797   */\n      tag_47\n      jump\t// in\n    tag_82:\n        /* \"#utility.yul\":2822:2824   */\n      0x20\n        /* \"#utility.yul\":2817:2820   */\n      dup3\n        /* \"#utility.yul\":2813:2825   */\n      add\n        /* \"#utility.yul\":2806:2825   */\n      swap1\n      pop\n        /* \"#utility.yul\":2465:2831   */\n      swap2\n      swap1\n      pop\n      jump\t// out\n        /* \"#utility.yul\":2837:3256   */\n    tag_22:\n        /* \"#utility.yul\":3003:3007   */\n      0x00\n        /* \"#utility.yul\":3041:3043   */\n      0x20\n        /* \"#utility.yul\":3030:3039   */\n      dup3\n        /* \"#utility.yul\":3026:3044   */\n      add\n        /* \"#utility.yul\":3018:3044   */\n      swap1\n      pop\n        /* \"#utility.yul\":3090:3099   */\n      dup2\n        /* \"#utility.yul\":3084:3088   */\n      dup2\n        /* \"#utility.yul\":3080:3100   */\n      sub\n        /* \"#utility.yul\":3076:3077   */\n      0x00\n        /* \"#utility.yul\":3065:3074   */\n      dup4\n        /* \"#utility.yul\":3061:3078   */\n      add\n        /* \"#utility.yul\":3054:3101   */\n      mstore\n        /* \"#utility.yul\":3118:3249   */\n      tag_84\n        /* \"#utility.yul\":3244:3248   */\n      dup2\n        /* \"#utility.yul\":3118:3249   */\n      tag_48\n      jump\t// in\n    tag_84:\n        /* \"#utility.yul\":3110:3249   */\n      swap1\n      pop\n        /* \"#utility.yul\":2837:3256   */\n      swap2\n      swap1\n      pop\n      jump\t// out\n        /* \"#utility.yul\":3262:3425   */\n    tag_49:\n        /* \"#utility.yul\":3402:3417   */\n      0x7a65726f20616464726573732100000000000000000000000000000000000000\n        /* \"#utility.yul\":3398:3399   */\n      0x00\n        /* \"#utility.yul\":3390:3396   */\n      dup3\n        /* \"#utility.yul\":3386:3400   */\n      add\n        /* \"#utility.yul\":3379:3418   */\n      mstore\n        /* \"#utility.yul\":3262:3425   */\n      pop\n      jump\t// out\n        /* \"#utility.yul\":3431:3797   */\n    tag_50:\n        /* \"#utility.yul\":3573:3576   */\n      0x00\n        /* \"#utility.yul\":3594:3661   */\n      tag_87\n        /* \"#utility.yul\":3658:3660   */\n      0x0d\n        /* \"#utility.yul\":3653:3656   */\n      dup4\n        /* \"#utility.yul\":3594:3661   */\n      tag_46\n      jump\t// in\n    tag_87:\n        /* \"#utility.yul\":3587:3661   */\n      swap2\n      pop\n        /* \"#utility.yul\":3670:3763   */\n      tag_88\n        /* \"#utility.yul\":3759:3762   */\n      dup3\n        /* \"#utility.yul\":3670:3763   */\n      tag_49\n      jump\t// in\n    tag_88:\n        /* \"#utility.yul\":3788:3790   */\n      0x20\n        /* \"#utility.yul\":3783:3786   */\n      dup3\n        /* \"#utility.yul\":3779:3791   */\n      add\n        /* \"#utility.yul\":3772:3791   */\n      swap1\n      pop\n        /* \"#utility.yul\":3431:3797   */\n      swap2\n      swap1\n      pop\n      jump\t// out\n        /* \"#utility.yul\":3803:4222   */\n    tag_26:\n        /* \"#utility.yul\":3969:3973   */\n      0x00\n        /* \"#utility.yul\":4007:4009   */\n      0x20\n        /* \"#utility.yul\":3996:4005   */\n      dup3\n        /* \"#utility.yul\":3992:4010   */\n      add\n        /* \"#utility.yul\":3984:4010   */\n      swap1\n      pop\n        /* \"#utility.yul\":4056:4065   */\n      dup2\n        /* \"#utility.yul\":4050:4054   */\n      dup2\n        /* \"#utility.yul\":4046:4066   */\n      sub\n        /* \"#utility.yul\":4042:4043   */\n      0x00\n        /* \"#utility.yul\":4031:4040   */\n      dup4\n        /* \"#utility.yul\":4027:4044   */\n      add\n        /* \"#utility.yul\":4020:4067   */\n      mstore\n        /* \"#utility.yul\":4084:4215   */\n      tag_90\n        /* \"#utility.yul\":4210:4214   */\n      dup2\n        /* \"#utility.yul\":4084:4215   */\n      tag_50\n      jump\t// in\n    tag_90:\n        /* \"#utility.yul\":4076:4215   */\n      swap1\n      pop\n        /* \"#utility.yul\":3803:4222   */\n      swap2\n      swap1\n      pop\n      jump\t// out\n\n    auxdata: 0xa2646970667358221220cd819c28d05d69c2dc36e232be010c6979da3fa53a946029e62961f831090a0564736f6c634300081a0033\n}\n",
				"bytecode": {
					"linkReferences": {},
					"object": "608060405234801561000f575f80fd5b506040516106303803806106308339818101604052810190610031919061014f565b805f73ffffffffffffffffffffffffffffffffffffffff168173ffffffffffffffffffffffffffffffffffffffff161461006b578061006d565b335b5f806101000a81548173ffffffffffffffffffffffffffffffffffffffff021916908373ffffffffffffffffffffffffffffffffffffffff16021790555050805f806101000a81548173ffffffffffffffffffffffffffffffffffffffff021916908373ffffffffffffffffffffffffffffffffffffffff1602179055505061017a565b5f80fd5b5f73ffffffffffffffffffffffffffffffffffffffff82169050919050565b5f61011e826100f5565b9050919050565b61012e81610114565b8114610138575f80fd5b50565b5f8151905061014981610125565b92915050565b5f60208284031215610164576101636100f1565b5b5f6101718482850161013b565b91505092915050565b6104a9806101875f395ff3fe608060405234801561000f575f80fd5b506004361061003f575f3560e01c806312065fe01461004357806351cff8d9146100615780638da5cb5b1461007d575b5f80fd5b61004b61009b565b60405161005891906102b8565b60405180910390f35b61007b6004803603810190610076919061032f565b6100a2565b005b6100856101a9565b604051610092919061037a565b60405180910390f35b5f47905090565b3373ffffffffffffffffffffffffffffffffffffffff165f8054906101000a900473ffffffffffffffffffffffffffffffffffffffff1673ffffffffffffffffffffffffffffffffffffffff161461012f576040517f08c379a0000000000000000000000000000000000000000000000000000000008152600401610126906103ed565b60405180910390fd5b5f73ffffffffffffffffffffffffffffffffffffffff168173ffffffffffffffffffffffffffffffffffffffff161461019d576040517f08c379a000000000000000000000000000000000000000000000000000000000815260040161019490610455565b60405180910390fd5b6101a6816101cc565b50565b5f8054906101000a900473ffffffffffffffffffffffffffffffffffffffff1681565b3373ffffffffffffffffffffffffffffffffffffffff165f8054906101000a900473ffffffffffffffffffffffffffffffffffffffff1673ffffffffffffffffffffffffffffffffffffffff1614610259576040517f08c379a0000000000000000000000000000000000000000000000000000000008152600401610250906103ed565b60405180910390fd5b8073ffffffffffffffffffffffffffffffffffffffff166108fc4790811502906040515f60405180830381858888f1935050505015801561029c573d5f803e3d5ffd5b5050565b5f819050919050565b6102b2816102a0565b82525050565b5f6020820190506102cb5f8301846102a9565b92915050565b5f80fd5b5f73ffffffffffffffffffffffffffffffffffffffff82169050919050565b5f6102fe826102d5565b9050919050565b61030e816102f4565b8114610318575f80fd5b50565b5f8135905061032981610305565b92915050565b5f60208284031215610344576103436102d1565b5b5f6103518482850161031b565b91505092915050565b5f610364826102d5565b9050919050565b6103748161035a565b82525050565b5f60208201905061038d5f83018461036b565b92915050565b5f82825260208201905092915050565b7f6e6f7420616e206f776e657221000000000000000000000000000000000000005f82015250565b5f6103d7600d83610393565b91506103e2826103a3565b602082019050919050565b5f6020820190508181035f830152610404816103cb565b9050919050565b7f7a65726f206164647265737321000000000000000000000000000000000000005f82015250565b5f61043f600d83610393565b915061044a8261040b565b602082019050919050565b5f6020820190508181035f83015261046c81610433565b905091905056fea2646970667358221220cd819c28d05d69c2dc36e232be010c6979da3fa53a946029e62961f831090a0564736f6c634300081a0033",
					"opcodes": "PUSH1 0x80 PUSH1 0x40 MSTORE CALLVALUE DUP1 ISZERO PUSH2 0xF JUMPI PUSH0 DUP1 REVERT JUMPDEST POP PUSH1 0x40 MLOAD PUSH2 0x630 CODESIZE SUB DUP1 PUSH2 0x630 DUP4 CODECOPY DUP2 DUP2 ADD PUSH1 0x40 MSTORE DUP2 ADD SWAP1 PUSH2 0x31 SWAP2 SWAP1 PUSH2 0x14F JUMP JUMPDEST DUP1 PUSH0 PUSH20 0xFFFFFFFFFFFFFFFFFFFFFFFFFFFFFFFFFFFFFFFF AND DUP2 PUSH20 0xFFFFFFFFFFFFFFFFFFFFFFFFFFFFFFFFFFFFFFFF AND EQ PUSH2 0x6B JUMPI DUP1 PUSH2 0x6D JUMP JUMPDEST CALLER JUMPDEST PUSH0 DUP1 PUSH2 0x100 EXP DUP2 SLOAD DUP2 PUSH20 0xFFFFFFFFFFFFFFFFFFFFFFFFFFFFFFFFFFFFFFFF MUL NOT AND SWAP1 DUP4 PUSH20 0xFFFFFFFFFFFFFFFFFFFFFFFFFFFFFFFFFFFFFFFF AND MUL OR SWAP1 SSTORE POP POP DUP1 PUSH0 DUP1 PUSH2 0x100 EXP DUP2 SLOAD DUP2 PUSH20 0xFFFFFFFFFFFFFFFFFFFFFFFFFFFFFFFFFFFFFFFF MUL NOT AND SWAP1 DUP4 PUSH20 0xFFFFFFFFFFFFFFFFFFFFFFFFFFFFFFFFFFFFFFFF AND MUL OR SWAP1 SSTORE POP POP PUSH2 0x17A JUMP JUMPDEST PUSH0 DUP1 REVERT JUMPDEST PUSH0 PUSH20 0xFFFFFFFFFFFFFFFFFFFFFFFFFFFFFFFFFFFFFFFF DUP3 AND SWAP1 POP SWAP2 SWAP1 POP JUMP JUMPDEST PUSH0 PUSH2 0x11E DUP3 PUSH2 0xF5 JUMP JUMPDEST SWAP1 POP SWAP2 SWAP1 POP JUMP JUMPDEST PUSH2 0x12E DUP2 PUSH2 0x114 JUMP JUMPDEST DUP2 EQ PUSH2 0x138 JUMPI PUSH0 DUP1 REVERT JUMPDEST POP JUMP JUMPDEST PUSH0 DUP2 MLOAD SWAP1 POP PUSH2 0x149 DUP2 PUSH2 0x125 JUMP JUMPDEST SWAP3 SWAP2 POP POP JUMP JUMPDEST PUSH0 PUSH1 0x20 DUP3 DUP5 SUB SLT ISZERO PUSH2 0x164 JUMPI PUSH2 0x163 PUSH2 0xF1 JUMP JUMPDEST JUMPDEST PUSH0 PUSH2 0x171 DUP5 DUP3 DUP6 ADD PUSH2 0x13B JUMP JUMPDEST SWAP2 POP POP SWAP3 SWAP2 POP POP JUMP JUMPDEST PUSH2 0x4A9 DUP1 PUSH2 0x187 PUSH0 CODECOPY PUSH0 RETURN INVALID PUSH1 0x80 PUSH1 0x40 MSTORE CALLVALUE DUP1 ISZERO PUSH2 0xF JUMPI PUSH0 DUP1 REVERT JUMPDEST POP PUSH1 0x4 CALLDATASIZE LT PUSH2 0x3F JUMPI PUSH0 CALLDATALOAD PUSH1 0xE0 SHR DUP1 PUSH4 0x12065FE0 EQ PUSH2 0x43 JUMPI DUP1 PUSH4 0x51CFF8D9 EQ PUSH2 0x61 JUMPI DUP1 PUSH4 0x8DA5CB5B EQ PUSH2 0x7D JUMPI JUMPDEST PUSH0 DUP1 REVERT JUMPDEST PUSH2 0x4B PUSH2 0x9B JUMP JUMPDEST PUSH1 0x40 MLOAD PUSH2 0x58 SWAP2 SWAP1 PUSH2 0x2B8 JUMP JUMPDEST PUSH1 0x40 MLOAD DUP1 SWAP2 SUB SWAP1 RETURN JUMPDEST PUSH2 0x7B PUSH1 0x4 DUP1 CALLDATASIZE SUB DUP2 ADD SWAP1 PUSH2 0x76 SWAP2 SWAP1 PUSH2 0x32F JUMP JUMPDEST PUSH2 0xA2 JUMP JUMPDEST STOP JUMPDEST PUSH2 0x85 PUSH2 0x1A9 JUMP JUMPDEST PUSH1 0x40 MLOAD PUSH2 0x92 SWAP2 SWAP1 PUSH2 0x37A JUMP JUMPDEST PUSH1 0x40 MLOAD DUP1 SWAP2 SUB SWAP1 RETURN JUMPDEST PUSH0 SELFBALANCE SWAP1 POP SWAP1 JUMP JUMPDEST CALLER PUSH20 0xFFFFFFFFFFFFFFFFFFFFFFFFFFFFFFFFFFFFFFFF AND PUSH0 DUP1 SLOAD SWAP1 PUSH2 0x100 EXP SWAP1 DIV PUSH20 0xFFFFFFFFFFFFFFFFFFFFFFFFFFFFFFFFFFFFFFFF AND PUSH20 0xFFFFFFFFFFFFFFFFFFFFFFFFFFFFFFFFFFFFFFFF AND EQ PUSH2 0x12F JUMPI PUSH1 0x40 MLOAD PUSH32 0x8C379A000000000000000000000000000000000000000000000000000000000 DUP2 MSTORE PUSH1 0x4 ADD PUSH2 0x126 SWAP1 PUSH2 0x3ED JUMP JUMPDEST PUSH1 0x40 MLOAD DUP1 SWAP2 SUB SWAP1 REVERT JUMPDEST PUSH0 PUSH20 0xFFFFFFFFFFFFFFFFFFFFFFFFFFFFFFFFFFFFFFFF AND DUP2 PUSH20 0xFFFFFFFFFFFFFFFFFFFFFFFFFFFFFFFFFFFFFFFF AND EQ PUSH2 0x19D JUMPI PUSH1 0x40 MLOAD PUSH32 0x8C379A000000000000000000000000000000000000000000000000000000000 DUP2 MSTORE PUSH1 0x4 ADD PUSH2 0x194 SWAP1 PUSH2 0x455 JUMP JUMPDEST PUSH1 0x40 MLOAD DUP1 SWAP2 SUB SWAP1 REVERT JUMPDEST PUSH2 0x1A6 DUP2 PUSH2 0x1CC JUMP JUMPDEST POP JUMP JUMPDEST PUSH0 DUP1 SLOAD SWAP1 PUSH2 0x100 EXP SWAP1 DIV PUSH20 0xFFFFFFFFFFFFFFFFFFFFFFFFFFFFFFFFFFFFFFFF AND DUP2 JUMP JUMPDEST CALLER PUSH20 0xFFFFFFFFFFFFFFFFFFFFFFFFFFFFFFFFFFFFFFFF AND PUSH0 DUP1 SLOAD SWAP1 PUSH2 0x100 EXP SWAP1 DIV PUSH20 0xFFFFFFFFFFFFFFFFFFFFFFFFFFFFFFFFFFFFFFFF AND PUSH20 0xFFFFFFFFFFFFFFFFFFFFFFFFFFFFFFFFFFFFFFFF AND EQ PUSH2 0x259 JUMPI PUSH1 0x40 MLOAD PUSH32 0x8C379A000000000000000000000000000000000000000000000000000000000 DUP2 MSTORE PUSH1 0x4 ADD PUSH2 0x250 SWAP1 PUSH2 0x3ED JUMP JUMPDEST PUSH1 0x40 MLOAD DUP1 SWAP2 SUB SWAP1 REVERT JUMPDEST DUP1 PUSH20 0xFFFFFFFFFFFFFFFFFFFFFFFFFFFFFFFFFFFFFFFF AND PUSH2 0x8FC SELFBALANCE SWAP1 DUP2 ISZERO MUL SWAP1 PUSH1 0x40 MLOAD PUSH0 PUSH1 0x40 MLOAD DUP1 DUP4 SUB DUP2 DUP6 DUP9 DUP9 CALL SWAP4 POP POP POP POP ISZERO DUP1 ISZERO PUSH2 0x29C JUMPI RETURNDATASIZE PUSH0 DUP1 RETURNDATACOPY RETURNDATASIZE PUSH0 REVERT JUMPDEST POP POP JUMP JUMPDEST PUSH0 DUP2 SWAP1 POP SWAP2 SWAP1 POP JUMP JUMPDEST PUSH2 0x2B2 DUP2 PUSH2 0x2A0 JUMP JUMPDEST DUP3 MSTORE POP POP JUMP JUMPDEST PUSH0 PUSH1 0x20 DUP3 ADD SWAP1 POP PUSH2 0x2CB PUSH0 DUP4 ADD DUP5 PUSH2 0x2A9 JUMP JUMPDEST SWAP3 SWAP2 POP POP JUMP JUMPDEST PUSH0 DUP1 REVERT JUMPDEST PUSH0 PUSH20 0xFFFFFFFFFFFFFFFFFFFFFFFFFFFFFFFFFFFFFFFF DUP3 AND SWAP1 POP SWAP2 SWAP1 POP JUMP JUMPDEST PUSH0 PUSH2 0x2FE DUP3 PUSH2 0x2D5 JUMP JUMPDEST SWAP1 POP SWAP2 SWAP1 POP JUMP JUMPDEST PUSH2 0x30E DUP2 PUSH2 0x2F4 JUMP JUMPDEST DUP2 EQ PUSH2 0x318 JUMPI PUSH0 DUP1 REVERT JUMPDEST POP JUMP JUMPDEST PUSH0 DUP2 CALLDATALOAD SWAP1 POP PUSH2 0x329 DUP2 PUSH2 0x305 JUMP JUMPDEST SWAP3 SWAP2 POP POP JUMP JUMPDEST PUSH0 PUSH1 0x20 DUP3 DUP5 SUB SLT ISZERO PUSH2 0x344 JUMPI PUSH2 0x343 PUSH2 0x2D1 JUMP JUMPDEST JUMPDEST PUSH0 PUSH2 0x351 DUP5 DUP3 DUP6 ADD PUSH2 0x31B JUMP JUMPDEST SWAP2 POP POP SWAP3 SWAP2 POP POP JUMP JUMPDEST PUSH0 PUSH2 0x364 DUP3 PUSH2 0x2D5 JUMP JUMPDEST SWAP1 POP SWAP2 SWAP1 POP JUMP JUMPDEST PUSH2 0x374 DUP2 PUSH2 0x35A JUMP JUMPDEST DUP3 MSTORE POP POP JUMP JUMPDEST PUSH0 PUSH1 0x20 DUP3 ADD SWAP1 POP PUSH2 0x38D PUSH0 DUP4 ADD DUP5 PUSH2 0x36B JUMP JUMPDEST SWAP3 SWAP2 POP POP JUMP JUMPDEST PUSH0 DUP3 DUP3 MSTORE PUSH1 0x20 DUP3 ADD SWAP1 POP SWAP3 SWAP2 POP POP JUMP JUMPDEST PUSH32 0x6E6F7420616E206F776E65722100000000000000000000000000000000000000 PUSH0 DUP3 ADD MSTORE POP JUMP JUMPDEST PUSH0 PUSH2 0x3D7 PUSH1 0xD DUP4 PUSH2 0x393 JUMP JUMPDEST SWAP2 POP PUSH2 0x3E2 DUP3 PUSH2 0x3A3 JUMP JUMPDEST PUSH1 0x20 DUP3 ADD SWAP1 POP SWAP2 SWAP1 POP JUMP JUMPDEST PUSH0 PUSH1 0x20 DUP3 ADD SWAP1 POP DUP2 DUP2 SUB PUSH0 DUP4 ADD MSTORE PUSH2 0x404 DUP2 PUSH2 0x3CB JUMP JUMPDEST SWAP1 POP SWAP2 SWAP1 POP JUMP JUMPDEST PUSH32 0x7A65726F20616464726573732100000000000000000000000000000000000000 PUSH0 DUP3 ADD MSTORE POP JUMP JUMPDEST PUSH0 PUSH2 0x43F PUSH1 0xD DUP4 PUSH2 0x393 JUMP JUMPDEST SWAP2 POP PUSH2 0x44A DUP3 PUSH2 0x40B JUMP JUMPDEST PUSH1 0x20 DUP3 ADD SWAP1 POP SWAP2 SWAP1 POP JUMP JUMPDEST PUSH0 PUSH1 0x20 DUP3 ADD SWAP1 POP DUP2 DUP2 SUB PUSH0 DUP4 ADD MSTORE PUSH2 0x46C DUP2 PUSH2 0x433 JUMP JUMPDEST SWAP1 POP SWAP2 SWAP1 POP JUMP INVALID LOG2 PUSH5 0x6970667358 0x22 SLT KECCAK256 0xCD DUP2 SWAP13 0x28 0xD0 TSTORE PUSH10 0xC2DC36E232BE010C6979 0xDA EXTCODEHASH 0xA5 GASPRICE SWAP5 PUSH1 0x29 0xE6 0x29 PUSH2 0xF831 MULMOD EXP SDIV PUSH5 0x736F6C6343 STOP ADDMOD BYTE STOP CALLER "
				},
				"gasEstimates": {
					"creation": {
						"codeDepositCost": "238600",
						"executionCost": "infinite",
						"totalCost": "infinite"
					},
					"external": {
						"getBalance()": "312",
						"owner()": "2527",
						"withdraw(address)": "infinite"
					}
				},
				"methodIdentifiers": {
					"getBalance()": "12065fe0",
					"owner()": "8da5cb5b",
					"withdraw(address)": "51cff8d9"
				}
			},
			"storageLayout": {
				"storage": [
					{
						"astId": 3,
						"contract": "Наследование, конструкторы, super, override, virtual.sol:MyContract",
						"label": "owner",
						"offset": 0,
						"slot": "0",
						"type": "t_address"
					}
				],
				"types": {
					"t_address": {
						"encoding": "inplace",
						"label": "address",
						"numberOfBytes": "20"
					}
				}
			},
			"userdoc": {
				"kind": "user",
				"methods": {},
				"version": 1
			}
		}
	}
}