{
	"array, bytes, enum, struct.sol": {
		"Test": {
			"abi": [
				{
					"inputs": [
						{
							"internalType": "address",
							"name": "",
							"type": "address"
						}
					],
					"name": "balances",
					"outputs": [
						{
							"internalType": "uint256",
							"name": "totalPayments",
							"type": "uint256"
						}
					],
					"stateMutability": "view",
					"type": "function"
				},
				{
					"inputs": [],
					"name": "byteStr",
					"outputs": [
						{
							"internalType": "bytes32",
							"name": "",
							"type": "bytes32"
						}
					],
					"stateMutability": "view",
					"type": "function"
				},
				{
					"inputs": [],
					"name": "byteStrNonFix",
					"outputs": [
						{
							"internalType": "bytes",
							"name": "",
							"type": "bytes"
						}
					],
					"stateMutability": "view",
					"type": "function"
				},
				{
					"inputs": [],
					"name": "byteVar",
					"outputs": [
						{
							"internalType": "bytes3",
							"name": "",
							"type": "bytes3"
						}
					],
					"stateMutability": "view",
					"type": "function"
				},
				{
					"inputs": [],
					"name": "bytesTest",
					"outputs": [
						{
							"internalType": "bytes1",
							"name": "",
							"type": "bytes1"
						}
					],
					"stateMutability": "view",
					"type": "function"
				},
				{
					"inputs": [],
					"name": "curStatus",
					"outputs": [
						{
							"internalType": "enum Test.Status",
							"name": "",
							"type": "uint8"
						}
					],
					"stateMutability": "view",
					"type": "function"
				},
				{
					"inputs": [],
					"name": "delivered",
					"outputs": [],
					"stateMutability": "nonpayable",
					"type": "function"
				},
				{
					"inputs": [],
					"name": "demo",
					"outputs": [],
					"stateMutability": "nonpayable",
					"type": "function"
				},
				{
					"inputs": [
						{
							"internalType": "uint256",
							"name": "",
							"type": "uint256"
						}
					],
					"name": "dynamic",
					"outputs": [
						{
							"internalType": "uint256",
							"name": "",
							"type": "uint256"
						}
					],
					"stateMutability": "view",
					"type": "function"
				},
				{
					"inputs": [
						{
							"internalType": "address",
							"name": "_addr",
							"type": "address"
						},
						{
							"internalType": "uint256",
							"name": "_index",
							"type": "uint256"
						}
					],
					"name": "getPayment",
					"outputs": [
						{
							"components": [
								{
									"internalType": "uint256",
									"name": "amount",
									"type": "uint256"
								},
								{
									"internalType": "uint256",
									"name": "timestamp",
									"type": "uint256"
								},
								{
									"internalType": "address",
									"name": "from",
									"type": "address"
								},
								{
									"internalType": "string",
									"name": "message",
									"type": "string"
								}
							],
							"internalType": "struct Test.Payment",
							"name": "",
							"type": "tuple"
						}
					],
					"stateMutability": "view",
					"type": "function"
				},
				{
					"inputs": [
						{
							"internalType": "uint256",
							"name": "",
							"type": "uint256"
						}
					],
					"name": "items",
					"outputs": [
						{
							"internalType": "uint256",
							"name": "",
							"type": "uint256"
						}
					],
					"stateMutability": "view",
					"type": "function"
				},
				{
					"inputs": [],
					"name": "len",
					"outputs": [
						{
							"internalType": "uint256",
							"name": "",
							"type": "uint256"
						}
					],
					"stateMutability": "view",
					"type": "function"
				},
				{
					"inputs": [],
					"name": "pay",
					"outputs": [],
					"stateMutability": "nonpayable",
					"type": "function"
				},
				{
					"inputs": [
						{
							"internalType": "string",
							"name": "message",
							"type": "string"
						}
					],
					"name": "pay",
					"outputs": [],
					"stateMutability": "payable",
					"type": "function"
				},
				{
					"inputs": [],
					"name": "sampleMem",
					"outputs": [
						{
							"internalType": "uint256[]",
							"name": "",
							"type": "uint256[]"
						}
					],
					"stateMutability": "pure",
					"type": "function"
				},
				{
					"inputs": [
						{
							"internalType": "uint256",
							"name": "",
							"type": "uint256"
						}
					],
					"name": "strings",
					"outputs": [
						{
							"internalType": "string",
							"name": "",
							"type": "string"
						}
					],
					"stateMutability": "view",
					"type": "function"
				},
				{
					"inputs": [
						{
							"internalType": "uint256",
							"name": "",
							"type": "uint256"
						},
						{
							"internalType": "uint256",
							"name": "",
							"type": "uint256"
						}
					],
					"name": "stuff",
					"outputs": [
						{
							"internalType": "uint256",
							"name": "",
							"type": "uint256"
						}
					],
					"stateMutability": "view",
					"type": "function"
				}
			],
			"devdoc": {
				"kind": "dev",
				"methods": {},
				"version": 1
			},
			"evm": {
				"assembly": "    /* \"array, bytes, enum, struct.sol\":60:3666  contract Test {... */\n  mstore(0x40, 0x80)\n    /* \"array, bytes, enum, struct.sol\":1210:1237  bytes3 public byteVar = \"s\" */\n  0x7300000000000000000000000000000000000000000000000000000000000000\n  0x01\n  exp(0x0100, 0x00)\n  dup2\n  sload\n  dup2\n  0xffffff\n  mul\n  not\n  and\n  swap1\n  dup4\n  0xe8\n  shr\n  mul\n  or\n  swap1\n  sstore\n  pop\n    /* \"array, bytes, enum, struct.sol\":1244:1277  bytes32 public byteStr = \"testik\" */\n  sstore(0x02, 0x74657374696b0000000000000000000000000000000000000000000000000000)\n    /* \"array, bytes, enum, struct.sol\":1284:1321  bytes public byteStrNonFix = \"testik\" */\n  mload(0x40)\n  dup1\n  0x40\n  add\n  0x40\n  mstore\n  dup1\n  0x06\n  dup2\n  mstore\n  0x20\n  add\n  0x74657374696b0000000000000000000000000000000000000000000000000000\n  dup2\n  mstore\n  pop\n  0x03\n  swap1\n  dup2\n  tag_1\n  swap2\n  swap1\n  tag_2\n  jump\t// in\ntag_1:\n  pop\n    /* \"array, bytes, enum, struct.sol\":1688:1730  string[5] public strings = [\"s\", \"t\", \"r\"] */\n  mload(0x40)\n  dup1\n  0x60\n  add\n  0x40\n  mstore\n  dup1\n  mload(0x40)\n  dup1\n  0x40\n  add\n  0x40\n  mstore\n  dup1\n  0x01\n  dup2\n  mstore\n  0x20\n  add\n  0x7300000000000000000000000000000000000000000000000000000000000000\n  dup2\n  mstore\n  pop\n  dup2\n  mstore\n  0x20\n  add\n  mload(0x40)\n  dup1\n  0x40\n  add\n  0x40\n  mstore\n  dup1\n  0x01\n  dup2\n  mstore\n  0x20\n  add\n  0x7400000000000000000000000000000000000000000000000000000000000000\n  dup2\n  mstore\n  pop\n  dup2\n  mstore\n  0x20\n  add\n  mload(0x40)\n  dup1\n  0x40\n  add\n  0x40\n  mstore\n  dup1\n  0x01\n  dup2\n  mstore\n  0x20\n  add\n  0x7200000000000000000000000000000000000000000000000000000000000000\n  dup2\n  mstore\n  pop\n  dup2\n  mstore\n  pop\n  0x06\n  swap1\n  0x03\n  tag_3\n  swap3\n  swap2\n  swap1\n  tag_4\n  jump\t// in\ntag_3:\n  pop\n    /* \"array, bytes, enum, struct.sol\":1737:1770  uint[10] public items = [1, 2, 3] */\n  mload(0x40)\n  dup1\n  0x60\n  add\n  0x40\n  mstore\n  dup1\n    /* \"array, bytes, enum, struct.sol\":1762:1763  1 */\n  0x01\n    /* \"array, bytes, enum, struct.sol\":1737:1770  uint[10] public items = [1, 2, 3] */\n  0xff\n  and\n  dup2\n  mstore\n  0x20\n  add\n    /* \"array, bytes, enum, struct.sol\":1765:1766  2 */\n  0x02\n    /* \"array, bytes, enum, struct.sol\":1737:1770  uint[10] public items = [1, 2, 3] */\n  0xff\n  and\n  dup2\n  mstore\n  0x20\n  add\n    /* \"array, bytes, enum, struct.sol\":1768:1769  3 */\n  0x03\n    /* \"array, bytes, enum, struct.sol\":1737:1770  uint[10] public items = [1, 2, 3] */\n  0xff\n  and\n  dup2\n  mstore\n  pop\n  0x0b\n  swap1\n  0x03\n  tag_5\n  swap3\n  swap2\n  swap1\n  tag_6\n  jump\t// in\ntag_5:\n  pop\n    /* \"array, bytes, enum, struct.sol\":60:3666  contract Test {... */\n  callvalue\n  dup1\n  iszero\n  tag_7\n  jumpi\n  0x00\n  dup1\n  revert\ntag_7:\n  pop\n  jump(tag_8)\ntag_4:\n  dup3\n  0x05\n  dup2\n  add\n  swap3\n  dup3\n  iszero\n  tag_9\n  jumpi\n  swap2\n  0x20\n  mul\n  dup3\n  add\ntag_10:\n  dup3\n  dup2\n  gt\n  iszero\n  tag_11\n  jumpi\n  dup3\n  mload\n  dup3\n  swap1\n  dup2\n  tag_12\n  swap2\n  swap1\n  tag_13\n  jump\t// in\ntag_12:\n  pop\n  swap2\n  0x20\n  add\n  swap2\n  swap1\n  0x01\n  add\n  swap1\n  jump(tag_10)\ntag_11:\ntag_9:\n  pop\n  swap1\n  pop\n  tag_14\n  swap2\n  swap1\n  tag_15\n  jump\t// in\ntag_14:\n  pop\n  swap1\n  jump\t// out\ntag_6:\n  dup3\n  0x0a\n  dup2\n  add\n  swap3\n  dup3\n  iszero\n  tag_16\n  jumpi\n  swap2\n  0x20\n  mul\n  dup3\n  add\ntag_17:\n  dup3\n  dup2\n  gt\n  iszero\n  tag_18\n  jumpi\n  dup3\n  mload\n  dup3\n  swap1\n  0xff\n  and\n  swap1\n  sstore\n  swap2\n  0x20\n  add\n  swap2\n  swap1\n  0x01\n  add\n  swap1\n  jump(tag_17)\ntag_18:\ntag_16:\n  pop\n  swap1\n  pop\n  tag_19\n  swap2\n  swap1\n  tag_20\n  jump\t// in\ntag_19:\n  pop\n  swap1\n  jump\t// out\ntag_15:\ntag_21:\n  dup1\n  dup3\n  gt\n  iszero\n  tag_22\n  jumpi\n  0x00\n  dup2\n  dup2\n  tag_23\n  swap2\n  swap1\n  tag_24\n  jump\t// in\ntag_23:\n  pop\n  0x01\n  add\n  jump(tag_21)\ntag_22:\n  pop\n  swap1\n  jump\t// out\ntag_20:\ntag_25:\n  dup1\n  dup3\n  gt\n  iszero\n  tag_26\n  jumpi\n  0x00\n  dup2\n  0x00\n  swap1\n  sstore\n  pop\n  0x01\n  add\n  jump(tag_25)\ntag_26:\n  pop\n  swap1\n  jump\t// out\ntag_24:\n  pop\n  dup1\n  sload\n  tag_27\n  swap1\n  tag_28\n  jump\t// in\ntag_27:\n  0x00\n  dup3\n  sstore\n  dup1\n  0x1f\n  lt\n  tag_30\n  jumpi\n  pop\n  jump(tag_29)\ntag_30:\n  0x1f\n  add\n  0x20\n  swap1\n  div\n  swap1\n  0x00\n  mstore\n  keccak256(0x00, 0x20)\n  swap1\n  dup2\n  add\n  swap1\n  tag_31\n  swap2\n  swap1\n  tag_20\n  jump\t// in\ntag_31:\ntag_29:\n  pop\n  jump\t// out\n    /* \"#utility.yul\":7:106   */\ntag_32:\n    /* \"#utility.yul\":59:65   */\n  0x00\n    /* \"#utility.yul\":93:98   */\n  dup2\n    /* \"#utility.yul\":87:99   */\n  mload\n    /* \"#utility.yul\":77:99   */\n  swap1\n  pop\n    /* \"#utility.yul\":7:106   */\n  swap2\n  swap1\n  pop\n  jump\t// out\n    /* \"#utility.yul\":112:292   */\ntag_33:\n    /* \"#utility.yul\":160:237   */\n  0x4e487b7100000000000000000000000000000000000000000000000000000000\n    /* \"#utility.yul\":157:158   */\n  0x00\n    /* \"#utility.yul\":150:238   */\n  mstore\n    /* \"#utility.yul\":257:261   */\n  0x41\n    /* \"#utility.yul\":254:255   */\n  0x04\n    /* \"#utility.yul\":247:262   */\n  mstore\n    /* \"#utility.yul\":281:285   */\n  0x24\n    /* \"#utility.yul\":278:279   */\n  0x00\n    /* \"#utility.yul\":271:286   */\n  revert\n    /* \"#utility.yul\":298:478   */\ntag_34:\n    /* \"#utility.yul\":346:423   */\n  0x4e487b7100000000000000000000000000000000000000000000000000000000\n    /* \"#utility.yul\":343:344   */\n  0x00\n    /* \"#utility.yul\":336:424   */\n  mstore\n    /* \"#utility.yul\":443:447   */\n  0x22\n    /* \"#utility.yul\":440:441   */\n  0x04\n    /* \"#utility.yul\":433:448   */\n  mstore\n    /* \"#utility.yul\":467:471   */\n  0x24\n    /* \"#utility.yul\":464:465   */\n  0x00\n    /* \"#utility.yul\":457:472   */\n  revert\n    /* \"#utility.yul\":484:804   */\ntag_28:\n    /* \"#utility.yul\":528:534   */\n  0x00\n    /* \"#utility.yul\":565:566   */\n  0x02\n    /* \"#utility.yul\":559:563   */\n  dup3\n    /* \"#utility.yul\":555:567   */\n  div\n    /* \"#utility.yul\":545:567   */\n  swap1\n  pop\n    /* \"#utility.yul\":612:613   */\n  0x01\n    /* \"#utility.yul\":606:610   */\n  dup3\n    /* \"#utility.yul\":602:614   */\n  and\n    /* \"#utility.yul\":633:651   */\n  dup1\n    /* \"#utility.yul\":623:704   */\n  tag_58\n  jumpi\n    /* \"#utility.yul\":689:693   */\n  0x7f\n    /* \"#utility.yul\":681:687   */\n  dup3\n    /* \"#utility.yul\":677:694   */\n  and\n    /* \"#utility.yul\":667:694   */\n  swap2\n  pop\n    /* \"#utility.yul\":623:704   */\ntag_58:\n    /* \"#utility.yul\":751:753   */\n  0x20\n    /* \"#utility.yul\":743:749   */\n  dup3\n    /* \"#utility.yul\":740:754   */\n  lt\n    /* \"#utility.yul\":720:738   */\n  dup2\n    /* \"#utility.yul\":717:755   */\n  sub\n    /* \"#utility.yul\":714:798   */\n  tag_59\n  jumpi\n    /* \"#utility.yul\":770:788   */\n  tag_60\n  tag_34\n  jump\t// in\ntag_60:\n    /* \"#utility.yul\":714:798   */\ntag_59:\n    /* \"#utility.yul\":535:804   */\n  pop\n    /* \"#utility.yul\":484:804   */\n  swap2\n  swap1\n  pop\n  jump\t// out\n    /* \"#utility.yul\":810:950   */\ntag_35:\n    /* \"#utility.yul\":858:862   */\n  0x00\n    /* \"#utility.yul\":881:884   */\n  dup2\n    /* \"#utility.yul\":873:884   */\n  swap1\n  pop\n    /* \"#utility.yul\":904:907   */\n  dup2\n    /* \"#utility.yul\":901:902   */\n  0x00\n    /* \"#utility.yul\":894:908   */\n  mstore\n    /* \"#utility.yul\":938:942   */\n  0x20\n    /* \"#utility.yul\":935:936   */\n  0x00\n    /* \"#utility.yul\":925:943   */\n  keccak256\n    /* \"#utility.yul\":917:943   */\n  swap1\n  pop\n    /* \"#utility.yul\":810:950   */\n  swap2\n  swap1\n  pop\n  jump\t// out\n    /* \"#utility.yul\":956:1049   */\ntag_36:\n    /* \"#utility.yul\":993:999   */\n  0x00\n    /* \"#utility.yul\":1040:1042   */\n  0x20\n    /* \"#utility.yul\":1035:1037   */\n  0x1f\n    /* \"#utility.yul\":1028:1033   */\n  dup4\n    /* \"#utility.yul\":1024:1038   */\n  add\n    /* \"#utility.yul\":1020:1043   */\n  div\n    /* \"#utility.yul\":1010:1043   */\n  swap1\n  pop\n    /* \"#utility.yul\":956:1049   */\n  swap2\n  swap1\n  pop\n  jump\t// out\n    /* \"#utility.yul\":1055:1162   */\ntag_37:\n    /* \"#utility.yul\":1099:1107   */\n  0x00\n    /* \"#utility.yul\":1149:1154   */\n  dup3\n    /* \"#utility.yul\":1143:1147   */\n  dup3\n    /* \"#utility.yul\":1139:1155   */\n  shl\n    /* \"#utility.yul\":1118:1155   */\n  swap1\n  pop\n    /* \"#utility.yul\":1055:1162   */\n  swap3\n  swap2\n  pop\n  pop\n  jump\t// out\n    /* \"#utility.yul\":1168:1561   */\ntag_38:\n    /* \"#utility.yul\":1237:1243   */\n  0x00\n    /* \"#utility.yul\":1287:1288   */\n  0x08\n    /* \"#utility.yul\":1275:1285   */\n  dup4\n    /* \"#utility.yul\":1271:1289   */\n  mul\n    /* \"#utility.yul\":1310:1407   */\n  tag_65\n    /* \"#utility.yul\":1340:1406   */\n  0xffffffffffffffffffffffffffffffffffffffffffffffffffffffffffffffff\n    /* \"#utility.yul\":1329:1338   */\n  dup3\n    /* \"#utility.yul\":1310:1407   */\n  tag_37\n  jump\t// in\ntag_65:\n    /* \"#utility.yul\":1428:1467   */\n  tag_66\n    /* \"#utility.yul\":1458:1466   */\n  dup7\n    /* \"#utility.yul\":1447:1456   */\n  dup4\n    /* \"#utility.yul\":1428:1467   */\n  tag_37\n  jump\t// in\ntag_66:\n    /* \"#utility.yul\":1416:1467   */\n  swap6\n  pop\n    /* \"#utility.yul\":1500:1504   */\n  dup1\n    /* \"#utility.yul\":1496:1505   */\n  not\n    /* \"#utility.yul\":1489:1494   */\n  dup5\n    /* \"#utility.yul\":1485:1506   */\n  and\n    /* \"#utility.yul\":1476:1506   */\n  swap4\n  pop\n    /* \"#utility.yul\":1549:1553   */\n  dup1\n    /* \"#utility.yul\":1539:1547   */\n  dup7\n    /* \"#utility.yul\":1535:1554   */\n  and\n    /* \"#utility.yul\":1528:1533   */\n  dup5\n    /* \"#utility.yul\":1525:1555   */\n  or\n    /* \"#utility.yul\":1515:1555   */\n  swap3\n  pop\n    /* \"#utility.yul\":1244:1561   */\n  pop\n  pop\n    /* \"#utility.yul\":1168:1561   */\n  swap4\n  swap3\n  pop\n  pop\n  pop\n  jump\t// out\n    /* \"#utility.yul\":1567:1644   */\ntag_39:\n    /* \"#utility.yul\":1604:1611   */\n  0x00\n    /* \"#utility.yul\":1633:1638   */\n  dup2\n    /* \"#utility.yul\":1622:1638   */\n  swap1\n  pop\n    /* \"#utility.yul\":1567:1644   */\n  swap2\n  swap1\n  pop\n  jump\t// out\n    /* \"#utility.yul\":1650:1710   */\ntag_40:\n    /* \"#utility.yul\":1678:1681   */\n  0x00\n    /* \"#utility.yul\":1699:1704   */\n  dup2\n    /* \"#utility.yul\":1692:1704   */\n  swap1\n  pop\n    /* \"#utility.yul\":1650:1710   */\n  swap2\n  swap1\n  pop\n  jump\t// out\n    /* \"#utility.yul\":1716:1858   */\ntag_41:\n    /* \"#utility.yul\":1766:1775   */\n  0x00\n    /* \"#utility.yul\":1799:1852   */\n  tag_70\n    /* \"#utility.yul\":1817:1851   */\n  tag_71\n    /* \"#utility.yul\":1826:1850   */\n  tag_72\n    /* \"#utility.yul\":1844:1849   */\n  dup5\n    /* \"#utility.yul\":1826:1850   */\n  tag_39\n  jump\t// in\ntag_72:\n    /* \"#utility.yul\":1817:1851   */\n  tag_40\n  jump\t// in\ntag_71:\n    /* \"#utility.yul\":1799:1852   */\n  tag_39\n  jump\t// in\ntag_70:\n    /* \"#utility.yul\":1786:1852   */\n  swap1\n  pop\n    /* \"#utility.yul\":1716:1858   */\n  swap2\n  swap1\n  pop\n  jump\t// out\n    /* \"#utility.yul\":1864:1939   */\ntag_42:\n    /* \"#utility.yul\":1907:1910   */\n  0x00\n    /* \"#utility.yul\":1928:1933   */\n  dup2\n    /* \"#utility.yul\":1921:1933   */\n  swap1\n  pop\n    /* \"#utility.yul\":1864:1939   */\n  swap2\n  swap1\n  pop\n  jump\t// out\n    /* \"#utility.yul\":1945:2214   */\ntag_43:\n    /* \"#utility.yul\":2055:2094   */\n  tag_75\n    /* \"#utility.yul\":2086:2093   */\n  dup4\n    /* \"#utility.yul\":2055:2094   */\n  tag_41\n  jump\t// in\ntag_75:\n    /* \"#utility.yul\":2116:2207   */\n  tag_76\n    /* \"#utility.yul\":2165:2206   */\n  tag_77\n    /* \"#utility.yul\":2189:2205   */\n  dup3\n    /* \"#utility.yul\":2165:2206   */\n  tag_42\n  jump\t// in\ntag_77:\n    /* \"#utility.yul\":2157:2163   */\n  dup5\n    /* \"#utility.yul\":2150:2154   */\n  dup5\n    /* \"#utility.yul\":2144:2155   */\n  sload\n    /* \"#utility.yul\":2116:2207   */\n  tag_38\n  jump\t// in\ntag_76:\n    /* \"#utility.yul\":2110:2114   */\n  dup3\n    /* \"#utility.yul\":2103:2208   */\n  sstore\n    /* \"#utility.yul\":2021:2214   */\n  pop\n    /* \"#utility.yul\":1945:2214   */\n  pop\n  pop\n  pop\n  jump\t// out\n    /* \"#utility.yul\":2220:2293   */\ntag_44:\n    /* \"#utility.yul\":2265:2268   */\n  0x00\n    /* \"#utility.yul\":2220:2293   */\n  swap1\n  jump\t// out\n    /* \"#utility.yul\":2299:2488   */\ntag_45:\n    /* \"#utility.yul\":2376:2408   */\n  tag_80\n  tag_44\n  jump\t// in\ntag_80:\n    /* \"#utility.yul\":2417:2482   */\n  tag_81\n    /* \"#utility.yul\":2475:2481   */\n  dup2\n    /* \"#utility.yul\":2467:2473   */\n  dup5\n    /* \"#utility.yul\":2461:2465   */\n  dup5\n    /* \"#utility.yul\":2417:2482   */\n  tag_43\n  jump\t// in\ntag_81:\n    /* \"#utility.yul\":2352:2488   */\n  pop\n    /* \"#utility.yul\":2299:2488   */\n  pop\n  pop\n  jump\t// out\n    /* \"#utility.yul\":2494:2680   */\ntag_46:\n    /* \"#utility.yul\":2554:2674   */\ntag_83:\n    /* \"#utility.yul\":2571:2574   */\n  dup2\n    /* \"#utility.yul\":2564:2569   */\n  dup2\n    /* \"#utility.yul\":2561:2575   */\n  lt\n    /* \"#utility.yul\":2554:2674   */\n  iszero\n  tag_85\n  jumpi\n    /* \"#utility.yul\":2625:2664   */\n  tag_86\n    /* \"#utility.yul\":2662:2663   */\n  0x00\n    /* \"#utility.yul\":2655:2660   */\n  dup3\n    /* \"#utility.yul\":2625:2664   */\n  tag_45\n  jump\t// in\ntag_86:\n    /* \"#utility.yul\":2598:2599   */\n  0x01\n    /* \"#utility.yul\":2591:2596   */\n  dup2\n    /* \"#utility.yul\":2587:2600   */\n  add\n    /* \"#utility.yul\":2578:2600   */\n  swap1\n  pop\n    /* \"#utility.yul\":2554:2674   */\n  jump(tag_83)\ntag_85:\n    /* \"#utility.yul\":2494:2680   */\n  pop\n  pop\n  jump\t// out\n    /* \"#utility.yul\":2686:3227   */\ntag_47:\n    /* \"#utility.yul\":2786:2788   */\n  0x1f\n    /* \"#utility.yul\":2781:2784   */\n  dup3\n    /* \"#utility.yul\":2778:2789   */\n  gt\n    /* \"#utility.yul\":2775:3220   */\n  iszero\n  tag_88\n  jumpi\n    /* \"#utility.yul\":2820:2857   */\n  tag_89\n    /* \"#utility.yul\":2851:2856   */\n  dup2\n    /* \"#utility.yul\":2820:2857   */\n  tag_35\n  jump\t// in\ntag_89:\n    /* \"#utility.yul\":2903:2932   */\n  tag_90\n    /* \"#utility.yul\":2921:2931   */\n  dup5\n    /* \"#utility.yul\":2903:2932   */\n  tag_36\n  jump\t// in\ntag_90:\n    /* \"#utility.yul\":2893:2901   */\n  dup2\n    /* \"#utility.yul\":2889:2933   */\n  add\n    /* \"#utility.yul\":3086:3088   */\n  0x20\n    /* \"#utility.yul\":3074:3084   */\n  dup6\n    /* \"#utility.yul\":3071:3089   */\n  lt\n    /* \"#utility.yul\":3068:3117   */\n  iszero\n  tag_91\n  jumpi\n    /* \"#utility.yul\":3107:3115   */\n  dup2\n    /* \"#utility.yul\":3092:3115   */\n  swap1\n  pop\n    /* \"#utility.yul\":3068:3117   */\ntag_91:\n    /* \"#utility.yul\":3130:3210   */\n  tag_92\n    /* \"#utility.yul\":3186:3208   */\n  tag_93\n    /* \"#utility.yul\":3204:3207   */\n  dup6\n    /* \"#utility.yul\":3186:3208   */\n  tag_36\n  jump\t// in\ntag_93:\n    /* \"#utility.yul\":3176:3184   */\n  dup4\n    /* \"#utility.yul\":3172:3209   */\n  add\n    /* \"#utility.yul\":3159:3170   */\n  dup3\n    /* \"#utility.yul\":3130:3210   */\n  tag_46\n  jump\t// in\ntag_92:\n    /* \"#utility.yul\":2790:3220   */\n  pop\n  pop\n    /* \"#utility.yul\":2775:3220   */\ntag_88:\n    /* \"#utility.yul\":2686:3227   */\n  pop\n  pop\n  pop\n  jump\t// out\n    /* \"#utility.yul\":3233:3350   */\ntag_48:\n    /* \"#utility.yul\":3287:3295   */\n  0x00\n    /* \"#utility.yul\":3337:3342   */\n  dup3\n    /* \"#utility.yul\":3331:3335   */\n  dup3\n    /* \"#utility.yul\":3327:3343   */\n  shr\n    /* \"#utility.yul\":3306:3343   */\n  swap1\n  pop\n    /* \"#utility.yul\":3233:3350   */\n  swap3\n  swap2\n  pop\n  pop\n  jump\t// out\n    /* \"#utility.yul\":3356:3525   */\ntag_49:\n    /* \"#utility.yul\":3400:3406   */\n  0x00\n    /* \"#utility.yul\":3433:3484   */\n  tag_96\n    /* \"#utility.yul\":3481:3482   */\n  0x00\n    /* \"#utility.yul\":3477:3483   */\n  not\n    /* \"#utility.yul\":3469:3474   */\n  dup5\n    /* \"#utility.yul\":3466:3467   */\n  0x08\n    /* \"#utility.yul\":3462:3475   */\n  mul\n    /* \"#utility.yul\":3433:3484   */\n  tag_48\n  jump\t// in\ntag_96:\n    /* \"#utility.yul\":3429:3485   */\n  not\n    /* \"#utility.yul\":3514:3518   */\n  dup1\n    /* \"#utility.yul\":3508:3512   */\n  dup4\n    /* \"#utility.yul\":3504:3519   */\n  and\n    /* \"#utility.yul\":3494:3519   */\n  swap2\n  pop\n    /* \"#utility.yul\":3407:3525   */\n  pop\n    /* \"#utility.yul\":3356:3525   */\n  swap3\n  swap2\n  pop\n  pop\n  jump\t// out\n    /* \"#utility.yul\":3530:3825   */\ntag_50:\n    /* \"#utility.yul\":3606:3610   */\n  0x00\n    /* \"#utility.yul\":3752:3781   */\n  tag_98\n    /* \"#utility.yul\":3777:3780   */\n  dup4\n    /* \"#utility.yul\":3771:3775   */\n  dup4\n    /* \"#utility.yul\":3752:3781   */\n  tag_49\n  jump\t// in\ntag_98:\n    /* \"#utility.yul\":3744:3781   */\n  swap2\n  pop\n    /* \"#utility.yul\":3814:3817   */\n  dup3\n    /* \"#utility.yul\":3811:3812   */\n  0x02\n    /* \"#utility.yul\":3807:3818   */\n  mul\n    /* \"#utility.yul\":3801:3805   */\n  dup3\n    /* \"#utility.yul\":3798:3819   */\n  or\n    /* \"#utility.yul\":3790:3819   */\n  swap1\n  pop\n    /* \"#utility.yul\":3530:3825   */\n  swap3\n  swap2\n  pop\n  pop\n  jump\t// out\n    /* \"#utility.yul\":3830:5222   */\ntag_2:\n    /* \"#utility.yul\":3946:3983   */\n  tag_100\n    /* \"#utility.yul\":3979:3982   */\n  dup3\n    /* \"#utility.yul\":3946:3983   */\n  tag_32\n  jump\t// in\ntag_100:\n    /* \"#utility.yul\":4048:4066   */\n  0xffffffffffffffff\n    /* \"#utility.yul\":4040:4046   */\n  dup2\n    /* \"#utility.yul\":4037:4067   */\n  gt\n    /* \"#utility.yul\":4034:4090   */\n  iszero\n  tag_101\n  jumpi\n    /* \"#utility.yul\":4070:4088   */\n  tag_102\n  tag_33\n  jump\t// in\ntag_102:\n    /* \"#utility.yul\":4034:4090   */\ntag_101:\n    /* \"#utility.yul\":4114:4152   */\n  tag_103\n    /* \"#utility.yul\":4146:4150   */\n  dup3\n    /* \"#utility.yul\":4140:4151   */\n  sload\n    /* \"#utility.yul\":4114:4152   */\n  tag_28\n  jump\t// in\ntag_103:\n    /* \"#utility.yul\":4199:4265   */\n  tag_104\n    /* \"#utility.yul\":4258:4264   */\n  dup3\n    /* \"#utility.yul\":4250:4256   */\n  dup3\n    /* \"#utility.yul\":4244:4248   */\n  dup6\n    /* \"#utility.yul\":4199:4265   */\n  tag_47\n  jump\t// in\ntag_104:\n    /* \"#utility.yul\":4292:4293   */\n  0x00\n    /* \"#utility.yul\":4316:4320   */\n  0x20\n    /* \"#utility.yul\":4303:4320   */\n  swap1\n  pop\n    /* \"#utility.yul\":4348:4350   */\n  0x1f\n    /* \"#utility.yul\":4340:4346   */\n  dup4\n    /* \"#utility.yul\":4337:4351   */\n  gt\n    /* \"#utility.yul\":4365:4366   */\n  0x01\n    /* \"#utility.yul\":4360:4977   */\n  dup2\n  eq\n  tag_106\n  jumpi\n    /* \"#utility.yul\":5021:5022   */\n  0x00\n    /* \"#utility.yul\":5038:5044   */\n  dup5\n    /* \"#utility.yul\":5035:5112   */\n  iszero\n  tag_107\n  jumpi\n    /* \"#utility.yul\":5087:5096   */\n  dup3\n    /* \"#utility.yul\":5082:5085   */\n  dup8\n    /* \"#utility.yul\":5078:5097   */\n  add\n    /* \"#utility.yul\":5072:5098   */\n  mload\n    /* \"#utility.yul\":5063:5098   */\n  swap1\n  pop\n    /* \"#utility.yul\":5035:5112   */\ntag_107:\n    /* \"#utility.yul\":5138:5205   */\n  tag_108\n    /* \"#utility.yul\":5198:5204   */\n  dup6\n    /* \"#utility.yul\":5191:5196   */\n  dup3\n    /* \"#utility.yul\":5138:5205   */\n  tag_50\n  jump\t// in\ntag_108:\n    /* \"#utility.yul\":5132:5136   */\n  dup7\n    /* \"#utility.yul\":5125:5206   */\n  sstore\n    /* \"#utility.yul\":4994:5216   */\n  pop\n    /* \"#utility.yul\":4330:5216   */\n  jump(tag_105)\n    /* \"#utility.yul\":4360:4977   */\ntag_106:\n    /* \"#utility.yul\":4412:4416   */\n  0x1f\n    /* \"#utility.yul\":4408:4417   */\n  not\n    /* \"#utility.yul\":4400:4406   */\n  dup5\n    /* \"#utility.yul\":4396:4418   */\n  and\n    /* \"#utility.yul\":4446:4482   */\n  tag_109\n    /* \"#utility.yul\":4477:4481   */\n  dup7\n    /* \"#utility.yul\":4446:4482   */\n  tag_35\n  jump\t// in\ntag_109:\n    /* \"#utility.yul\":4504:4505   */\n  0x00\n    /* \"#utility.yul\":4518:4726   */\ntag_110:\n    /* \"#utility.yul\":4532:4539   */\n  dup3\n    /* \"#utility.yul\":4529:4530   */\n  dup2\n    /* \"#utility.yul\":4526:4540   */\n  lt\n    /* \"#utility.yul\":4518:4726   */\n  iszero\n  tag_112\n  jumpi\n    /* \"#utility.yul\":4611:4620   */\n  dup5\n    /* \"#utility.yul\":4606:4609   */\n  dup10\n    /* \"#utility.yul\":4602:4621   */\n  add\n    /* \"#utility.yul\":4596:4622   */\n  mload\n    /* \"#utility.yul\":4588:4594   */\n  dup3\n    /* \"#utility.yul\":4581:4623   */\n  sstore\n    /* \"#utility.yul\":4662:4663   */\n  0x01\n    /* \"#utility.yul\":4654:4660   */\n  dup3\n    /* \"#utility.yul\":4650:4664   */\n  add\n    /* \"#utility.yul\":4640:4664   */\n  swap2\n  pop\n    /* \"#utility.yul\":4709:4711   */\n  0x20\n    /* \"#utility.yul\":4698:4707   */\n  dup6\n    /* \"#utility.yul\":4694:4712   */\n  add\n    /* \"#utility.yul\":4681:4712   */\n  swap5\n  pop\n    /* \"#utility.yul\":4555:4559   */\n  0x20\n    /* \"#utility.yul\":4552:4553   */\n  dup2\n    /* \"#utility.yul\":4548:4560   */\n  add\n    /* \"#utility.yul\":4543:4560   */\n  swap1\n  pop\n    /* \"#utility.yul\":4518:4726   */\n  jump(tag_110)\ntag_112:\n    /* \"#utility.yul\":4754:4760   */\n  dup7\n    /* \"#utility.yul\":4745:4752   */\n  dup4\n    /* \"#utility.yul\":4742:4761   */\n  lt\n    /* \"#utility.yul\":4739:4918   */\n  iszero\n  tag_113\n  jumpi\n    /* \"#utility.yul\":4812:4821   */\n  dup5\n    /* \"#utility.yul\":4807:4810   */\n  dup10\n    /* \"#utility.yul\":4803:4822   */\n  add\n    /* \"#utility.yul\":4797:4823   */\n  mload\n    /* \"#utility.yul\":4855:4903   */\n  tag_114\n    /* \"#utility.yul\":4897:4901   */\n  0x1f\n    /* \"#utility.yul\":4889:4895   */\n  dup10\n    /* \"#utility.yul\":4885:4902   */\n  and\n    /* \"#utility.yul\":4874:4883   */\n  dup3\n    /* \"#utility.yul\":4855:4903   */\n  tag_49\n  jump\t// in\ntag_114:\n    /* \"#utility.yul\":4847:4853   */\n  dup4\n    /* \"#utility.yul\":4840:4904   */\n  sstore\n    /* \"#utility.yul\":4762:4918   */\n  pop\n    /* \"#utility.yul\":4739:4918   */\ntag_113:\n    /* \"#utility.yul\":4964:4965   */\n  0x01\n    /* \"#utility.yul\":4960:4961   */\n  0x02\n    /* \"#utility.yul\":4952:4958   */\n  dup9\n    /* \"#utility.yul\":4948:4962   */\n  mul\n    /* \"#utility.yul\":4944:4966   */\n  add\n    /* \"#utility.yul\":4938:4942   */\n  dup9\n    /* \"#utility.yul\":4931:4967   */\n  sstore\n    /* \"#utility.yul\":4367:4977   */\n  pop\n  pop\n  pop\n    /* \"#utility.yul\":4330:5216   */\ntag_105:\n  pop\n    /* \"#utility.yul\":3921:5222   */\n  pop\n  pop\n  pop\n    /* \"#utility.yul\":3830:5222   */\n  pop\n  pop\n  jump\t// out\n    /* \"#utility.yul\":5228:5369   */\ntag_51:\n    /* \"#utility.yul\":5277:5281   */\n  0x00\n    /* \"#utility.yul\":5300:5303   */\n  dup2\n    /* \"#utility.yul\":5292:5303   */\n  swap1\n  pop\n    /* \"#utility.yul\":5323:5326   */\n  dup2\n    /* \"#utility.yul\":5320:5321   */\n  0x00\n    /* \"#utility.yul\":5313:5327   */\n  mstore\n    /* \"#utility.yul\":5357:5361   */\n  0x20\n    /* \"#utility.yul\":5354:5355   */\n  0x00\n    /* \"#utility.yul\":5344:5362   */\n  keccak256\n    /* \"#utility.yul\":5336:5362   */\n  swap1\n  pop\n    /* \"#utility.yul\":5228:5369   */\n  swap2\n  swap1\n  pop\n  jump\t// out\n    /* \"#utility.yul\":5375:5918   */\ntag_52:\n    /* \"#utility.yul\":5476:5478   */\n  0x1f\n    /* \"#utility.yul\":5471:5474   */\n  dup3\n    /* \"#utility.yul\":5468:5479   */\n  gt\n    /* \"#utility.yul\":5465:5911   */\n  iszero\n  tag_117\n  jumpi\n    /* \"#utility.yul\":5510:5548   */\n  tag_118\n    /* \"#utility.yul\":5542:5547   */\n  dup2\n    /* \"#utility.yul\":5510:5548   */\n  tag_51\n  jump\t// in\ntag_118:\n    /* \"#utility.yul\":5594:5623   */\n  tag_119\n    /* \"#utility.yul\":5612:5622   */\n  dup5\n    /* \"#utility.yul\":5594:5623   */\n  tag_36\n  jump\t// in\ntag_119:\n    /* \"#utility.yul\":5584:5592   */\n  dup2\n    /* \"#utility.yul\":5580:5624   */\n  add\n    /* \"#utility.yul\":5777:5779   */\n  0x20\n    /* \"#utility.yul\":5765:5775   */\n  dup6\n    /* \"#utility.yul\":5762:5780   */\n  lt\n    /* \"#utility.yul\":5759:5808   */\n  iszero\n  tag_120\n  jumpi\n    /* \"#utility.yul\":5798:5806   */\n  dup2\n    /* \"#utility.yul\":5783:5806   */\n  swap1\n  pop\n    /* \"#utility.yul\":5759:5808   */\ntag_120:\n    /* \"#utility.yul\":5821:5901   */\n  tag_121\n    /* \"#utility.yul\":5877:5899   */\n  tag_122\n    /* \"#utility.yul\":5895:5898   */\n  dup6\n    /* \"#utility.yul\":5877:5899   */\n  tag_36\n  jump\t// in\ntag_122:\n    /* \"#utility.yul\":5867:5875   */\n  dup4\n    /* \"#utility.yul\":5863:5900   */\n  add\n    /* \"#utility.yul\":5850:5861   */\n  dup3\n    /* \"#utility.yul\":5821:5901   */\n  tag_46\n  jump\t// in\ntag_121:\n    /* \"#utility.yul\":5480:5911   */\n  pop\n  pop\n    /* \"#utility.yul\":5465:5911   */\ntag_117:\n    /* \"#utility.yul\":5375:5918   */\n  pop\n  pop\n  pop\n  jump\t// out\n    /* \"#utility.yul\":5924:7319   */\ntag_13:\n    /* \"#utility.yul\":6041:6078   */\n  tag_124\n    /* \"#utility.yul\":6074:6077   */\n  dup3\n    /* \"#utility.yul\":6041:6078   */\n  tag_32\n  jump\t// in\ntag_124:\n    /* \"#utility.yul\":6143:6161   */\n  0xffffffffffffffff\n    /* \"#utility.yul\":6135:6141   */\n  dup2\n    /* \"#utility.yul\":6132:6162   */\n  gt\n    /* \"#utility.yul\":6129:6185   */\n  iszero\n  tag_125\n  jumpi\n    /* \"#utility.yul\":6165:6183   */\n  tag_126\n  tag_33\n  jump\t// in\ntag_126:\n    /* \"#utility.yul\":6129:6185   */\ntag_125:\n    /* \"#utility.yul\":6209:6247   */\n  tag_127\n    /* \"#utility.yul\":6241:6245   */\n  dup3\n    /* \"#utility.yul\":6235:6246   */\n  sload\n    /* \"#utility.yul\":6209:6247   */\n  tag_28\n  jump\t// in\ntag_127:\n    /* \"#utility.yul\":6294:6361   */\n  tag_128\n    /* \"#utility.yul\":6354:6360   */\n  dup3\n    /* \"#utility.yul\":6346:6352   */\n  dup3\n    /* \"#utility.yul\":6340:6344   */\n  dup6\n    /* \"#utility.yul\":6294:6361   */\n  tag_52\n  jump\t// in\ntag_128:\n    /* \"#utility.yul\":6388:6389   */\n  0x00\n    /* \"#utility.yul\":6412:6416   */\n  0x20\n    /* \"#utility.yul\":6399:6416   */\n  swap1\n  pop\n    /* \"#utility.yul\":6444:6446   */\n  0x1f\n    /* \"#utility.yul\":6436:6442   */\n  dup4\n    /* \"#utility.yul\":6433:6447   */\n  gt\n    /* \"#utility.yul\":6461:6462   */\n  0x01\n    /* \"#utility.yul\":6456:7074   */\n  dup2\n  eq\n  tag_130\n  jumpi\n    /* \"#utility.yul\":7118:7119   */\n  0x00\n    /* \"#utility.yul\":7135:7141   */\n  dup5\n    /* \"#utility.yul\":7132:7209   */\n  iszero\n  tag_131\n  jumpi\n    /* \"#utility.yul\":7184:7193   */\n  dup3\n    /* \"#utility.yul\":7179:7182   */\n  dup8\n    /* \"#utility.yul\":7175:7194   */\n  add\n    /* \"#utility.yul\":7169:7195   */\n  mload\n    /* \"#utility.yul\":7160:7195   */\n  swap1\n  pop\n    /* \"#utility.yul\":7132:7209   */\ntag_131:\n    /* \"#utility.yul\":7235:7302   */\n  tag_132\n    /* \"#utility.yul\":7295:7301   */\n  dup6\n    /* \"#utility.yul\":7288:7293   */\n  dup3\n    /* \"#utility.yul\":7235:7302   */\n  tag_50\n  jump\t// in\ntag_132:\n    /* \"#utility.yul\":7229:7233   */\n  dup7\n    /* \"#utility.yul\":7222:7303   */\n  sstore\n    /* \"#utility.yul\":7091:7313   */\n  pop\n    /* \"#utility.yul\":6426:7313   */\n  jump(tag_129)\n    /* \"#utility.yul\":6456:7074   */\ntag_130:\n    /* \"#utility.yul\":6508:6512   */\n  0x1f\n    /* \"#utility.yul\":6504:6513   */\n  not\n    /* \"#utility.yul\":6496:6502   */\n  dup5\n    /* \"#utility.yul\":6492:6514   */\n  and\n    /* \"#utility.yul\":6542:6579   */\n  tag_133\n    /* \"#utility.yul\":6574:6578   */\n  dup7\n    /* \"#utility.yul\":6542:6579   */\n  tag_51\n  jump\t// in\ntag_133:\n    /* \"#utility.yul\":6601:6602   */\n  0x00\n    /* \"#utility.yul\":6615:6823   */\ntag_134:\n    /* \"#utility.yul\":6629:6636   */\n  dup3\n    /* \"#utility.yul\":6626:6627   */\n  dup2\n    /* \"#utility.yul\":6623:6637   */\n  lt\n    /* \"#utility.yul\":6615:6823   */\n  iszero\n  tag_136\n  jumpi\n    /* \"#utility.yul\":6708:6717   */\n  dup5\n    /* \"#utility.yul\":6703:6706   */\n  dup10\n    /* \"#utility.yul\":6699:6718   */\n  add\n    /* \"#utility.yul\":6693:6719   */\n  mload\n    /* \"#utility.yul\":6685:6691   */\n  dup3\n    /* \"#utility.yul\":6678:6720   */\n  sstore\n    /* \"#utility.yul\":6759:6760   */\n  0x01\n    /* \"#utility.yul\":6751:6757   */\n  dup3\n    /* \"#utility.yul\":6747:6761   */\n  add\n    /* \"#utility.yul\":6737:6761   */\n  swap2\n  pop\n    /* \"#utility.yul\":6806:6808   */\n  0x20\n    /* \"#utility.yul\":6795:6804   */\n  dup6\n    /* \"#utility.yul\":6791:6809   */\n  add\n    /* \"#utility.yul\":6778:6809   */\n  swap5\n  pop\n    /* \"#utility.yul\":6652:6656   */\n  0x20\n    /* \"#utility.yul\":6649:6650   */\n  dup2\n    /* \"#utility.yul\":6645:6657   */\n  add\n    /* \"#utility.yul\":6640:6657   */\n  swap1\n  pop\n    /* \"#utility.yul\":6615:6823   */\n  jump(tag_134)\ntag_136:\n    /* \"#utility.yul\":6851:6857   */\n  dup7\n    /* \"#utility.yul\":6842:6849   */\n  dup4\n    /* \"#utility.yul\":6839:6858   */\n  lt\n    /* \"#utility.yul\":6836:7015   */\n  iszero\n  tag_137\n  jumpi\n    /* \"#utility.yul\":6909:6918   */\n  dup5\n    /* \"#utility.yul\":6904:6907   */\n  dup10\n    /* \"#utility.yul\":6900:6919   */\n  add\n    /* \"#utility.yul\":6894:6920   */\n  mload\n    /* \"#utility.yul\":6952:7000   */\n  tag_138\n    /* \"#utility.yul\":6994:6998   */\n  0x1f\n    /* \"#utility.yul\":6986:6992   */\n  dup10\n    /* \"#utility.yul\":6982:6999   */\n  and\n    /* \"#utility.yul\":6971:6980   */\n  dup3\n    /* \"#utility.yul\":6952:7000   */\n  tag_49\n  jump\t// in\ntag_138:\n    /* \"#utility.yul\":6944:6950   */\n  dup4\n    /* \"#utility.yul\":6937:7001   */\n  sstore\n    /* \"#utility.yul\":6859:7015   */\n  pop\n    /* \"#utility.yul\":6836:7015   */\ntag_137:\n    /* \"#utility.yul\":7061:7062   */\n  0x01\n    /* \"#utility.yul\":7057:7058   */\n  0x02\n    /* \"#utility.yul\":7049:7055   */\n  dup9\n    /* \"#utility.yul\":7045:7059   */\n  mul\n    /* \"#utility.yul\":7041:7063   */\n  add\n    /* \"#utility.yul\":7035:7039   */\n  dup9\n    /* \"#utility.yul\":7028:7064   */\n  sstore\n    /* \"#utility.yul\":6463:7074   */\n  pop\n  pop\n  pop\n    /* \"#utility.yul\":6426:7313   */\ntag_129:\n  pop\n    /* \"#utility.yul\":6016:7319   */\n  pop\n  pop\n  pop\n    /* \"#utility.yul\":5924:7319   */\n  pop\n  pop\n  jump\t// out\n    /* \"array, bytes, enum, struct.sol\":60:3666  contract Test {... */\ntag_8:\n  dataSize(sub_0)\n  dup1\n  dataOffset(sub_0)\n  0x00\n  codecopy\n  0x00\n  return\nstop\n\nsub_0: assembly {\n        /* \"array, bytes, enum, struct.sol\":60:3666  contract Test {... */\n      mstore(0x40, 0x80)\n      jumpi(tag_1, lt(calldatasize, 0x04))\n      shr(0xe0, calldataload(0x00))\n      dup1\n      0x8f5c8bf3\n      gt\n      tag_19\n      jumpi\n      dup1\n      0xbd8425e0\n      gt\n      tag_20\n      jumpi\n      dup1\n      0xbd8425e0\n      eq\n      tag_14\n      jumpi\n      dup1\n      0xbfb231d2\n      eq\n      tag_15\n      jumpi\n      dup1\n      0xc045ad4f\n      eq\n      tag_16\n      jumpi\n      dup1\n      0xcb8beaf6\n      eq\n      tag_17\n      jumpi\n      dup1\n      0xf3ae5738\n      eq\n      tag_18\n      jumpi\n      jump(tag_1)\n    tag_20:\n      dup1\n      0x8f5c8bf3\n      eq\n      tag_10\n      jumpi\n      dup1\n      0x977a767c\n      eq\n      tag_11\n      jumpi\n      dup1\n      0x9b185d15\n      eq\n      tag_12\n      jumpi\n      dup1\n      0xbbdfbfba\n      eq\n      tag_13\n      jumpi\n      jump(tag_1)\n    tag_19:\n      dup1\n      0x56d88e27\n      gt\n      tag_21\n      jumpi\n      dup1\n      0x56d88e27\n      eq\n      tag_6\n      jumpi\n      dup1\n      0x691a82eb\n      eq\n      tag_7\n      jumpi\n      dup1\n      0x6f716855\n      eq\n      tag_8\n      jumpi\n      dup1\n      0x8b3c8a65\n      eq\n      tag_9\n      jumpi\n      jump(tag_1)\n    tag_21:\n      dup1\n      0x01725a0b\n      eq\n      tag_2\n      jumpi\n      dup1\n      0x1b9265b8\n      eq\n      tag_3\n      jumpi\n      dup1\n      0x27e235e3\n      eq\n      tag_4\n      jumpi\n      dup1\n      0x2b66d72e\n      eq\n      tag_5\n      jumpi\n    tag_1:\n      0x00\n      dup1\n      revert\n        /* \"array, bytes, enum, struct.sol\":1950:3003  function demo() public {... */\n    tag_2:\n      callvalue\n      dup1\n      iszero\n      tag_22\n      jumpi\n      0x00\n      dup1\n      revert\n    tag_22:\n      pop\n      tag_23\n      tag_24\n      jump\t// in\n    tag_23:\n      stop\n        /* \"array, bytes, enum, struct.sol\":3388:3452  function pay() public {... */\n    tag_3:\n      callvalue\n      dup1\n      iszero\n      tag_25\n      jumpi\n      0x00\n      dup1\n      revert\n    tag_25:\n      pop\n      tag_26\n      tag_27\n      jump\t// in\n    tag_26:\n      stop\n        /* \"array, bytes, enum, struct.sol\":417:460  mapping(address => Balance) public balances */\n    tag_4:\n      callvalue\n      dup1\n      iszero\n      tag_28\n      jumpi\n      0x00\n      dup1\n      revert\n    tag_28:\n      pop\n      tag_29\n      0x04\n      dup1\n      calldatasize\n      sub\n      dup2\n      add\n      swap1\n      tag_30\n      swap2\n      swap1\n      tag_31\n      jump\t// in\n    tag_30:\n      tag_32\n      jump\t// in\n    tag_29:\n      mload(0x40)\n      tag_33\n      swap2\n      swap1\n      tag_34\n      jump\t// in\n    tag_33:\n      mload(0x40)\n      dup1\n      swap2\n      sub\n      swap1\n      return\n        /* \"array, bytes, enum, struct.sol\":469:865  function pay(string memory message) public payable {... */\n    tag_5:\n      tag_35\n      0x04\n      dup1\n      calldatasize\n      sub\n      dup2\n      add\n      swap1\n      tag_36\n      swap2\n      swap1\n      tag_37\n      jump\t// in\n    tag_36:\n      tag_38\n      jump\t// in\n    tag_35:\n      stop\n        /* \"array, bytes, enum, struct.sol\":1598:1613  uint public len */\n    tag_6:\n      callvalue\n      dup1\n      iszero\n      tag_39\n      jumpi\n      0x00\n      dup1\n      revert\n    tag_39:\n      pop\n      tag_40\n      tag_41\n      jump\t// in\n    tag_40:\n      mload(0x40)\n      tag_42\n      swap2\n      swap1\n      tag_34\n      jump\t// in\n    tag_42:\n      mload(0x40)\n      dup1\n      swap2\n      sub\n      swap1\n      return\n        /* \"array, bytes, enum, struct.sol\":1570:1591  uint[] public dynamic */\n    tag_7:\n      callvalue\n      dup1\n      iszero\n      tag_43\n      jumpi\n      0x00\n      dup1\n      revert\n    tag_43:\n      pop\n      tag_44\n      0x04\n      dup1\n      calldatasize\n      sub\n      dup2\n      add\n      swap1\n      tag_45\n      swap2\n      swap1\n      tag_46\n      jump\t// in\n    tag_45:\n      tag_47\n      jump\t// in\n    tag_44:\n      mload(0x40)\n      tag_48\n      swap2\n      swap1\n      tag_34\n      jump\t// in\n    tag_48:\n      mload(0x40)\n      dup1\n      swap2\n      sub\n      swap1\n      return\n        /* \"array, bytes, enum, struct.sol\":1210:1237  bytes3 public byteVar = \"s\" */\n    tag_8:\n      callvalue\n      dup1\n      iszero\n      tag_49\n      jumpi\n      0x00\n      dup1\n      revert\n    tag_49:\n      pop\n      tag_50\n      tag_51\n      jump\t// in\n    tag_50:\n      mload(0x40)\n      tag_52\n      swap2\n      swap1\n      tag_53\n      jump\t// in\n    tag_52:\n      mload(0x40)\n      dup1\n      swap2\n      sub\n      swap1\n      return\n        /* \"array, bytes, enum, struct.sol\":1688:1730  string[5] public strings = [\"s\", \"t\", \"r\"] */\n    tag_9:\n      callvalue\n      dup1\n      iszero\n      tag_54\n      jumpi\n      0x00\n      dup1\n      revert\n    tag_54:\n      pop\n      tag_55\n      0x04\n      dup1\n      calldatasize\n      sub\n      dup2\n      add\n      swap1\n      tag_56\n      swap2\n      swap1\n      tag_46\n      jump\t// in\n    tag_56:\n      tag_57\n      jump\t// in\n    tag_55:\n      mload(0x40)\n      tag_58\n      swap2\n      swap1\n      tag_59\n      jump\t// in\n    tag_58:\n      mload(0x40)\n      dup1\n      swap2\n      sub\n      swap1\n      return\n        /* \"array, bytes, enum, struct.sol\":3015:3250  function sampleMem() public pure returns(uint[] memory) {... */\n    tag_10:\n      callvalue\n      dup1\n      iszero\n      tag_60\n      jumpi\n      0x00\n      dup1\n      revert\n    tag_60:\n      pop\n      tag_61\n      tag_62\n      jump\t// in\n    tag_61:\n      mload(0x40)\n      tag_63\n      swap2\n      swap1\n      tag_64\n      jump\t// in\n    tag_63:\n      mload(0x40)\n      dup1\n      swap2\n      sub\n      swap1\n      return\n        /* \"array, bytes, enum, struct.sol\":873:1015  function getPayment(address _addr, uint _index) public view returns(Payment memory) {... */\n    tag_11:\n      callvalue\n      dup1\n      iszero\n      tag_65\n      jumpi\n      0x00\n      dup1\n      revert\n    tag_65:\n      pop\n      tag_66\n      0x04\n      dup1\n      calldatasize\n      sub\n      dup2\n      add\n      swap1\n      tag_67\n      swap2\n      swap1\n      tag_68\n      jump\t// in\n    tag_67:\n      tag_69\n      jump\t// in\n    tag_66:\n      mload(0x40)\n      tag_70\n      swap2\n      swap1\n      tag_71\n      jump\t// in\n    tag_70:\n      mload(0x40)\n      dup1\n      swap2\n      sub\n      swap1\n      return\n        /* \"array, bytes, enum, struct.sol\":1284:1321  bytes public byteStrNonFix = \"testik\" */\n    tag_12:\n      callvalue\n      dup1\n      iszero\n      tag_72\n      jumpi\n      0x00\n      dup1\n      revert\n    tag_72:\n      pop\n      tag_73\n      tag_74\n      jump\t// in\n    tag_73:\n      mload(0x40)\n      tag_75\n      swap2\n      swap1\n      tag_76\n      jump\t// in\n    tag_75:\n      mload(0x40)\n      dup1\n      swap2\n      sub\n      swap1\n      return\n        /* \"array, bytes, enum, struct.sol\":3460:3535  function delivered() public {... */\n    tag_13:\n      callvalue\n      dup1\n      iszero\n      tag_77\n      jumpi\n      0x00\n      dup1\n      revert\n    tag_77:\n      pop\n      tag_78\n      tag_79\n      jump\t// in\n    tag_78:\n      stop\n        /* \"array, bytes, enum, struct.sol\":1917:1941  uint[10][5] public stuff */\n    tag_14:\n      callvalue\n      dup1\n      iszero\n      tag_80\n      jumpi\n      0x00\n      dup1\n      revert\n    tag_80:\n      pop\n      tag_81\n      0x04\n      dup1\n      calldatasize\n      sub\n      dup2\n      add\n      swap1\n      tag_82\n      swap2\n      swap1\n      tag_83\n      jump\t// in\n    tag_82:\n      tag_84\n      jump\t// in\n    tag_81:\n      mload(0x40)\n      tag_85\n      swap2\n      swap1\n      tag_34\n      jump\t// in\n    tag_85:\n      mload(0x40)\n      dup1\n      swap2\n      sub\n      swap1\n      return\n        /* \"array, bytes, enum, struct.sol\":1737:1770  uint[10] public items = [1, 2, 3] */\n    tag_15:\n      callvalue\n      dup1\n      iszero\n      tag_86\n      jumpi\n      0x00\n      dup1\n      revert\n    tag_86:\n      pop\n      tag_87\n      0x04\n      dup1\n      calldatasize\n      sub\n      dup2\n      add\n      swap1\n      tag_88\n      swap2\n      swap1\n      tag_46\n      jump\t// in\n    tag_88:\n      tag_89\n      jump\t// in\n    tag_87:\n      mload(0x40)\n      tag_90\n      swap2\n      swap1\n      tag_34\n      jump\t// in\n    tag_90:\n      mload(0x40)\n      dup1\n      swap2\n      sub\n      swap1\n      return\n        /* \"array, bytes, enum, struct.sol\":3356:3379  Status public curStatus */\n    tag_16:\n      callvalue\n      dup1\n      iszero\n      tag_91\n      jumpi\n      0x00\n      dup1\n      revert\n    tag_91:\n      pop\n      tag_92\n      tag_93\n      jump\t// in\n    tag_92:\n      mload(0x40)\n      tag_94\n      swap2\n      swap1\n      tag_95\n      jump\t// in\n    tag_94:\n      mload(0x40)\n      dup1\n      swap2\n      sub\n      swap1\n      return\n        /* \"array, bytes, enum, struct.sol\":1244:1277  bytes32 public byteStr = \"testik\" */\n    tag_17:\n      callvalue\n      dup1\n      iszero\n      tag_96\n      jumpi\n      0x00\n      dup1\n      revert\n    tag_96:\n      pop\n      tag_97\n      tag_98\n      jump\t// in\n    tag_97:\n      mload(0x40)\n      tag_99\n      swap2\n      swap1\n      tag_100\n      jump\t// in\n    tag_99:\n      mload(0x40)\n      dup1\n      swap2\n      sub\n      swap1\n      return\n        /* \"array, bytes, enum, struct.sol\":1393:1484  function bytesTest() public view returns(bytes1) {... */\n    tag_18:\n      callvalue\n      dup1\n      iszero\n      tag_101\n      jumpi\n      0x00\n      dup1\n      revert\n    tag_101:\n      pop\n      tag_102\n      tag_103\n      jump\t// in\n    tag_102:\n      mload(0x40)\n      tag_104\n      swap2\n      swap1\n      tag_105\n      jump\t// in\n    tag_104:\n      mload(0x40)\n      dup1\n      swap2\n      sub\n      swap1\n      return\n        /* \"array, bytes, enum, struct.sol\":1950:3003  function demo() public {... */\n    tag_24:\n        /* \"array, bytes, enum, struct.sol\":1995:1998  100 */\n      0x64\n        /* \"array, bytes, enum, struct.sol\":1984:1989  items */\n      0x0b\n        /* \"array, bytes, enum, struct.sol\":1990:1991  0 */\n      0x00\n        /* \"array, bytes, enum, struct.sol\":1984:1992  items[0] */\n      0x0a\n      dup2\n      lt\n      tag_107\n      jumpi\n      tag_108\n      tag_109\n      jump\t// in\n    tag_108:\n    tag_107:\n      add\n        /* \"array, bytes, enum, struct.sol\":1984:1998  items[0] = 100 */\n      dup2\n      swap1\n      sstore\n      pop\n        /* \"array, bytes, enum, struct.sol\":2020:2023  230 */\n      0xe6\n        /* \"array, bytes, enum, struct.sol\":2009:2014  items */\n      0x0b\n        /* \"array, bytes, enum, struct.sol\":2015:2016  9 */\n      0x09\n        /* \"array, bytes, enum, struct.sol\":2009:2017  items[9] */\n      0x0a\n      dup2\n      lt\n      tag_111\n      jumpi\n      tag_112\n      tag_109\n      jump\t// in\n    tag_112:\n    tag_111:\n      add\n        /* \"array, bytes, enum, struct.sol\":2009:2023  items[9] = 230 */\n      dup2\n      swap1\n      sstore\n      pop\n        /* \"array, bytes, enum, struct.sol\":2036:2731  stuff = [... */\n      mload(0x40)\n      dup1\n      0xa0\n      add\n      0x40\n      mstore\n      dup1\n      mload(0x40)\n      dup1\n      0x0140\n      add\n      0x40\n      mstore\n      dup1\n        /* \"array, bytes, enum, struct.sol\":2060:2061  1 */\n      0x01\n        /* \"array, bytes, enum, struct.sol\":2036:2731  stuff = [... */\n      0xff\n      and\n      dup2\n      mstore\n      0x20\n      add\n        /* \"array, bytes, enum, struct.sol\":2063:2064  2 */\n      0x02\n        /* \"array, bytes, enum, struct.sol\":2036:2731  stuff = [... */\n      0xff\n      and\n      dup2\n      mstore\n      0x20\n      add\n        /* \"array, bytes, enum, struct.sol\":2066:2067  3 */\n      0x03\n        /* \"array, bytes, enum, struct.sol\":2036:2731  stuff = [... */\n      0xff\n      and\n      dup2\n      mstore\n      0x20\n      add\n        /* \"array, bytes, enum, struct.sol\":2069:2070  4 */\n      0x04\n        /* \"array, bytes, enum, struct.sol\":2036:2731  stuff = [... */\n      0xff\n      and\n      dup2\n      mstore\n      0x20\n      add\n        /* \"array, bytes, enum, struct.sol\":2072:2073  5 */\n      0x05\n        /* \"array, bytes, enum, struct.sol\":2036:2731  stuff = [... */\n      0xff\n      and\n      dup2\n      mstore\n      0x20\n      add\n        /* \"array, bytes, enum, struct.sol\":2075:2076  6 */\n      0x06\n        /* \"array, bytes, enum, struct.sol\":2036:2731  stuff = [... */\n      0xff\n      and\n      dup2\n      mstore\n      0x20\n      add\n        /* \"array, bytes, enum, struct.sol\":2078:2079  7 */\n      0x07\n        /* \"array, bytes, enum, struct.sol\":2036:2731  stuff = [... */\n      0xff\n      and\n      dup2\n      mstore\n      0x20\n      add\n        /* \"array, bytes, enum, struct.sol\":2081:2082  8 */\n      0x08\n        /* \"array, bytes, enum, struct.sol\":2036:2731  stuff = [... */\n      0xff\n      and\n      dup2\n      mstore\n      0x20\n      add\n        /* \"array, bytes, enum, struct.sol\":2084:2085  9 */\n      0x09\n        /* \"array, bytes, enum, struct.sol\":2036:2731  stuff = [... */\n      0xff\n      and\n      dup2\n      mstore\n      0x20\n      add\n        /* \"array, bytes, enum, struct.sol\":2087:2088  0 */\n      0x00\n        /* \"array, bytes, enum, struct.sol\":2036:2731  stuff = [... */\n      0xff\n      and\n      dup2\n      mstore\n      pop\n      dup2\n      mstore\n      0x20\n      add\n      mload(0x40)\n      dup1\n      0x0140\n      add\n      0x40\n      mstore\n      dup1\n        /* \"array, bytes, enum, struct.sol\":2554:2555  0 */\n      0x00\n        /* \"array, bytes, enum, struct.sol\":2036:2731  stuff = [... */\n      0xff\n      and\n      dup2\n      mstore\n      0x20\n      add\n        /* \"array, bytes, enum, struct.sol\":2557:2558  1 */\n      0x01\n        /* \"array, bytes, enum, struct.sol\":2036:2731  stuff = [... */\n      0xff\n      and\n      dup2\n      mstore\n      0x20\n      add\n        /* \"array, bytes, enum, struct.sol\":2560:2561  2 */\n      0x02\n        /* \"array, bytes, enum, struct.sol\":2036:2731  stuff = [... */\n      0xff\n      and\n      dup2\n      mstore\n      0x20\n      add\n        /* \"array, bytes, enum, struct.sol\":2563:2564  3 */\n      0x03\n        /* \"array, bytes, enum, struct.sol\":2036:2731  stuff = [... */\n      0xff\n      and\n      dup2\n      mstore\n      0x20\n      add\n        /* \"array, bytes, enum, struct.sol\":2566:2567  4 */\n      0x04\n        /* \"array, bytes, enum, struct.sol\":2036:2731  stuff = [... */\n      0xff\n      and\n      dup2\n      mstore\n      0x20\n      add\n        /* \"array, bytes, enum, struct.sol\":2569:2570  5 */\n      0x05\n        /* \"array, bytes, enum, struct.sol\":2036:2731  stuff = [... */\n      0xff\n      and\n      dup2\n      mstore\n      0x20\n      add\n        /* \"array, bytes, enum, struct.sol\":2572:2573  6 */\n      0x06\n        /* \"array, bytes, enum, struct.sol\":2036:2731  stuff = [... */\n      0xff\n      and\n      dup2\n      mstore\n      0x20\n      add\n        /* \"array, bytes, enum, struct.sol\":2575:2576  7 */\n      0x07\n        /* \"array, bytes, enum, struct.sol\":2036:2731  stuff = [... */\n      0xff\n      and\n      dup2\n      mstore\n      0x20\n      add\n        /* \"array, bytes, enum, struct.sol\":2578:2579  8 */\n      0x08\n        /* \"array, bytes, enum, struct.sol\":2036:2731  stuff = [... */\n      0xff\n      and\n      dup2\n      mstore\n      0x20\n      add\n        /* \"array, bytes, enum, struct.sol\":2581:2582  9 */\n      0x09\n        /* \"array, bytes, enum, struct.sol\":2036:2731  stuff = [... */\n      0xff\n      and\n      dup2\n      mstore\n      pop\n      dup2\n      mstore\n      0x20\n      add\n      mload(0x40)\n      dup1\n      0x0140\n      add\n      0x40\n      mstore\n      dup1\n        /* \"array, bytes, enum, struct.sol\":2599:2600  1 */\n      0x01\n        /* \"array, bytes, enum, struct.sol\":2036:2731  stuff = [... */\n      0xff\n      and\n      dup2\n      mstore\n      0x20\n      add\n        /* \"array, bytes, enum, struct.sol\":2602:2603  3 */\n      0x03\n        /* \"array, bytes, enum, struct.sol\":2036:2731  stuff = [... */\n      0xff\n      and\n      dup2\n      mstore\n      0x20\n      add\n        /* \"array, bytes, enum, struct.sol\":2605:2606  2 */\n      0x02\n        /* \"array, bytes, enum, struct.sol\":2036:2731  stuff = [... */\n      0xff\n      and\n      dup2\n      mstore\n      0x20\n      add\n        /* \"array, bytes, enum, struct.sol\":2608:2609  0 */\n      0x00\n        /* \"array, bytes, enum, struct.sol\":2036:2731  stuff = [... */\n      0xff\n      and\n      dup2\n      mstore\n      0x20\n      add\n        /* \"array, bytes, enum, struct.sol\":2611:2612  0 */\n      0x00\n        /* \"array, bytes, enum, struct.sol\":2036:2731  stuff = [... */\n      0xff\n      and\n      dup2\n      mstore\n      0x20\n      add\n        /* \"array, bytes, enum, struct.sol\":2614:2615  0 */\n      0x00\n        /* \"array, bytes, enum, struct.sol\":2036:2731  stuff = [... */\n      0xff\n      and\n      dup2\n      mstore\n      0x20\n      add\n        /* \"array, bytes, enum, struct.sol\":2617:2618  0 */\n      0x00\n        /* \"array, bytes, enum, struct.sol\":2036:2731  stuff = [... */\n      0xff\n      and\n      dup2\n      mstore\n      0x20\n      add\n        /* \"array, bytes, enum, struct.sol\":2620:2621  0 */\n      0x00\n        /* \"array, bytes, enum, struct.sol\":2036:2731  stuff = [... */\n      0xff\n      and\n      dup2\n      mstore\n      0x20\n      add\n        /* \"array, bytes, enum, struct.sol\":2623:2624  0 */\n      0x00\n        /* \"array, bytes, enum, struct.sol\":2036:2731  stuff = [... */\n      0xff\n      and\n      dup2\n      mstore\n      0x20\n      add\n        /* \"array, bytes, enum, struct.sol\":2626:2627  0 */\n      0x00\n        /* \"array, bytes, enum, struct.sol\":2036:2731  stuff = [... */\n      0xff\n      and\n      dup2\n      mstore\n      pop\n      dup2\n      mstore\n      0x20\n      add\n      mload(0x40)\n      dup1\n      0x0140\n      add\n      0x40\n      mstore\n      dup1\n        /* \"array, bytes, enum, struct.sol\":2644:2645  5 */\n      0x05\n        /* \"array, bytes, enum, struct.sol\":2036:2731  stuff = [... */\n      0xff\n      and\n      dup2\n      mstore\n      0x20\n      add\n        /* \"array, bytes, enum, struct.sol\":2647:2648  2 */\n      0x02\n        /* \"array, bytes, enum, struct.sol\":2036:2731  stuff = [... */\n      0xff\n      and\n      dup2\n      mstore\n      0x20\n      add\n        /* \"array, bytes, enum, struct.sol\":2650:2651  7 */\n      0x07\n        /* \"array, bytes, enum, struct.sol\":2036:2731  stuff = [... */\n      0xff\n      and\n      dup2\n      mstore\n      0x20\n      add\n        /* \"array, bytes, enum, struct.sol\":2653:2654  0 */\n      0x00\n        /* \"array, bytes, enum, struct.sol\":2036:2731  stuff = [... */\n      0xff\n      and\n      dup2\n      mstore\n      0x20\n      add\n        /* \"array, bytes, enum, struct.sol\":2656:2657  0 */\n      0x00\n        /* \"array, bytes, enum, struct.sol\":2036:2731  stuff = [... */\n      0xff\n      and\n      dup2\n      mstore\n      0x20\n      add\n        /* \"array, bytes, enum, struct.sol\":2659:2660  0 */\n      0x00\n        /* \"array, bytes, enum, struct.sol\":2036:2731  stuff = [... */\n      0xff\n      and\n      dup2\n      mstore\n      0x20\n      add\n        /* \"array, bytes, enum, struct.sol\":2662:2663  0 */\n      0x00\n        /* \"array, bytes, enum, struct.sol\":2036:2731  stuff = [... */\n      0xff\n      and\n      dup2\n      mstore\n      0x20\n      add\n        /* \"array, bytes, enum, struct.sol\":2665:2666  0 */\n      0x00\n        /* \"array, bytes, enum, struct.sol\":2036:2731  stuff = [... */\n      0xff\n      and\n      dup2\n      mstore\n      0x20\n      add\n        /* \"array, bytes, enum, struct.sol\":2668:2669  0 */\n      0x00\n        /* \"array, bytes, enum, struct.sol\":2036:2731  stuff = [... */\n      0xff\n      and\n      dup2\n      mstore\n      0x20\n      add\n        /* \"array, bytes, enum, struct.sol\":2671:2672  0 */\n      0x00\n        /* \"array, bytes, enum, struct.sol\":2036:2731  stuff = [... */\n      0xff\n      and\n      dup2\n      mstore\n      pop\n      dup2\n      mstore\n      0x20\n      add\n      mload(0x40)\n      dup1\n      0x0140\n      add\n      0x40\n      mstore\n      dup1\n        /* \"array, bytes, enum, struct.sol\":2689:2690  6 */\n      0x06\n        /* \"array, bytes, enum, struct.sol\":2036:2731  stuff = [... */\n      0xff\n      and\n      dup2\n      mstore\n      0x20\n      add\n        /* \"array, bytes, enum, struct.sol\":2692:2693  8 */\n      0x08\n        /* \"array, bytes, enum, struct.sol\":2036:2731  stuff = [... */\n      0xff\n      and\n      dup2\n      mstore\n      0x20\n      add\n        /* \"array, bytes, enum, struct.sol\":2695:2697  10 */\n      0x0a\n        /* \"array, bytes, enum, struct.sol\":2036:2731  stuff = [... */\n      0xff\n      and\n      dup2\n      mstore\n      0x20\n      add\n        /* \"array, bytes, enum, struct.sol\":2699:2701  45 */\n      0x2d\n        /* \"array, bytes, enum, struct.sol\":2036:2731  stuff = [... */\n      0xff\n      and\n      dup2\n      mstore\n      0x20\n      add\n        /* \"array, bytes, enum, struct.sol\":2703:2704  0 */\n      0x00\n        /* \"array, bytes, enum, struct.sol\":2036:2731  stuff = [... */\n      0xff\n      and\n      dup2\n      mstore\n      0x20\n      add\n        /* \"array, bytes, enum, struct.sol\":2706:2707  0 */\n      0x00\n        /* \"array, bytes, enum, struct.sol\":2036:2731  stuff = [... */\n      0xff\n      and\n      dup2\n      mstore\n      0x20\n      add\n        /* \"array, bytes, enum, struct.sol\":2709:2710  0 */\n      0x00\n        /* \"array, bytes, enum, struct.sol\":2036:2731  stuff = [... */\n      0xff\n      and\n      dup2\n      mstore\n      0x20\n      add\n        /* \"array, bytes, enum, struct.sol\":2712:2713  0 */\n      0x00\n        /* \"array, bytes, enum, struct.sol\":2036:2731  stuff = [... */\n      0xff\n      and\n      dup2\n      mstore\n      0x20\n      add\n        /* \"array, bytes, enum, struct.sol\":2715:2716  0 */\n      0x00\n        /* \"array, bytes, enum, struct.sol\":2036:2731  stuff = [... */\n      0xff\n      and\n      dup2\n      mstore\n      0x20\n      add\n        /* \"array, bytes, enum, struct.sol\":2718:2719  0 */\n      0x00\n        /* \"array, bytes, enum, struct.sol\":2036:2731  stuff = [... */\n      0xff\n      and\n      dup2\n      mstore\n      pop\n      dup2\n      mstore\n      pop\n        /* \"array, bytes, enum, struct.sol\":2036:2041  stuff */\n      0x15\n        /* \"array, bytes, enum, struct.sol\":2036:2731  stuff = [... */\n      swap1\n      0x05\n      tag_114\n      swap3\n      swap2\n      swap1\n      tag_115\n      jump\t// in\n    tag_114:\n      pop\n        /* \"array, bytes, enum, struct.sol\":2812:2819  dynamic */\n      0x04\n        /* \"array, bytes, enum, struct.sol\":2825:2826  6 */\n      0x06\n        /* \"array, bytes, enum, struct.sol\":2812:2827  dynamic.push(6) */\n      swap1\n      dup1\n      0x01\n      dup2\n      sload\n      add\n      dup1\n      dup3\n      sstore\n      dup1\n      swap2\n      pop\n      pop\n      0x01\n      swap1\n      sub\n      swap1\n      0x00\n      mstore\n      keccak256(0x00, 0x20)\n      add\n      0x00\n      swap1\n      swap2\n      swap1\n      swap2\n      swap1\n      swap2\n      pop\n      sstore\n        /* \"array, bytes, enum, struct.sol\":2838:2845  dynamic */\n      0x04\n        /* \"array, bytes, enum, struct.sol\":2851:2852  8 */\n      0x08\n        /* \"array, bytes, enum, struct.sol\":2838:2853  dynamic.push(8) */\n      swap1\n      dup1\n      0x01\n      dup2\n      sload\n      add\n      dup1\n      dup3\n      sstore\n      dup1\n      swap2\n      pop\n      pop\n      0x01\n      swap1\n      sub\n      swap1\n      0x00\n      mstore\n      keccak256(0x00, 0x20)\n      add\n      0x00\n      swap1\n      swap2\n      swap1\n      swap2\n      swap1\n      swap2\n      pop\n      sstore\n        /* \"array, bytes, enum, struct.sol\":2870:2877  dynamic */\n      0x04\n        /* \"array, bytes, enum, struct.sol\":2870:2884  dynamic.length */\n      dup1\n      sload\n      swap1\n      pop\n        /* \"array, bytes, enum, struct.sol\":2864:2867  len */\n      0x05\n        /* \"array, bytes, enum, struct.sol\":2864:2884  len = dynamic.length */\n      dup2\n      swap1\n      sstore\n      pop\n        /* \"array, bytes, enum, struct.sol\":1950:3003  function demo() public {... */\n      jump\t// out\n        /* \"array, bytes, enum, struct.sol\":3388:3452  function pay() public {... */\n    tag_27:\n        /* \"array, bytes, enum, struct.sol\":3433:3444  Status.Paid */\n      0x00\n        /* \"array, bytes, enum, struct.sol\":3421:3430  curStatus */\n      0x47\n      0x00\n        /* \"array, bytes, enum, struct.sol\":3421:3444  curStatus = Status.Paid */\n      0x0100\n      exp\n      dup2\n      sload\n      dup2\n      0xff\n      mul\n      not\n      and\n      swap1\n      dup4\n      0x02\n      dup2\n      gt\n      iszero\n      tag_119\n      jumpi\n      tag_120\n      tag_121\n      jump\t// in\n    tag_120:\n    tag_119:\n      mul\n      or\n      swap1\n      sstore\n      pop\n        /* \"array, bytes, enum, struct.sol\":3388:3452  function pay() public {... */\n      jump\t// out\n        /* \"array, bytes, enum, struct.sol\":417:460  mapping(address => Balance) public balances */\n    tag_32:\n      mstore(0x20, 0x00)\n      dup1\n      0x00\n      mstore\n      keccak256(0x00, 0x40)\n      0x00\n      swap2\n      pop\n      swap1\n      pop\n      dup1\n      0x00\n      add\n      sload\n      swap1\n      pop\n      dup2\n      jump\t// out\n        /* \"array, bytes, enum, struct.sol\":469:865  function pay(string memory message) public payable {... */\n    tag_38:\n        /* \"array, bytes, enum, struct.sol\":531:546  uint paymentNum */\n      0x00\n        /* \"array, bytes, enum, struct.sol\":549:557  balances */\n      dup1\n        /* \"array, bytes, enum, struct.sol\":549:569  balances[msg.sender] */\n      0x00\n        /* \"array, bytes, enum, struct.sol\":558:568  msg.sender */\n      caller\n        /* \"array, bytes, enum, struct.sol\":549:569  balances[msg.sender] */\n      0xffffffffffffffffffffffffffffffffffffffff\n      and\n      0xffffffffffffffffffffffffffffffffffffffff\n      and\n      dup2\n      mstore\n      0x20\n      add\n      swap1\n      dup2\n      mstore\n      0x20\n      add\n      0x00\n      keccak256\n        /* \"array, bytes, enum, struct.sol\":549:583  balances[msg.sender].totalPayments */\n      0x00\n      add\n      sload\n        /* \"array, bytes, enum, struct.sol\":531:583  uint paymentNum = balances[msg.sender].totalPayments */\n      swap1\n      pop\n        /* \"array, bytes, enum, struct.sol\":594:602  balances */\n      0x00\n        /* \"array, bytes, enum, struct.sol\":594:614  balances[msg.sender] */\n      dup1\n        /* \"array, bytes, enum, struct.sol\":603:613  msg.sender */\n      caller\n        /* \"array, bytes, enum, struct.sol\":594:614  balances[msg.sender] */\n      0xffffffffffffffffffffffffffffffffffffffff\n      and\n      0xffffffffffffffffffffffffffffffffffffffff\n      and\n      dup2\n      mstore\n      0x20\n      add\n      swap1\n      dup2\n      mstore\n      0x20\n      add\n      0x00\n      keccak256\n        /* \"array, bytes, enum, struct.sol\":594:628  balances[msg.sender].totalPayments */\n      0x00\n      add\n      0x00\n        /* \"array, bytes, enum, struct.sol\":594:630  balances[msg.sender].totalPayments++ */\n      dup2\n      sload\n      dup1\n      swap3\n      swap2\n      swap1\n      tag_123\n      swap1\n      tag_124\n      jump\t// in\n    tag_123:\n      swap2\n      swap1\n      pop\n      sstore\n      pop\n        /* \"array, bytes, enum, struct.sol\":643:668  Payment memory newPayment */\n      0x00\n        /* \"array, bytes, enum, struct.sol\":671:790  Payment(... */\n      mload(0x40)\n      dup1\n      0x80\n      add\n      0x40\n      mstore\n      dup1\n        /* \"array, bytes, enum, struct.sol\":693:702  msg.value */\n      callvalue\n        /* \"array, bytes, enum, struct.sol\":671:790  Payment(... */\n      dup2\n      mstore\n      0x20\n      add\n        /* \"array, bytes, enum, struct.sol\":717:732  block.timestamp */\n      timestamp\n        /* \"array, bytes, enum, struct.sol\":671:790  Payment(... */\n      dup2\n      mstore\n      0x20\n      add\n        /* \"array, bytes, enum, struct.sol\":747:757  msg.sender */\n      caller\n        /* \"array, bytes, enum, struct.sol\":671:790  Payment(... */\n      0xffffffffffffffffffffffffffffffffffffffff\n      and\n      dup2\n      mstore\n      0x20\n      add\n        /* \"array, bytes, enum, struct.sol\":772:779  message */\n      dup5\n        /* \"array, bytes, enum, struct.sol\":671:790  Payment(... */\n      dup2\n      mstore\n      pop\n        /* \"array, bytes, enum, struct.sol\":643:790  Payment memory newPayment = Payment(... */\n      swap1\n      pop\n        /* \"array, bytes, enum, struct.sol\":847:857  newPayment */\n      dup1\n        /* \"array, bytes, enum, struct.sol\":803:811  balances */\n      0x00\n        /* \"array, bytes, enum, struct.sol\":803:823  balances[msg.sender] */\n      dup1\n        /* \"array, bytes, enum, struct.sol\":812:822  msg.sender */\n      caller\n        /* \"array, bytes, enum, struct.sol\":803:823  balances[msg.sender] */\n      0xffffffffffffffffffffffffffffffffffffffff\n      and\n      0xffffffffffffffffffffffffffffffffffffffff\n      and\n      dup2\n      mstore\n      0x20\n      add\n      swap1\n      dup2\n      mstore\n      0x20\n      add\n      0x00\n      keccak256\n        /* \"array, bytes, enum, struct.sol\":803:832  balances[msg.sender].payments */\n      0x01\n      add\n        /* \"array, bytes, enum, struct.sol\":803:844  balances[msg.sender].payments[paymentNum] */\n      0x00\n        /* \"array, bytes, enum, struct.sol\":833:843  paymentNum */\n      dup5\n        /* \"array, bytes, enum, struct.sol\":803:844  balances[msg.sender].payments[paymentNum] */\n      dup2\n      mstore\n      0x20\n      add\n      swap1\n      dup2\n      mstore\n      0x20\n      add\n      0x00\n      keccak256\n        /* \"array, bytes, enum, struct.sol\":803:857  balances[msg.sender].payments[paymentNum] = newPayment */\n      0x00\n      dup3\n      add\n      mload\n      dup2\n      0x00\n      add\n      sstore\n      0x20\n      dup3\n      add\n      mload\n      dup2\n      0x01\n      add\n      sstore\n      0x40\n      dup3\n      add\n      mload\n      dup2\n      0x02\n      add\n      exp(0x0100, 0x00)\n      dup2\n      sload\n      dup2\n      0xffffffffffffffffffffffffffffffffffffffff\n      mul\n      not\n      and\n      swap1\n      dup4\n      0xffffffffffffffffffffffffffffffffffffffff\n      and\n      mul\n      or\n      swap1\n      sstore\n      pop\n      0x60\n      dup3\n      add\n      mload\n      dup2\n      0x03\n      add\n      swap1\n      dup2\n      tag_125\n      swap2\n      swap1\n      tag_126\n      jump\t// in\n    tag_125:\n      pop\n      swap1\n      pop\n      pop\n        /* \"array, bytes, enum, struct.sol\":520:865  {... */\n      pop\n      pop\n        /* \"array, bytes, enum, struct.sol\":469:865  function pay(string memory message) public payable {... */\n      pop\n      jump\t// out\n        /* \"array, bytes, enum, struct.sol\":1598:1613  uint public len */\n    tag_41:\n      sload(0x05)\n      dup2\n      jump\t// out\n        /* \"array, bytes, enum, struct.sol\":1570:1591  uint[] public dynamic */\n    tag_47:\n      0x04\n      dup2\n      dup2\n      sload\n      dup2\n      lt\n      tag_127\n      jumpi\n      0x00\n      dup1\n      revert\n    tag_127:\n      swap1\n      0x00\n      mstore\n      keccak256(0x00, 0x20)\n      add\n      0x00\n      swap2\n      pop\n      swap1\n      pop\n      sload\n      dup2\n      jump\t// out\n        /* \"array, bytes, enum, struct.sol\":1210:1237  bytes3 public byteVar = \"s\" */\n    tag_51:\n      0x01\n      0x00\n      swap1\n      sload\n      swap1\n      0x0100\n      exp\n      swap1\n      div\n      0xe8\n      shl\n      dup2\n      jump\t// out\n        /* \"array, bytes, enum, struct.sol\":1688:1730  string[5] public strings = [\"s\", \"t\", \"r\"] */\n    tag_57:\n      0x06\n      dup2\n      0x05\n      dup2\n      lt\n      tag_129\n      jumpi\n      0x00\n      dup1\n      revert\n    tag_129:\n      add\n      0x00\n      swap2\n      pop\n      swap1\n      pop\n      dup1\n      sload\n      tag_131\n      swap1\n      tag_132\n      jump\t// in\n    tag_131:\n      dup1\n      0x1f\n      add\n      0x20\n      dup1\n      swap2\n      div\n      mul\n      0x20\n      add\n      mload(0x40)\n      swap1\n      dup2\n      add\n      0x40\n      mstore\n      dup1\n      swap3\n      swap2\n      swap1\n      dup2\n      dup2\n      mstore\n      0x20\n      add\n      dup3\n      dup1\n      sload\n      tag_133\n      swap1\n      tag_132\n      jump\t// in\n    tag_133:\n      dup1\n      iszero\n      tag_134\n      jumpi\n      dup1\n      0x1f\n      lt\n      tag_135\n      jumpi\n      0x0100\n      dup1\n      dup4\n      sload\n      div\n      mul\n      dup4\n      mstore\n      swap2\n      0x20\n      add\n      swap2\n      jump(tag_134)\n    tag_135:\n      dup3\n      add\n      swap2\n      swap1\n      0x00\n      mstore\n      keccak256(0x00, 0x20)\n      swap1\n    tag_136:\n      dup2\n      sload\n      dup2\n      mstore\n      swap1\n      0x01\n      add\n      swap1\n      0x20\n      add\n      dup1\n      dup4\n      gt\n      tag_136\n      jumpi\n      dup3\n      swap1\n      sub\n      0x1f\n      and\n      dup3\n      add\n      swap2\n    tag_134:\n      pop\n      pop\n      pop\n      pop\n      pop\n      dup2\n      jump\t// out\n        /* \"array, bytes, enum, struct.sol\":3015:3250  function sampleMem() public pure returns(uint[] memory) {... */\n    tag_62:\n        /* \"array, bytes, enum, struct.sol\":3056:3069  uint[] memory */\n      0x60\n        /* \"array, bytes, enum, struct.sol\":3148:3171  uint[] memory tempArray */\n      0x00\n        /* \"array, bytes, enum, struct.sol\":3185:3187  10 */\n      0x0a\n        /* \"array, bytes, enum, struct.sol\":3174:3188  new uint[](10) */\n      0xffffffffffffffff\n      dup2\n      gt\n      iszero\n      tag_138\n      jumpi\n      tag_139\n      tag_140\n      jump\t// in\n    tag_139:\n    tag_138:\n      mload(0x40)\n      swap1\n      dup1\n      dup3\n      mstore\n      dup1\n      0x20\n      mul\n      0x20\n      add\n      dup3\n      add\n      0x40\n      mstore\n      dup1\n      iszero\n      tag_141\n      jumpi\n      dup2\n      0x20\n      add\n      0x20\n      dup3\n      mul\n      dup1\n      calldatasize\n      dup4\n      calldatacopy\n      dup1\n      dup3\n      add\n      swap2\n      pop\n      pop\n      swap1\n      pop\n    tag_141:\n      pop\n        /* \"array, bytes, enum, struct.sol\":3148:3188  uint[] memory tempArray = new uint[](10) */\n      swap1\n      pop\n        /* \"array, bytes, enum, struct.sol\":3214:3215  1 */\n      0x01\n        /* \"array, bytes, enum, struct.sol\":3199:3208  tempArray */\n      dup2\n        /* \"array, bytes, enum, struct.sol\":3209:3210  0 */\n      0x00\n        /* \"array, bytes, enum, struct.sol\":3199:3211  tempArray[0] */\n      dup2\n      mload\n      dup2\n      lt\n      tag_142\n      jumpi\n      tag_143\n      tag_109\n      jump\t// in\n    tag_143:\n    tag_142:\n      0x20\n      mul\n      0x20\n      add\n      add\n        /* \"array, bytes, enum, struct.sol\":3199:3215  tempArray[0] = 1 */\n      dup2\n      dup2\n      mstore\n      pop\n      pop\n        /* \"array, bytes, enum, struct.sol\":3233:3242  tempArray */\n      dup1\n        /* \"array, bytes, enum, struct.sol\":3226:3242  return tempArray */\n      swap2\n      pop\n      pop\n        /* \"array, bytes, enum, struct.sol\":3015:3250  function sampleMem() public pure returns(uint[] memory) {... */\n      swap1\n      jump\t// out\n        /* \"array, bytes, enum, struct.sol\":873:1015  function getPayment(address _addr, uint _index) public view returns(Payment memory) {... */\n    tag_69:\n        /* \"array, bytes, enum, struct.sol\":941:955  Payment memory */\n      tag_144\n      tag_145\n      jump\t// in\n    tag_144:\n        /* \"array, bytes, enum, struct.sol\":975:983  balances */\n      0x00\n        /* \"array, bytes, enum, struct.sol\":975:990  balances[_addr] */\n      dup1\n        /* \"array, bytes, enum, struct.sol\":984:989  _addr */\n      dup5\n        /* \"array, bytes, enum, struct.sol\":975:990  balances[_addr] */\n      0xffffffffffffffffffffffffffffffffffffffff\n      and\n      0xffffffffffffffffffffffffffffffffffffffff\n      and\n      dup2\n      mstore\n      0x20\n      add\n      swap1\n      dup2\n      mstore\n      0x20\n      add\n      0x00\n      keccak256\n        /* \"array, bytes, enum, struct.sol\":975:999  balances[_addr].payments */\n      0x01\n      add\n        /* \"array, bytes, enum, struct.sol\":975:1007  balances[_addr].payments[_index] */\n      0x00\n        /* \"array, bytes, enum, struct.sol\":1000:1006  _index */\n      dup4\n        /* \"array, bytes, enum, struct.sol\":975:1007  balances[_addr].payments[_index] */\n      dup2\n      mstore\n      0x20\n      add\n      swap1\n      dup2\n      mstore\n      0x20\n      add\n      0x00\n      keccak256\n        /* \"array, bytes, enum, struct.sol\":968:1007  return balances[_addr].payments[_index] */\n      mload(0x40)\n      dup1\n      0x80\n      add\n      0x40\n      mstore\n      swap1\n      dup2\n      0x00\n      dup3\n      add\n      sload\n      dup2\n      mstore\n      0x20\n      add\n      0x01\n      dup3\n      add\n      sload\n      dup2\n      mstore\n      0x20\n      add\n      0x02\n      dup3\n      add\n      0x00\n      swap1\n      sload\n      swap1\n      0x0100\n      exp\n      swap1\n      div\n      0xffffffffffffffffffffffffffffffffffffffff\n      and\n      0xffffffffffffffffffffffffffffffffffffffff\n      and\n      0xffffffffffffffffffffffffffffffffffffffff\n      and\n      dup2\n      mstore\n      0x20\n      add\n      0x03\n      dup3\n      add\n      dup1\n      sload\n      tag_147\n      swap1\n      tag_132\n      jump\t// in\n    tag_147:\n      dup1\n      0x1f\n      add\n      0x20\n      dup1\n      swap2\n      div\n      mul\n      0x20\n      add\n      mload(0x40)\n      swap1\n      dup2\n      add\n      0x40\n      mstore\n      dup1\n      swap3\n      swap2\n      swap1\n      dup2\n      dup2\n      mstore\n      0x20\n      add\n      dup3\n      dup1\n      sload\n      tag_148\n      swap1\n      tag_132\n      jump\t// in\n    tag_148:\n      dup1\n      iszero\n      tag_149\n      jumpi\n      dup1\n      0x1f\n      lt\n      tag_150\n      jumpi\n      0x0100\n      dup1\n      dup4\n      sload\n      div\n      mul\n      dup4\n      mstore\n      swap2\n      0x20\n      add\n      swap2\n      jump(tag_149)\n    tag_150:\n      dup3\n      add\n      swap2\n      swap1\n      0x00\n      mstore\n      keccak256(0x00, 0x20)\n      swap1\n    tag_151:\n      dup2\n      sload\n      dup2\n      mstore\n      swap1\n      0x01\n      add\n      swap1\n      0x20\n      add\n      dup1\n      dup4\n      gt\n      tag_151\n      jumpi\n      dup3\n      swap1\n      sub\n      0x1f\n      and\n      dup3\n      add\n      swap2\n    tag_149:\n      pop\n      pop\n      pop\n      pop\n      pop\n      dup2\n      mstore\n      pop\n      pop\n      swap1\n      pop\n        /* \"array, bytes, enum, struct.sol\":873:1015  function getPayment(address _addr, uint _index) public view returns(Payment memory) {... */\n      swap3\n      swap2\n      pop\n      pop\n      jump\t// out\n        /* \"array, bytes, enum, struct.sol\":1284:1321  bytes public byteStrNonFix = \"testik\" */\n    tag_74:\n      0x03\n      dup1\n      sload\n      tag_152\n      swap1\n      tag_132\n      jump\t// in\n    tag_152:\n      dup1\n      0x1f\n      add\n      0x20\n      dup1\n      swap2\n      div\n      mul\n      0x20\n      add\n      mload(0x40)\n      swap1\n      dup2\n      add\n      0x40\n      mstore\n      dup1\n      swap3\n      swap2\n      swap1\n      dup2\n      dup2\n      mstore\n      0x20\n      add\n      dup3\n      dup1\n      sload\n      tag_153\n      swap1\n      tag_132\n      jump\t// in\n    tag_153:\n      dup1\n      iszero\n      tag_154\n      jumpi\n      dup1\n      0x1f\n      lt\n      tag_155\n      jumpi\n      0x0100\n      dup1\n      dup4\n      sload\n      div\n      mul\n      dup4\n      mstore\n      swap2\n      0x20\n      add\n      swap2\n      jump(tag_154)\n    tag_155:\n      dup3\n      add\n      swap2\n      swap1\n      0x00\n      mstore\n      keccak256(0x00, 0x20)\n      swap1\n    tag_156:\n      dup2\n      sload\n      dup2\n      mstore\n      swap1\n      0x01\n      add\n      swap1\n      0x20\n      add\n      dup1\n      dup4\n      gt\n      tag_156\n      jumpi\n      dup3\n      swap1\n      sub\n      0x1f\n      and\n      dup3\n      add\n      swap2\n    tag_154:\n      pop\n      pop\n      pop\n      pop\n      pop\n      dup2\n      jump\t// out\n        /* \"array, bytes, enum, struct.sol\":3460:3535  function delivered() public {... */\n    tag_79:\n        /* \"array, bytes, enum, struct.sol\":3511:3527  Status.Delivered */\n      0x01\n        /* \"array, bytes, enum, struct.sol\":3499:3508  curStatus */\n      0x47\n      0x00\n        /* \"array, bytes, enum, struct.sol\":3499:3527  curStatus = Status.Delivered */\n      0x0100\n      exp\n      dup2\n      sload\n      dup2\n      0xff\n      mul\n      not\n      and\n      swap1\n      dup4\n      0x02\n      dup2\n      gt\n      iszero\n      tag_158\n      jumpi\n      tag_159\n      tag_121\n      jump\t// in\n    tag_159:\n    tag_158:\n      mul\n      or\n      swap1\n      sstore\n      pop\n        /* \"array, bytes, enum, struct.sol\":3460:3535  function delivered() public {... */\n      jump\t// out\n        /* \"array, bytes, enum, struct.sol\":1917:1941  uint[10][5] public stuff */\n    tag_84:\n      0x15\n      dup3\n      0x05\n      dup2\n      lt\n      tag_160\n      jumpi\n      0x00\n      dup1\n      revert\n    tag_160:\n      0x0a\n      mul\n      add\n      dup2\n      0x0a\n      dup2\n      lt\n      tag_162\n      jumpi\n      0x00\n      dup1\n      revert\n    tag_162:\n      add\n      0x00\n      swap2\n      pop\n      swap2\n      pop\n      pop\n      sload\n      dup2\n      jump\t// out\n        /* \"array, bytes, enum, struct.sol\":1737:1770  uint[10] public items = [1, 2, 3] */\n    tag_89:\n      0x0b\n      dup2\n      0x0a\n      dup2\n      lt\n      tag_164\n      jumpi\n      0x00\n      dup1\n      revert\n    tag_164:\n      add\n      0x00\n      swap2\n      pop\n      swap1\n      pop\n      sload\n      dup2\n      jump\t// out\n        /* \"array, bytes, enum, struct.sol\":3356:3379  Status public curStatus */\n    tag_93:\n      0x47\n      0x00\n      swap1\n      sload\n      swap1\n      0x0100\n      exp\n      swap1\n      div\n      0xff\n      and\n      dup2\n      jump\t// out\n        /* \"array, bytes, enum, struct.sol\":1244:1277  bytes32 public byteStr = \"testik\" */\n    tag_98:\n      sload(0x02)\n      dup2\n      jump\t// out\n        /* \"array, bytes, enum, struct.sol\":1393:1484  function bytesTest() public view returns(bytes1) {... */\n    tag_103:\n        /* \"array, bytes, enum, struct.sol\":1434:1440  bytes1 */\n      0x00\n        /* \"array, bytes, enum, struct.sol\":1460:1473  byteStrNonFix */\n      0x03\n        /* \"array, bytes, enum, struct.sol\":1474:1475  0 */\n      0x00\n        /* \"array, bytes, enum, struct.sol\":1460:1476  byteStrNonFix[0] */\n      dup2\n      sload\n      tag_167\n      swap1\n      tag_132\n      jump\t// in\n    tag_167:\n      dup2\n      lt\n      tag_168\n      jumpi\n      tag_169\n      tag_109\n      jump\t// in\n    tag_169:\n    tag_168:\n      dup2\n      sload\n      0x01\n      and\n      iszero\n      tag_170\n      jumpi\n      swap1\n      0x00\n      mstore\n      keccak256(0x00, 0x20)\n      swap1\n      0x20\n      swap2\n      dup3\n      dup3\n      div\n      add\n      swap2\n      swap1\n      mod\n    tag_170:\n      swap1\n      sload\n      swap1\n      byte\n      0x0100000000000000000000000000000000000000000000000000000000000000\n      mul\n        /* \"array, bytes, enum, struct.sol\":1453:1476  return byteStrNonFix[0] */\n      swap1\n      pop\n        /* \"array, bytes, enum, struct.sol\":1393:1484  function bytesTest() public view returns(bytes1) {... */\n      swap1\n      jump\t// out\n    tag_115:\n      dup3\n      mul(0x0a, 0x05)\n      dup2\n      add\n      swap3\n      dup3\n      iszero\n      tag_171\n      jumpi\n      swap2\n      0x20\n      mul\n      dup3\n      add\n    tag_172:\n      dup3\n      dup2\n      gt\n      iszero\n      tag_173\n      jumpi\n      dup3\n      mload\n      dup3\n      swap1\n      0x0a\n      tag_174\n      swap3\n      swap2\n      swap1\n      tag_175\n      jump\t// in\n    tag_174:\n      pop\n      swap2\n      0x20\n      add\n      swap2\n      swap1\n      0x0a\n      add\n      swap1\n      jump(tag_172)\n    tag_173:\n    tag_171:\n      pop\n      swap1\n      pop\n      tag_176\n      swap2\n      swap1\n      tag_177\n      jump\t// in\n    tag_176:\n      pop\n      swap1\n      jump\t// out\n    tag_145:\n      mload(0x40)\n      dup1\n      0x80\n      add\n      0x40\n      mstore\n      dup1\n      0x00\n      dup2\n      mstore\n      0x20\n      add\n      0x00\n      dup2\n      mstore\n      0x20\n      add\n      and(0xffffffffffffffffffffffffffffffffffffffff, 0x00)\n      dup2\n      mstore\n      0x20\n      add\n      0x60\n      dup2\n      mstore\n      pop\n      swap1\n      jump\t// out\n    tag_175:\n      dup3\n      0x0a\n      dup2\n      add\n      swap3\n      dup3\n      iszero\n      tag_178\n      jumpi\n      swap2\n      0x20\n      mul\n      dup3\n      add\n    tag_179:\n      dup3\n      dup2\n      gt\n      iszero\n      tag_180\n      jumpi\n      dup3\n      mload\n      dup3\n      swap1\n      0xff\n      and\n      swap1\n      sstore\n      swap2\n      0x20\n      add\n      swap2\n      swap1\n      0x01\n      add\n      swap1\n      jump(tag_179)\n    tag_180:\n    tag_178:\n      pop\n      swap1\n      pop\n      tag_181\n      swap2\n      swap1\n      tag_182\n      jump\t// in\n    tag_181:\n      pop\n      swap1\n      jump\t// out\n    tag_177:\n    tag_183:\n      dup1\n      dup3\n      gt\n      iszero\n      tag_184\n      jumpi\n      0x00\n      dup2\n      dup2\n      tag_185\n      swap2\n      swap1\n      tag_186\n      jump\t// in\n    tag_185:\n      pop\n      0x0a\n      add\n      jump(tag_183)\n    tag_184:\n      pop\n      swap1\n      jump\t// out\n    tag_182:\n    tag_187:\n      dup1\n      dup3\n      gt\n      iszero\n      tag_188\n      jumpi\n      0x00\n      dup2\n      0x00\n      swap1\n      sstore\n      pop\n      0x01\n      add\n      jump(tag_187)\n    tag_188:\n      pop\n      swap1\n      jump\t// out\n    tag_186:\n      pop\n      dup1\n      0x0a\n      add\n      swap1\n      tag_189\n      swap2\n      swap1\n      tag_182\n      jump\t// in\n    tag_189:\n      pop\n      jump\t// out\n        /* \"#utility.yul\":7:82   */\n    tag_190:\n        /* \"#utility.yul\":40:46   */\n      0x00\n        /* \"#utility.yul\":73:75   */\n      0x40\n        /* \"#utility.yul\":67:76   */\n      mload\n        /* \"#utility.yul\":57:76   */\n      swap1\n      pop\n        /* \"#utility.yul\":7:82   */\n      swap1\n      jump\t// out\n        /* \"#utility.yul\":88:205   */\n    tag_191:\n        /* \"#utility.yul\":197:198   */\n      0x00\n        /* \"#utility.yul\":194:195   */\n      dup1\n        /* \"#utility.yul\":187:199   */\n      revert\n        /* \"#utility.yul\":211:328   */\n    tag_192:\n        /* \"#utility.yul\":320:321   */\n      0x00\n        /* \"#utility.yul\":317:318   */\n      dup1\n        /* \"#utility.yul\":310:322   */\n      revert\n        /* \"#utility.yul\":334:460   */\n    tag_193:\n        /* \"#utility.yul\":371:378   */\n      0x00\n        /* \"#utility.yul\":411:453   */\n      0xffffffffffffffffffffffffffffffffffffffff\n        /* \"#utility.yul\":404:409   */\n      dup3\n        /* \"#utility.yul\":400:454   */\n      and\n        /* \"#utility.yul\":389:454   */\n      swap1\n      pop\n        /* \"#utility.yul\":334:460   */\n      swap2\n      swap1\n      pop\n      jump\t// out\n        /* \"#utility.yul\":466:562   */\n    tag_194:\n        /* \"#utility.yul\":503:510   */\n      0x00\n        /* \"#utility.yul\":532:556   */\n      tag_261\n        /* \"#utility.yul\":550:555   */\n      dup3\n        /* \"#utility.yul\":532:556   */\n      tag_193\n      jump\t// in\n    tag_261:\n        /* \"#utility.yul\":521:556   */\n      swap1\n      pop\n        /* \"#utility.yul\":466:562   */\n      swap2\n      swap1\n      pop\n      jump\t// out\n        /* \"#utility.yul\":568:690   */\n    tag_195:\n        /* \"#utility.yul\":641:665   */\n      tag_263\n        /* \"#utility.yul\":659:664   */\n      dup2\n        /* \"#utility.yul\":641:665   */\n      tag_194\n      jump\t// in\n    tag_263:\n        /* \"#utility.yul\":634:639   */\n      dup2\n        /* \"#utility.yul\":631:666   */\n      eq\n        /* \"#utility.yul\":621:684   */\n      tag_264\n      jumpi\n        /* \"#utility.yul\":680:681   */\n      0x00\n        /* \"#utility.yul\":677:678   */\n      dup1\n        /* \"#utility.yul\":670:682   */\n      revert\n        /* \"#utility.yul\":621:684   */\n    tag_264:\n        /* \"#utility.yul\":568:690   */\n      pop\n      jump\t// out\n        /* \"#utility.yul\":696:835   */\n    tag_196:\n        /* \"#utility.yul\":742:747   */\n      0x00\n        /* \"#utility.yul\":780:786   */\n      dup2\n        /* \"#utility.yul\":767:787   */\n      calldataload\n        /* \"#utility.yul\":758:787   */\n      swap1\n      pop\n        /* \"#utility.yul\":796:829   */\n      tag_266\n        /* \"#utility.yul\":823:828   */\n      dup2\n        /* \"#utility.yul\":796:829   */\n      tag_195\n      jump\t// in\n    tag_266:\n        /* \"#utility.yul\":696:835   */\n      swap3\n      swap2\n      pop\n      pop\n      jump\t// out\n        /* \"#utility.yul\":841:1170   */\n    tag_31:\n        /* \"#utility.yul\":900:906   */\n      0x00\n        /* \"#utility.yul\":949:951   */\n      0x20\n        /* \"#utility.yul\":937:946   */\n      dup3\n        /* \"#utility.yul\":928:935   */\n      dup5\n        /* \"#utility.yul\":924:947   */\n      sub\n        /* \"#utility.yul\":920:952   */\n      slt\n        /* \"#utility.yul\":917:1036   */\n      iszero\n      tag_268\n      jumpi\n        /* \"#utility.yul\":955:1034   */\n      tag_269\n      tag_191\n      jump\t// in\n    tag_269:\n        /* \"#utility.yul\":917:1036   */\n    tag_268:\n        /* \"#utility.yul\":1075:1076   */\n      0x00\n        /* \"#utility.yul\":1100:1153   */\n      tag_270\n        /* \"#utility.yul\":1145:1152   */\n      dup5\n        /* \"#utility.yul\":1136:1142   */\n      dup3\n        /* \"#utility.yul\":1125:1134   */\n      dup6\n        /* \"#utility.yul\":1121:1143   */\n      add\n        /* \"#utility.yul\":1100:1153   */\n      tag_196\n      jump\t// in\n    tag_270:\n        /* \"#utility.yul\":1090:1153   */\n      swap2\n      pop\n        /* \"#utility.yul\":1046:1163   */\n      pop\n        /* \"#utility.yul\":841:1170   */\n      swap3\n      swap2\n      pop\n      pop\n      jump\t// out\n        /* \"#utility.yul\":1176:1253   */\n    tag_197:\n        /* \"#utility.yul\":1213:1220   */\n      0x00\n        /* \"#utility.yul\":1242:1247   */\n      dup2\n        /* \"#utility.yul\":1231:1247   */\n      swap1\n      pop\n        /* \"#utility.yul\":1176:1253   */\n      swap2\n      swap1\n      pop\n      jump\t// out\n        /* \"#utility.yul\":1259:1377   */\n    tag_198:\n        /* \"#utility.yul\":1346:1370   */\n      tag_273\n        /* \"#utility.yul\":1364:1369   */\n      dup2\n        /* \"#utility.yul\":1346:1370   */\n      tag_197\n      jump\t// in\n    tag_273:\n        /* \"#utility.yul\":1341:1344   */\n      dup3\n        /* \"#utility.yul\":1334:1371   */\n      mstore\n        /* \"#utility.yul\":1259:1377   */\n      pop\n      pop\n      jump\t// out\n        /* \"#utility.yul\":1383:1605   */\n    tag_34:\n        /* \"#utility.yul\":1476:1480   */\n      0x00\n        /* \"#utility.yul\":1514:1516   */\n      0x20\n        /* \"#utility.yul\":1503:1512   */\n      dup3\n        /* \"#utility.yul\":1499:1517   */\n      add\n        /* \"#utility.yul\":1491:1517   */\n      swap1\n      pop\n        /* \"#utility.yul\":1527:1598   */\n      tag_275\n        /* \"#utility.yul\":1595:1596   */\n      0x00\n        /* \"#utility.yul\":1584:1593   */\n      dup4\n        /* \"#utility.yul\":1580:1597   */\n      add\n        /* \"#utility.yul\":1571:1577   */\n      dup5\n        /* \"#utility.yul\":1527:1598   */\n      tag_198\n      jump\t// in\n    tag_275:\n        /* \"#utility.yul\":1383:1605   */\n      swap3\n      swap2\n      pop\n      pop\n      jump\t// out\n        /* \"#utility.yul\":1611:1728   */\n    tag_199:\n        /* \"#utility.yul\":1720:1721   */\n      0x00\n        /* \"#utility.yul\":1717:1718   */\n      dup1\n        /* \"#utility.yul\":1710:1722   */\n      revert\n        /* \"#utility.yul\":1734:1851   */\n    tag_200:\n        /* \"#utility.yul\":1843:1844   */\n      0x00\n        /* \"#utility.yul\":1840:1841   */\n      dup1\n        /* \"#utility.yul\":1833:1845   */\n      revert\n        /* \"#utility.yul\":1857:1959   */\n    tag_201:\n        /* \"#utility.yul\":1898:1904   */\n      0x00\n        /* \"#utility.yul\":1949:1951   */\n      0x1f\n        /* \"#utility.yul\":1945:1952   */\n      not\n        /* \"#utility.yul\":1940:1942   */\n      0x1f\n        /* \"#utility.yul\":1933:1938   */\n      dup4\n        /* \"#utility.yul\":1929:1943   */\n      add\n        /* \"#utility.yul\":1925:1953   */\n      and\n        /* \"#utility.yul\":1915:1953   */\n      swap1\n      pop\n        /* \"#utility.yul\":1857:1959   */\n      swap2\n      swap1\n      pop\n      jump\t// out\n        /* \"#utility.yul\":1965:2145   */\n    tag_140:\n        /* \"#utility.yul\":2013:2090   */\n      0x4e487b7100000000000000000000000000000000000000000000000000000000\n        /* \"#utility.yul\":2010:2011   */\n      0x00\n        /* \"#utility.yul\":2003:2091   */\n      mstore\n        /* \"#utility.yul\":2110:2114   */\n      0x41\n        /* \"#utility.yul\":2107:2108   */\n      0x04\n        /* \"#utility.yul\":2100:2115   */\n      mstore\n        /* \"#utility.yul\":2134:2138   */\n      0x24\n        /* \"#utility.yul\":2131:2132   */\n      0x00\n        /* \"#utility.yul\":2124:2139   */\n      revert\n        /* \"#utility.yul\":2151:2432   */\n    tag_202:\n        /* \"#utility.yul\":2234:2261   */\n      tag_281\n        /* \"#utility.yul\":2256:2260   */\n      dup3\n        /* \"#utility.yul\":2234:2261   */\n      tag_201\n      jump\t// in\n    tag_281:\n        /* \"#utility.yul\":2226:2232   */\n      dup2\n        /* \"#utility.yul\":2222:2262   */\n      add\n        /* \"#utility.yul\":2364:2370   */\n      dup2\n        /* \"#utility.yul\":2352:2362   */\n      dup2\n        /* \"#utility.yul\":2349:2371   */\n      lt\n        /* \"#utility.yul\":2328:2346   */\n      0xffffffffffffffff\n        /* \"#utility.yul\":2316:2326   */\n      dup3\n        /* \"#utility.yul\":2313:2347   */\n      gt\n        /* \"#utility.yul\":2310:2372   */\n      or\n        /* \"#utility.yul\":2307:2395   */\n      iszero\n      tag_282\n      jumpi\n        /* \"#utility.yul\":2375:2393   */\n      tag_283\n      tag_140\n      jump\t// in\n    tag_283:\n        /* \"#utility.yul\":2307:2395   */\n    tag_282:\n        /* \"#utility.yul\":2415:2425   */\n      dup1\n        /* \"#utility.yul\":2411:2413   */\n      0x40\n        /* \"#utility.yul\":2404:2426   */\n      mstore\n        /* \"#utility.yul\":2194:2432   */\n      pop\n        /* \"#utility.yul\":2151:2432   */\n      pop\n      pop\n      jump\t// out\n        /* \"#utility.yul\":2438:2567   */\n    tag_203:\n        /* \"#utility.yul\":2472:2478   */\n      0x00\n        /* \"#utility.yul\":2499:2519   */\n      tag_285\n      tag_190\n      jump\t// in\n    tag_285:\n        /* \"#utility.yul\":2489:2519   */\n      swap1\n      pop\n        /* \"#utility.yul\":2528:2561   */\n      tag_286\n        /* \"#utility.yul\":2556:2560   */\n      dup3\n        /* \"#utility.yul\":2548:2554   */\n      dup3\n        /* \"#utility.yul\":2528:2561   */\n      tag_202\n      jump\t// in\n    tag_286:\n        /* \"#utility.yul\":2438:2567   */\n      swap2\n      swap1\n      pop\n      jump\t// out\n        /* \"#utility.yul\":2573:2881   */\n    tag_204:\n        /* \"#utility.yul\":2635:2639   */\n      0x00\n        /* \"#utility.yul\":2725:2743   */\n      0xffffffffffffffff\n        /* \"#utility.yul\":2717:2723   */\n      dup3\n        /* \"#utility.yul\":2714:2744   */\n      gt\n        /* \"#utility.yul\":2711:2767   */\n      iszero\n      tag_288\n      jumpi\n        /* \"#utility.yul\":2747:2765   */\n      tag_289\n      tag_140\n      jump\t// in\n    tag_289:\n        /* \"#utility.yul\":2711:2767   */\n    tag_288:\n        /* \"#utility.yul\":2785:2814   */\n      tag_290\n        /* \"#utility.yul\":2807:2813   */\n      dup3\n        /* \"#utility.yul\":2785:2814   */\n      tag_201\n      jump\t// in\n    tag_290:\n        /* \"#utility.yul\":2777:2814   */\n      swap1\n      pop\n        /* \"#utility.yul\":2869:2873   */\n      0x20\n        /* \"#utility.yul\":2863:2867   */\n      dup2\n        /* \"#utility.yul\":2859:2874   */\n      add\n        /* \"#utility.yul\":2851:2874   */\n      swap1\n      pop\n        /* \"#utility.yul\":2573:2881   */\n      swap2\n      swap1\n      pop\n      jump\t// out\n        /* \"#utility.yul\":2887:3035   */\n    tag_205:\n        /* \"#utility.yul\":2985:2991   */\n      dup3\n        /* \"#utility.yul\":2980:2983   */\n      dup2\n        /* \"#utility.yul\":2975:2978   */\n      dup4\n        /* \"#utility.yul\":2962:2992   */\n      calldatacopy\n        /* \"#utility.yul\":3026:3027   */\n      0x00\n        /* \"#utility.yul\":3017:3023   */\n      dup4\n        /* \"#utility.yul\":3012:3015   */\n      dup4\n        /* \"#utility.yul\":3008:3024   */\n      add\n        /* \"#utility.yul\":3001:3028   */\n      mstore\n        /* \"#utility.yul\":2887:3035   */\n      pop\n      pop\n      pop\n      jump\t// out\n        /* \"#utility.yul\":3041:3466   */\n    tag_206:\n        /* \"#utility.yul\":3119:3124   */\n      0x00\n        /* \"#utility.yul\":3144:3210   */\n      tag_293\n        /* \"#utility.yul\":3160:3209   */\n      tag_294\n        /* \"#utility.yul\":3202:3208   */\n      dup5\n        /* \"#utility.yul\":3160:3209   */\n      tag_204\n      jump\t// in\n    tag_294:\n        /* \"#utility.yul\":3144:3210   */\n      tag_203\n      jump\t// in\n    tag_293:\n        /* \"#utility.yul\":3135:3210   */\n      swap1\n      pop\n        /* \"#utility.yul\":3233:3239   */\n      dup3\n        /* \"#utility.yul\":3226:3231   */\n      dup2\n        /* \"#utility.yul\":3219:3240   */\n      mstore\n        /* \"#utility.yul\":3271:3275   */\n      0x20\n        /* \"#utility.yul\":3264:3269   */\n      dup2\n        /* \"#utility.yul\":3260:3276   */\n      add\n        /* \"#utility.yul\":3309:3312   */\n      dup5\n        /* \"#utility.yul\":3300:3306   */\n      dup5\n        /* \"#utility.yul\":3295:3298   */\n      dup5\n        /* \"#utility.yul\":3291:3307   */\n      add\n        /* \"#utility.yul\":3288:3313   */\n      gt\n        /* \"#utility.yul\":3285:3397   */\n      iszero\n      tag_295\n      jumpi\n        /* \"#utility.yul\":3316:3395   */\n      tag_296\n      tag_200\n      jump\t// in\n    tag_296:\n        /* \"#utility.yul\":3285:3397   */\n    tag_295:\n        /* \"#utility.yul\":3406:3460   */\n      tag_297\n        /* \"#utility.yul\":3453:3459   */\n      dup5\n        /* \"#utility.yul\":3448:3451   */\n      dup3\n        /* \"#utility.yul\":3443:3446   */\n      dup6\n        /* \"#utility.yul\":3406:3460   */\n      tag_205\n      jump\t// in\n    tag_297:\n        /* \"#utility.yul\":3125:3466   */\n      pop\n        /* \"#utility.yul\":3041:3466   */\n      swap4\n      swap3\n      pop\n      pop\n      pop\n      jump\t// out\n        /* \"#utility.yul\":3486:3826   */\n    tag_207:\n        /* \"#utility.yul\":3542:3547   */\n      0x00\n        /* \"#utility.yul\":3591:3594   */\n      dup3\n        /* \"#utility.yul\":3584:3588   */\n      0x1f\n        /* \"#utility.yul\":3576:3582   */\n      dup4\n        /* \"#utility.yul\":3572:3589   */\n      add\n        /* \"#utility.yul\":3568:3595   */\n      slt\n        /* \"#utility.yul\":3558:3680   */\n      tag_299\n      jumpi\n        /* \"#utility.yul\":3599:3678   */\n      tag_300\n      tag_199\n      jump\t// in\n    tag_300:\n        /* \"#utility.yul\":3558:3680   */\n    tag_299:\n        /* \"#utility.yul\":3716:3722   */\n      dup2\n        /* \"#utility.yul\":3703:3723   */\n      calldataload\n        /* \"#utility.yul\":3741:3820   */\n      tag_301\n        /* \"#utility.yul\":3816:3819   */\n      dup5\n        /* \"#utility.yul\":3808:3814   */\n      dup3\n        /* \"#utility.yul\":3801:3805   */\n      0x20\n        /* \"#utility.yul\":3793:3799   */\n      dup7\n        /* \"#utility.yul\":3789:3806   */\n      add\n        /* \"#utility.yul\":3741:3820   */\n      tag_206\n      jump\t// in\n    tag_301:\n        /* \"#utility.yul\":3732:3820   */\n      swap2\n      pop\n        /* \"#utility.yul\":3548:3826   */\n      pop\n        /* \"#utility.yul\":3486:3826   */\n      swap3\n      swap2\n      pop\n      pop\n      jump\t// out\n        /* \"#utility.yul\":3832:4341   */\n    tag_37:\n        /* \"#utility.yul\":3901:3907   */\n      0x00\n        /* \"#utility.yul\":3950:3952   */\n      0x20\n        /* \"#utility.yul\":3938:3947   */\n      dup3\n        /* \"#utility.yul\":3929:3936   */\n      dup5\n        /* \"#utility.yul\":3925:3948   */\n      sub\n        /* \"#utility.yul\":3921:3953   */\n      slt\n        /* \"#utility.yul\":3918:4037   */\n      iszero\n      tag_303\n      jumpi\n        /* \"#utility.yul\":3956:4035   */\n      tag_304\n      tag_191\n      jump\t// in\n    tag_304:\n        /* \"#utility.yul\":3918:4037   */\n    tag_303:\n        /* \"#utility.yul\":4104:4105   */\n      0x00\n        /* \"#utility.yul\":4093:4102   */\n      dup3\n        /* \"#utility.yul\":4089:4106   */\n      add\n        /* \"#utility.yul\":4076:4107   */\n      calldataload\n        /* \"#utility.yul\":4134:4152   */\n      0xffffffffffffffff\n        /* \"#utility.yul\":4126:4132   */\n      dup2\n        /* \"#utility.yul\":4123:4153   */\n      gt\n        /* \"#utility.yul\":4120:4237   */\n      iszero\n      tag_305\n      jumpi\n        /* \"#utility.yul\":4156:4235   */\n      tag_306\n      tag_192\n      jump\t// in\n    tag_306:\n        /* \"#utility.yul\":4120:4237   */\n    tag_305:\n        /* \"#utility.yul\":4261:4324   */\n      tag_307\n        /* \"#utility.yul\":4316:4323   */\n      dup5\n        /* \"#utility.yul\":4307:4313   */\n      dup3\n        /* \"#utility.yul\":4296:4305   */\n      dup6\n        /* \"#utility.yul\":4292:4314   */\n      add\n        /* \"#utility.yul\":4261:4324   */\n      tag_207\n      jump\t// in\n    tag_307:\n        /* \"#utility.yul\":4251:4324   */\n      swap2\n      pop\n        /* \"#utility.yul\":4047:4334   */\n      pop\n        /* \"#utility.yul\":3832:4341   */\n      swap3\n      swap2\n      pop\n      pop\n      jump\t// out\n        /* \"#utility.yul\":4347:4469   */\n    tag_208:\n        /* \"#utility.yul\":4420:4444   */\n      tag_309\n        /* \"#utility.yul\":4438:4443   */\n      dup2\n        /* \"#utility.yul\":4420:4444   */\n      tag_197\n      jump\t// in\n    tag_309:\n        /* \"#utility.yul\":4413:4418   */\n      dup2\n        /* \"#utility.yul\":4410:4445   */\n      eq\n        /* \"#utility.yul\":4400:4463   */\n      tag_310\n      jumpi\n        /* \"#utility.yul\":4459:4460   */\n      0x00\n        /* \"#utility.yul\":4456:4457   */\n      dup1\n        /* \"#utility.yul\":4449:4461   */\n      revert\n        /* \"#utility.yul\":4400:4463   */\n    tag_310:\n        /* \"#utility.yul\":4347:4469   */\n      pop\n      jump\t// out\n        /* \"#utility.yul\":4475:4614   */\n    tag_209:\n        /* \"#utility.yul\":4521:4526   */\n      0x00\n        /* \"#utility.yul\":4559:4565   */\n      dup2\n        /* \"#utility.yul\":4546:4566   */\n      calldataload\n        /* \"#utility.yul\":4537:4566   */\n      swap1\n      pop\n        /* \"#utility.yul\":4575:4608   */\n      tag_312\n        /* \"#utility.yul\":4602:4607   */\n      dup2\n        /* \"#utility.yul\":4575:4608   */\n      tag_208\n      jump\t// in\n    tag_312:\n        /* \"#utility.yul\":4475:4614   */\n      swap3\n      swap2\n      pop\n      pop\n      jump\t// out\n        /* \"#utility.yul\":4620:4949   */\n    tag_46:\n        /* \"#utility.yul\":4679:4685   */\n      0x00\n        /* \"#utility.yul\":4728:4730   */\n      0x20\n        /* \"#utility.yul\":4716:4725   */\n      dup3\n        /* \"#utility.yul\":4707:4714   */\n      dup5\n        /* \"#utility.yul\":4703:4726   */\n      sub\n        /* \"#utility.yul\":4699:4731   */\n      slt\n        /* \"#utility.yul\":4696:4815   */\n      iszero\n      tag_314\n      jumpi\n        /* \"#utility.yul\":4734:4813   */\n      tag_315\n      tag_191\n      jump\t// in\n    tag_315:\n        /* \"#utility.yul\":4696:4815   */\n    tag_314:\n        /* \"#utility.yul\":4854:4855   */\n      0x00\n        /* \"#utility.yul\":4879:4932   */\n      tag_316\n        /* \"#utility.yul\":4924:4931   */\n      dup5\n        /* \"#utility.yul\":4915:4921   */\n      dup3\n        /* \"#utility.yul\":4904:4913   */\n      dup6\n        /* \"#utility.yul\":4900:4922   */\n      add\n        /* \"#utility.yul\":4879:4932   */\n      tag_209\n      jump\t// in\n    tag_316:\n        /* \"#utility.yul\":4869:4932   */\n      swap2\n      pop\n        /* \"#utility.yul\":4825:4942   */\n      pop\n        /* \"#utility.yul\":4620:4949   */\n      swap3\n      swap2\n      pop\n      pop\n      jump\t// out\n        /* \"#utility.yul\":4955:5104   */\n    tag_210:\n        /* \"#utility.yul\":4991:4998   */\n      0x00\n        /* \"#utility.yul\":5031:5097   */\n      0xffffff0000000000000000000000000000000000000000000000000000000000\n        /* \"#utility.yul\":5024:5029   */\n      dup3\n        /* \"#utility.yul\":5020:5098   */\n      and\n        /* \"#utility.yul\":5009:5098   */\n      swap1\n      pop\n        /* \"#utility.yul\":4955:5104   */\n      swap2\n      swap1\n      pop\n      jump\t// out\n        /* \"#utility.yul\":5110:5225   */\n    tag_211:\n        /* \"#utility.yul\":5195:5218   */\n      tag_319\n        /* \"#utility.yul\":5212:5217   */\n      dup2\n        /* \"#utility.yul\":5195:5218   */\n      tag_210\n      jump\t// in\n    tag_319:\n        /* \"#utility.yul\":5190:5193   */\n      dup3\n        /* \"#utility.yul\":5183:5219   */\n      mstore\n        /* \"#utility.yul\":5110:5225   */\n      pop\n      pop\n      jump\t// out\n        /* \"#utility.yul\":5231:5449   */\n    tag_53:\n        /* \"#utility.yul\":5322:5326   */\n      0x00\n        /* \"#utility.yul\":5360:5362   */\n      0x20\n        /* \"#utility.yul\":5349:5358   */\n      dup3\n        /* \"#utility.yul\":5345:5363   */\n      add\n        /* \"#utility.yul\":5337:5363   */\n      swap1\n      pop\n        /* \"#utility.yul\":5373:5442   */\n      tag_321\n        /* \"#utility.yul\":5439:5440   */\n      0x00\n        /* \"#utility.yul\":5428:5437   */\n      dup4\n        /* \"#utility.yul\":5424:5441   */\n      add\n        /* \"#utility.yul\":5415:5421   */\n      dup5\n        /* \"#utility.yul\":5373:5442   */\n      tag_211\n      jump\t// in\n    tag_321:\n        /* \"#utility.yul\":5231:5449   */\n      swap3\n      swap2\n      pop\n      pop\n      jump\t// out\n        /* \"#utility.yul\":5455:5554   */\n    tag_212:\n        /* \"#utility.yul\":5507:5513   */\n      0x00\n        /* \"#utility.yul\":5541:5546   */\n      dup2\n        /* \"#utility.yul\":5535:5547   */\n      mload\n        /* \"#utility.yul\":5525:5547   */\n      swap1\n      pop\n        /* \"#utility.yul\":5455:5554   */\n      swap2\n      swap1\n      pop\n      jump\t// out\n        /* \"#utility.yul\":5560:5729   */\n    tag_213:\n        /* \"#utility.yul\":5644:5655   */\n      0x00\n        /* \"#utility.yul\":5678:5684   */\n      dup3\n        /* \"#utility.yul\":5673:5676   */\n      dup3\n        /* \"#utility.yul\":5666:5685   */\n      mstore\n        /* \"#utility.yul\":5718:5722   */\n      0x20\n        /* \"#utility.yul\":5713:5716   */\n      dup3\n        /* \"#utility.yul\":5709:5723   */\n      add\n        /* \"#utility.yul\":5694:5723   */\n      swap1\n      pop\n        /* \"#utility.yul\":5560:5729   */\n      swap3\n      swap2\n      pop\n      pop\n      jump\t// out\n        /* \"#utility.yul\":5735:5874   */\n    tag_214:\n        /* \"#utility.yul\":5824:5830   */\n      dup3\n        /* \"#utility.yul\":5819:5822   */\n      dup2\n        /* \"#utility.yul\":5814:5817   */\n      dup4\n        /* \"#utility.yul\":5808:5831   */\n      mcopy\n        /* \"#utility.yul\":5865:5866   */\n      0x00\n        /* \"#utility.yul\":5856:5862   */\n      dup4\n        /* \"#utility.yul\":5851:5854   */\n      dup4\n        /* \"#utility.yul\":5847:5863   */\n      add\n        /* \"#utility.yul\":5840:5867   */\n      mstore\n        /* \"#utility.yul\":5735:5874   */\n      pop\n      pop\n      pop\n      jump\t// out\n        /* \"#utility.yul\":5880:6257   */\n    tag_215:\n        /* \"#utility.yul\":5968:5971   */\n      0x00\n        /* \"#utility.yul\":5996:6035   */\n      tag_326\n        /* \"#utility.yul\":6029:6034   */\n      dup3\n        /* \"#utility.yul\":5996:6035   */\n      tag_212\n      jump\t// in\n    tag_326:\n        /* \"#utility.yul\":6051:6122   */\n      tag_327\n        /* \"#utility.yul\":6115:6121   */\n      dup2\n        /* \"#utility.yul\":6110:6113   */\n      dup6\n        /* \"#utility.yul\":6051:6122   */\n      tag_213\n      jump\t// in\n    tag_327:\n        /* \"#utility.yul\":6044:6122   */\n      swap4\n      pop\n        /* \"#utility.yul\":6131:6196   */\n      tag_328\n        /* \"#utility.yul\":6189:6195   */\n      dup2\n        /* \"#utility.yul\":6184:6187   */\n      dup6\n        /* \"#utility.yul\":6177:6181   */\n      0x20\n        /* \"#utility.yul\":6170:6175   */\n      dup7\n        /* \"#utility.yul\":6166:6182   */\n      add\n        /* \"#utility.yul\":6131:6196   */\n      tag_214\n      jump\t// in\n    tag_328:\n        /* \"#utility.yul\":6221:6250   */\n      tag_329\n        /* \"#utility.yul\":6243:6249   */\n      dup2\n        /* \"#utility.yul\":6221:6250   */\n      tag_201\n      jump\t// in\n    tag_329:\n        /* \"#utility.yul\":6216:6219   */\n      dup5\n        /* \"#utility.yul\":6212:6251   */\n      add\n        /* \"#utility.yul\":6205:6251   */\n      swap2\n      pop\n        /* \"#utility.yul\":5972:6257   */\n      pop\n        /* \"#utility.yul\":5880:6257   */\n      swap3\n      swap2\n      pop\n      pop\n      jump\t// out\n        /* \"#utility.yul\":6263:6576   */\n    tag_59:\n        /* \"#utility.yul\":6376:6380   */\n      0x00\n        /* \"#utility.yul\":6414:6416   */\n      0x20\n        /* \"#utility.yul\":6403:6412   */\n      dup3\n        /* \"#utility.yul\":6399:6417   */\n      add\n        /* \"#utility.yul\":6391:6417   */\n      swap1\n      pop\n        /* \"#utility.yul\":6463:6472   */\n      dup2\n        /* \"#utility.yul\":6457:6461   */\n      dup2\n        /* \"#utility.yul\":6453:6473   */\n      sub\n        /* \"#utility.yul\":6449:6450   */\n      0x00\n        /* \"#utility.yul\":6438:6447   */\n      dup4\n        /* \"#utility.yul\":6434:6451   */\n      add\n        /* \"#utility.yul\":6427:6474   */\n      mstore\n        /* \"#utility.yul\":6491:6569   */\n      tag_331\n        /* \"#utility.yul\":6564:6568   */\n      dup2\n        /* \"#utility.yul\":6555:6561   */\n      dup5\n        /* \"#utility.yul\":6491:6569   */\n      tag_215\n      jump\t// in\n    tag_331:\n        /* \"#utility.yul\":6483:6569   */\n      swap1\n      pop\n        /* \"#utility.yul\":6263:6576   */\n      swap3\n      swap2\n      pop\n      pop\n      jump\t// out\n        /* \"#utility.yul\":6582:6696   */\n    tag_216:\n        /* \"#utility.yul\":6649:6655   */\n      0x00\n        /* \"#utility.yul\":6683:6688   */\n      dup2\n        /* \"#utility.yul\":6677:6689   */\n      mload\n        /* \"#utility.yul\":6667:6689   */\n      swap1\n      pop\n        /* \"#utility.yul\":6582:6696   */\n      swap2\n      swap1\n      pop\n      jump\t// out\n        /* \"#utility.yul\":6702:6886   */\n    tag_217:\n        /* \"#utility.yul\":6801:6812   */\n      0x00\n        /* \"#utility.yul\":6835:6841   */\n      dup3\n        /* \"#utility.yul\":6830:6833   */\n      dup3\n        /* \"#utility.yul\":6823:6842   */\n      mstore\n        /* \"#utility.yul\":6875:6879   */\n      0x20\n        /* \"#utility.yul\":6870:6873   */\n      dup3\n        /* \"#utility.yul\":6866:6880   */\n      add\n        /* \"#utility.yul\":6851:6880   */\n      swap1\n      pop\n        /* \"#utility.yul\":6702:6886   */\n      swap3\n      swap2\n      pop\n      pop\n      jump\t// out\n        /* \"#utility.yul\":6892:7024   */\n    tag_218:\n        /* \"#utility.yul\":6959:6963   */\n      0x00\n        /* \"#utility.yul\":6982:6985   */\n      dup2\n        /* \"#utility.yul\":6974:6985   */\n      swap1\n      pop\n        /* \"#utility.yul\":7012:7016   */\n      0x20\n        /* \"#utility.yul\":7007:7010   */\n      dup3\n        /* \"#utility.yul\":7003:7017   */\n      add\n        /* \"#utility.yul\":6995:7017   */\n      swap1\n      pop\n        /* \"#utility.yul\":6892:7024   */\n      swap2\n      swap1\n      pop\n      jump\t// out\n        /* \"#utility.yul\":7030:7138   */\n    tag_219:\n        /* \"#utility.yul\":7107:7131   */\n      tag_336\n        /* \"#utility.yul\":7125:7130   */\n      dup2\n        /* \"#utility.yul\":7107:7131   */\n      tag_197\n      jump\t// in\n    tag_336:\n        /* \"#utility.yul\":7102:7105   */\n      dup3\n        /* \"#utility.yul\":7095:7132   */\n      mstore\n        /* \"#utility.yul\":7030:7138   */\n      pop\n      pop\n      jump\t// out\n        /* \"#utility.yul\":7144:7323   */\n    tag_220:\n        /* \"#utility.yul\":7213:7223   */\n      0x00\n        /* \"#utility.yul\":7234:7280   */\n      tag_338\n        /* \"#utility.yul\":7276:7279   */\n      dup4\n        /* \"#utility.yul\":7268:7274   */\n      dup4\n        /* \"#utility.yul\":7234:7280   */\n      tag_219\n      jump\t// in\n    tag_338:\n        /* \"#utility.yul\":7312:7316   */\n      0x20\n        /* \"#utility.yul\":7307:7310   */\n      dup4\n        /* \"#utility.yul\":7303:7317   */\n      add\n        /* \"#utility.yul\":7289:7317   */\n      swap1\n      pop\n        /* \"#utility.yul\":7144:7323   */\n      swap3\n      swap2\n      pop\n      pop\n      jump\t// out\n        /* \"#utility.yul\":7329:7442   */\n    tag_221:\n        /* \"#utility.yul\":7399:7403   */\n      0x00\n        /* \"#utility.yul\":7431:7435   */\n      0x20\n        /* \"#utility.yul\":7426:7429   */\n      dup3\n        /* \"#utility.yul\":7422:7436   */\n      add\n        /* \"#utility.yul\":7414:7436   */\n      swap1\n      pop\n        /* \"#utility.yul\":7329:7442   */\n      swap2\n      swap1\n      pop\n      jump\t// out\n        /* \"#utility.yul\":7478:8210   */\n    tag_222:\n        /* \"#utility.yul\":7597:7600   */\n      0x00\n        /* \"#utility.yul\":7626:7680   */\n      tag_341\n        /* \"#utility.yul\":7674:7679   */\n      dup3\n        /* \"#utility.yul\":7626:7680   */\n      tag_216\n      jump\t// in\n    tag_341:\n        /* \"#utility.yul\":7696:7782   */\n      tag_342\n        /* \"#utility.yul\":7775:7781   */\n      dup2\n        /* \"#utility.yul\":7770:7773   */\n      dup6\n        /* \"#utility.yul\":7696:7782   */\n      tag_217\n      jump\t// in\n    tag_342:\n        /* \"#utility.yul\":7689:7782   */\n      swap4\n      pop\n        /* \"#utility.yul\":7806:7862   */\n      tag_343\n        /* \"#utility.yul\":7856:7861   */\n      dup4\n        /* \"#utility.yul\":7806:7862   */\n      tag_218\n      jump\t// in\n    tag_343:\n        /* \"#utility.yul\":7885:7892   */\n      dup1\n        /* \"#utility.yul\":7916:7917   */\n      0x00\n        /* \"#utility.yul\":7901:8185   */\n    tag_344:\n        /* \"#utility.yul\":7926:7932   */\n      dup4\n        /* \"#utility.yul\":7923:7924   */\n      dup2\n        /* \"#utility.yul\":7920:7933   */\n      lt\n        /* \"#utility.yul\":7901:8185   */\n      iszero\n      tag_346\n      jumpi\n        /* \"#utility.yul\":8002:8008   */\n      dup2\n        /* \"#utility.yul\":7996:8009   */\n      mload\n        /* \"#utility.yul\":8029:8092   */\n      tag_347\n        /* \"#utility.yul\":8088:8091   */\n      dup9\n        /* \"#utility.yul\":8073:8086   */\n      dup3\n        /* \"#utility.yul\":8029:8092   */\n      tag_220\n      jump\t// in\n    tag_347:\n        /* \"#utility.yul\":8022:8092   */\n      swap8\n      pop\n        /* \"#utility.yul\":8115:8175   */\n      tag_348\n        /* \"#utility.yul\":8168:8174   */\n      dup4\n        /* \"#utility.yul\":8115:8175   */\n      tag_221\n      jump\t// in\n    tag_348:\n        /* \"#utility.yul\":8105:8175   */\n      swap3\n      pop\n        /* \"#utility.yul\":7961:8185   */\n      pop\n        /* \"#utility.yul\":7948:7949   */\n      0x01\n        /* \"#utility.yul\":7945:7946   */\n      dup2\n        /* \"#utility.yul\":7941:7950   */\n      add\n        /* \"#utility.yul\":7936:7950   */\n      swap1\n      pop\n        /* \"#utility.yul\":7901:8185   */\n      jump(tag_344)\n    tag_346:\n        /* \"#utility.yul\":7905:7919   */\n      pop\n        /* \"#utility.yul\":8201:8204   */\n      dup6\n        /* \"#utility.yul\":8194:8204   */\n      swap4\n      pop\n        /* \"#utility.yul\":7602:8210   */\n      pop\n      pop\n      pop\n        /* \"#utility.yul\":7478:8210   */\n      swap3\n      swap2\n      pop\n      pop\n      jump\t// out\n        /* \"#utility.yul\":8216:8589   */\n    tag_64:\n        /* \"#utility.yul\":8359:8363   */\n      0x00\n        /* \"#utility.yul\":8397:8399   */\n      0x20\n        /* \"#utility.yul\":8386:8395   */\n      dup3\n        /* \"#utility.yul\":8382:8400   */\n      add\n        /* \"#utility.yul\":8374:8400   */\n      swap1\n      pop\n        /* \"#utility.yul\":8446:8455   */\n      dup2\n        /* \"#utility.yul\":8440:8444   */\n      dup2\n        /* \"#utility.yul\":8436:8456   */\n      sub\n        /* \"#utility.yul\":8432:8433   */\n      0x00\n        /* \"#utility.yul\":8421:8430   */\n      dup4\n        /* \"#utility.yul\":8417:8434   */\n      add\n        /* \"#utility.yul\":8410:8457   */\n      mstore\n        /* \"#utility.yul\":8474:8582   */\n      tag_350\n        /* \"#utility.yul\":8577:8581   */\n      dup2\n        /* \"#utility.yul\":8568:8574   */\n      dup5\n        /* \"#utility.yul\":8474:8582   */\n      tag_222\n      jump\t// in\n    tag_350:\n        /* \"#utility.yul\":8466:8582   */\n      swap1\n      pop\n        /* \"#utility.yul\":8216:8589   */\n      swap3\n      swap2\n      pop\n      pop\n      jump\t// out\n        /* \"#utility.yul\":8595:9069   */\n    tag_68:\n        /* \"#utility.yul\":8663:8669   */\n      0x00\n        /* \"#utility.yul\":8671:8677   */\n      dup1\n        /* \"#utility.yul\":8720:8722   */\n      0x40\n        /* \"#utility.yul\":8708:8717   */\n      dup4\n        /* \"#utility.yul\":8699:8706   */\n      dup6\n        /* \"#utility.yul\":8695:8718   */\n      sub\n        /* \"#utility.yul\":8691:8723   */\n      slt\n        /* \"#utility.yul\":8688:8807   */\n      iszero\n      tag_352\n      jumpi\n        /* \"#utility.yul\":8726:8805   */\n      tag_353\n      tag_191\n      jump\t// in\n    tag_353:\n        /* \"#utility.yul\":8688:8807   */\n    tag_352:\n        /* \"#utility.yul\":8846:8847   */\n      0x00\n        /* \"#utility.yul\":8871:8924   */\n      tag_354\n        /* \"#utility.yul\":8916:8923   */\n      dup6\n        /* \"#utility.yul\":8907:8913   */\n      dup3\n        /* \"#utility.yul\":8896:8905   */\n      dup7\n        /* \"#utility.yul\":8892:8914   */\n      add\n        /* \"#utility.yul\":8871:8924   */\n      tag_196\n      jump\t// in\n    tag_354:\n        /* \"#utility.yul\":8861:8924   */\n      swap3\n      pop\n        /* \"#utility.yul\":8817:8934   */\n      pop\n        /* \"#utility.yul\":8973:8975   */\n      0x20\n        /* \"#utility.yul\":8999:9052   */\n      tag_355\n        /* \"#utility.yul\":9044:9051   */\n      dup6\n        /* \"#utility.yul\":9035:9041   */\n      dup3\n        /* \"#utility.yul\":9024:9033   */\n      dup7\n        /* \"#utility.yul\":9020:9042   */\n      add\n        /* \"#utility.yul\":8999:9052   */\n      tag_209\n      jump\t// in\n    tag_355:\n        /* \"#utility.yul\":8989:9052   */\n      swap2\n      pop\n        /* \"#utility.yul\":8944:9062   */\n      pop\n        /* \"#utility.yul\":8595:9069   */\n      swap3\n      pop\n      swap3\n      swap1\n      pop\n      jump\t// out\n        /* \"#utility.yul\":9075:9183   */\n    tag_223:\n        /* \"#utility.yul\":9152:9176   */\n      tag_357\n        /* \"#utility.yul\":9170:9175   */\n      dup2\n        /* \"#utility.yul\":9152:9176   */\n      tag_194\n      jump\t// in\n    tag_357:\n        /* \"#utility.yul\":9147:9150   */\n      dup3\n        /* \"#utility.yul\":9140:9177   */\n      mstore\n        /* \"#utility.yul\":9075:9183   */\n      pop\n      pop\n      jump\t// out\n        /* \"#utility.yul\":9189:9348   */\n    tag_224:\n        /* \"#utility.yul\":9263:9274   */\n      0x00\n        /* \"#utility.yul\":9297:9303   */\n      dup3\n        /* \"#utility.yul\":9292:9295   */\n      dup3\n        /* \"#utility.yul\":9285:9304   */\n      mstore\n        /* \"#utility.yul\":9337:9341   */\n      0x20\n        /* \"#utility.yul\":9332:9335   */\n      dup3\n        /* \"#utility.yul\":9328:9342   */\n      add\n        /* \"#utility.yul\":9313:9342   */\n      swap1\n      pop\n        /* \"#utility.yul\":9189:9348   */\n      swap3\n      swap2\n      pop\n      pop\n      jump\t// out\n        /* \"#utility.yul\":9354:9711   */\n    tag_225:\n        /* \"#utility.yul\":9432:9435   */\n      0x00\n        /* \"#utility.yul\":9460:9499   */\n      tag_360\n        /* \"#utility.yul\":9493:9498   */\n      dup3\n        /* \"#utility.yul\":9460:9499   */\n      tag_212\n      jump\t// in\n    tag_360:\n        /* \"#utility.yul\":9515:9576   */\n      tag_361\n        /* \"#utility.yul\":9569:9575   */\n      dup2\n        /* \"#utility.yul\":9564:9567   */\n      dup6\n        /* \"#utility.yul\":9515:9576   */\n      tag_224\n      jump\t// in\n    tag_361:\n        /* \"#utility.yul\":9508:9576   */\n      swap4\n      pop\n        /* \"#utility.yul\":9585:9650   */\n      tag_362\n        /* \"#utility.yul\":9643:9649   */\n      dup2\n        /* \"#utility.yul\":9638:9641   */\n      dup6\n        /* \"#utility.yul\":9631:9635   */\n      0x20\n        /* \"#utility.yul\":9624:9629   */\n      dup7\n        /* \"#utility.yul\":9620:9636   */\n      add\n        /* \"#utility.yul\":9585:9650   */\n      tag_214\n      jump\t// in\n    tag_362:\n        /* \"#utility.yul\":9675:9704   */\n      tag_363\n        /* \"#utility.yul\":9697:9703   */\n      dup2\n        /* \"#utility.yul\":9675:9704   */\n      tag_201\n      jump\t// in\n    tag_363:\n        /* \"#utility.yul\":9670:9673   */\n      dup5\n        /* \"#utility.yul\":9666:9705   */\n      add\n        /* \"#utility.yul\":9659:9705   */\n      swap2\n      pop\n        /* \"#utility.yul\":9436:9711   */\n      pop\n        /* \"#utility.yul\":9354:9711   */\n      swap3\n      swap2\n      pop\n      pop\n      jump\t// out\n        /* \"#utility.yul\":9767:10727   */\n    tag_226:\n        /* \"#utility.yul\":9882:9885   */\n      0x00\n        /* \"#utility.yul\":9918:9922   */\n      0x80\n        /* \"#utility.yul\":9913:9916   */\n      dup4\n        /* \"#utility.yul\":9909:9923   */\n      add\n        /* \"#utility.yul\":10007:10011   */\n      0x00\n        /* \"#utility.yul\":10000:10005   */\n      dup4\n        /* \"#utility.yul\":9996:10012   */\n      add\n        /* \"#utility.yul\":9990:10013   */\n      mload\n        /* \"#utility.yul\":10026:10089   */\n      tag_365\n        /* \"#utility.yul\":10083:10087   */\n      0x00\n        /* \"#utility.yul\":10078:10081   */\n      dup7\n        /* \"#utility.yul\":10074:10088   */\n      add\n        /* \"#utility.yul\":10060:10072   */\n      dup3\n        /* \"#utility.yul\":10026:10089   */\n      tag_219\n      jump\t// in\n    tag_365:\n        /* \"#utility.yul\":9933:10099   */\n      pop\n        /* \"#utility.yul\":10186:10190   */\n      0x20\n        /* \"#utility.yul\":10179:10184   */\n      dup4\n        /* \"#utility.yul\":10175:10191   */\n      add\n        /* \"#utility.yul\":10169:10192   */\n      mload\n        /* \"#utility.yul\":10205:10268   */\n      tag_366\n        /* \"#utility.yul\":10262:10266   */\n      0x20\n        /* \"#utility.yul\":10257:10260   */\n      dup7\n        /* \"#utility.yul\":10253:10267   */\n      add\n        /* \"#utility.yul\":10239:10251   */\n      dup3\n        /* \"#utility.yul\":10205:10268   */\n      tag_219\n      jump\t// in\n    tag_366:\n        /* \"#utility.yul\":10109:10278   */\n      pop\n        /* \"#utility.yul\":10360:10364   */\n      0x40\n        /* \"#utility.yul\":10353:10358   */\n      dup4\n        /* \"#utility.yul\":10349:10365   */\n      add\n        /* \"#utility.yul\":10343:10366   */\n      mload\n        /* \"#utility.yul\":10379:10442   */\n      tag_367\n        /* \"#utility.yul\":10436:10440   */\n      0x40\n        /* \"#utility.yul\":10431:10434   */\n      dup7\n        /* \"#utility.yul\":10427:10441   */\n      add\n        /* \"#utility.yul\":10413:10425   */\n      dup3\n        /* \"#utility.yul\":10379:10442   */\n      tag_223\n      jump\t// in\n    tag_367:\n        /* \"#utility.yul\":10288:10452   */\n      pop\n        /* \"#utility.yul\":10537:10541   */\n      0x60\n        /* \"#utility.yul\":10530:10535   */\n      dup4\n        /* \"#utility.yul\":10526:10542   */\n      add\n        /* \"#utility.yul\":10520:10543   */\n      mload\n        /* \"#utility.yul\":10590:10593   */\n      dup5\n        /* \"#utility.yul\":10584:10588   */\n      dup3\n        /* \"#utility.yul\":10580:10594   */\n      sub\n        /* \"#utility.yul\":10573:10577   */\n      0x60\n        /* \"#utility.yul\":10568:10571   */\n      dup7\n        /* \"#utility.yul\":10564:10578   */\n      add\n        /* \"#utility.yul\":10557:10595   */\n      mstore\n        /* \"#utility.yul\":10616:10689   */\n      tag_368\n        /* \"#utility.yul\":10684:10688   */\n      dup3\n        /* \"#utility.yul\":10670:10682   */\n      dup3\n        /* \"#utility.yul\":10616:10689   */\n      tag_225\n      jump\t// in\n    tag_368:\n        /* \"#utility.yul\":10608:10689   */\n      swap2\n      pop\n        /* \"#utility.yul\":10462:10700   */\n      pop\n        /* \"#utility.yul\":10717:10721   */\n      dup1\n        /* \"#utility.yul\":10710:10721   */\n      swap2\n      pop\n        /* \"#utility.yul\":9887:10727   */\n      pop\n        /* \"#utility.yul\":9767:10727   */\n      swap3\n      swap2\n      pop\n      pop\n      jump\t// out\n        /* \"#utility.yul\":10733:11098   */\n    tag_71:\n        /* \"#utility.yul\":10872:10876   */\n      0x00\n        /* \"#utility.yul\":10910:10912   */\n      0x20\n        /* \"#utility.yul\":10899:10908   */\n      dup3\n        /* \"#utility.yul\":10895:10913   */\n      add\n        /* \"#utility.yul\":10887:10913   */\n      swap1\n      pop\n        /* \"#utility.yul\":10959:10968   */\n      dup2\n        /* \"#utility.yul\":10953:10957   */\n      dup2\n        /* \"#utility.yul\":10949:10969   */\n      sub\n        /* \"#utility.yul\":10945:10946   */\n      0x00\n        /* \"#utility.yul\":10934:10943   */\n      dup4\n        /* \"#utility.yul\":10930:10947   */\n      add\n        /* \"#utility.yul\":10923:10970   */\n      mstore\n        /* \"#utility.yul\":10987:11091   */\n      tag_370\n        /* \"#utility.yul\":11086:11090   */\n      dup2\n        /* \"#utility.yul\":11077:11083   */\n      dup5\n        /* \"#utility.yul\":10987:11091   */\n      tag_226\n      jump\t// in\n    tag_370:\n        /* \"#utility.yul\":10979:11091   */\n      swap1\n      pop\n        /* \"#utility.yul\":10733:11098   */\n      swap3\n      swap2\n      pop\n      pop\n      jump\t// out\n        /* \"#utility.yul\":11104:11202   */\n    tag_227:\n        /* \"#utility.yul\":11155:11161   */\n      0x00\n        /* \"#utility.yul\":11189:11194   */\n      dup2\n        /* \"#utility.yul\":11183:11195   */\n      mload\n        /* \"#utility.yul\":11173:11195   */\n      swap1\n      pop\n        /* \"#utility.yul\":11104:11202   */\n      swap2\n      swap1\n      pop\n      jump\t// out\n        /* \"#utility.yul\":11208:11376   */\n    tag_228:\n        /* \"#utility.yul\":11291:11302   */\n      0x00\n        /* \"#utility.yul\":11325:11331   */\n      dup3\n        /* \"#utility.yul\":11320:11323   */\n      dup3\n        /* \"#utility.yul\":11313:11332   */\n      mstore\n        /* \"#utility.yul\":11365:11369   */\n      0x20\n        /* \"#utility.yul\":11360:11363   */\n      dup3\n        /* \"#utility.yul\":11356:11370   */\n      add\n        /* \"#utility.yul\":11341:11370   */\n      swap1\n      pop\n        /* \"#utility.yul\":11208:11376   */\n      swap3\n      swap2\n      pop\n      pop\n      jump\t// out\n        /* \"#utility.yul\":11382:11755   */\n    tag_229:\n        /* \"#utility.yul\":11468:11471   */\n      0x00\n        /* \"#utility.yul\":11496:11534   */\n      tag_374\n        /* \"#utility.yul\":11528:11533   */\n      dup3\n        /* \"#utility.yul\":11496:11534   */\n      tag_227\n      jump\t// in\n    tag_374:\n        /* \"#utility.yul\":11550:11620   */\n      tag_375\n        /* \"#utility.yul\":11613:11619   */\n      dup2\n        /* \"#utility.yul\":11608:11611   */\n      dup6\n        /* \"#utility.yul\":11550:11620   */\n      tag_228\n      jump\t// in\n    tag_375:\n        /* \"#utility.yul\":11543:11620   */\n      swap4\n      pop\n        /* \"#utility.yul\":11629:11694   */\n      tag_376\n        /* \"#utility.yul\":11687:11693   */\n      dup2\n        /* \"#utility.yul\":11682:11685   */\n      dup6\n        /* \"#utility.yul\":11675:11679   */\n      0x20\n        /* \"#utility.yul\":11668:11673   */\n      dup7\n        /* \"#utility.yul\":11664:11680   */\n      add\n        /* \"#utility.yul\":11629:11694   */\n      tag_214\n      jump\t// in\n    tag_376:\n        /* \"#utility.yul\":11719:11748   */\n      tag_377\n        /* \"#utility.yul\":11741:11747   */\n      dup2\n        /* \"#utility.yul\":11719:11748   */\n      tag_201\n      jump\t// in\n    tag_377:\n        /* \"#utility.yul\":11714:11717   */\n      dup5\n        /* \"#utility.yul\":11710:11749   */\n      add\n        /* \"#utility.yul\":11703:11749   */\n      swap2\n      pop\n        /* \"#utility.yul\":11472:11755   */\n      pop\n        /* \"#utility.yul\":11382:11755   */\n      swap3\n      swap2\n      pop\n      pop\n      jump\t// out\n        /* \"#utility.yul\":11761:12070   */\n    tag_76:\n        /* \"#utility.yul\":11872:11876   */\n      0x00\n        /* \"#utility.yul\":11910:11912   */\n      0x20\n        /* \"#utility.yul\":11899:11908   */\n      dup3\n        /* \"#utility.yul\":11895:11913   */\n      add\n        /* \"#utility.yul\":11887:11913   */\n      swap1\n      pop\n        /* \"#utility.yul\":11959:11968   */\n      dup2\n        /* \"#utility.yul\":11953:11957   */\n      dup2\n        /* \"#utility.yul\":11949:11969   */\n      sub\n        /* \"#utility.yul\":11945:11946   */\n      0x00\n        /* \"#utility.yul\":11934:11943   */\n      dup4\n        /* \"#utility.yul\":11930:11947   */\n      add\n        /* \"#utility.yul\":11923:11970   */\n      mstore\n        /* \"#utility.yul\":11987:12063   */\n      tag_379\n        /* \"#utility.yul\":12058:12062   */\n      dup2\n        /* \"#utility.yul\":12049:12055   */\n      dup5\n        /* \"#utility.yul\":11987:12063   */\n      tag_229\n      jump\t// in\n    tag_379:\n        /* \"#utility.yul\":11979:12063   */\n      swap1\n      pop\n        /* \"#utility.yul\":11761:12070   */\n      swap3\n      swap2\n      pop\n      pop\n      jump\t// out\n        /* \"#utility.yul\":12076:12550   */\n    tag_83:\n        /* \"#utility.yul\":12144:12150   */\n      0x00\n        /* \"#utility.yul\":12152:12158   */\n      dup1\n        /* \"#utility.yul\":12201:12203   */\n      0x40\n        /* \"#utility.yul\":12189:12198   */\n      dup4\n        /* \"#utility.yul\":12180:12187   */\n      dup6\n        /* \"#utility.yul\":12176:12199   */\n      sub\n        /* \"#utility.yul\":12172:12204   */\n      slt\n        /* \"#utility.yul\":12169:12288   */\n      iszero\n      tag_381\n      jumpi\n        /* \"#utility.yul\":12207:12286   */\n      tag_382\n      tag_191\n      jump\t// in\n    tag_382:\n        /* \"#utility.yul\":12169:12288   */\n    tag_381:\n        /* \"#utility.yul\":12327:12328   */\n      0x00\n        /* \"#utility.yul\":12352:12405   */\n      tag_383\n        /* \"#utility.yul\":12397:12404   */\n      dup6\n        /* \"#utility.yul\":12388:12394   */\n      dup3\n        /* \"#utility.yul\":12377:12386   */\n      dup7\n        /* \"#utility.yul\":12373:12395   */\n      add\n        /* \"#utility.yul\":12352:12405   */\n      tag_209\n      jump\t// in\n    tag_383:\n        /* \"#utility.yul\":12342:12405   */\n      swap3\n      pop\n        /* \"#utility.yul\":12298:12415   */\n      pop\n        /* \"#utility.yul\":12454:12456   */\n      0x20\n        /* \"#utility.yul\":12480:12533   */\n      tag_384\n        /* \"#utility.yul\":12525:12532   */\n      dup6\n        /* \"#utility.yul\":12516:12522   */\n      dup3\n        /* \"#utility.yul\":12505:12514   */\n      dup7\n        /* \"#utility.yul\":12501:12523   */\n      add\n        /* \"#utility.yul\":12480:12533   */\n      tag_209\n      jump\t// in\n    tag_384:\n        /* \"#utility.yul\":12470:12533   */\n      swap2\n      pop\n        /* \"#utility.yul\":12425:12543   */\n      pop\n        /* \"#utility.yul\":12076:12550   */\n      swap3\n      pop\n      swap3\n      swap1\n      pop\n      jump\t// out\n        /* \"#utility.yul\":12556:12736   */\n    tag_121:\n        /* \"#utility.yul\":12604:12681   */\n      0x4e487b7100000000000000000000000000000000000000000000000000000000\n        /* \"#utility.yul\":12601:12602   */\n      0x00\n        /* \"#utility.yul\":12594:12682   */\n      mstore\n        /* \"#utility.yul\":12701:12705   */\n      0x21\n        /* \"#utility.yul\":12698:12699   */\n      0x04\n        /* \"#utility.yul\":12691:12706   */\n      mstore\n        /* \"#utility.yul\":12725:12729   */\n      0x24\n        /* \"#utility.yul\":12722:12723   */\n      0x00\n        /* \"#utility.yul\":12715:12730   */\n      revert\n        /* \"#utility.yul\":12742:12857   */\n    tag_230:\n        /* \"#utility.yul\":12825:12826   */\n      0x03\n        /* \"#utility.yul\":12818:12823   */\n      dup2\n        /* \"#utility.yul\":12815:12827   */\n      lt\n        /* \"#utility.yul\":12805:12851   */\n      tag_387\n      jumpi\n        /* \"#utility.yul\":12831:12849   */\n      tag_388\n      tag_121\n      jump\t// in\n    tag_388:\n        /* \"#utility.yul\":12805:12851   */\n    tag_387:\n        /* \"#utility.yul\":12742:12857   */\n      pop\n      jump\t// out\n        /* \"#utility.yul\":12863:12994   */\n    tag_231:\n        /* \"#utility.yul\":12910:12917   */\n      0x00\n        /* \"#utility.yul\":12939:12944   */\n      dup2\n        /* \"#utility.yul\":12928:12944   */\n      swap1\n      pop\n        /* \"#utility.yul\":12945:12988   */\n      tag_390\n        /* \"#utility.yul\":12982:12987   */\n      dup3\n        /* \"#utility.yul\":12945:12988   */\n      tag_230\n      jump\t// in\n    tag_390:\n        /* \"#utility.yul\":12863:12994   */\n      swap2\n      swap1\n      pop\n      jump\t// out\n        /* \"#utility.yul\":13000:13131   */\n    tag_232:\n        /* \"#utility.yul\":13058:13067   */\n      0x00\n        /* \"#utility.yul\":13091:13125   */\n      tag_392\n        /* \"#utility.yul\":13119:13124   */\n      dup3\n        /* \"#utility.yul\":13091:13125   */\n      tag_231\n      jump\t// in\n    tag_392:\n        /* \"#utility.yul\":13078:13125   */\n      swap1\n      pop\n        /* \"#utility.yul\":13000:13131   */\n      swap2\n      swap1\n      pop\n      jump\t// out\n        /* \"#utility.yul\":13137:13284   */\n    tag_233:\n        /* \"#utility.yul\":13232:13277   */\n      tag_394\n        /* \"#utility.yul\":13271:13276   */\n      dup2\n        /* \"#utility.yul\":13232:13277   */\n      tag_232\n      jump\t// in\n    tag_394:\n        /* \"#utility.yul\":13227:13230   */\n      dup3\n        /* \"#utility.yul\":13220:13278   */\n      mstore\n        /* \"#utility.yul\":13137:13284   */\n      pop\n      pop\n      jump\t// out\n        /* \"#utility.yul\":13290:13528   */\n    tag_95:\n        /* \"#utility.yul\":13391:13395   */\n      0x00\n        /* \"#utility.yul\":13429:13431   */\n      0x20\n        /* \"#utility.yul\":13418:13427   */\n      dup3\n        /* \"#utility.yul\":13414:13432   */\n      add\n        /* \"#utility.yul\":13406:13432   */\n      swap1\n      pop\n        /* \"#utility.yul\":13442:13521   */\n      tag_396\n        /* \"#utility.yul\":13518:13519   */\n      0x00\n        /* \"#utility.yul\":13507:13516   */\n      dup4\n        /* \"#utility.yul\":13503:13520   */\n      add\n        /* \"#utility.yul\":13494:13500   */\n      dup5\n        /* \"#utility.yul\":13442:13521   */\n      tag_233\n      jump\t// in\n    tag_396:\n        /* \"#utility.yul\":13290:13528   */\n      swap3\n      swap2\n      pop\n      pop\n      jump\t// out\n        /* \"#utility.yul\":13534:13611   */\n    tag_234:\n        /* \"#utility.yul\":13571:13578   */\n      0x00\n        /* \"#utility.yul\":13600:13605   */\n      dup2\n        /* \"#utility.yul\":13589:13605   */\n      swap1\n      pop\n        /* \"#utility.yul\":13534:13611   */\n      swap2\n      swap1\n      pop\n      jump\t// out\n        /* \"#utility.yul\":13617:13735   */\n    tag_235:\n        /* \"#utility.yul\":13704:13728   */\n      tag_399\n        /* \"#utility.yul\":13722:13727   */\n      dup2\n        /* \"#utility.yul\":13704:13728   */\n      tag_234\n      jump\t// in\n    tag_399:\n        /* \"#utility.yul\":13699:13702   */\n      dup3\n        /* \"#utility.yul\":13692:13729   */\n      mstore\n        /* \"#utility.yul\":13617:13735   */\n      pop\n      pop\n      jump\t// out\n        /* \"#utility.yul\":13741:13963   */\n    tag_100:\n        /* \"#utility.yul\":13834:13838   */\n      0x00\n        /* \"#utility.yul\":13872:13874   */\n      0x20\n        /* \"#utility.yul\":13861:13870   */\n      dup3\n        /* \"#utility.yul\":13857:13875   */\n      add\n        /* \"#utility.yul\":13849:13875   */\n      swap1\n      pop\n        /* \"#utility.yul\":13885:13956   */\n      tag_401\n        /* \"#utility.yul\":13953:13954   */\n      0x00\n        /* \"#utility.yul\":13942:13951   */\n      dup4\n        /* \"#utility.yul\":13938:13955   */\n      add\n        /* \"#utility.yul\":13929:13935   */\n      dup5\n        /* \"#utility.yul\":13885:13956   */\n      tag_235\n      jump\t// in\n    tag_401:\n        /* \"#utility.yul\":13741:13963   */\n      swap3\n      swap2\n      pop\n      pop\n      jump\t// out\n        /* \"#utility.yul\":13969:14118   */\n    tag_236:\n        /* \"#utility.yul\":14005:14012   */\n      0x00\n        /* \"#utility.yul\":14045:14111   */\n      0xff00000000000000000000000000000000000000000000000000000000000000\n        /* \"#utility.yul\":14038:14043   */\n      dup3\n        /* \"#utility.yul\":14034:14112   */\n      and\n        /* \"#utility.yul\":14023:14112   */\n      swap1\n      pop\n        /* \"#utility.yul\":13969:14118   */\n      swap2\n      swap1\n      pop\n      jump\t// out\n        /* \"#utility.yul\":14124:14239   */\n    tag_237:\n        /* \"#utility.yul\":14209:14232   */\n      tag_404\n        /* \"#utility.yul\":14226:14231   */\n      dup2\n        /* \"#utility.yul\":14209:14232   */\n      tag_236\n      jump\t// in\n    tag_404:\n        /* \"#utility.yul\":14204:14207   */\n      dup3\n        /* \"#utility.yul\":14197:14233   */\n      mstore\n        /* \"#utility.yul\":14124:14239   */\n      pop\n      pop\n      jump\t// out\n        /* \"#utility.yul\":14245:14463   */\n    tag_105:\n        /* \"#utility.yul\":14336:14340   */\n      0x00\n        /* \"#utility.yul\":14374:14376   */\n      0x20\n        /* \"#utility.yul\":14363:14372   */\n      dup3\n        /* \"#utility.yul\":14359:14377   */\n      add\n        /* \"#utility.yul\":14351:14377   */\n      swap1\n      pop\n        /* \"#utility.yul\":14387:14456   */\n      tag_406\n        /* \"#utility.yul\":14453:14454   */\n      0x00\n        /* \"#utility.yul\":14442:14451   */\n      dup4\n        /* \"#utility.yul\":14438:14455   */\n      add\n        /* \"#utility.yul\":14429:14435   */\n      dup5\n        /* \"#utility.yul\":14387:14456   */\n      tag_237\n      jump\t// in\n    tag_406:\n        /* \"#utility.yul\":14245:14463   */\n      swap3\n      swap2\n      pop\n      pop\n      jump\t// out\n        /* \"#utility.yul\":14469:14649   */\n    tag_109:\n        /* \"#utility.yul\":14517:14594   */\n      0x4e487b7100000000000000000000000000000000000000000000000000000000\n        /* \"#utility.yul\":14514:14515   */\n      0x00\n        /* \"#utility.yul\":14507:14595   */\n      mstore\n        /* \"#utility.yul\":14614:14618   */\n      0x32\n        /* \"#utility.yul\":14611:14612   */\n      0x04\n        /* \"#utility.yul\":14604:14619   */\n      mstore\n        /* \"#utility.yul\":14638:14642   */\n      0x24\n        /* \"#utility.yul\":14635:14636   */\n      0x00\n        /* \"#utility.yul\":14628:14643   */\n      revert\n        /* \"#utility.yul\":14655:14835   */\n    tag_238:\n        /* \"#utility.yul\":14703:14780   */\n      0x4e487b7100000000000000000000000000000000000000000000000000000000\n        /* \"#utility.yul\":14700:14701   */\n      0x00\n        /* \"#utility.yul\":14693:14781   */\n      mstore\n        /* \"#utility.yul\":14800:14804   */\n      0x11\n        /* \"#utility.yul\":14797:14798   */\n      0x04\n        /* \"#utility.yul\":14790:14805   */\n      mstore\n        /* \"#utility.yul\":14824:14828   */\n      0x24\n        /* \"#utility.yul\":14821:14822   */\n      0x00\n        /* \"#utility.yul\":14814:14829   */\n      revert\n        /* \"#utility.yul\":14841:15074   */\n    tag_124:\n        /* \"#utility.yul\":14880:14883   */\n      0x00\n        /* \"#utility.yul\":14903:14927   */\n      tag_410\n        /* \"#utility.yul\":14921:14926   */\n      dup3\n        /* \"#utility.yul\":14903:14927   */\n      tag_197\n      jump\t// in\n    tag_410:\n        /* \"#utility.yul\":14894:14927   */\n      swap2\n      pop\n        /* \"#utility.yul\":14949:15015   */\n      0xffffffffffffffffffffffffffffffffffffffffffffffffffffffffffffffff\n        /* \"#utility.yul\":14942:14947   */\n      dup3\n        /* \"#utility.yul\":14939:15016   */\n      sub\n        /* \"#utility.yul\":14936:15039   */\n      tag_411\n      jumpi\n        /* \"#utility.yul\":15019:15037   */\n      tag_412\n      tag_238\n      jump\t// in\n    tag_412:\n        /* \"#utility.yul\":14936:15039   */\n    tag_411:\n        /* \"#utility.yul\":15066:15067   */\n      0x01\n        /* \"#utility.yul\":15059:15064   */\n      dup3\n        /* \"#utility.yul\":15055:15068   */\n      add\n        /* \"#utility.yul\":15048:15068   */\n      swap1\n      pop\n        /* \"#utility.yul\":14841:15074   */\n      swap2\n      swap1\n      pop\n      jump\t// out\n        /* \"#utility.yul\":15080:15260   */\n    tag_239:\n        /* \"#utility.yul\":15128:15205   */\n      0x4e487b7100000000000000000000000000000000000000000000000000000000\n        /* \"#utility.yul\":15125:15126   */\n      0x00\n        /* \"#utility.yul\":15118:15206   */\n      mstore\n        /* \"#utility.yul\":15225:15229   */\n      0x22\n        /* \"#utility.yul\":15222:15223   */\n      0x04\n        /* \"#utility.yul\":15215:15230   */\n      mstore\n        /* \"#utility.yul\":15249:15253   */\n      0x24\n        /* \"#utility.yul\":15246:15247   */\n      0x00\n        /* \"#utility.yul\":15239:15254   */\n      revert\n        /* \"#utility.yul\":15266:15586   */\n    tag_132:\n        /* \"#utility.yul\":15310:15316   */\n      0x00\n        /* \"#utility.yul\":15347:15348   */\n      0x02\n        /* \"#utility.yul\":15341:15345   */\n      dup3\n        /* \"#utility.yul\":15337:15349   */\n      div\n        /* \"#utility.yul\":15327:15349   */\n      swap1\n      pop\n        /* \"#utility.yul\":15394:15395   */\n      0x01\n        /* \"#utility.yul\":15388:15392   */\n      dup3\n        /* \"#utility.yul\":15384:15396   */\n      and\n        /* \"#utility.yul\":15415:15433   */\n      dup1\n        /* \"#utility.yul\":15405:15486   */\n      tag_415\n      jumpi\n        /* \"#utility.yul\":15471:15475   */\n      0x7f\n        /* \"#utility.yul\":15463:15469   */\n      dup3\n        /* \"#utility.yul\":15459:15476   */\n      and\n        /* \"#utility.yul\":15449:15476   */\n      swap2\n      pop\n        /* \"#utility.yul\":15405:15486   */\n    tag_415:\n        /* \"#utility.yul\":15533:15535   */\n      0x20\n        /* \"#utility.yul\":15525:15531   */\n      dup3\n        /* \"#utility.yul\":15522:15536   */\n      lt\n        /* \"#utility.yul\":15502:15520   */\n      dup2\n        /* \"#utility.yul\":15499:15537   */\n      sub\n        /* \"#utility.yul\":15496:15580   */\n      tag_416\n      jumpi\n        /* \"#utility.yul\":15552:15570   */\n      tag_417\n      tag_239\n      jump\t// in\n    tag_417:\n        /* \"#utility.yul\":15496:15580   */\n    tag_416:\n        /* \"#utility.yul\":15317:15586   */\n      pop\n        /* \"#utility.yul\":15266:15586   */\n      swap2\n      swap1\n      pop\n      jump\t// out\n        /* \"#utility.yul\":15592:15733   */\n    tag_240:\n        /* \"#utility.yul\":15641:15645   */\n      0x00\n        /* \"#utility.yul\":15664:15667   */\n      dup2\n        /* \"#utility.yul\":15656:15667   */\n      swap1\n      pop\n        /* \"#utility.yul\":15687:15690   */\n      dup2\n        /* \"#utility.yul\":15684:15685   */\n      0x00\n        /* \"#utility.yul\":15677:15691   */\n      mstore\n        /* \"#utility.yul\":15721:15725   */\n      0x20\n        /* \"#utility.yul\":15718:15719   */\n      0x00\n        /* \"#utility.yul\":15708:15726   */\n      keccak256\n        /* \"#utility.yul\":15700:15726   */\n      swap1\n      pop\n        /* \"#utility.yul\":15592:15733   */\n      swap2\n      swap1\n      pop\n      jump\t// out\n        /* \"#utility.yul\":15739:15832   */\n    tag_241:\n        /* \"#utility.yul\":15776:15782   */\n      0x00\n        /* \"#utility.yul\":15823:15825   */\n      0x20\n        /* \"#utility.yul\":15818:15820   */\n      0x1f\n        /* \"#utility.yul\":15811:15816   */\n      dup4\n        /* \"#utility.yul\":15807:15821   */\n      add\n        /* \"#utility.yul\":15803:15826   */\n      div\n        /* \"#utility.yul\":15793:15826   */\n      swap1\n      pop\n        /* \"#utility.yul\":15739:15832   */\n      swap2\n      swap1\n      pop\n      jump\t// out\n        /* \"#utility.yul\":15838:15945   */\n    tag_242:\n        /* \"#utility.yul\":15882:15890   */\n      0x00\n        /* \"#utility.yul\":15932:15937   */\n      dup3\n        /* \"#utility.yul\":15926:15930   */\n      dup3\n        /* \"#utility.yul\":15922:15938   */\n      shl\n        /* \"#utility.yul\":15901:15938   */\n      swap1\n      pop\n        /* \"#utility.yul\":15838:15945   */\n      swap3\n      swap2\n      pop\n      pop\n      jump\t// out\n        /* \"#utility.yul\":15951:16344   */\n    tag_243:\n        /* \"#utility.yul\":16020:16026   */\n      0x00\n        /* \"#utility.yul\":16070:16071   */\n      0x08\n        /* \"#utility.yul\":16058:16068   */\n      dup4\n        /* \"#utility.yul\":16054:16072   */\n      mul\n        /* \"#utility.yul\":16093:16190   */\n      tag_422\n        /* \"#utility.yul\":16123:16189   */\n      0xffffffffffffffffffffffffffffffffffffffffffffffffffffffffffffffff\n        /* \"#utility.yul\":16112:16121   */\n      dup3\n        /* \"#utility.yul\":16093:16190   */\n      tag_242\n      jump\t// in\n    tag_422:\n        /* \"#utility.yul\":16211:16250   */\n      tag_423\n        /* \"#utility.yul\":16241:16249   */\n      dup7\n        /* \"#utility.yul\":16230:16239   */\n      dup4\n        /* \"#utility.yul\":16211:16250   */\n      tag_242\n      jump\t// in\n    tag_423:\n        /* \"#utility.yul\":16199:16250   */\n      swap6\n      pop\n        /* \"#utility.yul\":16283:16287   */\n      dup1\n        /* \"#utility.yul\":16279:16288   */\n      not\n        /* \"#utility.yul\":16272:16277   */\n      dup5\n        /* \"#utility.yul\":16268:16289   */\n      and\n        /* \"#utility.yul\":16259:16289   */\n      swap4\n      pop\n        /* \"#utility.yul\":16332:16336   */\n      dup1\n        /* \"#utility.yul\":16322:16330   */\n      dup7\n        /* \"#utility.yul\":16318:16337   */\n      and\n        /* \"#utility.yul\":16311:16316   */\n      dup5\n        /* \"#utility.yul\":16308:16338   */\n      or\n        /* \"#utility.yul\":16298:16338   */\n      swap3\n      pop\n        /* \"#utility.yul\":16027:16344   */\n      pop\n      pop\n        /* \"#utility.yul\":15951:16344   */\n      swap4\n      swap3\n      pop\n      pop\n      pop\n      jump\t// out\n        /* \"#utility.yul\":16350:16410   */\n    tag_244:\n        /* \"#utility.yul\":16378:16381   */\n      0x00\n        /* \"#utility.yul\":16399:16404   */\n      dup2\n        /* \"#utility.yul\":16392:16404   */\n      swap1\n      pop\n        /* \"#utility.yul\":16350:16410   */\n      swap2\n      swap1\n      pop\n      jump\t// out\n        /* \"#utility.yul\":16416:16558   */\n    tag_245:\n        /* \"#utility.yul\":16466:16475   */\n      0x00\n        /* \"#utility.yul\":16499:16552   */\n      tag_426\n        /* \"#utility.yul\":16517:16551   */\n      tag_427\n        /* \"#utility.yul\":16526:16550   */\n      tag_428\n        /* \"#utility.yul\":16544:16549   */\n      dup5\n        /* \"#utility.yul\":16526:16550   */\n      tag_197\n      jump\t// in\n    tag_428:\n        /* \"#utility.yul\":16517:16551   */\n      tag_244\n      jump\t// in\n    tag_427:\n        /* \"#utility.yul\":16499:16552   */\n      tag_197\n      jump\t// in\n    tag_426:\n        /* \"#utility.yul\":16486:16552   */\n      swap1\n      pop\n        /* \"#utility.yul\":16416:16558   */\n      swap2\n      swap1\n      pop\n      jump\t// out\n        /* \"#utility.yul\":16564:16639   */\n    tag_246:\n        /* \"#utility.yul\":16607:16610   */\n      0x00\n        /* \"#utility.yul\":16628:16633   */\n      dup2\n        /* \"#utility.yul\":16621:16633   */\n      swap1\n      pop\n        /* \"#utility.yul\":16564:16639   */\n      swap2\n      swap1\n      pop\n      jump\t// out\n        /* \"#utility.yul\":16645:16914   */\n    tag_247:\n        /* \"#utility.yul\":16755:16794   */\n      tag_431\n        /* \"#utility.yul\":16786:16793   */\n      dup4\n        /* \"#utility.yul\":16755:16794   */\n      tag_245\n      jump\t// in\n    tag_431:\n        /* \"#utility.yul\":16816:16907   */\n      tag_432\n        /* \"#utility.yul\":16865:16906   */\n      tag_433\n        /* \"#utility.yul\":16889:16905   */\n      dup3\n        /* \"#utility.yul\":16865:16906   */\n      tag_246\n      jump\t// in\n    tag_433:\n        /* \"#utility.yul\":16857:16863   */\n      dup5\n        /* \"#utility.yul\":16850:16854   */\n      dup5\n        /* \"#utility.yul\":16844:16855   */\n      sload\n        /* \"#utility.yul\":16816:16907   */\n      tag_243\n      jump\t// in\n    tag_432:\n        /* \"#utility.yul\":16810:16814   */\n      dup3\n        /* \"#utility.yul\":16803:16908   */\n      sstore\n        /* \"#utility.yul\":16721:16914   */\n      pop\n        /* \"#utility.yul\":16645:16914   */\n      pop\n      pop\n      pop\n      jump\t// out\n        /* \"#utility.yul\":16920:16993   */\n    tag_248:\n        /* \"#utility.yul\":16965:16968   */\n      0x00\n        /* \"#utility.yul\":16920:16993   */\n      swap1\n      jump\t// out\n        /* \"#utility.yul\":16999:17188   */\n    tag_249:\n        /* \"#utility.yul\":17076:17108   */\n      tag_436\n      tag_248\n      jump\t// in\n    tag_436:\n        /* \"#utility.yul\":17117:17182   */\n      tag_437\n        /* \"#utility.yul\":17175:17181   */\n      dup2\n        /* \"#utility.yul\":17167:17173   */\n      dup5\n        /* \"#utility.yul\":17161:17165   */\n      dup5\n        /* \"#utility.yul\":17117:17182   */\n      tag_247\n      jump\t// in\n    tag_437:\n        /* \"#utility.yul\":17052:17188   */\n      pop\n        /* \"#utility.yul\":16999:17188   */\n      pop\n      pop\n      jump\t// out\n        /* \"#utility.yul\":17194:17380   */\n    tag_250:\n        /* \"#utility.yul\":17254:17374   */\n    tag_439:\n        /* \"#utility.yul\":17271:17274   */\n      dup2\n        /* \"#utility.yul\":17264:17269   */\n      dup2\n        /* \"#utility.yul\":17261:17275   */\n      lt\n        /* \"#utility.yul\":17254:17374   */\n      iszero\n      tag_441\n      jumpi\n        /* \"#utility.yul\":17325:17364   */\n      tag_442\n        /* \"#utility.yul\":17362:17363   */\n      0x00\n        /* \"#utility.yul\":17355:17360   */\n      dup3\n        /* \"#utility.yul\":17325:17364   */\n      tag_249\n      jump\t// in\n    tag_442:\n        /* \"#utility.yul\":17298:17299   */\n      0x01\n        /* \"#utility.yul\":17291:17296   */\n      dup2\n        /* \"#utility.yul\":17287:17300   */\n      add\n        /* \"#utility.yul\":17278:17300   */\n      swap1\n      pop\n        /* \"#utility.yul\":17254:17374   */\n      jump(tag_439)\n    tag_441:\n        /* \"#utility.yul\":17194:17380   */\n      pop\n      pop\n      jump\t// out\n        /* \"#utility.yul\":17386:17929   */\n    tag_251:\n        /* \"#utility.yul\":17487:17489   */\n      0x1f\n        /* \"#utility.yul\":17482:17485   */\n      dup3\n        /* \"#utility.yul\":17479:17490   */\n      gt\n        /* \"#utility.yul\":17476:17922   */\n      iszero\n      tag_444\n      jumpi\n        /* \"#utility.yul\":17521:17559   */\n      tag_445\n        /* \"#utility.yul\":17553:17558   */\n      dup2\n        /* \"#utility.yul\":17521:17559   */\n      tag_240\n      jump\t// in\n    tag_445:\n        /* \"#utility.yul\":17605:17634   */\n      tag_446\n        /* \"#utility.yul\":17623:17633   */\n      dup5\n        /* \"#utility.yul\":17605:17634   */\n      tag_241\n      jump\t// in\n    tag_446:\n        /* \"#utility.yul\":17595:17603   */\n      dup2\n        /* \"#utility.yul\":17591:17635   */\n      add\n        /* \"#utility.yul\":17788:17790   */\n      0x20\n        /* \"#utility.yul\":17776:17786   */\n      dup6\n        /* \"#utility.yul\":17773:17791   */\n      lt\n        /* \"#utility.yul\":17770:17819   */\n      iszero\n      tag_447\n      jumpi\n        /* \"#utility.yul\":17809:17817   */\n      dup2\n        /* \"#utility.yul\":17794:17817   */\n      swap1\n      pop\n        /* \"#utility.yul\":17770:17819   */\n    tag_447:\n        /* \"#utility.yul\":17832:17912   */\n      tag_448\n        /* \"#utility.yul\":17888:17910   */\n      tag_449\n        /* \"#utility.yul\":17906:17909   */\n      dup6\n        /* \"#utility.yul\":17888:17910   */\n      tag_241\n      jump\t// in\n    tag_449:\n        /* \"#utility.yul\":17878:17886   */\n      dup4\n        /* \"#utility.yul\":17874:17911   */\n      add\n        /* \"#utility.yul\":17861:17872   */\n      dup3\n        /* \"#utility.yul\":17832:17912   */\n      tag_250\n      jump\t// in\n    tag_448:\n        /* \"#utility.yul\":17491:17922   */\n      pop\n      pop\n        /* \"#utility.yul\":17476:17922   */\n    tag_444:\n        /* \"#utility.yul\":17386:17929   */\n      pop\n      pop\n      pop\n      jump\t// out\n        /* \"#utility.yul\":17935:18052   */\n    tag_252:\n        /* \"#utility.yul\":17989:17997   */\n      0x00\n        /* \"#utility.yul\":18039:18044   */\n      dup3\n        /* \"#utility.yul\":18033:18037   */\n      dup3\n        /* \"#utility.yul\":18029:18045   */\n      shr\n        /* \"#utility.yul\":18008:18045   */\n      swap1\n      pop\n        /* \"#utility.yul\":17935:18052   */\n      swap3\n      swap2\n      pop\n      pop\n      jump\t// out\n        /* \"#utility.yul\":18058:18227   */\n    tag_253:\n        /* \"#utility.yul\":18102:18108   */\n      0x00\n        /* \"#utility.yul\":18135:18186   */\n      tag_452\n        /* \"#utility.yul\":18183:18184   */\n      0x00\n        /* \"#utility.yul\":18179:18185   */\n      not\n        /* \"#utility.yul\":18171:18176   */\n      dup5\n        /* \"#utility.yul\":18168:18169   */\n      0x08\n        /* \"#utility.yul\":18164:18177   */\n      mul\n        /* \"#utility.yul\":18135:18186   */\n      tag_252\n      jump\t// in\n    tag_452:\n        /* \"#utility.yul\":18131:18187   */\n      not\n        /* \"#utility.yul\":18216:18220   */\n      dup1\n        /* \"#utility.yul\":18210:18214   */\n      dup4\n        /* \"#utility.yul\":18206:18221   */\n      and\n        /* \"#utility.yul\":18196:18221   */\n      swap2\n      pop\n        /* \"#utility.yul\":18109:18227   */\n      pop\n        /* \"#utility.yul\":18058:18227   */\n      swap3\n      swap2\n      pop\n      pop\n      jump\t// out\n        /* \"#utility.yul\":18232:18527   */\n    tag_254:\n        /* \"#utility.yul\":18308:18312   */\n      0x00\n        /* \"#utility.yul\":18454:18483   */\n      tag_454\n        /* \"#utility.yul\":18479:18482   */\n      dup4\n        /* \"#utility.yul\":18473:18477   */\n      dup4\n        /* \"#utility.yul\":18454:18483   */\n      tag_253\n      jump\t// in\n    tag_454:\n        /* \"#utility.yul\":18446:18483   */\n      swap2\n      pop\n        /* \"#utility.yul\":18516:18519   */\n      dup3\n        /* \"#utility.yul\":18513:18514   */\n      0x02\n        /* \"#utility.yul\":18509:18520   */\n      mul\n        /* \"#utility.yul\":18503:18507   */\n      dup3\n        /* \"#utility.yul\":18500:18521   */\n      or\n        /* \"#utility.yul\":18492:18521   */\n      swap1\n      pop\n        /* \"#utility.yul\":18232:18527   */\n      swap3\n      swap2\n      pop\n      pop\n      jump\t// out\n        /* \"#utility.yul\":18532:19927   */\n    tag_126:\n        /* \"#utility.yul\":18649:18686   */\n      tag_456\n        /* \"#utility.yul\":18682:18685   */\n      dup3\n        /* \"#utility.yul\":18649:18686   */\n      tag_212\n      jump\t// in\n    tag_456:\n        /* \"#utility.yul\":18751:18769   */\n      0xffffffffffffffff\n        /* \"#utility.yul\":18743:18749   */\n      dup2\n        /* \"#utility.yul\":18740:18770   */\n      gt\n        /* \"#utility.yul\":18737:18793   */\n      iszero\n      tag_457\n      jumpi\n        /* \"#utility.yul\":18773:18791   */\n      tag_458\n      tag_140\n      jump\t// in\n    tag_458:\n        /* \"#utility.yul\":18737:18793   */\n    tag_457:\n        /* \"#utility.yul\":18817:18855   */\n      tag_459\n        /* \"#utility.yul\":18849:18853   */\n      dup3\n        /* \"#utility.yul\":18843:18854   */\n      sload\n        /* \"#utility.yul\":18817:18855   */\n      tag_132\n      jump\t// in\n    tag_459:\n        /* \"#utility.yul\":18902:18969   */\n      tag_460\n        /* \"#utility.yul\":18962:18968   */\n      dup3\n        /* \"#utility.yul\":18954:18960   */\n      dup3\n        /* \"#utility.yul\":18948:18952   */\n      dup6\n        /* \"#utility.yul\":18902:18969   */\n      tag_251\n      jump\t// in\n    tag_460:\n        /* \"#utility.yul\":18996:18997   */\n      0x00\n        /* \"#utility.yul\":19020:19024   */\n      0x20\n        /* \"#utility.yul\":19007:19024   */\n      swap1\n      pop\n        /* \"#utility.yul\":19052:19054   */\n      0x1f\n        /* \"#utility.yul\":19044:19050   */\n      dup4\n        /* \"#utility.yul\":19041:19055   */\n      gt\n        /* \"#utility.yul\":19069:19070   */\n      0x01\n        /* \"#utility.yul\":19064:19682   */\n      dup2\n      eq\n      tag_462\n      jumpi\n        /* \"#utility.yul\":19726:19727   */\n      0x00\n        /* \"#utility.yul\":19743:19749   */\n      dup5\n        /* \"#utility.yul\":19740:19817   */\n      iszero\n      tag_463\n      jumpi\n        /* \"#utility.yul\":19792:19801   */\n      dup3\n        /* \"#utility.yul\":19787:19790   */\n      dup8\n        /* \"#utility.yul\":19783:19802   */\n      add\n        /* \"#utility.yul\":19777:19803   */\n      mload\n        /* \"#utility.yul\":19768:19803   */\n      swap1\n      pop\n        /* \"#utility.yul\":19740:19817   */\n    tag_463:\n        /* \"#utility.yul\":19843:19910   */\n      tag_464\n        /* \"#utility.yul\":19903:19909   */\n      dup6\n        /* \"#utility.yul\":19896:19901   */\n      dup3\n        /* \"#utility.yul\":19843:19910   */\n      tag_254\n      jump\t// in\n    tag_464:\n        /* \"#utility.yul\":19837:19841   */\n      dup7\n        /* \"#utility.yul\":19830:19911   */\n      sstore\n        /* \"#utility.yul\":19699:19921   */\n      pop\n        /* \"#utility.yul\":19034:19921   */\n      jump(tag_461)\n        /* \"#utility.yul\":19064:19682   */\n    tag_462:\n        /* \"#utility.yul\":19116:19120   */\n      0x1f\n        /* \"#utility.yul\":19112:19121   */\n      not\n        /* \"#utility.yul\":19104:19110   */\n      dup5\n        /* \"#utility.yul\":19100:19122   */\n      and\n        /* \"#utility.yul\":19150:19187   */\n      tag_465\n        /* \"#utility.yul\":19182:19186   */\n      dup7\n        /* \"#utility.yul\":19150:19187   */\n      tag_240\n      jump\t// in\n    tag_465:\n        /* \"#utility.yul\":19209:19210   */\n      0x00\n        /* \"#utility.yul\":19223:19431   */\n    tag_466:\n        /* \"#utility.yul\":19237:19244   */\n      dup3\n        /* \"#utility.yul\":19234:19235   */\n      dup2\n        /* \"#utility.yul\":19231:19245   */\n      lt\n        /* \"#utility.yul\":19223:19431   */\n      iszero\n      tag_468\n      jumpi\n        /* \"#utility.yul\":19316:19325   */\n      dup5\n        /* \"#utility.yul\":19311:19314   */\n      dup10\n        /* \"#utility.yul\":19307:19326   */\n      add\n        /* \"#utility.yul\":19301:19327   */\n      mload\n        /* \"#utility.yul\":19293:19299   */\n      dup3\n        /* \"#utility.yul\":19286:19328   */\n      sstore\n        /* \"#utility.yul\":19367:19368   */\n      0x01\n        /* \"#utility.yul\":19359:19365   */\n      dup3\n        /* \"#utility.yul\":19355:19369   */\n      add\n        /* \"#utility.yul\":19345:19369   */\n      swap2\n      pop\n        /* \"#utility.yul\":19414:19416   */\n      0x20\n        /* \"#utility.yul\":19403:19412   */\n      dup6\n        /* \"#utility.yul\":19399:19417   */\n      add\n        /* \"#utility.yul\":19386:19417   */\n      swap5\n      pop\n        /* \"#utility.yul\":19260:19264   */\n      0x20\n        /* \"#utility.yul\":19257:19258   */\n      dup2\n        /* \"#utility.yul\":19253:19265   */\n      add\n        /* \"#utility.yul\":19248:19265   */\n      swap1\n      pop\n        /* \"#utility.yul\":19223:19431   */\n      jump(tag_466)\n    tag_468:\n        /* \"#utility.yul\":19459:19465   */\n      dup7\n        /* \"#utility.yul\":19450:19457   */\n      dup4\n        /* \"#utility.yul\":19447:19466   */\n      lt\n        /* \"#utility.yul\":19444:19623   */\n      iszero\n      tag_469\n      jumpi\n        /* \"#utility.yul\":19517:19526   */\n      dup5\n        /* \"#utility.yul\":19512:19515   */\n      dup10\n        /* \"#utility.yul\":19508:19527   */\n      add\n        /* \"#utility.yul\":19502:19528   */\n      mload\n        /* \"#utility.yul\":19560:19608   */\n      tag_470\n        /* \"#utility.yul\":19602:19606   */\n      0x1f\n        /* \"#utility.yul\":19594:19600   */\n      dup10\n        /* \"#utility.yul\":19590:19607   */\n      and\n        /* \"#utility.yul\":19579:19588   */\n      dup3\n        /* \"#utility.yul\":19560:19608   */\n      tag_253\n      jump\t// in\n    tag_470:\n        /* \"#utility.yul\":19552:19558   */\n      dup4\n        /* \"#utility.yul\":19545:19609   */\n      sstore\n        /* \"#utility.yul\":19467:19623   */\n      pop\n        /* \"#utility.yul\":19444:19623   */\n    tag_469:\n        /* \"#utility.yul\":19669:19670   */\n      0x01\n        /* \"#utility.yul\":19665:19666   */\n      0x02\n        /* \"#utility.yul\":19657:19663   */\n      dup9\n        /* \"#utility.yul\":19653:19667   */\n      mul\n        /* \"#utility.yul\":19649:19671   */\n      add\n        /* \"#utility.yul\":19643:19647   */\n      dup9\n        /* \"#utility.yul\":19636:19672   */\n      sstore\n        /* \"#utility.yul\":19071:19682   */\n      pop\n      pop\n      pop\n        /* \"#utility.yul\":19034:19921   */\n    tag_461:\n      pop\n        /* \"#utility.yul\":18624:19927   */\n      pop\n      pop\n      pop\n        /* \"#utility.yul\":18532:19927   */\n      pop\n      pop\n      jump\t// out\n\n    auxdata: 0xa2646970667358221220f79878c92de278877d215b743f55bb60c6369133a97bd5b77d93f7c105c9056a64736f6c634300081a0033\n}\n",
				"bytecode": {
					"linkReferences": {},
					"object": "60806040527f730000000000000000000000000000000000000000000000000000000000000060015f6101000a81548162ffffff021916908360e81c02179055507f74657374696b00000000000000000000000000000000000000000000000000006002556040518060400160405280600681526020017f74657374696b0000000000000000000000000000000000000000000000000000815250600390816100a89190610503565b5060405180606001604052806040518060400160405280600181526020017f730000000000000000000000000000000000000000000000000000000000000081525081526020016040518060400160405280600181526020017f740000000000000000000000000000000000000000000000000000000000000081525081526020016040518060400160405280600181526020017f720000000000000000000000000000000000000000000000000000000000000081525081525060069060036101739291906101bd565b506040518060600160405280600160ff168152602001600260ff168152602001600360ff16815250600b9060036101ab929190610209565b503480156101b7575f80fd5b506106f9565b82600581019282156101f8579160200282015b828111156101f75782518290816101e7919061062a565b50916020019190600101906101d0565b5b509050610205919061024e565b5090565b82600a810192821561023d579160200282015b8281111561023c578251829060ff1690559160200191906001019061021c565b5b50905061024a9190610271565b5090565b5b8082111561026d575f8181610264919061028c565b5060010161024f565b5090565b5b80821115610288575f815f905550600101610272565b5090565b5080546102989061032d565b5f825580601f106102a957506102c6565b601f0160209004905f5260205f20908101906102c59190610271565b5b50565b5f81519050919050565b7f4e487b71000000000000000000000000000000000000000000000000000000005f52604160045260245ffd5b7f4e487b71000000000000000000000000000000000000000000000000000000005f52602260045260245ffd5b5f600282049050600182168061034457607f821691505b60208210810361035757610356610300565b5b50919050565b5f819050815f5260205f209050919050565b5f6020601f8301049050919050565b5f82821b905092915050565b5f600883026103b97fffffffffffffffffffffffffffffffffffffffffffffffffffffffffffffffff8261037e565b6103c3868361037e565b95508019841693508086168417925050509392505050565b5f819050919050565b5f819050919050565b5f6104076104026103fd846103db565b6103e4565b6103db565b9050919050565b5f819050919050565b610420836103ed565b61043461042c8261040e565b84845461038a565b825550505050565b5f90565b61044861043c565b610453818484610417565b505050565b5b818110156104765761046b5f82610440565b600181019050610459565b5050565b601f8211156104bb5761048c8161035d565b6104958461036f565b810160208510156104a4578190505b6104b86104b08561036f565b830182610458565b50505b505050565b5f82821c905092915050565b5f6104db5f19846008026104c0565b1980831691505092915050565b5f6104f383836104cc565b9150826002028217905092915050565b61050c826102c9565b67ffffffffffffffff811115610525576105246102d3565b5b61052f825461032d565b61053a82828561047a565b5f60209050601f83116001811461056b575f8415610559578287015190505b61056385826104e8565b8655506105ca565b601f1984166105798661035d565b5f5b828110156105a05784890151825560018201915060208501945060208101905061057b565b868310156105bd57848901516105b9601f8916826104cc565b8355505b6001600288020188555050505b505050505050565b5f819050815f5260205f209050919050565b601f821115610625576105f6816105d2565b6105ff8461036f565b8101602085101561060e578190505b61062261061a8561036f565b830182610458565b50505b505050565b610633826102c9565b67ffffffffffffffff81111561064c5761064b6102d3565b5b610656825461032d565b6106618282856105e4565b5f60209050601f831160018114610692575f8415610680578287015190505b61068a85826104e8565b8655506106f1565b601f1984166106a0866105d2565b5f5b828110156106c7578489015182556001820191506020850194506020810190506106a2565b868310156106e457848901516106e0601f8916826104cc565b8355505b6001600288020188555050505b505050505050565b6118a4806107065f395ff3fe6080604052600436106100fd575f3560e01c80638f5c8bf311610094578063bd8425e011610063578063bd8425e0146102f7578063bfb231d214610333578063c045ad4f1461036f578063cb8beaf614610399578063f3ae5738146103c3576100fd565b80638f5c8bf314610251578063977a767c1461027b5780639b185d15146102b7578063bbdfbfba146102e1576100fd565b806356d88e27116100d057806356d88e2714610185578063691a82eb146101af5780636f716855146101eb5780638b3c8a6514610215576100fd565b806301725a0b146101015780631b9265b81461011757806327e235e31461012d5780632b66d72e14610169575b5f80fd5b34801561010c575f80fd5b506101156103ed565b005b348015610122575f80fd5b5061012b6106c3565b005b348015610138575f80fd5b50610153600480360381019061014e9190610e51565b6106ee565b6040516101609190610e94565b60405180910390f35b610183600480360381019061017e9190610fe9565b610707565b005b348015610190575f80fd5b5061019961089b565b6040516101a69190610e94565b60405180910390f35b3480156101ba575f80fd5b506101d560048036038101906101d0919061105a565b6108a1565b6040516101e29190610e94565b60405180910390f35b3480156101f6575f80fd5b506101ff6108c1565b60405161020c91906110bf565b60405180910390f35b348015610220575f80fd5b5061023b6004803603810190610236919061105a565b6108d3565b6040516102489190611138565b60405180910390f35b34801561025c575f80fd5b50610265610972565b604051610272919061120f565b60405180910390f35b348015610286575f80fd5b506102a1600480360381019061029c919061122f565b6109e9565b6040516102ae9190611324565b60405180910390f35b3480156102c2575f80fd5b506102cb610b4a565b6040516102d89190611396565b60405180910390f35b3480156102ec575f80fd5b506102f5610bd6565b005b348015610302575f80fd5b5061031d600480360381019061031891906113b6565b610c02565b60405161032a9190610e94565b60405180910390f35b34801561033e575f80fd5b506103596004803603810190610354919061105a565b610c2d565b6040516103669190610e94565b60405180910390f35b34801561037a575f80fd5b50610383610c46565b6040516103909190611467565b60405180910390f35b3480156103a4575f80fd5b506103ad610c58565b6040516103ba9190611498565b60405180910390f35b3480156103ce575f80fd5b506103d7610c5e565b6040516103e491906114eb565b60405180910390f35b6064600b5f600a811061040357610402611504565b5b018190555060e6600b6009600a811061041f5761041e611504565b5b01819055506040518060a00160405280604051806101400160405280600160ff168152602001600260ff168152602001600360ff168152602001600460ff168152602001600560ff168152602001600660ff168152602001600760ff168152602001600860ff168152602001600960ff1681526020015f60ff1681525081526020016040518061014001604052805f60ff168152602001600160ff168152602001600260ff168152602001600360ff168152602001600460ff168152602001600560ff168152602001600660ff168152602001600760ff168152602001600860ff168152602001600960ff168152508152602001604051806101400160405280600160ff168152602001600360ff168152602001600260ff1681526020015f60ff1681526020015f60ff1681526020015f60ff1681526020015f60ff1681526020015f60ff1681526020015f60ff1681526020015f60ff168152508152602001604051806101400160405280600560ff168152602001600260ff168152602001600760ff1681526020015f60ff1681526020015f60ff1681526020015f60ff1681526020015f60ff1681526020015f60ff1681526020015f60ff1681526020015f60ff168152508152602001604051806101400160405280600660ff168152602001600860ff168152602001600a60ff168152602001602d60ff1681526020015f60ff1681526020015f60ff1681526020015f60ff1681526020015f60ff1681526020015f60ff1681526020015f60ff168152508152506015906005610666929190610cc4565b5060046006908060018154018082558091505060019003905f5260205f20015f909190919091505560046008908060018154018082558091505060019003905f5260205f20015f9091909190915055600480549050600581905550565b5f60475f6101000a81548160ff021916908360028111156106e7576106e66113f4565b5b0217905550565b5f602052805f5260405f205f91509050805f0154905081565b5f805f3373ffffffffffffffffffffffffffffffffffffffff1673ffffffffffffffffffffffffffffffffffffffff1681526020019081526020015f205f015490505f803373ffffffffffffffffffffffffffffffffffffffff1673ffffffffffffffffffffffffffffffffffffffff1681526020019081526020015f205f015f8154809291906107979061155e565b91905055505f60405180608001604052803481526020014281526020013373ffffffffffffffffffffffffffffffffffffffff168152602001848152509050805f803373ffffffffffffffffffffffffffffffffffffffff1673ffffffffffffffffffffffffffffffffffffffff1681526020019081526020015f206001015f8481526020019081526020015f205f820151815f0155602082015181600101556040820151816002015f6101000a81548173ffffffffffffffffffffffffffffffffffffffff021916908373ffffffffffffffffffffffffffffffffffffffff1602179055506060820151816003019081610892919061179f565b50905050505050565b60055481565b600481815481106108b0575f80fd5b905f5260205f20015f915090505481565b60015f9054906101000a900460e81b81565b600681600581106108e2575f80fd5b015f9150905080546108f3906115d2565b80601f016020809104026020016040519081016040528092919081815260200182805461091f906115d2565b801561096a5780601f106109415761010080835404028352916020019161096a565b820191905f5260205f20905b81548152906001019060200180831161094d57829003601f168201915b505050505081565b60605f600a67ffffffffffffffff8111156109905761098f610ec5565b5b6040519080825280602002602001820160405280156109be5781602001602082028036833780820191505090505b5090506001815f815181106109d6576109d5611504565b5b6020026020010181815250508091505090565b6109f1610d15565b5f808473ffffffffffffffffffffffffffffffffffffffff1673ffffffffffffffffffffffffffffffffffffffff1681526020019081526020015f206001015f8381526020019081526020015f206040518060800160405290815f820154815260200160018201548152602001600282015f9054906101000a900473ffffffffffffffffffffffffffffffffffffffff1673ffffffffffffffffffffffffffffffffffffffff1673ffffffffffffffffffffffffffffffffffffffff168152602001600382018054610ac2906115d2565b80601f0160208091040260200160405190810160405280929190818152602001828054610aee906115d2565b8015610b395780601f10610b1057610100808354040283529160200191610b39565b820191905f5260205f20905b815481529060010190602001808311610b1c57829003601f168201915b505050505081525050905092915050565b60038054610b57906115d2565b80601f0160208091040260200160405190810160405280929190818152602001828054610b83906115d2565b8015610bce5780601f10610ba557610100808354040283529160200191610bce565b820191905f5260205f20905b815481529060010190602001808311610bb157829003601f168201915b505050505081565b600160475f6101000a81548160ff02191690836002811115610bfb57610bfa6113f4565b5b0217905550565b60158260058110610c11575f80fd5b600a020181600a8110610c22575f80fd5b015f91509150505481565b600b81600a8110610c3c575f80fd5b015f915090505481565b60475f9054906101000a900460ff1681565b60025481565b5f60035f8154610c6d906115d2565b8110610c7c57610c7b611504565b5b815460011615610c9957905f5260205f2090602091828204019190065b9054901a7f010000000000000000000000000000000000000000000000000000000000000002905090565b826005600a028101928215610d04579160200282015b82811115610d035782518290600a610cf3929190610d50565b50916020019190600a0190610cda565b5b509050610d119190610d95565b5090565b60405180608001604052805f81526020015f81526020015f73ffffffffffffffffffffffffffffffffffffffff168152602001606081525090565b82600a8101928215610d84579160200282015b82811115610d83578251829060ff16905591602001919060010190610d63565b5b509050610d919190610db8565b5090565b5b80821115610db4575f8181610dab9190610dd3565b50600a01610d96565b5090565b5b80821115610dcf575f815f905550600101610db9565b5090565b5080600a0190610de39190610db8565b50565b5f604051905090565b5f80fd5b5f80fd5b5f73ffffffffffffffffffffffffffffffffffffffff82169050919050565b5f610e2082610df7565b9050919050565b610e3081610e16565b8114610e3a575f80fd5b50565b5f81359050610e4b81610e27565b92915050565b5f60208284031215610e6657610e65610def565b5b5f610e7384828501610e3d565b91505092915050565b5f819050919050565b610e8e81610e7c565b82525050565b5f602082019050610ea75f830184610e85565b92915050565b5f80fd5b5f80fd5b5f601f19601f8301169050919050565b7f4e487b71000000000000000000000000000000000000000000000000000000005f52604160045260245ffd5b610efb82610eb5565b810181811067ffffffffffffffff82111715610f1a57610f19610ec5565b5b80604052505050565b5f610f2c610de6565b9050610f388282610ef2565b919050565b5f67ffffffffffffffff821115610f5757610f56610ec5565b5b610f6082610eb5565b9050602081019050919050565b828183375f83830152505050565b5f610f8d610f8884610f3d565b610f23565b905082815260208101848484011115610fa957610fa8610eb1565b5b610fb4848285610f6d565b509392505050565b5f82601f830112610fd057610fcf610ead565b5b8135610fe0848260208601610f7b565b91505092915050565b5f60208284031215610ffe57610ffd610def565b5b5f82013567ffffffffffffffff81111561101b5761101a610df3565b5b61102784828501610fbc565b91505092915050565b61103981610e7c565b8114611043575f80fd5b50565b5f8135905061105481611030565b92915050565b5f6020828403121561106f5761106e610def565b5b5f61107c84828501611046565b91505092915050565b5f7fffffff000000000000000000000000000000000000000000000000000000000082169050919050565b6110b981611085565b82525050565b5f6020820190506110d25f8301846110b0565b92915050565b5f81519050919050565b5f82825260208201905092915050565b8281835e5f83830152505050565b5f61110a826110d8565b61111481856110e2565b93506111248185602086016110f2565b61112d81610eb5565b840191505092915050565b5f6020820190508181035f8301526111508184611100565b905092915050565b5f81519050919050565b5f82825260208201905092915050565b5f819050602082019050919050565b61118a81610e7c565b82525050565b5f61119b8383611181565b60208301905092915050565b5f602082019050919050565b5f6111bd82611158565b6111c78185611162565b93506111d283611172565b805f5b838110156112025781516111e98882611190565b97506111f4836111a7565b9250506001810190506111d5565b5085935050505092915050565b5f6020820190508181035f83015261122781846111b3565b905092915050565b5f806040838503121561124557611244610def565b5b5f61125285828601610e3d565b925050602061126385828601611046565b9150509250929050565b61127681610e16565b82525050565b5f82825260208201905092915050565b5f611296826110d8565b6112a0818561127c565b93506112b08185602086016110f2565b6112b981610eb5565b840191505092915050565b5f608083015f8301516112d95f860182611181565b5060208301516112ec6020860182611181565b5060408301516112ff604086018261126d565b5060608301518482036060860152611317828261128c565b9150508091505092915050565b5f6020820190508181035f83015261133c81846112c4565b905092915050565b5f81519050919050565b5f82825260208201905092915050565b5f61136882611344565b611372818561134e565b93506113828185602086016110f2565b61138b81610eb5565b840191505092915050565b5f6020820190508181035f8301526113ae818461135e565b905092915050565b5f80604083850312156113cc576113cb610def565b5b5f6113d985828601611046565b92505060206113ea85828601611046565b9150509250929050565b7f4e487b71000000000000000000000000000000000000000000000000000000005f52602160045260245ffd5b60038110611432576114316113f4565b5b50565b5f81905061144282611421565b919050565b5f61145182611435565b9050919050565b61146181611447565b82525050565b5f60208201905061147a5f830184611458565b92915050565b5f819050919050565b61149281611480565b82525050565b5f6020820190506114ab5f830184611489565b92915050565b5f7fff0000000000000000000000000000000000000000000000000000000000000082169050919050565b6114e5816114b1565b82525050565b5f6020820190506114fe5f8301846114dc565b92915050565b7f4e487b71000000000000000000000000000000000000000000000000000000005f52603260045260245ffd5b7f4e487b71000000000000000000000000000000000000000000000000000000005f52601160045260245ffd5b5f61156882610e7c565b91507fffffffffffffffffffffffffffffffffffffffffffffffffffffffffffffffff820361159a57611599611531565b5b600182019050919050565b7f4e487b71000000000000000000000000000000000000000000000000000000005f52602260045260245ffd5b5f60028204905060018216806115e957607f821691505b6020821081036115fc576115fb6115a5565b5b50919050565b5f819050815f5260205f209050919050565b5f6020601f8301049050919050565b5f82821b905092915050565b5f6008830261165e7fffffffffffffffffffffffffffffffffffffffffffffffffffffffffffffffff82611623565b6116688683611623565b95508019841693508086168417925050509392505050565b5f819050919050565b5f6116a361169e61169984610e7c565b611680565b610e7c565b9050919050565b5f819050919050565b6116bc83611689565b6116d06116c8826116aa565b84845461162f565b825550505050565b5f90565b6116e46116d8565b6116ef8184846116b3565b505050565b5b81811015611712576117075f826116dc565b6001810190506116f5565b5050565b601f8211156117575761172881611602565b61173184611614565b81016020851015611740578190505b61175461174c85611614565b8301826116f4565b50505b505050565b5f82821c905092915050565b5f6117775f198460080261175c565b1980831691505092915050565b5f61178f8383611768565b9150826002028217905092915050565b6117a8826110d8565b67ffffffffffffffff8111156117c1576117c0610ec5565b5b6117cb82546115d2565b6117d6828285611716565b5f60209050601f831160018114611807575f84156117f5578287015190505b6117ff8582611784565b865550611866565b601f19841661181586611602565b5f5b8281101561183c57848901518255600182019150602085019450602081019050611817565b868310156118595784890151611855601f891682611768565b8355505b6001600288020188555050505b50505050505056fea2646970667358221220f79878c92de278877d215b743f55bb60c6369133a97bd5b77d93f7c105c9056a64736f6c634300081a0033",
					"opcodes": "PUSH1 0x80 PUSH1 0x40 MSTORE PUSH32 0x7300000000000000000000000000000000000000000000000000000000000000 PUSH1 0x1 PUSH0 PUSH2 0x100 EXP DUP2 SLOAD DUP2 PUSH3 0xFFFFFF MUL NOT AND SWAP1 DUP4 PUSH1 0xE8 SHR MUL OR SWAP1 SSTORE POP PUSH32 0x74657374696B0000000000000000000000000000000000000000000000000000 PUSH1 0x2 SSTORE PUSH1 0x40 MLOAD DUP1 PUSH1 0x40 ADD PUSH1 0x40 MSTORE DUP1 PUSH1 0x6 DUP2 MSTORE PUSH1 0x20 ADD PUSH32 0x74657374696B0000000000000000000000000000000000000000000000000000 DUP2 MSTORE POP PUSH1 0x3 SWAP1 DUP2 PUSH2 0xA8 SWAP2 SWAP1 PUSH2 0x503 JUMP JUMPDEST POP PUSH1 0x40 MLOAD DUP1 PUSH1 0x60 ADD PUSH1 0x40 MSTORE DUP1 PUSH1 0x40 MLOAD DUP1 PUSH1 0x40 ADD PUSH1 0x40 MSTORE DUP1 PUSH1 0x1 DUP2 MSTORE PUSH1 0x20 ADD PUSH32 0x7300000000000000000000000000000000000000000000000000000000000000 DUP2 MSTORE POP DUP2 MSTORE PUSH1 0x20 ADD PUSH1 0x40 MLOAD DUP1 PUSH1 0x40 ADD PUSH1 0x40 MSTORE DUP1 PUSH1 0x1 DUP2 MSTORE PUSH1 0x20 ADD PUSH32 0x7400000000000000000000000000000000000000000000000000000000000000 DUP2 MSTORE POP DUP2 MSTORE PUSH1 0x20 ADD PUSH1 0x40 MLOAD DUP1 PUSH1 0x40 ADD PUSH1 0x40 MSTORE DUP1 PUSH1 0x1 DUP2 MSTORE PUSH1 0x20 ADD PUSH32 0x7200000000000000000000000000000000000000000000000000000000000000 DUP2 MSTORE POP DUP2 MSTORE POP PUSH1 0x6 SWAP1 PUSH1 0x3 PUSH2 0x173 SWAP3 SWAP2 SWAP1 PUSH2 0x1BD JUMP JUMPDEST POP PUSH1 0x40 MLOAD DUP1 PUSH1 0x60 ADD PUSH1 0x40 MSTORE DUP1 PUSH1 0x1 PUSH1 0xFF AND DUP2 MSTORE PUSH1 0x20 ADD PUSH1 0x2 PUSH1 0xFF AND DUP2 MSTORE PUSH1 0x20 ADD PUSH1 0x3 PUSH1 0xFF AND DUP2 MSTORE POP PUSH1 0xB SWAP1 PUSH1 0x3 PUSH2 0x1AB SWAP3 SWAP2 SWAP1 PUSH2 0x209 JUMP JUMPDEST POP CALLVALUE DUP1 ISZERO PUSH2 0x1B7 JUMPI PUSH0 DUP1 REVERT JUMPDEST POP PUSH2 0x6F9 JUMP JUMPDEST DUP3 PUSH1 0x5 DUP2 ADD SWAP3 DUP3 ISZERO PUSH2 0x1F8 JUMPI SWAP2 PUSH1 0x20 MUL DUP3 ADD JUMPDEST DUP3 DUP2 GT ISZERO PUSH2 0x1F7 JUMPI DUP3 MLOAD DUP3 SWAP1 DUP2 PUSH2 0x1E7 SWAP2 SWAP1 PUSH2 0x62A JUMP JUMPDEST POP SWAP2 PUSH1 0x20 ADD SWAP2 SWAP1 PUSH1 0x1 ADD SWAP1 PUSH2 0x1D0 JUMP JUMPDEST JUMPDEST POP SWAP1 POP PUSH2 0x205 SWAP2 SWAP1 PUSH2 0x24E JUMP JUMPDEST POP SWAP1 JUMP JUMPDEST DUP3 PUSH1 0xA DUP2 ADD SWAP3 DUP3 ISZERO PUSH2 0x23D JUMPI SWAP2 PUSH1 0x20 MUL DUP3 ADD JUMPDEST DUP3 DUP2 GT ISZERO PUSH2 0x23C JUMPI DUP3 MLOAD DUP3 SWAP1 PUSH1 0xFF AND SWAP1 SSTORE SWAP2 PUSH1 0x20 ADD SWAP2 SWAP1 PUSH1 0x1 ADD SWAP1 PUSH2 0x21C JUMP JUMPDEST JUMPDEST POP SWAP1 POP PUSH2 0x24A SWAP2 SWAP1 PUSH2 0x271 JUMP JUMPDEST POP SWAP1 JUMP JUMPDEST JUMPDEST DUP1 DUP3 GT ISZERO PUSH2 0x26D JUMPI PUSH0 DUP2 DUP2 PUSH2 0x264 SWAP2 SWAP1 PUSH2 0x28C JUMP JUMPDEST POP PUSH1 0x1 ADD PUSH2 0x24F JUMP JUMPDEST POP SWAP1 JUMP JUMPDEST JUMPDEST DUP1 DUP3 GT ISZERO PUSH2 0x288 JUMPI PUSH0 DUP2 PUSH0 SWAP1 SSTORE POP PUSH1 0x1 ADD PUSH2 0x272 JUMP JUMPDEST POP SWAP1 JUMP JUMPDEST POP DUP1 SLOAD PUSH2 0x298 SWAP1 PUSH2 0x32D JUMP JUMPDEST PUSH0 DUP3 SSTORE DUP1 PUSH1 0x1F LT PUSH2 0x2A9 JUMPI POP PUSH2 0x2C6 JUMP JUMPDEST PUSH1 0x1F ADD PUSH1 0x20 SWAP1 DIV SWAP1 PUSH0 MSTORE PUSH1 0x20 PUSH0 KECCAK256 SWAP1 DUP2 ADD SWAP1 PUSH2 0x2C5 SWAP2 SWAP1 PUSH2 0x271 JUMP JUMPDEST JUMPDEST POP JUMP JUMPDEST PUSH0 DUP2 MLOAD SWAP1 POP SWAP2 SWAP1 POP JUMP JUMPDEST PUSH32 0x4E487B7100000000000000000000000000000000000000000000000000000000 PUSH0 MSTORE PUSH1 0x41 PUSH1 0x4 MSTORE PUSH1 0x24 PUSH0 REVERT JUMPDEST PUSH32 0x4E487B7100000000000000000000000000000000000000000000000000000000 PUSH0 MSTORE PUSH1 0x22 PUSH1 0x4 MSTORE PUSH1 0x24 PUSH0 REVERT JUMPDEST PUSH0 PUSH1 0x2 DUP3 DIV SWAP1 POP PUSH1 0x1 DUP3 AND DUP1 PUSH2 0x344 JUMPI PUSH1 0x7F DUP3 AND SWAP2 POP JUMPDEST PUSH1 0x20 DUP3 LT DUP2 SUB PUSH2 0x357 JUMPI PUSH2 0x356 PUSH2 0x300 JUMP JUMPDEST JUMPDEST POP SWAP2 SWAP1 POP JUMP JUMPDEST PUSH0 DUP2 SWAP1 POP DUP2 PUSH0 MSTORE PUSH1 0x20 PUSH0 KECCAK256 SWAP1 POP SWAP2 SWAP1 POP JUMP JUMPDEST PUSH0 PUSH1 0x20 PUSH1 0x1F DUP4 ADD DIV SWAP1 POP SWAP2 SWAP1 POP JUMP JUMPDEST PUSH0 DUP3 DUP3 SHL SWAP1 POP SWAP3 SWAP2 POP POP JUMP JUMPDEST PUSH0 PUSH1 0x8 DUP4 MUL PUSH2 0x3B9 PUSH32 0xFFFFFFFFFFFFFFFFFFFFFFFFFFFFFFFFFFFFFFFFFFFFFFFFFFFFFFFFFFFFFFFF DUP3 PUSH2 0x37E JUMP JUMPDEST PUSH2 0x3C3 DUP7 DUP4 PUSH2 0x37E JUMP JUMPDEST SWAP6 POP DUP1 NOT DUP5 AND SWAP4 POP DUP1 DUP7 AND DUP5 OR SWAP3 POP POP POP SWAP4 SWAP3 POP POP POP JUMP JUMPDEST PUSH0 DUP2 SWAP1 POP SWAP2 SWAP1 POP JUMP JUMPDEST PUSH0 DUP2 SWAP1 POP SWAP2 SWAP1 POP JUMP JUMPDEST PUSH0 PUSH2 0x407 PUSH2 0x402 PUSH2 0x3FD DUP5 PUSH2 0x3DB JUMP JUMPDEST PUSH2 0x3E4 JUMP JUMPDEST PUSH2 0x3DB JUMP JUMPDEST SWAP1 POP SWAP2 SWAP1 POP JUMP JUMPDEST PUSH0 DUP2 SWAP1 POP SWAP2 SWAP1 POP JUMP JUMPDEST PUSH2 0x420 DUP4 PUSH2 0x3ED JUMP JUMPDEST PUSH2 0x434 PUSH2 0x42C DUP3 PUSH2 0x40E JUMP JUMPDEST DUP5 DUP5 SLOAD PUSH2 0x38A JUMP JUMPDEST DUP3 SSTORE POP POP POP POP JUMP JUMPDEST PUSH0 SWAP1 JUMP JUMPDEST PUSH2 0x448 PUSH2 0x43C JUMP JUMPDEST PUSH2 0x453 DUP2 DUP5 DUP5 PUSH2 0x417 JUMP JUMPDEST POP POP POP JUMP JUMPDEST JUMPDEST DUP2 DUP2 LT ISZERO PUSH2 0x476 JUMPI PUSH2 0x46B PUSH0 DUP3 PUSH2 0x440 JUMP JUMPDEST PUSH1 0x1 DUP2 ADD SWAP1 POP PUSH2 0x459 JUMP JUMPDEST POP POP JUMP JUMPDEST PUSH1 0x1F DUP3 GT ISZERO PUSH2 0x4BB JUMPI PUSH2 0x48C DUP2 PUSH2 0x35D JUMP JUMPDEST PUSH2 0x495 DUP5 PUSH2 0x36F JUMP JUMPDEST DUP2 ADD PUSH1 0x20 DUP6 LT ISZERO PUSH2 0x4A4 JUMPI DUP2 SWAP1 POP JUMPDEST PUSH2 0x4B8 PUSH2 0x4B0 DUP6 PUSH2 0x36F JUMP JUMPDEST DUP4 ADD DUP3 PUSH2 0x458 JUMP JUMPDEST POP POP JUMPDEST POP POP POP JUMP JUMPDEST PUSH0 DUP3 DUP3 SHR SWAP1 POP SWAP3 SWAP2 POP POP JUMP JUMPDEST PUSH0 PUSH2 0x4DB PUSH0 NOT DUP5 PUSH1 0x8 MUL PUSH2 0x4C0 JUMP JUMPDEST NOT DUP1 DUP4 AND SWAP2 POP POP SWAP3 SWAP2 POP POP JUMP JUMPDEST PUSH0 PUSH2 0x4F3 DUP4 DUP4 PUSH2 0x4CC JUMP JUMPDEST SWAP2 POP DUP3 PUSH1 0x2 MUL DUP3 OR SWAP1 POP SWAP3 SWAP2 POP POP JUMP JUMPDEST PUSH2 0x50C DUP3 PUSH2 0x2C9 JUMP JUMPDEST PUSH8 0xFFFFFFFFFFFFFFFF DUP2 GT ISZERO PUSH2 0x525 JUMPI PUSH2 0x524 PUSH2 0x2D3 JUMP JUMPDEST JUMPDEST PUSH2 0x52F DUP3 SLOAD PUSH2 0x32D JUMP JUMPDEST PUSH2 0x53A DUP3 DUP3 DUP6 PUSH2 0x47A JUMP JUMPDEST PUSH0 PUSH1 0x20 SWAP1 POP PUSH1 0x1F DUP4 GT PUSH1 0x1 DUP2 EQ PUSH2 0x56B JUMPI PUSH0 DUP5 ISZERO PUSH2 0x559 JUMPI DUP3 DUP8 ADD MLOAD SWAP1 POP JUMPDEST PUSH2 0x563 DUP6 DUP3 PUSH2 0x4E8 JUMP JUMPDEST DUP7 SSTORE POP PUSH2 0x5CA JUMP JUMPDEST PUSH1 0x1F NOT DUP5 AND PUSH2 0x579 DUP7 PUSH2 0x35D JUMP JUMPDEST PUSH0 JUMPDEST DUP3 DUP2 LT ISZERO PUSH2 0x5A0 JUMPI DUP5 DUP10 ADD MLOAD DUP3 SSTORE PUSH1 0x1 DUP3 ADD SWAP2 POP PUSH1 0x20 DUP6 ADD SWAP5 POP PUSH1 0x20 DUP2 ADD SWAP1 POP PUSH2 0x57B JUMP JUMPDEST DUP7 DUP4 LT ISZERO PUSH2 0x5BD JUMPI DUP5 DUP10 ADD MLOAD PUSH2 0x5B9 PUSH1 0x1F DUP10 AND DUP3 PUSH2 0x4CC JUMP JUMPDEST DUP4 SSTORE POP JUMPDEST PUSH1 0x1 PUSH1 0x2 DUP9 MUL ADD DUP9 SSTORE POP POP POP JUMPDEST POP POP POP POP POP POP JUMP JUMPDEST PUSH0 DUP2 SWAP1 POP DUP2 PUSH0 MSTORE PUSH1 0x20 PUSH0 KECCAK256 SWAP1 POP SWAP2 SWAP1 POP JUMP JUMPDEST PUSH1 0x1F DUP3 GT ISZERO PUSH2 0x625 JUMPI PUSH2 0x5F6 DUP2 PUSH2 0x5D2 JUMP JUMPDEST PUSH2 0x5FF DUP5 PUSH2 0x36F JUMP JUMPDEST DUP2 ADD PUSH1 0x20 DUP6 LT ISZERO PUSH2 0x60E JUMPI DUP2 SWAP1 POP JUMPDEST PUSH2 0x622 PUSH2 0x61A DUP6 PUSH2 0x36F JUMP JUMPDEST DUP4 ADD DUP3 PUSH2 0x458 JUMP JUMPDEST POP POP JUMPDEST POP POP POP JUMP JUMPDEST PUSH2 0x633 DUP3 PUSH2 0x2C9 JUMP JUMPDEST PUSH8 0xFFFFFFFFFFFFFFFF DUP2 GT ISZERO PUSH2 0x64C JUMPI PUSH2 0x64B PUSH2 0x2D3 JUMP JUMPDEST JUMPDEST PUSH2 0x656 DUP3 SLOAD PUSH2 0x32D JUMP JUMPDEST PUSH2 0x661 DUP3 DUP3 DUP6 PUSH2 0x5E4 JUMP JUMPDEST PUSH0 PUSH1 0x20 SWAP1 POP PUSH1 0x1F DUP4 GT PUSH1 0x1 DUP2 EQ PUSH2 0x692 JUMPI PUSH0 DUP5 ISZERO PUSH2 0x680 JUMPI DUP3 DUP8 ADD MLOAD SWAP1 POP JUMPDEST PUSH2 0x68A DUP6 DUP3 PUSH2 0x4E8 JUMP JUMPDEST DUP7 SSTORE POP PUSH2 0x6F1 JUMP JUMPDEST PUSH1 0x1F NOT DUP5 AND PUSH2 0x6A0 DUP7 PUSH2 0x5D2 JUMP JUMPDEST PUSH0 JUMPDEST DUP3 DUP2 LT ISZERO PUSH2 0x6C7 JUMPI DUP5 DUP10 ADD MLOAD DUP3 SSTORE PUSH1 0x1 DUP3 ADD SWAP2 POP PUSH1 0x20 DUP6 ADD SWAP5 POP PUSH1 0x20 DUP2 ADD SWAP1 POP PUSH2 0x6A2 JUMP JUMPDEST DUP7 DUP4 LT ISZERO PUSH2 0x6E4 JUMPI DUP5 DUP10 ADD MLOAD PUSH2 0x6E0 PUSH1 0x1F DUP10 AND DUP3 PUSH2 0x4CC JUMP JUMPDEST DUP4 SSTORE POP JUMPDEST PUSH1 0x1 PUSH1 0x2 DUP9 MUL ADD DUP9 SSTORE POP POP POP JUMPDEST POP POP POP POP POP POP JUMP JUMPDEST PUSH2 0x18A4 DUP1 PUSH2 0x706 PUSH0 CODECOPY PUSH0 RETURN INVALID PUSH1 0x80 PUSH1 0x40 MSTORE PUSH1 0x4 CALLDATASIZE LT PUSH2 0xFD JUMPI PUSH0 CALLDATALOAD PUSH1 0xE0 SHR DUP1 PUSH4 0x8F5C8BF3 GT PUSH2 0x94 JUMPI DUP1 PUSH4 0xBD8425E0 GT PUSH2 0x63 JUMPI DUP1 PUSH4 0xBD8425E0 EQ PUSH2 0x2F7 JUMPI DUP1 PUSH4 0xBFB231D2 EQ PUSH2 0x333 JUMPI DUP1 PUSH4 0xC045AD4F EQ PUSH2 0x36F JUMPI DUP1 PUSH4 0xCB8BEAF6 EQ PUSH2 0x399 JUMPI DUP1 PUSH4 0xF3AE5738 EQ PUSH2 0x3C3 JUMPI PUSH2 0xFD JUMP JUMPDEST DUP1 PUSH4 0x8F5C8BF3 EQ PUSH2 0x251 JUMPI DUP1 PUSH4 0x977A767C EQ PUSH2 0x27B JUMPI DUP1 PUSH4 0x9B185D15 EQ PUSH2 0x2B7 JUMPI DUP1 PUSH4 0xBBDFBFBA EQ PUSH2 0x2E1 JUMPI PUSH2 0xFD JUMP JUMPDEST DUP1 PUSH4 0x56D88E27 GT PUSH2 0xD0 JUMPI DUP1 PUSH4 0x56D88E27 EQ PUSH2 0x185 JUMPI DUP1 PUSH4 0x691A82EB EQ PUSH2 0x1AF JUMPI DUP1 PUSH4 0x6F716855 EQ PUSH2 0x1EB JUMPI DUP1 PUSH4 0x8B3C8A65 EQ PUSH2 0x215 JUMPI PUSH2 0xFD JUMP JUMPDEST DUP1 PUSH4 0x1725A0B EQ PUSH2 0x101 JUMPI DUP1 PUSH4 0x1B9265B8 EQ PUSH2 0x117 JUMPI DUP1 PUSH4 0x27E235E3 EQ PUSH2 0x12D JUMPI DUP1 PUSH4 0x2B66D72E EQ PUSH2 0x169 JUMPI JUMPDEST PUSH0 DUP1 REVERT JUMPDEST CALLVALUE DUP1 ISZERO PUSH2 0x10C JUMPI PUSH0 DUP1 REVERT JUMPDEST POP PUSH2 0x115 PUSH2 0x3ED JUMP JUMPDEST STOP JUMPDEST CALLVALUE DUP1 ISZERO PUSH2 0x122 JUMPI PUSH0 DUP1 REVERT JUMPDEST POP PUSH2 0x12B PUSH2 0x6C3 JUMP JUMPDEST STOP JUMPDEST CALLVALUE DUP1 ISZERO PUSH2 0x138 JUMPI PUSH0 DUP1 REVERT JUMPDEST POP PUSH2 0x153 PUSH1 0x4 DUP1 CALLDATASIZE SUB DUP2 ADD SWAP1 PUSH2 0x14E SWAP2 SWAP1 PUSH2 0xE51 JUMP JUMPDEST PUSH2 0x6EE JUMP JUMPDEST PUSH1 0x40 MLOAD PUSH2 0x160 SWAP2 SWAP1 PUSH2 0xE94 JUMP JUMPDEST PUSH1 0x40 MLOAD DUP1 SWAP2 SUB SWAP1 RETURN JUMPDEST PUSH2 0x183 PUSH1 0x4 DUP1 CALLDATASIZE SUB DUP2 ADD SWAP1 PUSH2 0x17E SWAP2 SWAP1 PUSH2 0xFE9 JUMP JUMPDEST PUSH2 0x707 JUMP JUMPDEST STOP JUMPDEST CALLVALUE DUP1 ISZERO PUSH2 0x190 JUMPI PUSH0 DUP1 REVERT JUMPDEST POP PUSH2 0x199 PUSH2 0x89B JUMP JUMPDEST PUSH1 0x40 MLOAD PUSH2 0x1A6 SWAP2 SWAP1 PUSH2 0xE94 JUMP JUMPDEST PUSH1 0x40 MLOAD DUP1 SWAP2 SUB SWAP1 RETURN JUMPDEST CALLVALUE DUP1 ISZERO PUSH2 0x1BA JUMPI PUSH0 DUP1 REVERT JUMPDEST POP PUSH2 0x1D5 PUSH1 0x4 DUP1 CALLDATASIZE SUB DUP2 ADD SWAP1 PUSH2 0x1D0 SWAP2 SWAP1 PUSH2 0x105A JUMP JUMPDEST PUSH2 0x8A1 JUMP JUMPDEST PUSH1 0x40 MLOAD PUSH2 0x1E2 SWAP2 SWAP1 PUSH2 0xE94 JUMP JUMPDEST PUSH1 0x40 MLOAD DUP1 SWAP2 SUB SWAP1 RETURN JUMPDEST CALLVALUE DUP1 ISZERO PUSH2 0x1F6 JUMPI PUSH0 DUP1 REVERT JUMPDEST POP PUSH2 0x1FF PUSH2 0x8C1 JUMP JUMPDEST PUSH1 0x40 MLOAD PUSH2 0x20C SWAP2 SWAP1 PUSH2 0x10BF JUMP JUMPDEST PUSH1 0x40 MLOAD DUP1 SWAP2 SUB SWAP1 RETURN JUMPDEST CALLVALUE DUP1 ISZERO PUSH2 0x220 JUMPI PUSH0 DUP1 REVERT JUMPDEST POP PUSH2 0x23B PUSH1 0x4 DUP1 CALLDATASIZE SUB DUP2 ADD SWAP1 PUSH2 0x236 SWAP2 SWAP1 PUSH2 0x105A JUMP JUMPDEST PUSH2 0x8D3 JUMP JUMPDEST PUSH1 0x40 MLOAD PUSH2 0x248 SWAP2 SWAP1 PUSH2 0x1138 JUMP JUMPDEST PUSH1 0x40 MLOAD DUP1 SWAP2 SUB SWAP1 RETURN JUMPDEST CALLVALUE DUP1 ISZERO PUSH2 0x25C JUMPI PUSH0 DUP1 REVERT JUMPDEST POP PUSH2 0x265 PUSH2 0x972 JUMP JUMPDEST PUSH1 0x40 MLOAD PUSH2 0x272 SWAP2 SWAP1 PUSH2 0x120F JUMP JUMPDEST PUSH1 0x40 MLOAD DUP1 SWAP2 SUB SWAP1 RETURN JUMPDEST CALLVALUE DUP1 ISZERO PUSH2 0x286 JUMPI PUSH0 DUP1 REVERT JUMPDEST POP PUSH2 0x2A1 PUSH1 0x4 DUP1 CALLDATASIZE SUB DUP2 ADD SWAP1 PUSH2 0x29C SWAP2 SWAP1 PUSH2 0x122F JUMP JUMPDEST PUSH2 0x9E9 JUMP JUMPDEST PUSH1 0x40 MLOAD PUSH2 0x2AE SWAP2 SWAP1 PUSH2 0x1324 JUMP JUMPDEST PUSH1 0x40 MLOAD DUP1 SWAP2 SUB SWAP1 RETURN JUMPDEST CALLVALUE DUP1 ISZERO PUSH2 0x2C2 JUMPI PUSH0 DUP1 REVERT JUMPDEST POP PUSH2 0x2CB PUSH2 0xB4A JUMP JUMPDEST PUSH1 0x40 MLOAD PUSH2 0x2D8 SWAP2 SWAP1 PUSH2 0x1396 JUMP JUMPDEST PUSH1 0x40 MLOAD DUP1 SWAP2 SUB SWAP1 RETURN JUMPDEST CALLVALUE DUP1 ISZERO PUSH2 0x2EC JUMPI PUSH0 DUP1 REVERT JUMPDEST POP PUSH2 0x2F5 PUSH2 0xBD6 JUMP JUMPDEST STOP JUMPDEST CALLVALUE DUP1 ISZERO PUSH2 0x302 JUMPI PUSH0 DUP1 REVERT JUMPDEST POP PUSH2 0x31D PUSH1 0x4 DUP1 CALLDATASIZE SUB DUP2 ADD SWAP1 PUSH2 0x318 SWAP2 SWAP1 PUSH2 0x13B6 JUMP JUMPDEST PUSH2 0xC02 JUMP JUMPDEST PUSH1 0x40 MLOAD PUSH2 0x32A SWAP2 SWAP1 PUSH2 0xE94 JUMP JUMPDEST PUSH1 0x40 MLOAD DUP1 SWAP2 SUB SWAP1 RETURN JUMPDEST CALLVALUE DUP1 ISZERO PUSH2 0x33E JUMPI PUSH0 DUP1 REVERT JUMPDEST POP PUSH2 0x359 PUSH1 0x4 DUP1 CALLDATASIZE SUB DUP2 ADD SWAP1 PUSH2 0x354 SWAP2 SWAP1 PUSH2 0x105A JUMP JUMPDEST PUSH2 0xC2D JUMP JUMPDEST PUSH1 0x40 MLOAD PUSH2 0x366 SWAP2 SWAP1 PUSH2 0xE94 JUMP JUMPDEST PUSH1 0x40 MLOAD DUP1 SWAP2 SUB SWAP1 RETURN JUMPDEST CALLVALUE DUP1 ISZERO PUSH2 0x37A JUMPI PUSH0 DUP1 REVERT JUMPDEST POP PUSH2 0x383 PUSH2 0xC46 JUMP JUMPDEST PUSH1 0x40 MLOAD PUSH2 0x390 SWAP2 SWAP1 PUSH2 0x1467 JUMP JUMPDEST PUSH1 0x40 MLOAD DUP1 SWAP2 SUB SWAP1 RETURN JUMPDEST CALLVALUE DUP1 ISZERO PUSH2 0x3A4 JUMPI PUSH0 DUP1 REVERT JUMPDEST POP PUSH2 0x3AD PUSH2 0xC58 JUMP JUMPDEST PUSH1 0x40 MLOAD PUSH2 0x3BA SWAP2 SWAP1 PUSH2 0x1498 JUMP JUMPDEST PUSH1 0x40 MLOAD DUP1 SWAP2 SUB SWAP1 RETURN JUMPDEST CALLVALUE DUP1 ISZERO PUSH2 0x3CE JUMPI PUSH0 DUP1 REVERT JUMPDEST POP PUSH2 0x3D7 PUSH2 0xC5E JUMP JUMPDEST PUSH1 0x40 MLOAD PUSH2 0x3E4 SWAP2 SWAP1 PUSH2 0x14EB JUMP JUMPDEST PUSH1 0x40 MLOAD DUP1 SWAP2 SUB SWAP1 RETURN JUMPDEST PUSH1 0x64 PUSH1 0xB PUSH0 PUSH1 0xA DUP2 LT PUSH2 0x403 JUMPI PUSH2 0x402 PUSH2 0x1504 JUMP JUMPDEST JUMPDEST ADD DUP2 SWAP1 SSTORE POP PUSH1 0xE6 PUSH1 0xB PUSH1 0x9 PUSH1 0xA DUP2 LT PUSH2 0x41F JUMPI PUSH2 0x41E PUSH2 0x1504 JUMP JUMPDEST JUMPDEST ADD DUP2 SWAP1 SSTORE POP PUSH1 0x40 MLOAD DUP1 PUSH1 0xA0 ADD PUSH1 0x40 MSTORE DUP1 PUSH1 0x40 MLOAD DUP1 PUSH2 0x140 ADD PUSH1 0x40 MSTORE DUP1 PUSH1 0x1 PUSH1 0xFF AND DUP2 MSTORE PUSH1 0x20 ADD PUSH1 0x2 PUSH1 0xFF AND DUP2 MSTORE PUSH1 0x20 ADD PUSH1 0x3 PUSH1 0xFF AND DUP2 MSTORE PUSH1 0x20 ADD PUSH1 0x4 PUSH1 0xFF AND DUP2 MSTORE PUSH1 0x20 ADD PUSH1 0x5 PUSH1 0xFF AND DUP2 MSTORE PUSH1 0x20 ADD PUSH1 0x6 PUSH1 0xFF AND DUP2 MSTORE PUSH1 0x20 ADD PUSH1 0x7 PUSH1 0xFF AND DUP2 MSTORE PUSH1 0x20 ADD PUSH1 0x8 PUSH1 0xFF AND DUP2 MSTORE PUSH1 0x20 ADD PUSH1 0x9 PUSH1 0xFF AND DUP2 MSTORE PUSH1 0x20 ADD PUSH0 PUSH1 0xFF AND DUP2 MSTORE POP DUP2 MSTORE PUSH1 0x20 ADD PUSH1 0x40 MLOAD DUP1 PUSH2 0x140 ADD PUSH1 0x40 MSTORE DUP1 PUSH0 PUSH1 0xFF AND DUP2 MSTORE PUSH1 0x20 ADD PUSH1 0x1 PUSH1 0xFF AND DUP2 MSTORE PUSH1 0x20 ADD PUSH1 0x2 PUSH1 0xFF AND DUP2 MSTORE PUSH1 0x20 ADD PUSH1 0x3 PUSH1 0xFF AND DUP2 MSTORE PUSH1 0x20 ADD PUSH1 0x4 PUSH1 0xFF AND DUP2 MSTORE PUSH1 0x20 ADD PUSH1 0x5 PUSH1 0xFF AND DUP2 MSTORE PUSH1 0x20 ADD PUSH1 0x6 PUSH1 0xFF AND DUP2 MSTORE PUSH1 0x20 ADD PUSH1 0x7 PUSH1 0xFF AND DUP2 MSTORE PUSH1 0x20 ADD PUSH1 0x8 PUSH1 0xFF AND DUP2 MSTORE PUSH1 0x20 ADD PUSH1 0x9 PUSH1 0xFF AND DUP2 MSTORE POP DUP2 MSTORE PUSH1 0x20 ADD PUSH1 0x40 MLOAD DUP1 PUSH2 0x140 ADD PUSH1 0x40 MSTORE DUP1 PUSH1 0x1 PUSH1 0xFF AND DUP2 MSTORE PUSH1 0x20 ADD PUSH1 0x3 PUSH1 0xFF AND DUP2 MSTORE PUSH1 0x20 ADD PUSH1 0x2 PUSH1 0xFF AND DUP2 MSTORE PUSH1 0x20 ADD PUSH0 PUSH1 0xFF AND DUP2 MSTORE PUSH1 0x20 ADD PUSH0 PUSH1 0xFF AND DUP2 MSTORE PUSH1 0x20 ADD PUSH0 PUSH1 0xFF AND DUP2 MSTORE PUSH1 0x20 ADD PUSH0 PUSH1 0xFF AND DUP2 MSTORE PUSH1 0x20 ADD PUSH0 PUSH1 0xFF AND DUP2 MSTORE PUSH1 0x20 ADD PUSH0 PUSH1 0xFF AND DUP2 MSTORE PUSH1 0x20 ADD PUSH0 PUSH1 0xFF AND DUP2 MSTORE POP DUP2 MSTORE PUSH1 0x20 ADD PUSH1 0x40 MLOAD DUP1 PUSH2 0x140 ADD PUSH1 0x40 MSTORE DUP1 PUSH1 0x5 PUSH1 0xFF AND DUP2 MSTORE PUSH1 0x20 ADD PUSH1 0x2 PUSH1 0xFF AND DUP2 MSTORE PUSH1 0x20 ADD PUSH1 0x7 PUSH1 0xFF AND DUP2 MSTORE PUSH1 0x20 ADD PUSH0 PUSH1 0xFF AND DUP2 MSTORE PUSH1 0x20 ADD PUSH0 PUSH1 0xFF AND DUP2 MSTORE PUSH1 0x20 ADD PUSH0 PUSH1 0xFF AND DUP2 MSTORE PUSH1 0x20 ADD PUSH0 PUSH1 0xFF AND DUP2 MSTORE PUSH1 0x20 ADD PUSH0 PUSH1 0xFF AND DUP2 MSTORE PUSH1 0x20 ADD PUSH0 PUSH1 0xFF AND DUP2 MSTORE PUSH1 0x20 ADD PUSH0 PUSH1 0xFF AND DUP2 MSTORE POP DUP2 MSTORE PUSH1 0x20 ADD PUSH1 0x40 MLOAD DUP1 PUSH2 0x140 ADD PUSH1 0x40 MSTORE DUP1 PUSH1 0x6 PUSH1 0xFF AND DUP2 MSTORE PUSH1 0x20 ADD PUSH1 0x8 PUSH1 0xFF AND DUP2 MSTORE PUSH1 0x20 ADD PUSH1 0xA PUSH1 0xFF AND DUP2 MSTORE PUSH1 0x20 ADD PUSH1 0x2D PUSH1 0xFF AND DUP2 MSTORE PUSH1 0x20 ADD PUSH0 PUSH1 0xFF AND DUP2 MSTORE PUSH1 0x20 ADD PUSH0 PUSH1 0xFF AND DUP2 MSTORE PUSH1 0x20 ADD PUSH0 PUSH1 0xFF AND DUP2 MSTORE PUSH1 0x20 ADD PUSH0 PUSH1 0xFF AND DUP2 MSTORE PUSH1 0x20 ADD PUSH0 PUSH1 0xFF AND DUP2 MSTORE PUSH1 0x20 ADD PUSH0 PUSH1 0xFF AND DUP2 MSTORE POP DUP2 MSTORE POP PUSH1 0x15 SWAP1 PUSH1 0x5 PUSH2 0x666 SWAP3 SWAP2 SWAP1 PUSH2 0xCC4 JUMP JUMPDEST POP PUSH1 0x4 PUSH1 0x6 SWAP1 DUP1 PUSH1 0x1 DUP2 SLOAD ADD DUP1 DUP3 SSTORE DUP1 SWAP2 POP POP PUSH1 0x1 SWAP1 SUB SWAP1 PUSH0 MSTORE PUSH1 0x20 PUSH0 KECCAK256 ADD PUSH0 SWAP1 SWAP2 SWAP1 SWAP2 SWAP1 SWAP2 POP SSTORE PUSH1 0x4 PUSH1 0x8 SWAP1 DUP1 PUSH1 0x1 DUP2 SLOAD ADD DUP1 DUP3 SSTORE DUP1 SWAP2 POP POP PUSH1 0x1 SWAP1 SUB SWAP1 PUSH0 MSTORE PUSH1 0x20 PUSH0 KECCAK256 ADD PUSH0 SWAP1 SWAP2 SWAP1 SWAP2 SWAP1 SWAP2 POP SSTORE PUSH1 0x4 DUP1 SLOAD SWAP1 POP PUSH1 0x5 DUP2 SWAP1 SSTORE POP JUMP JUMPDEST PUSH0 PUSH1 0x47 PUSH0 PUSH2 0x100 EXP DUP2 SLOAD DUP2 PUSH1 0xFF MUL NOT AND SWAP1 DUP4 PUSH1 0x2 DUP2 GT ISZERO PUSH2 0x6E7 JUMPI PUSH2 0x6E6 PUSH2 0x13F4 JUMP JUMPDEST JUMPDEST MUL OR SWAP1 SSTORE POP JUMP JUMPDEST PUSH0 PUSH1 0x20 MSTORE DUP1 PUSH0 MSTORE PUSH1 0x40 PUSH0 KECCAK256 PUSH0 SWAP2 POP SWAP1 POP DUP1 PUSH0 ADD SLOAD SWAP1 POP DUP2 JUMP JUMPDEST PUSH0 DUP1 PUSH0 CALLER PUSH20 0xFFFFFFFFFFFFFFFFFFFFFFFFFFFFFFFFFFFFFFFF AND PUSH20 0xFFFFFFFFFFFFFFFFFFFFFFFFFFFFFFFFFFFFFFFF AND DUP2 MSTORE PUSH1 0x20 ADD SWAP1 DUP2 MSTORE PUSH1 0x20 ADD PUSH0 KECCAK256 PUSH0 ADD SLOAD SWAP1 POP PUSH0 DUP1 CALLER PUSH20 0xFFFFFFFFFFFFFFFFFFFFFFFFFFFFFFFFFFFFFFFF AND PUSH20 0xFFFFFFFFFFFFFFFFFFFFFFFFFFFFFFFFFFFFFFFF AND DUP2 MSTORE PUSH1 0x20 ADD SWAP1 DUP2 MSTORE PUSH1 0x20 ADD PUSH0 KECCAK256 PUSH0 ADD PUSH0 DUP2 SLOAD DUP1 SWAP3 SWAP2 SWAP1 PUSH2 0x797 SWAP1 PUSH2 0x155E JUMP JUMPDEST SWAP2 SWAP1 POP SSTORE POP PUSH0 PUSH1 0x40 MLOAD DUP1 PUSH1 0x80 ADD PUSH1 0x40 MSTORE DUP1 CALLVALUE DUP2 MSTORE PUSH1 0x20 ADD TIMESTAMP DUP2 MSTORE PUSH1 0x20 ADD CALLER PUSH20 0xFFFFFFFFFFFFFFFFFFFFFFFFFFFFFFFFFFFFFFFF AND DUP2 MSTORE PUSH1 0x20 ADD DUP5 DUP2 MSTORE POP SWAP1 POP DUP1 PUSH0 DUP1 CALLER PUSH20 0xFFFFFFFFFFFFFFFFFFFFFFFFFFFFFFFFFFFFFFFF AND PUSH20 0xFFFFFFFFFFFFFFFFFFFFFFFFFFFFFFFFFFFFFFFF AND DUP2 MSTORE PUSH1 0x20 ADD SWAP1 DUP2 MSTORE PUSH1 0x20 ADD PUSH0 KECCAK256 PUSH1 0x1 ADD PUSH0 DUP5 DUP2 MSTORE PUSH1 0x20 ADD SWAP1 DUP2 MSTORE PUSH1 0x20 ADD PUSH0 KECCAK256 PUSH0 DUP3 ADD MLOAD DUP2 PUSH0 ADD SSTORE PUSH1 0x20 DUP3 ADD MLOAD DUP2 PUSH1 0x1 ADD SSTORE PUSH1 0x40 DUP3 ADD MLOAD DUP2 PUSH1 0x2 ADD PUSH0 PUSH2 0x100 EXP DUP2 SLOAD DUP2 PUSH20 0xFFFFFFFFFFFFFFFFFFFFFFFFFFFFFFFFFFFFFFFF MUL NOT AND SWAP1 DUP4 PUSH20 0xFFFFFFFFFFFFFFFFFFFFFFFFFFFFFFFFFFFFFFFF AND MUL OR SWAP1 SSTORE POP PUSH1 0x60 DUP3 ADD MLOAD DUP2 PUSH1 0x3 ADD SWAP1 DUP2 PUSH2 0x892 SWAP2 SWAP1 PUSH2 0x179F JUMP JUMPDEST POP SWAP1 POP POP POP POP POP JUMP JUMPDEST PUSH1 0x5 SLOAD DUP2 JUMP JUMPDEST PUSH1 0x4 DUP2 DUP2 SLOAD DUP2 LT PUSH2 0x8B0 JUMPI PUSH0 DUP1 REVERT JUMPDEST SWAP1 PUSH0 MSTORE PUSH1 0x20 PUSH0 KECCAK256 ADD PUSH0 SWAP2 POP SWAP1 POP SLOAD DUP2 JUMP JUMPDEST PUSH1 0x1 PUSH0 SWAP1 SLOAD SWAP1 PUSH2 0x100 EXP SWAP1 DIV PUSH1 0xE8 SHL DUP2 JUMP JUMPDEST PUSH1 0x6 DUP2 PUSH1 0x5 DUP2 LT PUSH2 0x8E2 JUMPI PUSH0 DUP1 REVERT JUMPDEST ADD PUSH0 SWAP2 POP SWAP1 POP DUP1 SLOAD PUSH2 0x8F3 SWAP1 PUSH2 0x15D2 JUMP JUMPDEST DUP1 PUSH1 0x1F ADD PUSH1 0x20 DUP1 SWAP2 DIV MUL PUSH1 0x20 ADD PUSH1 0x40 MLOAD SWAP1 DUP2 ADD PUSH1 0x40 MSTORE DUP1 SWAP3 SWAP2 SWAP1 DUP2 DUP2 MSTORE PUSH1 0x20 ADD DUP3 DUP1 SLOAD PUSH2 0x91F SWAP1 PUSH2 0x15D2 JUMP JUMPDEST DUP1 ISZERO PUSH2 0x96A JUMPI DUP1 PUSH1 0x1F LT PUSH2 0x941 JUMPI PUSH2 0x100 DUP1 DUP4 SLOAD DIV MUL DUP4 MSTORE SWAP2 PUSH1 0x20 ADD SWAP2 PUSH2 0x96A JUMP JUMPDEST DUP3 ADD SWAP2 SWAP1 PUSH0 MSTORE PUSH1 0x20 PUSH0 KECCAK256 SWAP1 JUMPDEST DUP2 SLOAD DUP2 MSTORE SWAP1 PUSH1 0x1 ADD SWAP1 PUSH1 0x20 ADD DUP1 DUP4 GT PUSH2 0x94D JUMPI DUP3 SWAP1 SUB PUSH1 0x1F AND DUP3 ADD SWAP2 JUMPDEST POP POP POP POP POP DUP2 JUMP JUMPDEST PUSH1 0x60 PUSH0 PUSH1 0xA PUSH8 0xFFFFFFFFFFFFFFFF DUP2 GT ISZERO PUSH2 0x990 JUMPI PUSH2 0x98F PUSH2 0xEC5 JUMP JUMPDEST JUMPDEST PUSH1 0x40 MLOAD SWAP1 DUP1 DUP3 MSTORE DUP1 PUSH1 0x20 MUL PUSH1 0x20 ADD DUP3 ADD PUSH1 0x40 MSTORE DUP1 ISZERO PUSH2 0x9BE JUMPI DUP2 PUSH1 0x20 ADD PUSH1 0x20 DUP3 MUL DUP1 CALLDATASIZE DUP4 CALLDATACOPY DUP1 DUP3 ADD SWAP2 POP POP SWAP1 POP JUMPDEST POP SWAP1 POP PUSH1 0x1 DUP2 PUSH0 DUP2 MLOAD DUP2 LT PUSH2 0x9D6 JUMPI PUSH2 0x9D5 PUSH2 0x1504 JUMP JUMPDEST JUMPDEST PUSH1 0x20 MUL PUSH1 0x20 ADD ADD DUP2 DUP2 MSTORE POP POP DUP1 SWAP2 POP POP SWAP1 JUMP JUMPDEST PUSH2 0x9F1 PUSH2 0xD15 JUMP JUMPDEST PUSH0 DUP1 DUP5 PUSH20 0xFFFFFFFFFFFFFFFFFFFFFFFFFFFFFFFFFFFFFFFF AND PUSH20 0xFFFFFFFFFFFFFFFFFFFFFFFFFFFFFFFFFFFFFFFF AND DUP2 MSTORE PUSH1 0x20 ADD SWAP1 DUP2 MSTORE PUSH1 0x20 ADD PUSH0 KECCAK256 PUSH1 0x1 ADD PUSH0 DUP4 DUP2 MSTORE PUSH1 0x20 ADD SWAP1 DUP2 MSTORE PUSH1 0x20 ADD PUSH0 KECCAK256 PUSH1 0x40 MLOAD DUP1 PUSH1 0x80 ADD PUSH1 0x40 MSTORE SWAP1 DUP2 PUSH0 DUP3 ADD SLOAD DUP2 MSTORE PUSH1 0x20 ADD PUSH1 0x1 DUP3 ADD SLOAD DUP2 MSTORE PUSH1 0x20 ADD PUSH1 0x2 DUP3 ADD PUSH0 SWAP1 SLOAD SWAP1 PUSH2 0x100 EXP SWAP1 DIV PUSH20 0xFFFFFFFFFFFFFFFFFFFFFFFFFFFFFFFFFFFFFFFF AND PUSH20 0xFFFFFFFFFFFFFFFFFFFFFFFFFFFFFFFFFFFFFFFF AND PUSH20 0xFFFFFFFFFFFFFFFFFFFFFFFFFFFFFFFFFFFFFFFF AND DUP2 MSTORE PUSH1 0x20 ADD PUSH1 0x3 DUP3 ADD DUP1 SLOAD PUSH2 0xAC2 SWAP1 PUSH2 0x15D2 JUMP JUMPDEST DUP1 PUSH1 0x1F ADD PUSH1 0x20 DUP1 SWAP2 DIV MUL PUSH1 0x20 ADD PUSH1 0x40 MLOAD SWAP1 DUP2 ADD PUSH1 0x40 MSTORE DUP1 SWAP3 SWAP2 SWAP1 DUP2 DUP2 MSTORE PUSH1 0x20 ADD DUP3 DUP1 SLOAD PUSH2 0xAEE SWAP1 PUSH2 0x15D2 JUMP JUMPDEST DUP1 ISZERO PUSH2 0xB39 JUMPI DUP1 PUSH1 0x1F LT PUSH2 0xB10 JUMPI PUSH2 0x100 DUP1 DUP4 SLOAD DIV MUL DUP4 MSTORE SWAP2 PUSH1 0x20 ADD SWAP2 PUSH2 0xB39 JUMP JUMPDEST DUP3 ADD SWAP2 SWAP1 PUSH0 MSTORE PUSH1 0x20 PUSH0 KECCAK256 SWAP1 JUMPDEST DUP2 SLOAD DUP2 MSTORE SWAP1 PUSH1 0x1 ADD SWAP1 PUSH1 0x20 ADD DUP1 DUP4 GT PUSH2 0xB1C JUMPI DUP3 SWAP1 SUB PUSH1 0x1F AND DUP3 ADD SWAP2 JUMPDEST POP POP POP POP POP DUP2 MSTORE POP POP SWAP1 POP SWAP3 SWAP2 POP POP JUMP JUMPDEST PUSH1 0x3 DUP1 SLOAD PUSH2 0xB57 SWAP1 PUSH2 0x15D2 JUMP JUMPDEST DUP1 PUSH1 0x1F ADD PUSH1 0x20 DUP1 SWAP2 DIV MUL PUSH1 0x20 ADD PUSH1 0x40 MLOAD SWAP1 DUP2 ADD PUSH1 0x40 MSTORE DUP1 SWAP3 SWAP2 SWAP1 DUP2 DUP2 MSTORE PUSH1 0x20 ADD DUP3 DUP1 SLOAD PUSH2 0xB83 SWAP1 PUSH2 0x15D2 JUMP JUMPDEST DUP1 ISZERO PUSH2 0xBCE JUMPI DUP1 PUSH1 0x1F LT PUSH2 0xBA5 JUMPI PUSH2 0x100 DUP1 DUP4 SLOAD DIV MUL DUP4 MSTORE SWAP2 PUSH1 0x20 ADD SWAP2 PUSH2 0xBCE JUMP JUMPDEST DUP3 ADD SWAP2 SWAP1 PUSH0 MSTORE PUSH1 0x20 PUSH0 KECCAK256 SWAP1 JUMPDEST DUP2 SLOAD DUP2 MSTORE SWAP1 PUSH1 0x1 ADD SWAP1 PUSH1 0x20 ADD DUP1 DUP4 GT PUSH2 0xBB1 JUMPI DUP3 SWAP1 SUB PUSH1 0x1F AND DUP3 ADD SWAP2 JUMPDEST POP POP POP POP POP DUP2 JUMP JUMPDEST PUSH1 0x1 PUSH1 0x47 PUSH0 PUSH2 0x100 EXP DUP2 SLOAD DUP2 PUSH1 0xFF MUL NOT AND SWAP1 DUP4 PUSH1 0x2 DUP2 GT ISZERO PUSH2 0xBFB JUMPI PUSH2 0xBFA PUSH2 0x13F4 JUMP JUMPDEST JUMPDEST MUL OR SWAP1 SSTORE POP JUMP JUMPDEST PUSH1 0x15 DUP3 PUSH1 0x5 DUP2 LT PUSH2 0xC11 JUMPI PUSH0 DUP1 REVERT JUMPDEST PUSH1 0xA MUL ADD DUP2 PUSH1 0xA DUP2 LT PUSH2 0xC22 JUMPI PUSH0 DUP1 REVERT JUMPDEST ADD PUSH0 SWAP2 POP SWAP2 POP POP SLOAD DUP2 JUMP JUMPDEST PUSH1 0xB DUP2 PUSH1 0xA DUP2 LT PUSH2 0xC3C JUMPI PUSH0 DUP1 REVERT JUMPDEST ADD PUSH0 SWAP2 POP SWAP1 POP SLOAD DUP2 JUMP JUMPDEST PUSH1 0x47 PUSH0 SWAP1 SLOAD SWAP1 PUSH2 0x100 EXP SWAP1 DIV PUSH1 0xFF AND DUP2 JUMP JUMPDEST PUSH1 0x2 SLOAD DUP2 JUMP JUMPDEST PUSH0 PUSH1 0x3 PUSH0 DUP2 SLOAD PUSH2 0xC6D SWAP1 PUSH2 0x15D2 JUMP JUMPDEST DUP2 LT PUSH2 0xC7C JUMPI PUSH2 0xC7B PUSH2 0x1504 JUMP JUMPDEST JUMPDEST DUP2 SLOAD PUSH1 0x1 AND ISZERO PUSH2 0xC99 JUMPI SWAP1 PUSH0 MSTORE PUSH1 0x20 PUSH0 KECCAK256 SWAP1 PUSH1 0x20 SWAP2 DUP3 DUP3 DIV ADD SWAP2 SWAP1 MOD JUMPDEST SWAP1 SLOAD SWAP1 BYTE PUSH32 0x100000000000000000000000000000000000000000000000000000000000000 MUL SWAP1 POP SWAP1 JUMP JUMPDEST DUP3 PUSH1 0x5 PUSH1 0xA MUL DUP2 ADD SWAP3 DUP3 ISZERO PUSH2 0xD04 JUMPI SWAP2 PUSH1 0x20 MUL DUP3 ADD JUMPDEST DUP3 DUP2 GT ISZERO PUSH2 0xD03 JUMPI DUP3 MLOAD DUP3 SWAP1 PUSH1 0xA PUSH2 0xCF3 SWAP3 SWAP2 SWAP1 PUSH2 0xD50 JUMP JUMPDEST POP SWAP2 PUSH1 0x20 ADD SWAP2 SWAP1 PUSH1 0xA ADD SWAP1 PUSH2 0xCDA JUMP JUMPDEST JUMPDEST POP SWAP1 POP PUSH2 0xD11 SWAP2 SWAP1 PUSH2 0xD95 JUMP JUMPDEST POP SWAP1 JUMP JUMPDEST PUSH1 0x40 MLOAD DUP1 PUSH1 0x80 ADD PUSH1 0x40 MSTORE DUP1 PUSH0 DUP2 MSTORE PUSH1 0x20 ADD PUSH0 DUP2 MSTORE PUSH1 0x20 ADD PUSH0 PUSH20 0xFFFFFFFFFFFFFFFFFFFFFFFFFFFFFFFFFFFFFFFF AND DUP2 MSTORE PUSH1 0x20 ADD PUSH1 0x60 DUP2 MSTORE POP SWAP1 JUMP JUMPDEST DUP3 PUSH1 0xA DUP2 ADD SWAP3 DUP3 ISZERO PUSH2 0xD84 JUMPI SWAP2 PUSH1 0x20 MUL DUP3 ADD JUMPDEST DUP3 DUP2 GT ISZERO PUSH2 0xD83 JUMPI DUP3 MLOAD DUP3 SWAP1 PUSH1 0xFF AND SWAP1 SSTORE SWAP2 PUSH1 0x20 ADD SWAP2 SWAP1 PUSH1 0x1 ADD SWAP1 PUSH2 0xD63 JUMP JUMPDEST JUMPDEST POP SWAP1 POP PUSH2 0xD91 SWAP2 SWAP1 PUSH2 0xDB8 JUMP JUMPDEST POP SWAP1 JUMP JUMPDEST JUMPDEST DUP1 DUP3 GT ISZERO PUSH2 0xDB4 JUMPI PUSH0 DUP2 DUP2 PUSH2 0xDAB SWAP2 SWAP1 PUSH2 0xDD3 JUMP JUMPDEST POP PUSH1 0xA ADD PUSH2 0xD96 JUMP JUMPDEST POP SWAP1 JUMP JUMPDEST JUMPDEST DUP1 DUP3 GT ISZERO PUSH2 0xDCF JUMPI PUSH0 DUP2 PUSH0 SWAP1 SSTORE POP PUSH1 0x1 ADD PUSH2 0xDB9 JUMP JUMPDEST POP SWAP1 JUMP JUMPDEST POP DUP1 PUSH1 0xA ADD SWAP1 PUSH2 0xDE3 SWAP2 SWAP1 PUSH2 0xDB8 JUMP JUMPDEST POP JUMP JUMPDEST PUSH0 PUSH1 0x40 MLOAD SWAP1 POP SWAP1 JUMP JUMPDEST PUSH0 DUP1 REVERT JUMPDEST PUSH0 DUP1 REVERT JUMPDEST PUSH0 PUSH20 0xFFFFFFFFFFFFFFFFFFFFFFFFFFFFFFFFFFFFFFFF DUP3 AND SWAP1 POP SWAP2 SWAP1 POP JUMP JUMPDEST PUSH0 PUSH2 0xE20 DUP3 PUSH2 0xDF7 JUMP JUMPDEST SWAP1 POP SWAP2 SWAP1 POP JUMP JUMPDEST PUSH2 0xE30 DUP2 PUSH2 0xE16 JUMP JUMPDEST DUP2 EQ PUSH2 0xE3A JUMPI PUSH0 DUP1 REVERT JUMPDEST POP JUMP JUMPDEST PUSH0 DUP2 CALLDATALOAD SWAP1 POP PUSH2 0xE4B DUP2 PUSH2 0xE27 JUMP JUMPDEST SWAP3 SWAP2 POP POP JUMP JUMPDEST PUSH0 PUSH1 0x20 DUP3 DUP5 SUB SLT ISZERO PUSH2 0xE66 JUMPI PUSH2 0xE65 PUSH2 0xDEF JUMP JUMPDEST JUMPDEST PUSH0 PUSH2 0xE73 DUP5 DUP3 DUP6 ADD PUSH2 0xE3D JUMP JUMPDEST SWAP2 POP POP SWAP3 SWAP2 POP POP JUMP JUMPDEST PUSH0 DUP2 SWAP1 POP SWAP2 SWAP1 POP JUMP JUMPDEST PUSH2 0xE8E DUP2 PUSH2 0xE7C JUMP JUMPDEST DUP3 MSTORE POP POP JUMP JUMPDEST PUSH0 PUSH1 0x20 DUP3 ADD SWAP1 POP PUSH2 0xEA7 PUSH0 DUP4 ADD DUP5 PUSH2 0xE85 JUMP JUMPDEST SWAP3 SWAP2 POP POP JUMP JUMPDEST PUSH0 DUP1 REVERT JUMPDEST PUSH0 DUP1 REVERT JUMPDEST PUSH0 PUSH1 0x1F NOT PUSH1 0x1F DUP4 ADD AND SWAP1 POP SWAP2 SWAP1 POP JUMP JUMPDEST PUSH32 0x4E487B7100000000000000000000000000000000000000000000000000000000 PUSH0 MSTORE PUSH1 0x41 PUSH1 0x4 MSTORE PUSH1 0x24 PUSH0 REVERT JUMPDEST PUSH2 0xEFB DUP3 PUSH2 0xEB5 JUMP JUMPDEST DUP2 ADD DUP2 DUP2 LT PUSH8 0xFFFFFFFFFFFFFFFF DUP3 GT OR ISZERO PUSH2 0xF1A JUMPI PUSH2 0xF19 PUSH2 0xEC5 JUMP JUMPDEST JUMPDEST DUP1 PUSH1 0x40 MSTORE POP POP POP JUMP JUMPDEST PUSH0 PUSH2 0xF2C PUSH2 0xDE6 JUMP JUMPDEST SWAP1 POP PUSH2 0xF38 DUP3 DUP3 PUSH2 0xEF2 JUMP JUMPDEST SWAP2 SWAP1 POP JUMP JUMPDEST PUSH0 PUSH8 0xFFFFFFFFFFFFFFFF DUP3 GT ISZERO PUSH2 0xF57 JUMPI PUSH2 0xF56 PUSH2 0xEC5 JUMP JUMPDEST JUMPDEST PUSH2 0xF60 DUP3 PUSH2 0xEB5 JUMP JUMPDEST SWAP1 POP PUSH1 0x20 DUP2 ADD SWAP1 POP SWAP2 SWAP1 POP JUMP JUMPDEST DUP3 DUP2 DUP4 CALLDATACOPY PUSH0 DUP4 DUP4 ADD MSTORE POP POP POP JUMP JUMPDEST PUSH0 PUSH2 0xF8D PUSH2 0xF88 DUP5 PUSH2 0xF3D JUMP JUMPDEST PUSH2 0xF23 JUMP JUMPDEST SWAP1 POP DUP3 DUP2 MSTORE PUSH1 0x20 DUP2 ADD DUP5 DUP5 DUP5 ADD GT ISZERO PUSH2 0xFA9 JUMPI PUSH2 0xFA8 PUSH2 0xEB1 JUMP JUMPDEST JUMPDEST PUSH2 0xFB4 DUP5 DUP3 DUP6 PUSH2 0xF6D JUMP JUMPDEST POP SWAP4 SWAP3 POP POP POP JUMP JUMPDEST PUSH0 DUP3 PUSH1 0x1F DUP4 ADD SLT PUSH2 0xFD0 JUMPI PUSH2 0xFCF PUSH2 0xEAD JUMP JUMPDEST JUMPDEST DUP2 CALLDATALOAD PUSH2 0xFE0 DUP5 DUP3 PUSH1 0x20 DUP7 ADD PUSH2 0xF7B JUMP JUMPDEST SWAP2 POP POP SWAP3 SWAP2 POP POP JUMP JUMPDEST PUSH0 PUSH1 0x20 DUP3 DUP5 SUB SLT ISZERO PUSH2 0xFFE JUMPI PUSH2 0xFFD PUSH2 0xDEF JUMP JUMPDEST JUMPDEST PUSH0 DUP3 ADD CALLDATALOAD PUSH8 0xFFFFFFFFFFFFFFFF DUP2 GT ISZERO PUSH2 0x101B JUMPI PUSH2 0x101A PUSH2 0xDF3 JUMP JUMPDEST JUMPDEST PUSH2 0x1027 DUP5 DUP3 DUP6 ADD PUSH2 0xFBC JUMP JUMPDEST SWAP2 POP POP SWAP3 SWAP2 POP POP JUMP JUMPDEST PUSH2 0x1039 DUP2 PUSH2 0xE7C JUMP JUMPDEST DUP2 EQ PUSH2 0x1043 JUMPI PUSH0 DUP1 REVERT JUMPDEST POP JUMP JUMPDEST PUSH0 DUP2 CALLDATALOAD SWAP1 POP PUSH2 0x1054 DUP2 PUSH2 0x1030 JUMP JUMPDEST SWAP3 SWAP2 POP POP JUMP JUMPDEST PUSH0 PUSH1 0x20 DUP3 DUP5 SUB SLT ISZERO PUSH2 0x106F JUMPI PUSH2 0x106E PUSH2 0xDEF JUMP JUMPDEST JUMPDEST PUSH0 PUSH2 0x107C DUP5 DUP3 DUP6 ADD PUSH2 0x1046 JUMP JUMPDEST SWAP2 POP POP SWAP3 SWAP2 POP POP JUMP JUMPDEST PUSH0 PUSH32 0xFFFFFF0000000000000000000000000000000000000000000000000000000000 DUP3 AND SWAP1 POP SWAP2 SWAP1 POP JUMP JUMPDEST PUSH2 0x10B9 DUP2 PUSH2 0x1085 JUMP JUMPDEST DUP3 MSTORE POP POP JUMP JUMPDEST PUSH0 PUSH1 0x20 DUP3 ADD SWAP1 POP PUSH2 0x10D2 PUSH0 DUP4 ADD DUP5 PUSH2 0x10B0 JUMP JUMPDEST SWAP3 SWAP2 POP POP JUMP JUMPDEST PUSH0 DUP2 MLOAD SWAP1 POP SWAP2 SWAP1 POP JUMP JUMPDEST PUSH0 DUP3 DUP3 MSTORE PUSH1 0x20 DUP3 ADD SWAP1 POP SWAP3 SWAP2 POP POP JUMP JUMPDEST DUP3 DUP2 DUP4 MCOPY PUSH0 DUP4 DUP4 ADD MSTORE POP POP POP JUMP JUMPDEST PUSH0 PUSH2 0x110A DUP3 PUSH2 0x10D8 JUMP JUMPDEST PUSH2 0x1114 DUP2 DUP6 PUSH2 0x10E2 JUMP JUMPDEST SWAP4 POP PUSH2 0x1124 DUP2 DUP6 PUSH1 0x20 DUP7 ADD PUSH2 0x10F2 JUMP JUMPDEST PUSH2 0x112D DUP2 PUSH2 0xEB5 JUMP JUMPDEST DUP5 ADD SWAP2 POP POP SWAP3 SWAP2 POP POP JUMP JUMPDEST PUSH0 PUSH1 0x20 DUP3 ADD SWAP1 POP DUP2 DUP2 SUB PUSH0 DUP4 ADD MSTORE PUSH2 0x1150 DUP2 DUP5 PUSH2 0x1100 JUMP JUMPDEST SWAP1 POP SWAP3 SWAP2 POP POP JUMP JUMPDEST PUSH0 DUP2 MLOAD SWAP1 POP SWAP2 SWAP1 POP JUMP JUMPDEST PUSH0 DUP3 DUP3 MSTORE PUSH1 0x20 DUP3 ADD SWAP1 POP SWAP3 SWAP2 POP POP JUMP JUMPDEST PUSH0 DUP2 SWAP1 POP PUSH1 0x20 DUP3 ADD SWAP1 POP SWAP2 SWAP1 POP JUMP JUMPDEST PUSH2 0x118A DUP2 PUSH2 0xE7C JUMP JUMPDEST DUP3 MSTORE POP POP JUMP JUMPDEST PUSH0 PUSH2 0x119B DUP4 DUP4 PUSH2 0x1181 JUMP JUMPDEST PUSH1 0x20 DUP4 ADD SWAP1 POP SWAP3 SWAP2 POP POP JUMP JUMPDEST PUSH0 PUSH1 0x20 DUP3 ADD SWAP1 POP SWAP2 SWAP1 POP JUMP JUMPDEST PUSH0 PUSH2 0x11BD DUP3 PUSH2 0x1158 JUMP JUMPDEST PUSH2 0x11C7 DUP2 DUP6 PUSH2 0x1162 JUMP JUMPDEST SWAP4 POP PUSH2 0x11D2 DUP4 PUSH2 0x1172 JUMP JUMPDEST DUP1 PUSH0 JUMPDEST DUP4 DUP2 LT ISZERO PUSH2 0x1202 JUMPI DUP2 MLOAD PUSH2 0x11E9 DUP9 DUP3 PUSH2 0x1190 JUMP JUMPDEST SWAP8 POP PUSH2 0x11F4 DUP4 PUSH2 0x11A7 JUMP JUMPDEST SWAP3 POP POP PUSH1 0x1 DUP2 ADD SWAP1 POP PUSH2 0x11D5 JUMP JUMPDEST POP DUP6 SWAP4 POP POP POP POP SWAP3 SWAP2 POP POP JUMP JUMPDEST PUSH0 PUSH1 0x20 DUP3 ADD SWAP1 POP DUP2 DUP2 SUB PUSH0 DUP4 ADD MSTORE PUSH2 0x1227 DUP2 DUP5 PUSH2 0x11B3 JUMP JUMPDEST SWAP1 POP SWAP3 SWAP2 POP POP JUMP JUMPDEST PUSH0 DUP1 PUSH1 0x40 DUP4 DUP6 SUB SLT ISZERO PUSH2 0x1245 JUMPI PUSH2 0x1244 PUSH2 0xDEF JUMP JUMPDEST JUMPDEST PUSH0 PUSH2 0x1252 DUP6 DUP3 DUP7 ADD PUSH2 0xE3D JUMP JUMPDEST SWAP3 POP POP PUSH1 0x20 PUSH2 0x1263 DUP6 DUP3 DUP7 ADD PUSH2 0x1046 JUMP JUMPDEST SWAP2 POP POP SWAP3 POP SWAP3 SWAP1 POP JUMP JUMPDEST PUSH2 0x1276 DUP2 PUSH2 0xE16 JUMP JUMPDEST DUP3 MSTORE POP POP JUMP JUMPDEST PUSH0 DUP3 DUP3 MSTORE PUSH1 0x20 DUP3 ADD SWAP1 POP SWAP3 SWAP2 POP POP JUMP JUMPDEST PUSH0 PUSH2 0x1296 DUP3 PUSH2 0x10D8 JUMP JUMPDEST PUSH2 0x12A0 DUP2 DUP6 PUSH2 0x127C JUMP JUMPDEST SWAP4 POP PUSH2 0x12B0 DUP2 DUP6 PUSH1 0x20 DUP7 ADD PUSH2 0x10F2 JUMP JUMPDEST PUSH2 0x12B9 DUP2 PUSH2 0xEB5 JUMP JUMPDEST DUP5 ADD SWAP2 POP POP SWAP3 SWAP2 POP POP JUMP JUMPDEST PUSH0 PUSH1 0x80 DUP4 ADD PUSH0 DUP4 ADD MLOAD PUSH2 0x12D9 PUSH0 DUP7 ADD DUP3 PUSH2 0x1181 JUMP JUMPDEST POP PUSH1 0x20 DUP4 ADD MLOAD PUSH2 0x12EC PUSH1 0x20 DUP7 ADD DUP3 PUSH2 0x1181 JUMP JUMPDEST POP PUSH1 0x40 DUP4 ADD MLOAD PUSH2 0x12FF PUSH1 0x40 DUP7 ADD DUP3 PUSH2 0x126D JUMP JUMPDEST POP PUSH1 0x60 DUP4 ADD MLOAD DUP5 DUP3 SUB PUSH1 0x60 DUP7 ADD MSTORE PUSH2 0x1317 DUP3 DUP3 PUSH2 0x128C JUMP JUMPDEST SWAP2 POP POP DUP1 SWAP2 POP POP SWAP3 SWAP2 POP POP JUMP JUMPDEST PUSH0 PUSH1 0x20 DUP3 ADD SWAP1 POP DUP2 DUP2 SUB PUSH0 DUP4 ADD MSTORE PUSH2 0x133C DUP2 DUP5 PUSH2 0x12C4 JUMP JUMPDEST SWAP1 POP SWAP3 SWAP2 POP POP JUMP JUMPDEST PUSH0 DUP2 MLOAD SWAP1 POP SWAP2 SWAP1 POP JUMP JUMPDEST PUSH0 DUP3 DUP3 MSTORE PUSH1 0x20 DUP3 ADD SWAP1 POP SWAP3 SWAP2 POP POP JUMP JUMPDEST PUSH0 PUSH2 0x1368 DUP3 PUSH2 0x1344 JUMP JUMPDEST PUSH2 0x1372 DUP2 DUP6 PUSH2 0x134E JUMP JUMPDEST SWAP4 POP PUSH2 0x1382 DUP2 DUP6 PUSH1 0x20 DUP7 ADD PUSH2 0x10F2 JUMP JUMPDEST PUSH2 0x138B DUP2 PUSH2 0xEB5 JUMP JUMPDEST DUP5 ADD SWAP2 POP POP SWAP3 SWAP2 POP POP JUMP JUMPDEST PUSH0 PUSH1 0x20 DUP3 ADD SWAP1 POP DUP2 DUP2 SUB PUSH0 DUP4 ADD MSTORE PUSH2 0x13AE DUP2 DUP5 PUSH2 0x135E JUMP JUMPDEST SWAP1 POP SWAP3 SWAP2 POP POP JUMP JUMPDEST PUSH0 DUP1 PUSH1 0x40 DUP4 DUP6 SUB SLT ISZERO PUSH2 0x13CC JUMPI PUSH2 0x13CB PUSH2 0xDEF JUMP JUMPDEST JUMPDEST PUSH0 PUSH2 0x13D9 DUP6 DUP3 DUP7 ADD PUSH2 0x1046 JUMP JUMPDEST SWAP3 POP POP PUSH1 0x20 PUSH2 0x13EA DUP6 DUP3 DUP7 ADD PUSH2 0x1046 JUMP JUMPDEST SWAP2 POP POP SWAP3 POP SWAP3 SWAP1 POP JUMP JUMPDEST PUSH32 0x4E487B7100000000000000000000000000000000000000000000000000000000 PUSH0 MSTORE PUSH1 0x21 PUSH1 0x4 MSTORE PUSH1 0x24 PUSH0 REVERT JUMPDEST PUSH1 0x3 DUP2 LT PUSH2 0x1432 JUMPI PUSH2 0x1431 PUSH2 0x13F4 JUMP JUMPDEST JUMPDEST POP JUMP JUMPDEST PUSH0 DUP2 SWAP1 POP PUSH2 0x1442 DUP3 PUSH2 0x1421 JUMP JUMPDEST SWAP2 SWAP1 POP JUMP JUMPDEST PUSH0 PUSH2 0x1451 DUP3 PUSH2 0x1435 JUMP JUMPDEST SWAP1 POP SWAP2 SWAP1 POP JUMP JUMPDEST PUSH2 0x1461 DUP2 PUSH2 0x1447 JUMP JUMPDEST DUP3 MSTORE POP POP JUMP JUMPDEST PUSH0 PUSH1 0x20 DUP3 ADD SWAP1 POP PUSH2 0x147A PUSH0 DUP4 ADD DUP5 PUSH2 0x1458 JUMP JUMPDEST SWAP3 SWAP2 POP POP JUMP JUMPDEST PUSH0 DUP2 SWAP1 POP SWAP2 SWAP1 POP JUMP JUMPDEST PUSH2 0x1492 DUP2 PUSH2 0x1480 JUMP JUMPDEST DUP3 MSTORE POP POP JUMP JUMPDEST PUSH0 PUSH1 0x20 DUP3 ADD SWAP1 POP PUSH2 0x14AB PUSH0 DUP4 ADD DUP5 PUSH2 0x1489 JUMP JUMPDEST SWAP3 SWAP2 POP POP JUMP JUMPDEST PUSH0 PUSH32 0xFF00000000000000000000000000000000000000000000000000000000000000 DUP3 AND SWAP1 POP SWAP2 SWAP1 POP JUMP JUMPDEST PUSH2 0x14E5 DUP2 PUSH2 0x14B1 JUMP JUMPDEST DUP3 MSTORE POP POP JUMP JUMPDEST PUSH0 PUSH1 0x20 DUP3 ADD SWAP1 POP PUSH2 0x14FE PUSH0 DUP4 ADD DUP5 PUSH2 0x14DC JUMP JUMPDEST SWAP3 SWAP2 POP POP JUMP JUMPDEST PUSH32 0x4E487B7100000000000000000000000000000000000000000000000000000000 PUSH0 MSTORE PUSH1 0x32 PUSH1 0x4 MSTORE PUSH1 0x24 PUSH0 REVERT JUMPDEST PUSH32 0x4E487B7100000000000000000000000000000000000000000000000000000000 PUSH0 MSTORE PUSH1 0x11 PUSH1 0x4 MSTORE PUSH1 0x24 PUSH0 REVERT JUMPDEST PUSH0 PUSH2 0x1568 DUP3 PUSH2 0xE7C JUMP JUMPDEST SWAP2 POP PUSH32 0xFFFFFFFFFFFFFFFFFFFFFFFFFFFFFFFFFFFFFFFFFFFFFFFFFFFFFFFFFFFFFFFF DUP3 SUB PUSH2 0x159A JUMPI PUSH2 0x1599 PUSH2 0x1531 JUMP JUMPDEST JUMPDEST PUSH1 0x1 DUP3 ADD SWAP1 POP SWAP2 SWAP1 POP JUMP JUMPDEST PUSH32 0x4E487B7100000000000000000000000000000000000000000000000000000000 PUSH0 MSTORE PUSH1 0x22 PUSH1 0x4 MSTORE PUSH1 0x24 PUSH0 REVERT JUMPDEST PUSH0 PUSH1 0x2 DUP3 DIV SWAP1 POP PUSH1 0x1 DUP3 AND DUP1 PUSH2 0x15E9 JUMPI PUSH1 0x7F DUP3 AND SWAP2 POP JUMPDEST PUSH1 0x20 DUP3 LT DUP2 SUB PUSH2 0x15FC JUMPI PUSH2 0x15FB PUSH2 0x15A5 JUMP JUMPDEST JUMPDEST POP SWAP2 SWAP1 POP JUMP JUMPDEST PUSH0 DUP2 SWAP1 POP DUP2 PUSH0 MSTORE PUSH1 0x20 PUSH0 KECCAK256 SWAP1 POP SWAP2 SWAP1 POP JUMP JUMPDEST PUSH0 PUSH1 0x20 PUSH1 0x1F DUP4 ADD DIV SWAP1 POP SWAP2 SWAP1 POP JUMP JUMPDEST PUSH0 DUP3 DUP3 SHL SWAP1 POP SWAP3 SWAP2 POP POP JUMP JUMPDEST PUSH0 PUSH1 0x8 DUP4 MUL PUSH2 0x165E PUSH32 0xFFFFFFFFFFFFFFFFFFFFFFFFFFFFFFFFFFFFFFFFFFFFFFFFFFFFFFFFFFFFFFFF DUP3 PUSH2 0x1623 JUMP JUMPDEST PUSH2 0x1668 DUP7 DUP4 PUSH2 0x1623 JUMP JUMPDEST SWAP6 POP DUP1 NOT DUP5 AND SWAP4 POP DUP1 DUP7 AND DUP5 OR SWAP3 POP POP POP SWAP4 SWAP3 POP POP POP JUMP JUMPDEST PUSH0 DUP2 SWAP1 POP SWAP2 SWAP1 POP JUMP JUMPDEST PUSH0 PUSH2 0x16A3 PUSH2 0x169E PUSH2 0x1699 DUP5 PUSH2 0xE7C JUMP JUMPDEST PUSH2 0x1680 JUMP JUMPDEST PUSH2 0xE7C JUMP JUMPDEST SWAP1 POP SWAP2 SWAP1 POP JUMP JUMPDEST PUSH0 DUP2 SWAP1 POP SWAP2 SWAP1 POP JUMP JUMPDEST PUSH2 0x16BC DUP4 PUSH2 0x1689 JUMP JUMPDEST PUSH2 0x16D0 PUSH2 0x16C8 DUP3 PUSH2 0x16AA JUMP JUMPDEST DUP5 DUP5 SLOAD PUSH2 0x162F JUMP JUMPDEST DUP3 SSTORE POP POP POP POP JUMP JUMPDEST PUSH0 SWAP1 JUMP JUMPDEST PUSH2 0x16E4 PUSH2 0x16D8 JUMP JUMPDEST PUSH2 0x16EF DUP2 DUP5 DUP5 PUSH2 0x16B3 JUMP JUMPDEST POP POP POP JUMP JUMPDEST JUMPDEST DUP2 DUP2 LT ISZERO PUSH2 0x1712 JUMPI PUSH2 0x1707 PUSH0 DUP3 PUSH2 0x16DC JUMP JUMPDEST PUSH1 0x1 DUP2 ADD SWAP1 POP PUSH2 0x16F5 JUMP JUMPDEST POP POP JUMP JUMPDEST PUSH1 0x1F DUP3 GT ISZERO PUSH2 0x1757 JUMPI PUSH2 0x1728 DUP2 PUSH2 0x1602 JUMP JUMPDEST PUSH2 0x1731 DUP5 PUSH2 0x1614 JUMP JUMPDEST DUP2 ADD PUSH1 0x20 DUP6 LT ISZERO PUSH2 0x1740 JUMPI DUP2 SWAP1 POP JUMPDEST PUSH2 0x1754 PUSH2 0x174C DUP6 PUSH2 0x1614 JUMP JUMPDEST DUP4 ADD DUP3 PUSH2 0x16F4 JUMP JUMPDEST POP POP JUMPDEST POP POP POP JUMP JUMPDEST PUSH0 DUP3 DUP3 SHR SWAP1 POP SWAP3 SWAP2 POP POP JUMP JUMPDEST PUSH0 PUSH2 0x1777 PUSH0 NOT DUP5 PUSH1 0x8 MUL PUSH2 0x175C JUMP JUMPDEST NOT DUP1 DUP4 AND SWAP2 POP POP SWAP3 SWAP2 POP POP JUMP JUMPDEST PUSH0 PUSH2 0x178F DUP4 DUP4 PUSH2 0x1768 JUMP JUMPDEST SWAP2 POP DUP3 PUSH1 0x2 MUL DUP3 OR SWAP1 POP SWAP3 SWAP2 POP POP JUMP JUMPDEST PUSH2 0x17A8 DUP3 PUSH2 0x10D8 JUMP JUMPDEST PUSH8 0xFFFFFFFFFFFFFFFF DUP2 GT ISZERO PUSH2 0x17C1 JUMPI PUSH2 0x17C0 PUSH2 0xEC5 JUMP JUMPDEST JUMPDEST PUSH2 0x17CB DUP3 SLOAD PUSH2 0x15D2 JUMP JUMPDEST PUSH2 0x17D6 DUP3 DUP3 DUP6 PUSH2 0x1716 JUMP JUMPDEST PUSH0 PUSH1 0x20 SWAP1 POP PUSH1 0x1F DUP4 GT PUSH1 0x1 DUP2 EQ PUSH2 0x1807 JUMPI PUSH0 DUP5 ISZERO PUSH2 0x17F5 JUMPI DUP3 DUP8 ADD MLOAD SWAP1 POP JUMPDEST PUSH2 0x17FF DUP6 DUP3 PUSH2 0x1784 JUMP JUMPDEST DUP7 SSTORE POP PUSH2 0x1866 JUMP JUMPDEST PUSH1 0x1F NOT DUP5 AND PUSH2 0x1815 DUP7 PUSH2 0x1602 JUMP JUMPDEST PUSH0 JUMPDEST DUP3 DUP2 LT ISZERO PUSH2 0x183C JUMPI DUP5 DUP10 ADD MLOAD DUP3 SSTORE PUSH1 0x1 DUP3 ADD SWAP2 POP PUSH1 0x20 DUP6 ADD SWAP5 POP PUSH1 0x20 DUP2 ADD SWAP1 POP PUSH2 0x1817 JUMP JUMPDEST DUP7 DUP4 LT ISZERO PUSH2 0x1859 JUMPI DUP5 DUP10 ADD MLOAD PUSH2 0x1855 PUSH1 0x1F DUP10 AND DUP3 PUSH2 0x1768 JUMP JUMPDEST DUP4 SSTORE POP JUMPDEST PUSH1 0x1 PUSH1 0x2 DUP9 MUL ADD DUP9 SSTORE POP POP POP JUMPDEST POP POP POP POP POP POP JUMP INVALID LOG2 PUSH5 0x6970667358 0x22 SLT KECCAK256 0xF7 SWAP9 PUSH25 0xC92DE278877D215B743F55BB60C6369133A97BD5B77D93F7C1 SDIV 0xC9 SDIV PUSH11 0x64736F6C634300081A0033 "
				},
				"gasEstimates": {
					"creation": {
						"codeDepositCost": "1261600",
						"executionCost": "infinite",
						"totalCost": "infinite"
					},
					"external": {
						"balances(address)": "2882",
						"byteStr()": "2513",
						"byteStrNonFix()": "infinite",
						"byteVar()": "2533",
						"bytesTest()": "7023",
						"curStatus()": "2620",
						"delivered()": "24518",
						"demo()": "infinite",
						"dynamic(uint256)": "infinite",
						"getPayment(address,uint256)": "infinite",
						"items(uint256)": "infinite",
						"len()": "2448",
						"pay()": "24474",
						"pay(string)": "infinite",
						"sampleMem()": "infinite",
						"strings(uint256)": "infinite",
						"stuff(uint256,uint256)": "infinite"
					}
				},
				"methodIdentifiers": {
					"balances(address)": "27e235e3",
					"byteStr()": "cb8beaf6",
					"byteStrNonFix()": "9b185d15",
					"byteVar()": "6f716855",
					"bytesTest()": "f3ae5738",
					"curStatus()": "c045ad4f",
					"delivered()": "bbdfbfba",
					"demo()": "01725a0b",
					"dynamic(uint256)": "691a82eb",
					"getPayment(address,uint256)": "977a767c",
					"items(uint256)": "bfb231d2",
					"len()": "56d88e27",
					"pay()": "1b9265b8",
					"pay(string)": "2b66d72e",
					"sampleMem()": "8f5c8bf3",
					"strings(uint256)": "8b3c8a65",
					"stuff(uint256,uint256)": "bd8425e0"
				}
			},
			"storageLayout": {
				"storage": [
					{
						"astId": 23,
						"contract": "array, bytes, enum, struct.sol:Test",
						"label": "balances",
						"offset": 0,
						"slot": "0",
						"type": "t_mapping(t_address,t_struct(Balance)18_storage)"
					},
					{
						"astId": 88,
						"contract": "array, bytes, enum, struct.sol:Test",
						"label": "byteVar",
						"offset": 0,
						"slot": "1",
						"type": "t_bytes3"
					},
					{
						"astId": 91,
						"contract": "array, bytes, enum, struct.sol:Test",
						"label": "byteStr",
						"offset": 0,
						"slot": "2",
						"type": "t_bytes32"
					},
					{
						"astId": 94,
						"contract": "array, bytes, enum, struct.sol:Test",
						"label": "byteStrNonFix",
						"offset": 0,
						"slot": "3",
						"type": "t_bytes_storage"
					},
					{
						"astId": 107,
						"contract": "array, bytes, enum, struct.sol:Test",
						"label": "dynamic",
						"offset": 0,
						"slot": "4",
						"type": "t_array(t_uint256)dyn_storage"
					},
					{
						"astId": 109,
						"contract": "array, bytes, enum, struct.sol:Test",
						"label": "len",
						"offset": 0,
						"slot": "5",
						"type": "t_uint256"
					},
					{
						"astId": 117,
						"contract": "array, bytes, enum, struct.sol:Test",
						"label": "strings",
						"offset": 0,
						"slot": "6",
						"type": "t_array(t_string_storage)5_storage"
					},
					{
						"astId": 125,
						"contract": "array, bytes, enum, struct.sol:Test",
						"label": "items",
						"offset": 0,
						"slot": "11",
						"type": "t_array(t_uint256)10_storage"
					},
					{
						"astId": 131,
						"contract": "array, bytes, enum, struct.sol:Test",
						"label": "stuff",
						"offset": 0,
						"slot": "21",
						"type": "t_array(t_array(t_uint256)10_storage)5_storage"
					},
					{
						"astId": 256,
						"contract": "array, bytes, enum, struct.sol:Test",
						"label": "curStatus",
						"offset": 0,
						"slot": "71",
						"type": "t_enum(Status)253"
					}
				],
				"types": {
					"t_address": {
						"encoding": "inplace",
						"label": "address",
						"numberOfBytes": "20"
					},
					"t_array(t_array(t_uint256)10_storage)5_storage": {
						"base": "t_array(t_uint256)10_storage",
						"encoding": "inplace",
						"label": "uint256[10][5]",
						"numberOfBytes": "1600"
					},
					"t_array(t_string_storage)5_storage": {
						"base": "t_string_storage",
						"encoding": "inplace",
						"label": "string[5]",
						"numberOfBytes": "160"
					},
					"t_array(t_uint256)10_storage": {
						"base": "t_uint256",
						"encoding": "inplace",
						"label": "uint256[10]",
						"numberOfBytes": "320"
					},
					"t_array(t_uint256)dyn_storage": {
						"base": "t_uint256",
						"encoding": "dynamic_array",
						"label": "uint256[]",
						"numberOfBytes": "32"
					},
					"t_bytes3": {
						"encoding": "inplace",
						"label": "bytes3",
						"numberOfBytes": "3"
					},
					"t_bytes32": {
						"encoding": "inplace",
						"label": "bytes32",
						"numberOfBytes": "32"
					},
					"t_bytes_storage": {
						"encoding": "bytes",
						"label": "bytes",
						"numberOfBytes": "32"
					},
					"t_enum(Status)253": {
						"encoding": "inplace",
						"label": "enum Test.Status",
						"numberOfBytes": "1"
					},
					"t_mapping(t_address,t_struct(Balance)18_storage)": {
						"encoding": "mapping",
						"key": "t_address",
						"label": "mapping(address => struct Test.Balance)",
						"numberOfBytes": "32",
						"value": "t_struct(Balance)18_storage"
					},
					"t_mapping(t_uint256,t_struct(Payment)10_storage)": {
						"encoding": "mapping",
						"key": "t_uint256",
						"label": "mapping(uint256 => struct Test.Payment)",
						"numberOfBytes": "32",
						"value": "t_struct(Payment)10_storage"
					},
					"t_string_storage": {
						"encoding": "bytes",
						"label": "string",
						"numberOfBytes": "32"
					},
					"t_struct(Balance)18_storage": {
						"encoding": "inplace",
						"label": "struct Test.Balance",
						"members": [
							{
								"astId": 12,
								"contract": "array, bytes, enum, struct.sol:Test",
								"label": "totalPayments",
								"offset": 0,
								"slot": "0",
								"type": "t_uint256"
							},
							{
								"astId": 17,
								"contract": "array, bytes, enum, struct.sol:Test",
								"label": "payments",
								"offset": 0,
								"slot": "1",
								"type": "t_mapping(t_uint256,t_struct(Payment)10_storage)"
							}
						],
						"numberOfBytes": "64"
					},
					"t_struct(Payment)10_storage": {
						"encoding": "inplace",
						"label": "struct Test.Payment",
						"members": [
							{
								"astId": 3,
								"contract": "array, bytes, enum, struct.sol:Test",
								"label": "amount",
								"offset": 0,
								"slot": "0",
								"type": "t_uint256"
							},
							{
								"astId": 5,
								"contract": "array, bytes, enum, struct.sol:Test",
								"label": "timestamp",
								"offset": 0,
								"slot": "1",
								"type": "t_uint256"
							},
							{
								"astId": 7,
								"contract": "array, bytes, enum, struct.sol:Test",
								"label": "from",
								"offset": 0,
								"slot": "2",
								"type": "t_address"
							},
							{
								"astId": 9,
								"contract": "array, bytes, enum, struct.sol:Test",
								"label": "message",
								"offset": 0,
								"slot": "3",
								"type": "t_string_storage"
							}
						],
						"numberOfBytes": "128"
					},
					"t_uint256": {
						"encoding": "inplace",
						"label": "uint256",
						"numberOfBytes": "32"
					}
				}
			},
			"userdoc": {
				"kind": "user",
				"methods": {},
				"version": 1
			}
		}
	}
}