{
	"Оптимизация смарт-контрактов и газ.sol": {
		"Un": {
			"abi": [
				{
					"inputs": [
						{
							"internalType": "uint256[]",
							"name": "data",
							"type": "uint256[]"
						}
					],
					"name": "doWork",
					"outputs": [],
					"stateMutability": "nonpayable",
					"type": "function"
				},
				{
					"inputs": [],
					"name": "result",
					"outputs": [
						{
							"internalType": "uint256",
							"name": "",
							"type": "uint256"
						}
					],
					"stateMutability": "view",
					"type": "function"
				}
			],
			"devdoc": {
				"kind": "dev",
				"methods": {},
				"version": 1
			},
			"evm": {
				"assembly": "    /* \"\\xd0\\x9e\\xd0\\xbf\\xd1\\x82\\xd0\\xb8\\xd0\\xbc\\xd0\\xb8\\xd0\\xb7\\xd0\\xb0\\xd1\\x86\\xd0\\xb8\\xd1\\x8f \\xd1\\x81\\xd0\\xbc\\xd0\\xb0\\xd1\\x80\\xd1\\x82-\\xd0\\xba\\xd0\\xbe\\xd0\\xbd\\xd1\\x82\\xd1\\x80\\xd0\\xb0\\xd0\\xba\\xd1\\x82\\xd0\\xbe\\xd0\\xb2 \\xd0\\xb8 \\xd0\\xb3\\xd0\\xb0\\xd0\\xb7.sol\":738:1387  contract Un {... */\n  mstore(0x40, 0x80)\n    /* \"\\xd0\\x9e\\xd0\\xbf\\xd1\\x82\\xd0\\xb8\\xd0\\xbc\\xd0\\xb8\\xd0\\xb7\\xd0\\xb0\\xd1\\x86\\xd0\\xb8\\xd1\\x8f \\xd1\\x81\\xd0\\xbc\\xd0\\xb0\\xd1\\x80\\xd1\\x82-\\xd0\\xba\\xd0\\xbe\\xd0\\xbd\\xd1\\x82\\xd1\\x80\\xd0\\xb0\\xd0\\xba\\xd1\\x82\\xd0\\xbe\\xd0\\xb2 \\xd0\\xb8 \\xd0\\xb3\\xd0\\xb0\\xd0\\xb7.sol\":1233:1234  1 */\n  0x01\n    /* \"\\xd0\\x9e\\xd0\\xbf\\xd1\\x82\\xd0\\xb8\\xd0\\xbc\\xd0\\xb8\\xd0\\xb7\\xd0\\xb0\\xd1\\x86\\xd0\\xb8\\xd1\\x8f \\xd1\\x81\\xd0\\xbc\\xd0\\xb0\\xd1\\x80\\xd1\\x82-\\xd0\\xba\\xd0\\xbe\\xd0\\xbd\\xd1\\x82\\xd1\\x80\\xd0\\xb0\\xd0\\xba\\xd1\\x82\\xd0\\xbe\\xd0\\xb2 \\xd0\\xb8 \\xd0\\xb3\\xd0\\xb0\\xd0\\xb7.sol\":1212:1234  uint public result = 1 */\n  0x00\n  sstore\n    /* \"\\xd0\\x9e\\xd0\\xbf\\xd1\\x82\\xd0\\xb8\\xd0\\xbc\\xd0\\xb8\\xd0\\xb7\\xd0\\xb0\\xd1\\x86\\xd0\\xb8\\xd1\\x8f \\xd1\\x81\\xd0\\xbc\\xd0\\xb0\\xd1\\x80\\xd1\\x82-\\xd0\\xba\\xd0\\xbe\\xd0\\xbd\\xd1\\x82\\xd1\\x80\\xd0\\xb0\\xd0\\xba\\xd1\\x82\\xd0\\xbe\\xd0\\xb2 \\xd0\\xb8 \\xd0\\xb3\\xd0\\xb0\\xd0\\xb7.sol\":738:1387  contract Un {... */\n  callvalue\n  dup1\n  iszero\n  tag_1\n  jumpi\n  0x00\n  dup1\n  revert\ntag_1:\n  pop\n  dataSize(sub_0)\n  dup1\n  dataOffset(sub_0)\n  0x00\n  codecopy\n  0x00\n  return\nstop\n\nsub_0: assembly {\n        /* \"\\xd0\\x9e\\xd0\\xbf\\xd1\\x82\\xd0\\xb8\\xd0\\xbc\\xd0\\xb8\\xd0\\xb7\\xd0\\xb0\\xd1\\x86\\xd0\\xb8\\xd1\\x8f \\xd1\\x81\\xd0\\xbc\\xd0\\xb0\\xd1\\x80\\xd1\\x82-\\xd0\\xba\\xd0\\xbe\\xd0\\xbd\\xd1\\x82\\xd1\\x80\\xd0\\xb0\\xd0\\xba\\xd1\\x82\\xd0\\xbe\\xd0\\xb2 \\xd0\\xb8 \\xd0\\xb3\\xd0\\xb0\\xd0\\xb7.sol\":738:1387  contract Un {... */\n      mstore(0x40, 0x80)\n      callvalue\n      dup1\n      iszero\n      tag_1\n      jumpi\n      0x00\n      dup1\n      revert\n    tag_1:\n      pop\n      jumpi(tag_2, lt(calldatasize, 0x04))\n      shr(0xe0, calldataload(0x00))\n      dup1\n      0x5186701d\n      eq\n      tag_3\n      jumpi\n      dup1\n      0x65372147\n      eq\n      tag_4\n      jumpi\n    tag_2:\n      0x00\n      dup1\n      revert\n        /* \"\\xd0\\x9e\\xd0\\xbf\\xd1\\x82\\xd0\\xb8\\xd0\\xbc\\xd0\\xb8\\xd0\\xb7\\xd0\\xb0\\xd1\\x86\\xd0\\xb8\\xd1\\x8f \\xd1\\x81\\xd0\\xbc\\xd0\\xb0\\xd1\\x80\\xd1\\x82-\\xd0\\xba\\xd0\\xbe\\xd0\\xbd\\xd1\\x82\\xd1\\x80\\xd0\\xb0\\xd0\\xba\\xd1\\x82\\xd0\\xbe\\xd0\\xb2 \\xd0\\xb8 \\xd0\\xb3\\xd0\\xb0\\xd0\\xb7.sol\":1241:1384  function doWork(uint[] memory data) public {... */\n    tag_3:\n      tag_5\n      0x04\n      dup1\n      calldatasize\n      sub\n      dup2\n      add\n      swap1\n      tag_6\n      swap2\n      swap1\n      tag_7\n      jump\t// in\n    tag_6:\n      tag_8\n      jump\t// in\n    tag_5:\n      stop\n        /* \"\\xd0\\x9e\\xd0\\xbf\\xd1\\x82\\xd0\\xb8\\xd0\\xbc\\xd0\\xb8\\xd0\\xb7\\xd0\\xb0\\xd1\\x86\\xd0\\xb8\\xd1\\x8f \\xd1\\x81\\xd0\\xbc\\xd0\\xb0\\xd1\\x80\\xd1\\x82-\\xd0\\xba\\xd0\\xbe\\xd0\\xbd\\xd1\\x82\\xd1\\x80\\xd0\\xb0\\xd0\\xba\\xd1\\x82\\xd0\\xbe\\xd0\\xb2 \\xd0\\xb8 \\xd0\\xb3\\xd0\\xb0\\xd0\\xb7.sol\":1212:1234  uint public result = 1 */\n    tag_4:\n      tag_9\n      tag_10\n      jump\t// in\n    tag_9:\n      mload(0x40)\n      tag_11\n      swap2\n      swap1\n      tag_12\n      jump\t// in\n    tag_11:\n      mload(0x40)\n      dup1\n      swap2\n      sub\n      swap1\n      return\n        /* \"\\xd0\\x9e\\xd0\\xbf\\xd1\\x82\\xd0\\xb8\\xd0\\xbc\\xd0\\xb8\\xd0\\xb7\\xd0\\xb0\\xd1\\x86\\xd0\\xb8\\xd1\\x8f \\xd1\\x81\\xd0\\xbc\\xd0\\xb0\\xd1\\x80\\xd1\\x82-\\xd0\\xba\\xd0\\xbe\\xd0\\xbd\\xd1\\x82\\xd1\\x80\\xd0\\xb0\\xd0\\xba\\xd1\\x82\\xd0\\xbe\\xd0\\xb2 \\xd0\\xb8 \\xd0\\xb3\\xd0\\xb0\\xd0\\xb7.sol\":1241:1384  function doWork(uint[] memory data) public {... */\n    tag_8:\n        /* \"\\xd0\\x9e\\xd0\\xbf\\xd1\\x82\\xd0\\xb8\\xd0\\xbc\\xd0\\xb8\\xd0\\xb7\\xd0\\xb0\\xd1\\x86\\xd0\\xb8\\xd1\\x8f \\xd1\\x81\\xd0\\xbc\\xd0\\xb0\\xd1\\x80\\xd1\\x82-\\xd0\\xba\\xd0\\xbe\\xd0\\xbd\\xd1\\x82\\xd1\\x80\\xd0\\xb0\\xd0\\xba\\xd1\\x82\\xd0\\xbe\\xd0\\xb2 \\xd0\\xb8 \\xd0\\xb3\\xd0\\xb0\\xd0\\xb7.sol\":1299:1305  uint i */\n      0x00\n        /* \"\\xd0\\x9e\\xd0\\xbf\\xd1\\x82\\xd0\\xb8\\xd0\\xbc\\xd0\\xb8\\xd0\\xb7\\xd0\\xb0\\xd1\\x86\\xd0\\xb8\\xd1\\x8f \\xd1\\x81\\xd0\\xbc\\xd0\\xb0\\xd1\\x80\\xd1\\x82-\\xd0\\xba\\xd0\\xbe\\xd0\\xbd\\xd1\\x82\\xd1\\x80\\xd0\\xb0\\xd0\\xba\\xd1\\x82\\xd0\\xbe\\xd0\\xb2 \\xd0\\xb8 \\xd0\\xb3\\xd0\\xb0\\xd0\\xb7.sol\":1295:1377  for(uint i = 0; i < data.length; i++) {... */\n    tag_14:\n        /* \"\\xd0\\x9e\\xd0\\xbf\\xd1\\x82\\xd0\\xb8\\xd0\\xbc\\xd0\\xb8\\xd0\\xb7\\xd0\\xb0\\xd1\\x86\\xd0\\xb8\\xd1\\x8f \\xd1\\x81\\xd0\\xbc\\xd0\\xb0\\xd1\\x80\\xd1\\x82-\\xd0\\xba\\xd0\\xbe\\xd0\\xbd\\xd1\\x82\\xd1\\x80\\xd0\\xb0\\xd0\\xba\\xd1\\x82\\xd0\\xbe\\xd0\\xb2 \\xd0\\xb8 \\xd0\\xb3\\xd0\\xb0\\xd0\\xb7.sol\":1315:1319  data */\n      dup2\n        /* \"\\xd0\\x9e\\xd0\\xbf\\xd1\\x82\\xd0\\xb8\\xd0\\xbc\\xd0\\xb8\\xd0\\xb7\\xd0\\xb0\\xd1\\x86\\xd0\\xb8\\xd1\\x8f \\xd1\\x81\\xd0\\xbc\\xd0\\xb0\\xd1\\x80\\xd1\\x82-\\xd0\\xba\\xd0\\xbe\\xd0\\xbd\\xd1\\x82\\xd1\\x80\\xd0\\xb0\\xd0\\xba\\xd1\\x82\\xd0\\xbe\\xd0\\xb2 \\xd0\\xb8 \\xd0\\xb3\\xd0\\xb0\\xd0\\xb7.sol\":1315:1326  data.length */\n      mload\n        /* \"\\xd0\\x9e\\xd0\\xbf\\xd1\\x82\\xd0\\xb8\\xd0\\xbc\\xd0\\xb8\\xd0\\xb7\\xd0\\xb0\\xd1\\x86\\xd0\\xb8\\xd1\\x8f \\xd1\\x81\\xd0\\xbc\\xd0\\xb0\\xd1\\x80\\xd1\\x82-\\xd0\\xba\\xd0\\xbe\\xd0\\xbd\\xd1\\x82\\xd1\\x80\\xd0\\xb0\\xd0\\xba\\xd1\\x82\\xd0\\xbe\\xd0\\xb2 \\xd0\\xb8 \\xd0\\xb3\\xd0\\xb0\\xd0\\xb7.sol\":1311:1312  i */\n      dup2\n        /* \"\\xd0\\x9e\\xd0\\xbf\\xd1\\x82\\xd0\\xb8\\xd0\\xbc\\xd0\\xb8\\xd0\\xb7\\xd0\\xb0\\xd1\\x86\\xd0\\xb8\\xd1\\x8f \\xd1\\x81\\xd0\\xbc\\xd0\\xb0\\xd1\\x80\\xd1\\x82-\\xd0\\xba\\xd0\\xbe\\xd0\\xbd\\xd1\\x82\\xd1\\x80\\xd0\\xb0\\xd0\\xba\\xd1\\x82\\xd0\\xbe\\xd0\\xb2 \\xd0\\xb8 \\xd0\\xb3\\xd0\\xb0\\xd0\\xb7.sol\":1311:1326  i < data.length */\n      lt\n        /* \"\\xd0\\x9e\\xd0\\xbf\\xd1\\x82\\xd0\\xb8\\xd0\\xbc\\xd0\\xb8\\xd0\\xb7\\xd0\\xb0\\xd1\\x86\\xd0\\xb8\\xd1\\x8f \\xd1\\x81\\xd0\\xbc\\xd0\\xb0\\xd1\\x80\\xd1\\x82-\\xd0\\xba\\xd0\\xbe\\xd0\\xbd\\xd1\\x82\\xd1\\x80\\xd0\\xb0\\xd0\\xba\\xd1\\x82\\xd0\\xbe\\xd0\\xb2 \\xd0\\xb8 \\xd0\\xb3\\xd0\\xb0\\xd0\\xb7.sol\":1295:1377  for(uint i = 0; i < data.length; i++) {... */\n      iszero\n      tag_15\n      jumpi\n        /* \"\\xd0\\x9e\\xd0\\xbf\\xd1\\x82\\xd0\\xb8\\xd0\\xbc\\xd0\\xb8\\xd0\\xb7\\xd0\\xb0\\xd1\\x86\\xd0\\xb8\\xd1\\x8f \\xd1\\x81\\xd0\\xbc\\xd0\\xb0\\xd1\\x80\\xd1\\x82-\\xd0\\xba\\xd0\\xbe\\xd0\\xbd\\xd1\\x82\\xd1\\x80\\xd0\\xb0\\xd0\\xba\\xd1\\x82\\xd0\\xbe\\xd0\\xb2 \\xd0\\xb8 \\xd0\\xb3\\xd0\\xb0\\xd0\\xb7.sol\":1358:1362  data */\n      dup2\n        /* \"\\xd0\\x9e\\xd0\\xbf\\xd1\\x82\\xd0\\xb8\\xd0\\xbc\\xd0\\xb8\\xd0\\xb7\\xd0\\xb0\\xd1\\x86\\xd0\\xb8\\xd1\\x8f \\xd1\\x81\\xd0\\xbc\\xd0\\xb0\\xd1\\x80\\xd1\\x82-\\xd0\\xba\\xd0\\xbe\\xd0\\xbd\\xd1\\x82\\xd1\\x80\\xd0\\xb0\\xd0\\xba\\xd1\\x82\\xd0\\xbe\\xd0\\xb2 \\xd0\\xb8 \\xd0\\xb3\\xd0\\xb0\\xd0\\xb7.sol\":1363:1364  i */\n      dup2\n        /* \"\\xd0\\x9e\\xd0\\xbf\\xd1\\x82\\xd0\\xb8\\xd0\\xbc\\xd0\\xb8\\xd0\\xb7\\xd0\\xb0\\xd1\\x86\\xd0\\xb8\\xd1\\x8f \\xd1\\x81\\xd0\\xbc\\xd0\\xb0\\xd1\\x80\\xd1\\x82-\\xd0\\xba\\xd0\\xbe\\xd0\\xbd\\xd1\\x82\\xd1\\x80\\xd0\\xb0\\xd0\\xba\\xd1\\x82\\xd0\\xbe\\xd0\\xb2 \\xd0\\xb8 \\xd0\\xb3\\xd0\\xb0\\xd0\\xb7.sol\":1358:1365  data[i] */\n      dup2\n      mload\n      dup2\n      lt\n      tag_17\n      jumpi\n      tag_18\n      tag_19\n      jump\t// in\n    tag_18:\n    tag_17:\n      0x20\n      mul\n      0x20\n      add\n      add\n      mload\n        /* \"\\xd0\\x9e\\xd0\\xbf\\xd1\\x82\\xd0\\xb8\\xd0\\xbc\\xd0\\xb8\\xd0\\xb7\\xd0\\xb0\\xd1\\x86\\xd0\\xb8\\xd1\\x8f \\xd1\\x81\\xd0\\xbc\\xd0\\xb0\\xd1\\x80\\xd1\\x82-\\xd0\\xba\\xd0\\xbe\\xd0\\xbd\\xd1\\x82\\xd1\\x80\\xd0\\xb0\\xd0\\xba\\xd1\\x82\\xd0\\xbe\\xd0\\xb2 \\xd0\\xb8 \\xd0\\xb3\\xd0\\xb0\\xd0\\xb7.sol\":1348:1354  result */\n      0x00\n      dup1\n        /* \"\\xd0\\x9e\\xd0\\xbf\\xd1\\x82\\xd0\\xb8\\xd0\\xbc\\xd0\\xb8\\xd0\\xb7\\xd0\\xb0\\xd1\\x86\\xd0\\xb8\\xd1\\x8f \\xd1\\x81\\xd0\\xbc\\xd0\\xb0\\xd1\\x80\\xd1\\x82-\\xd0\\xba\\xd0\\xbe\\xd0\\xbd\\xd1\\x82\\xd1\\x80\\xd0\\xb0\\xd0\\xba\\xd1\\x82\\xd0\\xbe\\xd0\\xb2 \\xd0\\xb8 \\xd0\\xb3\\xd0\\xb0\\xd0\\xb7.sol\":1348:1365  result *= data[i] */\n      dup3\n      dup3\n      sload\n      tag_20\n      swap2\n      swap1\n      tag_21\n      jump\t// in\n    tag_20:\n      swap3\n      pop\n      pop\n      dup2\n      swap1\n      sstore\n      pop\n        /* \"\\xd0\\x9e\\xd0\\xbf\\xd1\\x82\\xd0\\xb8\\xd0\\xbc\\xd0\\xb8\\xd0\\xb7\\xd0\\xb0\\xd1\\x86\\xd0\\xb8\\xd1\\x8f \\xd1\\x81\\xd0\\xbc\\xd0\\xb0\\xd1\\x80\\xd1\\x82-\\xd0\\xba\\xd0\\xbe\\xd0\\xbd\\xd1\\x82\\xd1\\x80\\xd0\\xb0\\xd0\\xba\\xd1\\x82\\xd0\\xbe\\xd0\\xb2 \\xd0\\xb8 \\xd0\\xb3\\xd0\\xb0\\xd0\\xb7.sol\":1328:1331  i++ */\n      dup1\n      dup1\n      0x01\n      add\n      swap2\n      pop\n      pop\n        /* \"\\xd0\\x9e\\xd0\\xbf\\xd1\\x82\\xd0\\xb8\\xd0\\xbc\\xd0\\xb8\\xd0\\xb7\\xd0\\xb0\\xd1\\x86\\xd0\\xb8\\xd1\\x8f \\xd1\\x81\\xd0\\xbc\\xd0\\xb0\\xd1\\x80\\xd1\\x82-\\xd0\\xba\\xd0\\xbe\\xd0\\xbd\\xd1\\x82\\xd1\\x80\\xd0\\xb0\\xd0\\xba\\xd1\\x82\\xd0\\xbe\\xd0\\xb2 \\xd0\\xb8 \\xd0\\xb3\\xd0\\xb0\\xd0\\xb7.sol\":1295:1377  for(uint i = 0; i < data.length; i++) {... */\n      jump(tag_14)\n    tag_15:\n      pop\n        /* \"\\xd0\\x9e\\xd0\\xbf\\xd1\\x82\\xd0\\xb8\\xd0\\xbc\\xd0\\xb8\\xd0\\xb7\\xd0\\xb0\\xd1\\x86\\xd0\\xb8\\xd1\\x8f \\xd1\\x81\\xd0\\xbc\\xd0\\xb0\\xd1\\x80\\xd1\\x82-\\xd0\\xba\\xd0\\xbe\\xd0\\xbd\\xd1\\x82\\xd1\\x80\\xd0\\xb0\\xd0\\xba\\xd1\\x82\\xd0\\xbe\\xd0\\xb2 \\xd0\\xb8 \\xd0\\xb3\\xd0\\xb0\\xd0\\xb7.sol\":1241:1384  function doWork(uint[] memory data) public {... */\n      pop\n      jump\t// out\n        /* \"\\xd0\\x9e\\xd0\\xbf\\xd1\\x82\\xd0\\xb8\\xd0\\xbc\\xd0\\xb8\\xd0\\xb7\\xd0\\xb0\\xd1\\x86\\xd0\\xb8\\xd1\\x8f \\xd1\\x81\\xd0\\xbc\\xd0\\xb0\\xd1\\x80\\xd1\\x82-\\xd0\\xba\\xd0\\xbe\\xd0\\xbd\\xd1\\x82\\xd1\\x80\\xd0\\xb0\\xd0\\xba\\xd1\\x82\\xd0\\xbe\\xd0\\xb2 \\xd0\\xb8 \\xd0\\xb3\\xd0\\xb0\\xd0\\xb7.sol\":1212:1234  uint public result = 1 */\n    tag_10:\n      sload(0x00)\n      dup2\n      jump\t// out\n        /* \"#utility.yul\":7:82   */\n    tag_22:\n        /* \"#utility.yul\":40:46   */\n      0x00\n        /* \"#utility.yul\":73:75   */\n      0x40\n        /* \"#utility.yul\":67:76   */\n      mload\n        /* \"#utility.yul\":57:76   */\n      swap1\n      pop\n        /* \"#utility.yul\":7:82   */\n      swap1\n      jump\t// out\n        /* \"#utility.yul\":88:205   */\n    tag_23:\n        /* \"#utility.yul\":197:198   */\n      0x00\n        /* \"#utility.yul\":194:195   */\n      dup1\n        /* \"#utility.yul\":187:199   */\n      revert\n        /* \"#utility.yul\":211:328   */\n    tag_24:\n        /* \"#utility.yul\":320:321   */\n      0x00\n        /* \"#utility.yul\":317:318   */\n      dup1\n        /* \"#utility.yul\":310:322   */\n      revert\n        /* \"#utility.yul\":334:451   */\n    tag_25:\n        /* \"#utility.yul\":443:444   */\n      0x00\n        /* \"#utility.yul\":440:441   */\n      dup1\n        /* \"#utility.yul\":433:445   */\n      revert\n        /* \"#utility.yul\":457:559   */\n    tag_26:\n        /* \"#utility.yul\":498:504   */\n      0x00\n        /* \"#utility.yul\":549:551   */\n      0x1f\n        /* \"#utility.yul\":545:552   */\n      not\n        /* \"#utility.yul\":540:542   */\n      0x1f\n        /* \"#utility.yul\":533:538   */\n      dup4\n        /* \"#utility.yul\":529:543   */\n      add\n        /* \"#utility.yul\":525:553   */\n      and\n        /* \"#utility.yul\":515:553   */\n      swap1\n      pop\n        /* \"#utility.yul\":457:559   */\n      swap2\n      swap1\n      pop\n      jump\t// out\n        /* \"#utility.yul\":565:745   */\n    tag_27:\n        /* \"#utility.yul\":613:690   */\n      0x4e487b7100000000000000000000000000000000000000000000000000000000\n        /* \"#utility.yul\":610:611   */\n      0x00\n        /* \"#utility.yul\":603:691   */\n      mstore\n        /* \"#utility.yul\":710:714   */\n      0x41\n        /* \"#utility.yul\":707:708   */\n      0x04\n        /* \"#utility.yul\":700:715   */\n      mstore\n        /* \"#utility.yul\":734:738   */\n      0x24\n        /* \"#utility.yul\":731:732   */\n      0x00\n        /* \"#utility.yul\":724:739   */\n      revert\n        /* \"#utility.yul\":751:1032   */\n    tag_28:\n        /* \"#utility.yul\":834:861   */\n      tag_47\n        /* \"#utility.yul\":856:860   */\n      dup3\n        /* \"#utility.yul\":834:861   */\n      tag_26\n      jump\t// in\n    tag_47:\n        /* \"#utility.yul\":826:832   */\n      dup2\n        /* \"#utility.yul\":822:862   */\n      add\n        /* \"#utility.yul\":964:970   */\n      dup2\n        /* \"#utility.yul\":952:962   */\n      dup2\n        /* \"#utility.yul\":949:971   */\n      lt\n        /* \"#utility.yul\":928:946   */\n      0xffffffffffffffff\n        /* \"#utility.yul\":916:926   */\n      dup3\n        /* \"#utility.yul\":913:947   */\n      gt\n        /* \"#utility.yul\":910:972   */\n      or\n        /* \"#utility.yul\":907:995   */\n      iszero\n      tag_48\n      jumpi\n        /* \"#utility.yul\":975:993   */\n      tag_49\n      tag_27\n      jump\t// in\n    tag_49:\n        /* \"#utility.yul\":907:995   */\n    tag_48:\n        /* \"#utility.yul\":1015:1025   */\n      dup1\n        /* \"#utility.yul\":1011:1013   */\n      0x40\n        /* \"#utility.yul\":1004:1026   */\n      mstore\n        /* \"#utility.yul\":794:1032   */\n      pop\n        /* \"#utility.yul\":751:1032   */\n      pop\n      pop\n      jump\t// out\n        /* \"#utility.yul\":1038:1167   */\n    tag_29:\n        /* \"#utility.yul\":1072:1078   */\n      0x00\n        /* \"#utility.yul\":1099:1119   */\n      tag_51\n      tag_22\n      jump\t// in\n    tag_51:\n        /* \"#utility.yul\":1089:1119   */\n      swap1\n      pop\n        /* \"#utility.yul\":1128:1161   */\n      tag_52\n        /* \"#utility.yul\":1156:1160   */\n      dup3\n        /* \"#utility.yul\":1148:1154   */\n      dup3\n        /* \"#utility.yul\":1128:1161   */\n      tag_28\n      jump\t// in\n    tag_52:\n        /* \"#utility.yul\":1038:1167   */\n      swap2\n      swap1\n      pop\n      jump\t// out\n        /* \"#utility.yul\":1173:1484   */\n    tag_30:\n        /* \"#utility.yul\":1250:1254   */\n      0x00\n        /* \"#utility.yul\":1340:1358   */\n      0xffffffffffffffff\n        /* \"#utility.yul\":1332:1338   */\n      dup3\n        /* \"#utility.yul\":1329:1359   */\n      gt\n        /* \"#utility.yul\":1326:1382   */\n      iszero\n      tag_54\n      jumpi\n        /* \"#utility.yul\":1362:1380   */\n      tag_55\n      tag_27\n      jump\t// in\n    tag_55:\n        /* \"#utility.yul\":1326:1382   */\n    tag_54:\n        /* \"#utility.yul\":1412:1416   */\n      0x20\n        /* \"#utility.yul\":1404:1410   */\n      dup3\n        /* \"#utility.yul\":1400:1417   */\n      mul\n        /* \"#utility.yul\":1392:1417   */\n      swap1\n      pop\n        /* \"#utility.yul\":1472:1476   */\n      0x20\n        /* \"#utility.yul\":1466:1470   */\n      dup2\n        /* \"#utility.yul\":1462:1477   */\n      add\n        /* \"#utility.yul\":1454:1477   */\n      swap1\n      pop\n        /* \"#utility.yul\":1173:1484   */\n      swap2\n      swap1\n      pop\n      jump\t// out\n        /* \"#utility.yul\":1490:1607   */\n    tag_31:\n        /* \"#utility.yul\":1599:1600   */\n      0x00\n        /* \"#utility.yul\":1596:1597   */\n      dup1\n        /* \"#utility.yul\":1589:1601   */\n      revert\n        /* \"#utility.yul\":1613:1690   */\n    tag_32:\n        /* \"#utility.yul\":1650:1657   */\n      0x00\n        /* \"#utility.yul\":1679:1684   */\n      dup2\n        /* \"#utility.yul\":1668:1684   */\n      swap1\n      pop\n        /* \"#utility.yul\":1613:1690   */\n      swap2\n      swap1\n      pop\n      jump\t// out\n        /* \"#utility.yul\":1696:1818   */\n    tag_33:\n        /* \"#utility.yul\":1769:1793   */\n      tag_59\n        /* \"#utility.yul\":1787:1792   */\n      dup2\n        /* \"#utility.yul\":1769:1793   */\n      tag_32\n      jump\t// in\n    tag_59:\n        /* \"#utility.yul\":1762:1767   */\n      dup2\n        /* \"#utility.yul\":1759:1794   */\n      eq\n        /* \"#utility.yul\":1749:1812   */\n      tag_60\n      jumpi\n        /* \"#utility.yul\":1808:1809   */\n      0x00\n        /* \"#utility.yul\":1805:1806   */\n      dup1\n        /* \"#utility.yul\":1798:1810   */\n      revert\n        /* \"#utility.yul\":1749:1812   */\n    tag_60:\n        /* \"#utility.yul\":1696:1818   */\n      pop\n      jump\t// out\n        /* \"#utility.yul\":1824:1963   */\n    tag_34:\n        /* \"#utility.yul\":1870:1875   */\n      0x00\n        /* \"#utility.yul\":1908:1914   */\n      dup2\n        /* \"#utility.yul\":1895:1915   */\n      calldataload\n        /* \"#utility.yul\":1886:1915   */\n      swap1\n      pop\n        /* \"#utility.yul\":1924:1957   */\n      tag_62\n        /* \"#utility.yul\":1951:1956   */\n      dup2\n        /* \"#utility.yul\":1924:1957   */\n      tag_33\n      jump\t// in\n    tag_62:\n        /* \"#utility.yul\":1824:1963   */\n      swap3\n      swap2\n      pop\n      pop\n      jump\t// out\n        /* \"#utility.yul\":1986:2696   */\n    tag_35:\n        /* \"#utility.yul\":2082:2087   */\n      0x00\n        /* \"#utility.yul\":2107:2188   */\n      tag_64\n        /* \"#utility.yul\":2123:2187   */\n      tag_65\n        /* \"#utility.yul\":2180:2186   */\n      dup5\n        /* \"#utility.yul\":2123:2187   */\n      tag_30\n      jump\t// in\n    tag_65:\n        /* \"#utility.yul\":2107:2188   */\n      tag_29\n      jump\t// in\n    tag_64:\n        /* \"#utility.yul\":2098:2188   */\n      swap1\n      pop\n        /* \"#utility.yul\":2208:2213   */\n      dup1\n        /* \"#utility.yul\":2237:2243   */\n      dup4\n        /* \"#utility.yul\":2230:2235   */\n      dup3\n        /* \"#utility.yul\":2223:2244   */\n      mstore\n        /* \"#utility.yul\":2271:2275   */\n      0x20\n        /* \"#utility.yul\":2264:2269   */\n      dup3\n        /* \"#utility.yul\":2260:2276   */\n      add\n        /* \"#utility.yul\":2253:2276   */\n      swap1\n      pop\n        /* \"#utility.yul\":2324:2328   */\n      0x20\n        /* \"#utility.yul\":2316:2322   */\n      dup5\n        /* \"#utility.yul\":2312:2329   */\n      mul\n        /* \"#utility.yul\":2304:2310   */\n      dup4\n        /* \"#utility.yul\":2300:2330   */\n      add\n        /* \"#utility.yul\":2353:2356   */\n      dup6\n        /* \"#utility.yul\":2345:2351   */\n      dup2\n        /* \"#utility.yul\":2342:2357   */\n      gt\n        /* \"#utility.yul\":2339:2461   */\n      iszero\n      tag_66\n      jumpi\n        /* \"#utility.yul\":2372:2451   */\n      tag_67\n      tag_31\n      jump\t// in\n    tag_67:\n        /* \"#utility.yul\":2339:2461   */\n    tag_66:\n        /* \"#utility.yul\":2487:2493   */\n      dup4\n        /* \"#utility.yul\":2470:2690   */\n    tag_68:\n        /* \"#utility.yul\":2504:2510   */\n      dup2\n        /* \"#utility.yul\":2499:2502   */\n      dup2\n        /* \"#utility.yul\":2496:2511   */\n      lt\n        /* \"#utility.yul\":2470:2690   */\n      iszero\n      tag_70\n      jumpi\n        /* \"#utility.yul\":2579:2582   */\n      dup1\n        /* \"#utility.yul\":2608:2645   */\n      tag_71\n        /* \"#utility.yul\":2641:2644   */\n      dup9\n        /* \"#utility.yul\":2629:2639   */\n      dup3\n        /* \"#utility.yul\":2608:2645   */\n      tag_34\n      jump\t// in\n    tag_71:\n        /* \"#utility.yul\":2603:2606   */\n      dup5\n        /* \"#utility.yul\":2596:2646   */\n      mstore\n        /* \"#utility.yul\":2675:2679   */\n      0x20\n        /* \"#utility.yul\":2670:2673   */\n      dup5\n        /* \"#utility.yul\":2666:2680   */\n      add\n        /* \"#utility.yul\":2659:2680   */\n      swap4\n      pop\n        /* \"#utility.yul\":2546:2690   */\n      pop\n        /* \"#utility.yul\":2530:2534   */\n      0x20\n        /* \"#utility.yul\":2525:2528   */\n      dup2\n        /* \"#utility.yul\":2521:2535   */\n      add\n        /* \"#utility.yul\":2514:2535   */\n      swap1\n      pop\n        /* \"#utility.yul\":2470:2690   */\n      jump(tag_68)\n    tag_70:\n        /* \"#utility.yul\":2474:2495   */\n      pop\n        /* \"#utility.yul\":2088:2696   */\n      pop\n      pop\n        /* \"#utility.yul\":1986:2696   */\n      swap4\n      swap3\n      pop\n      pop\n      pop\n      jump\t// out\n        /* \"#utility.yul\":2719:3089   */\n    tag_36:\n        /* \"#utility.yul\":2790:2795   */\n      0x00\n        /* \"#utility.yul\":2839:2842   */\n      dup3\n        /* \"#utility.yul\":2832:2836   */\n      0x1f\n        /* \"#utility.yul\":2824:2830   */\n      dup4\n        /* \"#utility.yul\":2820:2837   */\n      add\n        /* \"#utility.yul\":2816:2843   */\n      slt\n        /* \"#utility.yul\":2806:2928   */\n      tag_73\n      jumpi\n        /* \"#utility.yul\":2847:2926   */\n      tag_74\n      tag_25\n      jump\t// in\n    tag_74:\n        /* \"#utility.yul\":2806:2928   */\n    tag_73:\n        /* \"#utility.yul\":2964:2970   */\n      dup2\n        /* \"#utility.yul\":2951:2971   */\n      calldataload\n        /* \"#utility.yul\":2989:3083   */\n      tag_75\n        /* \"#utility.yul\":3079:3082   */\n      dup5\n        /* \"#utility.yul\":3071:3077   */\n      dup3\n        /* \"#utility.yul\":3064:3068   */\n      0x20\n        /* \"#utility.yul\":3056:3062   */\n      dup7\n        /* \"#utility.yul\":3052:3069   */\n      add\n        /* \"#utility.yul\":2989:3083   */\n      tag_35\n      jump\t// in\n    tag_75:\n        /* \"#utility.yul\":2980:3083   */\n      swap2\n      pop\n        /* \"#utility.yul\":2796:3089   */\n      pop\n        /* \"#utility.yul\":2719:3089   */\n      swap3\n      swap2\n      pop\n      pop\n      jump\t// out\n        /* \"#utility.yul\":3095:3634   */\n    tag_7:\n        /* \"#utility.yul\":3179:3185   */\n      0x00\n        /* \"#utility.yul\":3228:3230   */\n      0x20\n        /* \"#utility.yul\":3216:3225   */\n      dup3\n        /* \"#utility.yul\":3207:3214   */\n      dup5\n        /* \"#utility.yul\":3203:3226   */\n      sub\n        /* \"#utility.yul\":3199:3231   */\n      slt\n        /* \"#utility.yul\":3196:3315   */\n      iszero\n      tag_77\n      jumpi\n        /* \"#utility.yul\":3234:3313   */\n      tag_78\n      tag_23\n      jump\t// in\n    tag_78:\n        /* \"#utility.yul\":3196:3315   */\n    tag_77:\n        /* \"#utility.yul\":3382:3383   */\n      0x00\n        /* \"#utility.yul\":3371:3380   */\n      dup3\n        /* \"#utility.yul\":3367:3384   */\n      add\n        /* \"#utility.yul\":3354:3385   */\n      calldataload\n        /* \"#utility.yul\":3412:3430   */\n      0xffffffffffffffff\n        /* \"#utility.yul\":3404:3410   */\n      dup2\n        /* \"#utility.yul\":3401:3431   */\n      gt\n        /* \"#utility.yul\":3398:3515   */\n      iszero\n      tag_79\n      jumpi\n        /* \"#utility.yul\":3434:3513   */\n      tag_80\n      tag_24\n      jump\t// in\n    tag_80:\n        /* \"#utility.yul\":3398:3515   */\n    tag_79:\n        /* \"#utility.yul\":3539:3617   */\n      tag_81\n        /* \"#utility.yul\":3609:3616   */\n      dup5\n        /* \"#utility.yul\":3600:3606   */\n      dup3\n        /* \"#utility.yul\":3589:3598   */\n      dup6\n        /* \"#utility.yul\":3585:3607   */\n      add\n        /* \"#utility.yul\":3539:3617   */\n      tag_36\n      jump\t// in\n    tag_81:\n        /* \"#utility.yul\":3529:3617   */\n      swap2\n      pop\n        /* \"#utility.yul\":3325:3627   */\n      pop\n        /* \"#utility.yul\":3095:3634   */\n      swap3\n      swap2\n      pop\n      pop\n      jump\t// out\n        /* \"#utility.yul\":3640:3758   */\n    tag_37:\n        /* \"#utility.yul\":3727:3751   */\n      tag_83\n        /* \"#utility.yul\":3745:3750   */\n      dup2\n        /* \"#utility.yul\":3727:3751   */\n      tag_32\n      jump\t// in\n    tag_83:\n        /* \"#utility.yul\":3722:3725   */\n      dup3\n        /* \"#utility.yul\":3715:3752   */\n      mstore\n        /* \"#utility.yul\":3640:3758   */\n      pop\n      pop\n      jump\t// out\n        /* \"#utility.yul\":3764:3986   */\n    tag_12:\n        /* \"#utility.yul\":3857:3861   */\n      0x00\n        /* \"#utility.yul\":3895:3897   */\n      0x20\n        /* \"#utility.yul\":3884:3893   */\n      dup3\n        /* \"#utility.yul\":3880:3898   */\n      add\n        /* \"#utility.yul\":3872:3898   */\n      swap1\n      pop\n        /* \"#utility.yul\":3908:3979   */\n      tag_85\n        /* \"#utility.yul\":3976:3977   */\n      0x00\n        /* \"#utility.yul\":3965:3974   */\n      dup4\n        /* \"#utility.yul\":3961:3978   */\n      add\n        /* \"#utility.yul\":3952:3958   */\n      dup5\n        /* \"#utility.yul\":3908:3979   */\n      tag_37\n      jump\t// in\n    tag_85:\n        /* \"#utility.yul\":3764:3986   */\n      swap3\n      swap2\n      pop\n      pop\n      jump\t// out\n        /* \"#utility.yul\":3992:4172   */\n    tag_19:\n        /* \"#utility.yul\":4040:4117   */\n      0x4e487b7100000000000000000000000000000000000000000000000000000000\n        /* \"#utility.yul\":4037:4038   */\n      0x00\n        /* \"#utility.yul\":4030:4118   */\n      mstore\n        /* \"#utility.yul\":4137:4141   */\n      0x32\n        /* \"#utility.yul\":4134:4135   */\n      0x04\n        /* \"#utility.yul\":4127:4142   */\n      mstore\n        /* \"#utility.yul\":4161:4165   */\n      0x24\n        /* \"#utility.yul\":4158:4159   */\n      0x00\n        /* \"#utility.yul\":4151:4166   */\n      revert\n        /* \"#utility.yul\":4178:4358   */\n    tag_38:\n        /* \"#utility.yul\":4226:4303   */\n      0x4e487b7100000000000000000000000000000000000000000000000000000000\n        /* \"#utility.yul\":4223:4224   */\n      0x00\n        /* \"#utility.yul\":4216:4304   */\n      mstore\n        /* \"#utility.yul\":4323:4327   */\n      0x11\n        /* \"#utility.yul\":4320:4321   */\n      0x04\n        /* \"#utility.yul\":4313:4328   */\n      mstore\n        /* \"#utility.yul\":4347:4351   */\n      0x24\n        /* \"#utility.yul\":4344:4345   */\n      0x00\n        /* \"#utility.yul\":4337:4352   */\n      revert\n        /* \"#utility.yul\":4364:4774   */\n    tag_21:\n        /* \"#utility.yul\":4404:4411   */\n      0x00\n        /* \"#utility.yul\":4427:4447   */\n      tag_89\n        /* \"#utility.yul\":4445:4446   */\n      dup3\n        /* \"#utility.yul\":4427:4447   */\n      tag_32\n      jump\t// in\n    tag_89:\n        /* \"#utility.yul\":4422:4447   */\n      swap2\n      pop\n        /* \"#utility.yul\":4461:4481   */\n      tag_90\n        /* \"#utility.yul\":4479:4480   */\n      dup4\n        /* \"#utility.yul\":4461:4481   */\n      tag_32\n      jump\t// in\n    tag_90:\n        /* \"#utility.yul\":4456:4481   */\n      swap3\n      pop\n        /* \"#utility.yul\":4516:4517   */\n      dup3\n        /* \"#utility.yul\":4513:4514   */\n      dup3\n        /* \"#utility.yul\":4509:4518   */\n      mul\n        /* \"#utility.yul\":4538:4568   */\n      tag_91\n        /* \"#utility.yul\":4556:4567   */\n      dup2\n        /* \"#utility.yul\":4538:4568   */\n      tag_32\n      jump\t// in\n    tag_91:\n        /* \"#utility.yul\":4527:4568   */\n      swap2\n      pop\n        /* \"#utility.yul\":4717:4718   */\n      dup3\n        /* \"#utility.yul\":4708:4715   */\n      dup3\n        /* \"#utility.yul\":4704:4719   */\n      div\n        /* \"#utility.yul\":4701:4702   */\n      dup5\n        /* \"#utility.yul\":4698:4720   */\n      eq\n        /* \"#utility.yul\":4678:4679   */\n      dup4\n        /* \"#utility.yul\":4671:4680   */\n      iszero\n        /* \"#utility.yul\":4651:4734   */\n      or\n        /* \"#utility.yul\":4628:4767   */\n      tag_92\n      jumpi\n        /* \"#utility.yul\":4747:4765   */\n      tag_93\n      tag_38\n      jump\t// in\n    tag_93:\n        /* \"#utility.yul\":4628:4767   */\n    tag_92:\n        /* \"#utility.yul\":4412:4774   */\n      pop\n        /* \"#utility.yul\":4364:4774   */\n      swap3\n      swap2\n      pop\n      pop\n      jump\t// out\n\n    auxdata: 0xa2646970667358221220b214b4a640fc980c38027d255fa9aeb6278eb7f960b0de518b4077d39caeeefe64736f6c634300081a0033\n}\n",
				"bytecode": {
					"linkReferences": {},
					"object": "608060405260015f553480156012575f80fd5b50610398806100205f395ff3fe608060405234801561000f575f80fd5b5060043610610034575f3560e01c80635186701d146100385780636537214714610054575b5f80fd5b610052600480360381019061004d9190610258565b610072565b005b61005c6100bf565b60405161006991906102ae565b60405180910390f35b5f5b81518110156100bb578181815181106100905761008f6102c7565b5b60200260200101515f808282546100a79190610321565b925050819055508080600101915050610074565b5050565b5f5481565b5f604051905090565b5f80fd5b5f80fd5b5f80fd5b5f601f19601f8301169050919050565b7f4e487b71000000000000000000000000000000000000000000000000000000005f52604160045260245ffd5b61011f826100d9565b810181811067ffffffffffffffff8211171561013e5761013d6100e9565b5b80604052505050565b5f6101506100c4565b905061015c8282610116565b919050565b5f67ffffffffffffffff82111561017b5761017a6100e9565b5b602082029050602081019050919050565b5f80fd5b5f819050919050565b6101a281610190565b81146101ac575f80fd5b50565b5f813590506101bd81610199565b92915050565b5f6101d56101d084610161565b610147565b905080838252602082019050602084028301858111156101f8576101f761018c565b5b835b81811015610221578061020d88826101af565b8452602084019350506020810190506101fa565b5050509392505050565b5f82601f83011261023f5761023e6100d5565b5b813561024f8482602086016101c3565b91505092915050565b5f6020828403121561026d5761026c6100cd565b5b5f82013567ffffffffffffffff81111561028a576102896100d1565b5b6102968482850161022b565b91505092915050565b6102a881610190565b82525050565b5f6020820190506102c15f83018461029f565b92915050565b7f4e487b71000000000000000000000000000000000000000000000000000000005f52603260045260245ffd5b7f4e487b71000000000000000000000000000000000000000000000000000000005f52601160045260245ffd5b5f61032b82610190565b915061033683610190565b925082820261034481610190565b9150828204841483151761035b5761035a6102f4565b5b509291505056fea2646970667358221220b214b4a640fc980c38027d255fa9aeb6278eb7f960b0de518b4077d39caeeefe64736f6c634300081a0033",
					"opcodes": "PUSH1 0x80 PUSH1 0x40 MSTORE PUSH1 0x1 PUSH0 SSTORE CALLVALUE DUP1 ISZERO PUSH1 0x12 JUMPI PUSH0 DUP1 REVERT JUMPDEST POP PUSH2 0x398 DUP1 PUSH2 0x20 PUSH0 CODECOPY PUSH0 RETURN INVALID PUSH1 0x80 PUSH1 0x40 MSTORE CALLVALUE DUP1 ISZERO PUSH2 0xF JUMPI PUSH0 DUP1 REVERT JUMPDEST POP PUSH1 0x4 CALLDATASIZE LT PUSH2 0x34 JUMPI PUSH0 CALLDATALOAD PUSH1 0xE0 SHR DUP1 PUSH4 0x5186701D EQ PUSH2 0x38 JUMPI DUP1 PUSH4 0x65372147 EQ PUSH2 0x54 JUMPI JUMPDEST PUSH0 DUP1 REVERT JUMPDEST PUSH2 0x52 PUSH1 0x4 DUP1 CALLDATASIZE SUB DUP2 ADD SWAP1 PUSH2 0x4D SWAP2 SWAP1 PUSH2 0x258 JUMP JUMPDEST PUSH2 0x72 JUMP JUMPDEST STOP JUMPDEST PUSH2 0x5C PUSH2 0xBF JUMP JUMPDEST PUSH1 0x40 MLOAD PUSH2 0x69 SWAP2 SWAP1 PUSH2 0x2AE JUMP JUMPDEST PUSH1 0x40 MLOAD DUP1 SWAP2 SUB SWAP1 RETURN JUMPDEST PUSH0 JUMPDEST DUP2 MLOAD DUP2 LT ISZERO PUSH2 0xBB JUMPI DUP2 DUP2 DUP2 MLOAD DUP2 LT PUSH2 0x90 JUMPI PUSH2 0x8F PUSH2 0x2C7 JUMP JUMPDEST JUMPDEST PUSH1 0x20 MUL PUSH1 0x20 ADD ADD MLOAD PUSH0 DUP1 DUP3 DUP3 SLOAD PUSH2 0xA7 SWAP2 SWAP1 PUSH2 0x321 JUMP JUMPDEST SWAP3 POP POP DUP2 SWAP1 SSTORE POP DUP1 DUP1 PUSH1 0x1 ADD SWAP2 POP POP PUSH2 0x74 JUMP JUMPDEST POP POP JUMP JUMPDEST PUSH0 SLOAD DUP2 JUMP JUMPDEST PUSH0 PUSH1 0x40 MLOAD SWAP1 POP SWAP1 JUMP JUMPDEST PUSH0 DUP1 REVERT JUMPDEST PUSH0 DUP1 REVERT JUMPDEST PUSH0 DUP1 REVERT JUMPDEST PUSH0 PUSH1 0x1F NOT PUSH1 0x1F DUP4 ADD AND SWAP1 POP SWAP2 SWAP1 POP JUMP JUMPDEST PUSH32 0x4E487B7100000000000000000000000000000000000000000000000000000000 PUSH0 MSTORE PUSH1 0x41 PUSH1 0x4 MSTORE PUSH1 0x24 PUSH0 REVERT JUMPDEST PUSH2 0x11F DUP3 PUSH2 0xD9 JUMP JUMPDEST DUP2 ADD DUP2 DUP2 LT PUSH8 0xFFFFFFFFFFFFFFFF DUP3 GT OR ISZERO PUSH2 0x13E JUMPI PUSH2 0x13D PUSH2 0xE9 JUMP JUMPDEST JUMPDEST DUP1 PUSH1 0x40 MSTORE POP POP POP JUMP JUMPDEST PUSH0 PUSH2 0x150 PUSH2 0xC4 JUMP JUMPDEST SWAP1 POP PUSH2 0x15C DUP3 DUP3 PUSH2 0x116 JUMP JUMPDEST SWAP2 SWAP1 POP JUMP JUMPDEST PUSH0 PUSH8 0xFFFFFFFFFFFFFFFF DUP3 GT ISZERO PUSH2 0x17B JUMPI PUSH2 0x17A PUSH2 0xE9 JUMP JUMPDEST JUMPDEST PUSH1 0x20 DUP3 MUL SWAP1 POP PUSH1 0x20 DUP2 ADD SWAP1 POP SWAP2 SWAP1 POP JUMP JUMPDEST PUSH0 DUP1 REVERT JUMPDEST PUSH0 DUP2 SWAP1 POP SWAP2 SWAP1 POP JUMP JUMPDEST PUSH2 0x1A2 DUP2 PUSH2 0x190 JUMP JUMPDEST DUP2 EQ PUSH2 0x1AC JUMPI PUSH0 DUP1 REVERT JUMPDEST POP JUMP JUMPDEST PUSH0 DUP2 CALLDATALOAD SWAP1 POP PUSH2 0x1BD DUP2 PUSH2 0x199 JUMP JUMPDEST SWAP3 SWAP2 POP POP JUMP JUMPDEST PUSH0 PUSH2 0x1D5 PUSH2 0x1D0 DUP5 PUSH2 0x161 JUMP JUMPDEST PUSH2 0x147 JUMP JUMPDEST SWAP1 POP DUP1 DUP4 DUP3 MSTORE PUSH1 0x20 DUP3 ADD SWAP1 POP PUSH1 0x20 DUP5 MUL DUP4 ADD DUP6 DUP2 GT ISZERO PUSH2 0x1F8 JUMPI PUSH2 0x1F7 PUSH2 0x18C JUMP JUMPDEST JUMPDEST DUP4 JUMPDEST DUP2 DUP2 LT ISZERO PUSH2 0x221 JUMPI DUP1 PUSH2 0x20D DUP9 DUP3 PUSH2 0x1AF JUMP JUMPDEST DUP5 MSTORE PUSH1 0x20 DUP5 ADD SWAP4 POP POP PUSH1 0x20 DUP2 ADD SWAP1 POP PUSH2 0x1FA JUMP JUMPDEST POP POP POP SWAP4 SWAP3 POP POP POP JUMP JUMPDEST PUSH0 DUP3 PUSH1 0x1F DUP4 ADD SLT PUSH2 0x23F JUMPI PUSH2 0x23E PUSH2 0xD5 JUMP JUMPDEST JUMPDEST DUP2 CALLDATALOAD PUSH2 0x24F DUP5 DUP3 PUSH1 0x20 DUP7 ADD PUSH2 0x1C3 JUMP JUMPDEST SWAP2 POP POP SWAP3 SWAP2 POP POP JUMP JUMPDEST PUSH0 PUSH1 0x20 DUP3 DUP5 SUB SLT ISZERO PUSH2 0x26D JUMPI PUSH2 0x26C PUSH2 0xCD JUMP JUMPDEST JUMPDEST PUSH0 DUP3 ADD CALLDATALOAD PUSH8 0xFFFFFFFFFFFFFFFF DUP2 GT ISZERO PUSH2 0x28A JUMPI PUSH2 0x289 PUSH2 0xD1 JUMP JUMPDEST JUMPDEST PUSH2 0x296 DUP5 DUP3 DUP6 ADD PUSH2 0x22B JUMP JUMPDEST SWAP2 POP POP SWAP3 SWAP2 POP POP JUMP JUMPDEST PUSH2 0x2A8 DUP2 PUSH2 0x190 JUMP JUMPDEST DUP3 MSTORE POP POP JUMP JUMPDEST PUSH0 PUSH1 0x20 DUP3 ADD SWAP1 POP PUSH2 0x2C1 PUSH0 DUP4 ADD DUP5 PUSH2 0x29F JUMP JUMPDEST SWAP3 SWAP2 POP POP JUMP JUMPDEST PUSH32 0x4E487B7100000000000000000000000000000000000000000000000000000000 PUSH0 MSTORE PUSH1 0x32 PUSH1 0x4 MSTORE PUSH1 0x24 PUSH0 REVERT JUMPDEST PUSH32 0x4E487B7100000000000000000000000000000000000000000000000000000000 PUSH0 MSTORE PUSH1 0x11 PUSH1 0x4 MSTORE PUSH1 0x24 PUSH0 REVERT JUMPDEST PUSH0 PUSH2 0x32B DUP3 PUSH2 0x190 JUMP JUMPDEST SWAP2 POP PUSH2 0x336 DUP4 PUSH2 0x190 JUMP JUMPDEST SWAP3 POP DUP3 DUP3 MUL PUSH2 0x344 DUP2 PUSH2 0x190 JUMP JUMPDEST SWAP2 POP DUP3 DUP3 DIV DUP5 EQ DUP4 ISZERO OR PUSH2 0x35B JUMPI PUSH2 0x35A PUSH2 0x2F4 JUMP JUMPDEST JUMPDEST POP SWAP3 SWAP2 POP POP JUMP INVALID LOG2 PUSH5 0x6970667358 0x22 SLT KECCAK256 0xB2 EQ 0xB4 0xA6 BLOCKHASH 0xFC SWAP9 0xC CODESIZE MUL PUSH30 0x255FA9AEB6278EB7F960B0DE518B4077D39CAEEEFE64736F6C634300081A STOP CALLER "
				},
				"gasEstimates": {
					"creation": {
						"codeDepositCost": "184000",
						"executionCost": "22329",
						"totalCost": "206329"
					},
					"external": {
						"doWork(uint256[])": "infinite",
						"result()": "2424"
					}
				},
				"methodIdentifiers": {
					"doWork(uint256[])": "5186701d",
					"result()": "65372147"
				}
			},
			"storageLayout": {
				"storage": [
					{
						"astId": 42,
						"contract": "Оптимизация смарт-контрактов и газ.sol:Un",
						"label": "result",
						"offset": 0,
						"slot": "0",
						"type": "t_uint256"
					}
				],
				"types": {
					"t_uint256": {
						"encoding": "inplace",
						"label": "uint256",
						"numberOfBytes": "32"
					}
				}
			},
			"userdoc": {
				"kind": "user",
				"methods": {},
				"version": 1
			}
		}
	}
}